S01E000073616D6735355F61633035377463315F5F345F315F352E7372656317
S214400000380A002079014000750140007501400023
S2144000107501400075014000750140000000000079
S21440002000000000000000000000000075014000D5
S2144000307501400000000000750140007501400059
S2144000407501400075014000750140007501400093
S2144000507501400075014000750140007501400083
S2144000607501400075014000000000007501400029
S2144000707501400075014000750140007501400063
S2144000807501400075014000750140007501400053
S2144000907501400075014000750140007501400043
S2144000A07501400075014000750140007501400033
S2144000B0750140007501400000000000000000008F
S2144000C000000000000000000000000000000000EB
S2144000D000000000000000000000000000000000DB
S2144000E000000000000000000000000000000000CB
S2144000F00000000000000000000000007501400005
S214400100750140007501400010B5054C237833B9A1
S214400110044B13B10448AFF300800123237010BD95
S2144001207803002000000000E08942000C4B43B1F9
S2144001300C480D4910B5AFF300800C48036823B94E
S21440014010BD0A48036833B97047094B002BF7D0F7
S214400150BDE810401847064B002BF5D0184700BFA7
S21440016000000000E08942007C030020E089420055
S21440017000000000FEE7000008B5174B174A9A42F9
S21440018010D0174B144A9A420CD2013B9B1A23F0CC
S214400190030304331344114951F8040B42F8040B8B
S2144001A09A42F9D10F4B104A9A420AD2013B9B1A07
S2144001B023F0030304331344002142F8041B934204
S2144001C0FBD10A4A0A4B23F07F039360094B9847BA
S2144001D0094B9847FEE700BF00000020E089420038
S2144001E078030020340400207803002000ED00E06F
S2144001F000004000D12C4000652C400008B5024865
S214400200024B984708BD00BF10E000E019034000CD
S21440021008B5354B9847354B9B6913F4006F03D1AF
S2144002204FF40062314B1A61304B9B6913F4805F88
S21440023003D14FF480522D4B1A612D4A536843F434
S214400240004353602B4B01225A61C3F890205A66F4
S2144002501A604FF400725A61C3F890205A661A60CA
S2144002604FF480611963196119604FF400625A6354
S2144002701A611A604FF480505863186118604FF442
S21440028000505863186118604FF4804058631861F6
S21440029018604FF400305863186118604FF400003F
S2144002A05863186118604FF080705861C3F890002A
S2144002B0586618604FF000705863186118604FF029
S2144002C080605863186118604FF0005018631861DA
S2144002D0186003F500735963196119605A631A610F
S2144002E01A60054B984708BD7D03400000040E4049
S2144002F050140E40000E0E40FD014000EFF31083F8
S214400300036072B6BFF35F8F7047BFF35F8F0368BB
S21440031083F310887047000008B5024B1860024B04
S214400320984708BD940300204104400010B5044B94
S2144003301C68044B984701462046034B984710BD1F
S2144003409403002071034000550440000346064ACB
S214400350126822B1044A1068034413607047034988
S214400360014A1160F6E700BF98030020380A0020D3
S21440037045F6C05303FB00F07047000000B583B05D
S21440038001A80D4B98470D4AD2F8883043F47003C5
S214400390C2F88830BFF34F8FBFF36F8F01A8084B6A
S2144003A09847084A136823F470631360064B9847CF
S2144003B003B05DF804FB00BFFD02400000ED00E026
S2144003C00B034000000A0E40CD0340001B4A136A50
S2144003D043F45C1343F008031362936E13F4003F38
S2144003E0FBD0164A136A23F0700343F45C1343F0C1
S2144003F020031362936E13F4003FFBD00F4A136A38
S21440040023F0807343F45C131362136B23F00303EF
S21440041043F001031363936E13F0080FFBD0074AB3
S214400420136B23F070031363936E13F0080FFBD027
S214400430024B00229A6380221A60704700040E40E6
S214400440034B6FF07F425A6005221A60704700BF28
S21440045010E000E00B0E03B330B45D1EEDB228464C
S214400460124A6FF07F4454609460136813F4803FE0
S214400470FBD00138C0B2FF28F5D1A5EB056501F1E8
S2144004807F4101312944094B596099601A461368E7
S21440049013F4803FFBD030BC7047044B59609960E2
S2144004A01A46136813F4803FFBD0704710E000E014
S2144004B008B5024B1B681B68984708BDAC03002074
S2144004C008B5024B1B685B6A984708BD2C040020A1
S2144004D008B5024B1B68DB6A984708BD2C04002011
S2144004E008B5024B1B681B6B984708BD2C040020C0
S2144004F030B585B0084C24689DF82C5003959DF87F
S21440050028500295BDF824500195BDF8205000951E
S214400510646BA04705B030BD2C0400202DE9F04F99
S21440052087B0BDF84090BDF8441005919DF84870DE
S2144005309DF84C80474545D0002A43D01946049341
S21440054013460291421801924B449BB20393DFF844
S2144005507CA02AE0B8F1040F04D03119424689B293
S2144005604846D0470134082C0DD015F8013C2341AD
S21440057013F0010FEED0042FF4D031193A4689B269
S2144005804846D047EEE70836B6B2013D5D4501D055
S2144005900024EAE709F101091FFA89F9019B029A4A
S2144005A013440193039B99450CD0049B002BF1D038
S2144005B0C3F1000B6FEA0B4B6FEA1B4B019DAB443C
S2144005C0059EE5E707B0BDE8F08F00BFD1044000C8
S2144005D010B584B09DF8244003949DF820400294C2
S2144005E0BDF81C400194BDF818400094014CA0474B
S2144005F004B010BD1D0540002DE9F04F87B0BDF892
S2144006004090BDF8441005919DF848709DF84C8088
S214400610474545D0002A43D01946049313460291D5
S214400620421801924B449BB20393DFF87CA02AE029
S214400630B8F1040F04D03119424689B24846D04733
S2144006400134082C0DD015F8013C234113F0010F5E
S214400650EED0042FF4D031193A4689B24846D047F6
S214400660EEE70836B6B2013D5D4501D00024EAE724
S21440067009F101091FFA89F9019B029A1344019373
S214400680039B99450CD0049B002BF1D0C3F1000B83
S2144006906FEA0B4B6FEA1B4B019DAB44059EE5E7AB
S2144006A007B0BDE8F08F00BFD10440002DE9F04F01
S2144006B087B0BDF8401005919DF848709DF84C8075
S2144006C0474549D00392002A46D00293019003F54D
S2144006D0FF531F33BDF8442002EBC3039BB2049381
S2144006E000230093DFF878A028E0B8F1040F04D088
S2144006F03119424689B24846D0470134082C0CD0BE
S2144007002B78234113F0010FEFD0042FF5D0311989
S2144007103A4689B24846D047EFE7083EB6B201357A
S2144007205D4501D00024EBE7009B01330093019A1E
S21440073002990A440192039A93420DD0029B002BE1
S214400740F2D0019D05EB030B049E059B009A03EB3C
S21440075002091FFA89F9E5E707B0BDE8F08F00BF48
S214400760D10440002DE9F04F87B0BDF84010059108
S2144007709DF848709DF84C80474549D00392002A22
S21440078046D00293019003F5FF531F33BDF8442033
S21440079002EBC3039BB2049300230093DFF878A0D8
S2144007A028E0B8F1040F04D03119424689B24846D1
S2144007B0D0470134082C0CD02B78234113F0010F7E
S2144007C0EFD0042FF5D031193A4689B24846D04783
S2144007D0EFE7083EB6B201355D4501D00024EBE7B1
S2144007E0009B01330093019A02990A440192039AAE
S2144007F093420DD0029B002BF2D0019D05EB030BDC
S214400800049E059B009A03EB02091FFA89F9E5E767
S21440081007B0BDE8F08F00BFD10440002DE9F04F8F
S21440082089B0BDF848100691BDF84C1007919DF868
S21440083050809DF85490C84543D0002A41D0059337
S2144008400492029000230393DFF87CA02AE0B9F1DB
S214400850040F04D031194A4689B20198D047013472
S214400860082C0DD02B78234113F0010FEFD0B8F1B0
S214400870040FF4D03119424689B20198D047EEE7CA
S214400880013FBFB20836B6B22FB107EB0B05029B4D
S2144008901D440024E6E7039B01339BB20393049A6E
S2144008A09A420ED9059A1346571EBFB2002FF2D071
S2144008B0039903FB01FB079E069B0B449BB20193E7
S2144008C0E3E709B0BDE8F08FD10440007047000070
S2144008D0F0B4224B4FF080621A614FF400321A6136
S2144008E04FF400621A614FF400521A614FF480527E
S2144008F01A614FF480421A6108BB184B4FF080676C
S2144009005F634FF400361E634FF400651D634FF47B
S21440091000541C634FF4805058634FF48041596331
S2144009204FF000725A61C3F890205A661F601E60EE
S2144009301D601C60186019601A60F0BC704703F5B3
S21440094000734FF480625A61C3F890205A661A606A
S2144009504FF400621A611A631A60CEE7000E0E402A
S21440096030B40D4619B94FF400620E4B5A63082353
S2144009700C4A4FF480544FF4804110F0800F14BF5F
S2144009801463546311634000C0B25163013B13F0DB
S214400990FF03F2D11DB94FF40062024B1A6330BC1C
S2144009A0704700BF000E0E40F8B50C4615460B4E7D
S2144009B04FF4003777634FF4006373630021084BAE
S2144009C09847376345B125440027054E394614F805
S2144009D0010BB047A542F9D1F8BD00BF000E0E404E
S2144009E06109400010B50022114604200A4CA04779
S2144009F0002211461220A047084AD36B13F0007F0E
S214400A00FBD0002211460220034B9847034AD36B83
S214400A1013F0007FFBD010BDA9094000000E0E4029
S214400A2038B50546002211460420234CA047234BE8
S214400A301B684FF4945219691020A04700221146B3
S214400A401120A0471E4AD36B13F0007FFBD01B4BF0
S214400A501B684FF4945259691320174CA047002244
S214400A6011461120A047164AD36B13F0007FFBD0E7
S214400A70BDB90022114602200F4B9847104AD36B4F
S214400A8013F0007FFBD00F4B9B784BB90B480268A6
S214400A905169C95C1269D1540133B3F5945FF6D1FC
S214400AA038BD002211461220034B9847044AD36BA8
S214400AB013F0007FFBD0DCE7A90940002C0400209F
S214400AC0000E0E400804002010B5002211460420F7
S214400AD00A4CA047002211461220A047084AD36B72
S214400AE013F0007FFBD0002211460220034B9847AC
S214400AF0034AD36B13F0007FFBD010BDA90940001A
S214400B00000E0E4038B505460022114604201D4C06
S214400B10A0471D4B1B6841F2F85219691020A047A8
S214400B20002211461120A047184AD36B13F0007FCD
S214400B30FBD0154B1B6841F2F85259691320114CF3
S214400B40A047002211461120A047104AD36B13F04D
S214400B50007FFBD055B9002211460220094B98472A
S214400B600A4AD36B13F0007FFBD038BD00221146F3
S214400B701220044B9847054AD36B13F0007FFBD0F6
S214400B80E9E700BFA90940002C040020000E0E40F3
S214400B9000B583B0144B5B78DBB2012B19D0F7233A
S214400BA08DF80430012201A92220104B9847104AA4
S214400BB0D36B13F0007FFBD10022114620200B4B55
S214400BC098470B4AD36B13F0007FFBD103B05DF818
S214400BD004FB054B9B781BB9C7238DF80430E1E72F
S214400BE0FF238DF80430DDE7C8030020A909400044
S214400BF0000E0E4010B50022114604200A4CA047B5
S214400C00002211461220A047084AD36B13F0007FFB
S214400C10FBD0002211460220034B9847034AD36B71
S214400C2013F0007FFBD010BDA9094000000E0E4017
S214400C3038B50546134B1B68134A19691020134CE8
S214400C40A047002211460420A047114AD36B13F058
S214400C50007FFBD055B90022114602200B4B984727
S214400C600B4AD36B13F0007FFBD038BD00221146F1
S214400C701220064B9847064AD36B13F0007FFBD0F2
S214400C80E9E700BF2C040020000D0200A90940003F
S214400C90000E0E4010B50022114604200A4CA04714
S214400CA0002211461220A047084AD36B13F0007F5B
S214400CB0FBD0002211460220034B9847034AD36BD1
S214400CC013F0007FFBD010BDA9094000000E0E4077
S214400CD038B50546002211460420144CA047144B54
S214400CE01B68144A19691020A0470022114611209B
S214400CF0A047114AD36B13F0007FFBD055B90022B2
S214400D0011460220094B98470B4AD36B13F0007FDD
S214400D10FBD038BD002211461220044B9847064AA5
S214400D20D36B13F0007FFBD0E9E700BFA909400072
S214400D302C040020000D0200000E0E4070B584B05A
S214400D40002211460420174B9847174AD36B13F0DE
S214400D50007FFBD018238DF8043000248DF8054022
S214400D608DF806408DF807408DF8084002268DF82D
S214400D70096058238DF80A3001238DF80B30E023A4
S214400D808DF80C30092201A91220064DA8472246AC
S214400D9021463046A847044AD36B13F0007FFBD069
S214400DA004B070BDA9094000000E0E402DE9F04188
S214400DB082B0804602AC7D2304F8043D01222146E1
S214400DC02C202A4DA84718278DF8047000268DF849
S214400DD00560022221464420A8478DF8047001226F
S214400DE021464E20A847C7238DF804308DF805606D
S214400DF0022221464F20A8471D4B1B6841F28832ED
S214400E0019692420A8471B4AD36B13F0007FFBD1F7
S214400E10B8F1000F02D102B0BDE8F081164B5B7806
S214400E20DBB2012B17D0F7238DF80030012269463C
S214400E3022200E4B98470F4AD36B13F0007FFBD10E
S214400E40002211462020094B98470A4AD36B13F0DC
S214400E50007FFBD1DFE7084B9B781BB9C7238DF893
S214400E600030E3E7FF238DF80030DFE7A9094000B4
S214400E702C040020000E0E40C803002070B586B03B
S214400E80054600238DF810308DF811308DF812305D
S214400E908DF8133002238DF8143058238DF8153012
S214400EA001238DF81630E0238DF81730082204A968
S214400EB08320294CA047294B1B68294A19691020D2
S214400EC0A047284B1B78DBB2012B0FD0254B1B7855
S214400ED0DBB2022B0AD002238DF81030012204A97F
S214400EE0E0201D4B98472DB906B070BD03238DF802
S214400EF01030F3E7002211460420174B98471A4A51
S214400F00D36B13F0007FFBD018238DF804300024F9
S214400F108DF805408DF806408DF807408DF808405E
S214400F2002268DF8096058238DF80A3001238DF883
S214400F300B30E0238DF80C30092201A91220064D13
S214400F40A847224621463046A847074AD36B13F0A7
S214400F50007FFBD0C8E700BFA90940002C04002052
S214400F6080320200C0030020000E0E4032B901233A
S214400F708B40017821EA03010170704701238B40C2
S214400F8001781943017070472DE9F0412B4B1C89BD
S214400F90DD88DB889BB283424AD9A4B2ADB2274BE8
S214400FA01B899BB28B4243D9244BDB78DBB2012BA7
S214400FB01CD0224BDB78DBB2032B17D0C4F3C7041C
S214400FC000FB04446FEAE100044401F007051B4BB4
S214400FD09B78A3B91A4B1B685869003218BF012288
S214400FE029462044174B9847BDE8F081C5F3C7050E
S214400FF0C40801FB0544C14301F00705E7E73AB1E1
S214401000023AD2B2012A15D84FF00008424602E012
S2144010104FF0010800220A4F3B68186929462044D1
S214401020084EB0473B685869424629462044B04778
S214401030BDE8F0814FF001084246ECE70804002086
S2144010402C0400206D0F400008B5014B984708BDA2
S214401050890F4000F8B5003218BF0122234C24788F
S214401060E4B2032C0CD8DFE804F002101C261F4C18
S214401070E388591A8BB2E688B6B2A788BFB205464F
S214401080B34201D2BD421ED3F8BD184CA388181AED
S21440109083B2E588691A8DB2A688B6B2E788BFB231
S2144010A0EEE7124CA588281A85B2E688B6B2A7881D
S2144010B0BFB20B46E4E70D4B9E88B6B2DF88BFB2A0
S2144010C00D460346DCE70A490968013303EB830310
S2144010D003EB8303A3EBE503013B086905F0070137
S2144010E010FA83F0034B9847CEE700BFC8030020B2
S2144010F02C0400206D0F4000354B9B889BB28342EA
S21440110065D9334BDB889BB28B4260D970B5304B88
S2144011105B78DBB2012B11D02D4B5B78DBB2032B17
S2144011200CD04FF4967404FB01F101EB500400F030
S214401130010050B35AB1012A18D070BD4FF49674CE
S21440114004FB00F000EB510401F00100F1E7214EF2
S214401150336818690022012120441F4DA847336890
S2144011601869002211462044A84770BD194E3368BE
S2144011701869012211462044174DA847336818695C
S214401180012200212044A84770BD12B1012A0FD089
S21440119070BD104E336818690022052120440E4D5C
S2144011A0A84733681869002204212044A84770BD28
S2144011B0084E33681869012205212044064DA84789
S2144011C033681869012204212044A84770BD70473F
S2144011D0180400202C0400206D0F4000354B9B88DF
S2144011E09BB2834265D9334BDB889BB28B4260D936
S2144011F070B5304B5B78DBB2012B11D02D4B5B7852
S214401200DBB2032B0CD04FF4967404FB01F101EBD8
S214401210500400F0010050B35AB1012A18D070BDF6
S2144012204FF4967404FB00F000EB510401F001000B
S214401230F1E7214E336818690022012120441F4DF2
S214401240A84733681869002211462044A84770BD55
S214401250194E33681869012211462044174DA84795
S21440126033681869012200212044A84770BD12B196
S214401270012A0FD070BD104E336818690022052130
S21440128020440E4DA84733681869002204212044A4
S214401290A84770BD084E33681869012205212044CE
S2144012A0064DA84733681869012204212044A84700
S2144012B070BD7047180400202C0400206D0F4000BD
S2144012C0F8B5314B5B889BB283423DD92E4B9B8809
S2144012D09BB28B4238D92C4B1B786BB12A4B1B7870
S2144012E0DBB2022B08D04FF4967404FB01F101EBFD
S2144012F0500400F0010107E04FF4967404FB00F43C
S21440130004EB510401F001011546F1B91F4F3B684B
S2144013101869C2F3C002072120441D4EB0473B68FF
S2144013201869C5F3800206212044B0473B68186917
S214401330C5F3400205212044B0473B68186905F0D4
S214401340010204212044B047F8BD104F3B6818699D
S214401350C2F3C002032120440D4EB0473B681869D3
S214401360C5F3800202212044B0473B681869C5F3A4
S214401370400201212044B0473B68186905F001024D
S21440138000212044B047F8BDC00300202C040020B4
S2144013906D0F400008B51AB10F22034B984708BDA1
S2144013A0014B984708BD00BFC11240002DE9F04FE1
S2144013B087B0BDF840100291002A37D001920593BD
S2144013C004904FF0000A03F1FF3B1FFA8BFBBDF879
S2144013D044300393DFF85C805C46BBF1000F1ED0C0
S2144013E0039D059B049A03FB0A29029B03EB0A070D
S2144013F0BFB219F8046006F00F0282F0FF022946D9
S2144014003846C0476FEA1612691CD2B289B23846CF
S214401410C047013CA4B20235ADB2002CE9D10AF176
S214401420010A1FFA8AFA019B5345D5D807B0BDE892
S214401430F08F00BFC1124000F8B505461446104B69
S2144014409847CDB90E4B9847ACB1C4F30A06A41BD7
S214401450E50A09D000240A4F4FF40063013BFDD152
S214401460B8470134A542F7D11EB1002301339E424E
S214401470FCD1034B9847F8BD014B9847E2E700BFC5
S214401480B104400010B50023014CA04710BD00BF7A
S2144014903914400030B585B02E4C94F83040E4B254
S2144014A0032C0BD8DFE804F002273547ADF80410CC
S2144014B0ADF80600ADF80830ADF80A209DF82030AB
S2144014C0ADF80C30012201A93420234CA04701225C
S2144014D00DF106010020A047012202A90020A047E6
S2144014E001220DF10A010020A047012203A9002095
S2144014F0A04705B030BDADF804001648008D80B258
S214401500411AC91AADF80610ADF80820ADF80A30F1
S214401510D4E7104D6C8DA4B2611AC91AADF8041008
S214401520298D89B2081A801AADF80600ADF8083041
S214401530ADF80A20C2E7074C648DA4B2201A801A80
S214401540ADF80400ADF80610ADF80820ADF80A3046
S214401550B4E700BFD00300208514400030B585B006
S2144015600024ADF80440ADF80640114B5A8DADF856
S21440157008201B8DADF80A30ADF80C00012201A9F9
S21440158034200C4DA84701220DF106012046A847FD
S214401590012202A92046A84701220DF10A01204651
S2144015A0A847012203A92046A84705B030BD00BF82
S2144015B0D0030020851440002DE9F04F85B08046CA
S2144015C00D4616461F46484B1C68DFF82491D9F84E
S2144015D03430D9F834A040F20A22ADF800201B0C73
S2144015E0ADF80230022269461120DFF800B1D84734
S2144015F04FF40273ADF80030ADF802A002226946FF
S2144016001120D84799F83030DBB2022B29D0032B73
S21440161029D0012B14BF0023012343F02003ADF84B
S2144016200430ADF80650ADF80880ADF80A70ADF855
S2144016300C60052201A921202C4B98472C4B93F88F
S214401640303093B12A4B93F83030DBB2022B0CD0BB
S214401650274B1B8DC3F38D0308FB03F804EB4804AC
S2144016600BE00223D9E70323D7E7214B5B8DC3F377
S2144016708D0308FB03F804EB4804AD0804EB45046F
S214401680B04646B3BF084FEA470ABB460025DFF8D8
S2144016905C90174E09E0738DC3F38D03A3EB0B03E9
S2144016A004EB43040135454515D03A462146002013
S2144016B0C847544496F83030002BECD096F830307B
S2144016C0DBB2022BE7D0338DC3F38D03A3EB0B03C2
S2144016D004EB4304E6E7002211462220034B9847DA
S2144016E005B0BDE8F08F00BFB4030020851440006D
S2144016F0D003002030B585B00024ADF80440ADF8E6
S2144017000640114B5A8DADF808201B8DADF80A30B7
S2144017100223ADF80C30012201A934200B4DA84716
S21440172001220DF106012046A847012202A92046C3
S214401730A84701220DF10A012046A847012203A925
S2144017402046A84705B030BDD00300208514400091
S21440175010B50123014CA04710BD00BF391440000E
S214401760F0B585B00546334C636B676B40F20A2292
S214401770ADF804201B0CADF80630022201A911205A
S2144017802D4EB0474FF40273ADF80430ADF80670F6
S214401790022201A91120B04794F83030DBB2022B68
S2144017A01DD0032B1DD0012B14BF0023012343F073
S2144017B0200304A921F8023D012220201E4CA04708
S2144017C01C4BDA6A52081D4B196800201C4B984780
S2144017D0002211462220A0472DB905B0F0BD0223B5
S2144017E0E5E70323E3E70024ADF80440ADF8064000
S2144017F0104B5A8DADF808201B8DADF80A300223E9
S214401800ADF80C30012201A934200B4DA847012227
S2144018100DF106012046A847012202A92046A84706
S21440182001220DF10A012046A847012203A92046BD
S214401830A847D2E7D003002085144000B403002018
S2144018405117400032B901238B40017821EA030149
S2144018500170704701238B4001781943017070472F
S214401860F8B5314B1E68738883423ED9B3888B42A5
S2144018703BD92E4B93F830307BB12C4B93F830301D
S214401880DBB2022B09D0294B5C88C4F34E044B08CC
S21440189000FB043401F0010108E0244B1C88C4F32B
S2144018A04E044B0800FB043401F001011546E9B133
S2144018B03069C2F3C002072120441D4EB0471A4F7C
S2144018C03B681869C5F3800206212044B0473B6850
S2144018D01869C5F3400205212044B0473B681869A3
S2144018E005F0010204212044B047F8BD3069C2F338
S2144018F0C002032120440E4EB0470B4F3B68186988
S214401900C5F3800202212044B0473B681869C5F3FE
S214401910400201212044B0473B68186905F00102A7
S21440192000212044B047F8BD2C040020D0030020FE
S214401930451840002DE9F04F87B0BDF84080BDF80F
S21440194044900021ADF81610BDF8161089B28A42B0
S2144019506AD91E4601928246354FDFF8D8B058E025
S214401960BDF8123002339BB2ADF81230BDF81430D9
S21440197001339BB2ADF81430BDF814309BB2B3427D
S2144019803BD2BDF8164018FA84F4A4B2BDF8125003
S214401990ADB23B685A88A242E2D94D44ADB29B886C
S2144019A0AB42DDD9BDF816309BB2BDF8142006FB1D
S2144019B003F31AFA82F2D35C03F00F03ADF810304B
S2144019C0BDF816309BB2BDF8142006FB03F31AFA96
S2144019D082F2D35C1B09ADF80E30BDF81020D2431E
S2144019E0691CD2B289B22046D847BDF80E20D243F1
S2144019F0D2B229462046D847B2E7BDF81630013362
S214401A009BB2ADF81630BDF816309BB2019A9342A1
S214401A100AD20023ADF81230ADF81430BDF81430B9
S214401A209BB29E42ADD8E8E707B0BDE8F08F00BF56
S214401A302C0400206118400070B50B480B4B9847AB
S214401A4001200B4B98470B4D4FF400566E63012018
S214401A50094CA0472E630120A0472A46D36B13F0BB
S214401A60007FFBD070BD00BF10E000E019034000CF
S214401A70D1084000000E0E402D03400030B583B024
S214401A8004465F49058880780D8088702178032950
S214401A900FD8DFE801F0022C4156637803F0FD03CF
S214401AA0012B1CD056494FF420728A804FF4F073B5
S214401AB0CB8002218DF800108DF8012001228DF890
S214401AC002208DF803300422694661204D4B98472A
S214401AD02378032B4DD8DFE803F049787C804849CB
S214401AE04FF4F0738B804FF42072CA80E1E763783E
S214401AF003F0FD03012B07D041494FF416728A804C
S214401B004FF4E173CB80D4E73D494FF4E1738B80CB
S214401B104FF41672CA80CCE7637803F0FD03012BBE
S214401B2007D037494FF420728A804FF4E073CB8059
S214401B30BFE733494FF4E0738B804FF42072CA807E
S214401B40B7E7637803F0FD03012B07D02C494FF429
S214401B5016728A804FF4E073CB80AAE728494FF488
S214401B60E0738B804FF41672CA80A2E700238DF88C
S214401B7000309DF800301B01DBB243F008028DF8C0
S214401B8000206278012A31D05AB3032A33D09DF818
S214401B9000305B00DBB28DF80030A278012A04BF2B
S214401BA043F001038DF800309DF800305B0043F0B1
S214401BB001038DF8003008238DF801300222694673
S214401BC00020104B984703B030BD01238DF80030FD
S214401BD0CFE702238DF80030CBE703238DF80030A3
S214401BE0C7E743F00B038DF80030D0E743F00A0315
S214401BF08DF80030CBE743F009038DF80030C6E798
S214401C0018040020A909400030B585B00446028873
S214401C108378ADF804208DF8063001A8524B9847DB
S214401C200C238DF80830E378012B04BF0D238DF884
S214401C3008309DF808305B00DBB28DF808306279DA
S214401C40012A04BF43F001038DF808309DF80830A0
S214401C505B00DBB28DF808302279012A04BF43F0DE
S214401C6001038DF80830A379032B23D8DFE803F06F
S214401C7002161A1E00238DF8093023238DF80A30E9
S214401C808DF80B30042202A90120384B9847E3799F
S214401C90032B17D8DFE803F0135C606401238DF84C
S214401CA00930EAE702238DF80930E6E703238DF88A
S214401CB00930E2E7043BDBB2032BDED8FEE7002325
S214401CC08DF80830012202A90320284CA047C723DC
S214401CD08DF808308DF809301D238DF80A30032220
S214401CE002A90620A0473C238DF80830032202A90B
S214401CF03020A04700238DF80830012202A9412059
S214401D00A04737238DF80830012202A95020A0476B
S214401D1022238DF80830012202A96020A047022322
S214401D208DF8083058238DF8093001258DF80A5073
S214401D30C0238DF80B302A4602A96120A047AA236B
S214401D408DF808302A4602A9E320A04705B030BDEA
S214401D5010238DF80830B5E720238DF80830B1E71A
S214401D6030238DF80830ADE77D1A4000A9094000C1
S214401D7070B506460D461148114B9847114B1860F2
S214401D80114CC4F80001114B98473046104B984709
S214401D90737884F8FC30F0340E4B1C6000230D4CF6
S214401DA03320064922681269D05401338B42F9D158
S214401DB005B970BD0120084B9847FAE7000D0200B0
S214401DC0192D40002004002000000020391A400051
S214401DD0091C40002C040020310C400008B5044B80
S214401DE01B689A6801461869024B984708BD00BFB1
S214401DF02C040020292D4000F0B583B0334B1B68DF
S214401E005A88ADF804209B88ADF800300023ADF822
S214401E100630BDF8062092B2BDF804309BB29A4216
S214401E2052D2044600262A4D42E0BDF80600BDF8D0
S214401E300210324689B280B2A847BDF8023001335C
S214401E409BB2ADF80230BDF8022092B2BDF8003029
S214401E509BB29A421ED2032CEFD801A353F824F02B
S214401E602B1E4000711E4000831E4000831E400013
S214401E70BDF80600BDF802103A4689B280B2A847BF
S214401E80DBE7BDF80600BDF80210022289B280B238
S214401E90A847D2E7BDF8063001339BB2ADF806300E
S214401EA0BDF8062092B2BDF804309BB29A420BD2DF
S214401EB0ADF80260BDF8022092B2BDF800309BB289
S214401EC09A42E7D20127C6E703B0F0BD2C040020B3
S214401ED0D10440002DE9F04F87B005460E469046A7
S214401EE0194605939DF840A09DF8442001929DF820
S214401EF0482002929A1B002AB8BF5242A8EB000321
S214401F00002BB8BF5B429A422CDD43468846059379
S214401F10354606464FF0010B454569D8A8EB0509FE
S214401F20B9F1000FB8BFC9F100091FFA89F3009351
S214401F304FF6FF73454538BF0123049305998B1B25
S214401F40002BB8BF5B429FB24FF6FF728E4238BF3F
S214401F5001220392009A974207D8C9F34E041FFA0B
S214401F6089F922E04FF0000BD6E79BB25C4204EBC7
S214401F70D474C4F34F04F2E7019A31462846264B00
S214401F80984745452CD0C9F100039C422EDDE31B03
S214401F909BB2049A1544ADB2BC4205D2009A134493
S214401FA09BB2039A1644B6B21C46BAF1000F08D14B
S214401FB0BBF1000FE0D0019A29463046164B9847B1
S214401FC0DFE7BBF1000F05D0029A29463046134B97
S214401FD09847D6E7029A31462846104B9847D0E7AE
S214401FE0059B9E42CFD107B0BDE8F08F2346D3E78E
S214401FF0A5EB0809B9F1000FB8BFC9F100091FFAEF
S21440200089F300933346059E05932B4645469846EE
S2144020100123049392E700BFD1044000E10440004E
S21440202030B585B0002402949DF820500195009468
S214402030014CA04705B030BDD51E40002DE9F04FFD
S21440204083B08246009190469B469DF830609DF84E
S214402050345002EB0009484511DA0446314F013B43
S2144020600B449BB20193324600992046B84732460D
S21440207001992046B8470134A4B24C45F3DB009C96
S214402080A3445C4511DA274F08F1FF38D0441FFAC5
S21440209088F8324621465046B847324621464046A2
S2144020A0B8470134A4B25C45F3DB042D36D00AF1C0
S2144020B00106B6B209F1FF3A56452FDA009B0133C6
S2144020C01FFA83F9DFF85C8022E000222146304682
S2144020D0C0470134A4B2BC4216DA032DF9D801A396
S2144020E053F825F0CB204000F5204000FF2040006C
S2144020F0FF204000012221463046C047E9E7022241
S21440210021463046C047E4E70136B6B2564505DAC2
S2144021104C460BF1FF37B945DFDBF5E703B0BDE8CA
S214402120F08F00BFD10440002DE9F04F91B09DF8EC
S214402130684001949DF86C4002941E9C9DF87D700A
S2144021409DF87E809DF87F50ADF81E10ADF81A20A1
S21440215000260C969DF87C10401A0D900A960A9818
S2144021600D9988423FD226460C9816F8011B07FB6D
S21440217001010C910A9901310A910A980D998842F9
S214402180F2D3307807FB00F00C9E0D990644645C51
S2144021901D9907FB04118E4280F0EA801C9C76490C
S2144021A00968097806290C9904BF01F1FF31C9195D
S2144021B00C44002109910C99013908440B900C9964
S2144021C00A910A980B99884200F2D2801E460492E1
S2144021D003977B0005934FF0000BDFF8A0A1DFF8D4
S2144021E0A091654F27E02646CBE7B8F1010F2FD0E8
S2144021F0CDF820B008230F930F9B002B73D1099B7B
S21440220001330993BDF81A3008339BB2ADF81A3043
S2144022103B681B78062B00F08F800134099B039A9D
S2144022209A4200F098800A9B01330A930A9A0B9BC5
S2144022309A4200F29D80B8F1000FD6D13B681B78D9
S214402240062BD5D0CDF83CB00F9B072B15D9D6E73B
S2144022503B681B78062BCBD1F4E725BB4EBBBDF8BD
S2144022601C00BDF81810019A89B280B2C8470F9B6F
S21440227001330F930F9B072BC1D80F9A2378134136
S21440228003F001030E93BDF81E309BB2ADF81C3030
S2144022900F9ABDF81A3012FA83F39BB2ADF8183095
S2144022A00E9B012BD9D00E9B002BE0D1012DDED109
S2144022B0D4E7BDF81C00BDF81810029A89B280B267
S2144022C0D047D4E74DBB002E2DD1BDF81C00BDF83D
S2144022D01810019A89B280B2C8470F9B013B0F93F2
S2144022E00F9B002B8BD00F9A2378013A134103F0B3
S2144022F001030E93BDF81E309BB2ADF81C30089A11
S214402300BDF81A3012FA83F39BB2ADF81830089B2A
S214402310013308930E9B012BD4D00E9B002BDCD1AF
S214402320012DDAD1CFE7BDF81C00BDF81810029A8F
S21440233089B280B2D047D0E7013C099B039A9A42C3
S2144023407FF471AFCDF824B0BDF81030ADF81A3038
S214402350059B1C4405E0CDF824B0BDF81030ADF820
S2144023601A30BDF81E3001339BB2ADF81E305AE726
S21440237011B0BDE8F08F00BF2C040020E1044000FF
S214402380D10440002DE9F04F89B0079290F800E064
S214402390BEF1000F27D007460C469A4681460025D8
S2144023A002AEA846DFF844B012AB0FCB86E80F006B
S2144023B0CDF80480CDF800A04346079A21467046E3
S2144023C0D84799F800309DF854209B1A149AD35C4D
S2144023D01C44A4B20135EDB207EB050917F805E039
S2144023E0BEF1000FE0D109B0BDE8F08F29214000D2
S2144023F02DE9F04184B003238DF8043000218DF898
S214402400051001248DF806408DF807408DF80940E8
S2144024108DF808408DF80A108DF80B108DF80D10C9
S2144024208DF80C4001A80D4B984777200C4EB047CE
S21440243020460C4DA8470C4F4FF40008C7F8308094
S2144024404FF47A70094B9847C7F834801120B0474C
S2144024502046A84704B0BDE8F08100BF711D40008B
S214402460DD1D4000C1044000000E0E402D0340001C
S2144024702DE9F04F85B004464FF400020A4B5A63EC
S21440248001200A4B9847012C00F0F28194B1022CAF
S21440249000F081820120064B98474FF40002024B21
S2144024A01A6305B0BDE8F08F000E0E40F91D4000DF
S2144024B0C10440004FF00109CDF80C90002502956C
S2144024C001954FF49873009308234FF494724FF499
S2144024D01461C348DFF88CA3D047C24B03F5F273B0
S2144024E00FCB8DE80F002B4605220921BE48BF4F73
S2144024F0B84700953A234FF4167219462846BC4C06
S214402500A047B84B03F5FA7494E80F008DE80F0027
S2144025102B463F220921B748B847A4F5FA7303F57E
S214402520017898E80F008DE80F002B464A220921D3
S214402530B148B84794E80F008DE80F002B463F227D
S21440254040F21311AD48B84798E80F008DE80F00E9
S2144025502B464A2240F21311A948B84794E80F0088
S2144025608DE80F002B463F224FF4E171A548B8474F
S21440257098E80F008DE80F002B464A224FF4E17191
S214402580A148B847009578234FF416721946284656
S214402590974EB047DFF8D0B2CDF80C9002957D2329
S2144025A001930A2300930E236E2240F204610BF23D
S2144025B04C40D04794E80F008DE80F002B467D2214
S2144025C082219248B84798E80F008DE80F002B46C6
S2144025D0882282218E48B84794E80F008DE80F0085
S2144025E02B467D224FF491718A48B84798E80F00F1
S2144025F08DE80F002B4688224FF491718648B847E5
S21440260094E80F008DE80F002B46B42282218348C1
S214402610B84798E80F008DE80F002B46BF2282216E
S2144026207F48B84794E80F008DE80F002B46B42249
S2144026304FF491717B48B84798E80F008DE80F003B
S2144026402B46BF224FF491717748B84794E80F0065
S2144026508DE80F002B467D224FF4F0717348B84743
S214402660A4F5FA7303F505730FCB8DE80F002B46E0
S21440267088224FF4F6716E48B8470095EE234FF423
S214402680167219462846B04794E80F008DE80F00AA
S2144026902B46F32209216748B847A4F5FA7303F599
S2144026A0097696E80F008DE80F002B464FF48072AF
S2144026B009216148B847CDF80C900295FD23019357
S2144026C04FF4BE7300930423D4224FF454710BF599
S2144026D02560D047CDF80C90029540F22718CDF8EB
S2144026E00480092300931423992240F6F4310BF515
S2144026F05A60D047CDF80490009599234FF4D27293
S2144027004146AC20DFF86481C04796E80F008DE86C
S2144027100F002B464FF49572B1214848B84794E8CD
S2144027200F008DE80F002B4640F22B124FF4C87175
S2144027304348B84794E80F008DE80F002B4640F218
S2144027404F12B9213F48B84796E80F008DE80F0072
S2144027502B464FF4B072B9213B48B84794E80F0077
S2144027608DE80F002B464FF4C372B9213748B8475F
S21440277096E80F008DE80F002B4640F29712B921DD
S2144027803348B84794E80F008DE80F002B4640F2D8
S2144027904F124FF4D7712F48B84796E80F008DE890
S2144027A00F002B464FF4B0724FF4D7712A48B84703
S2144027B094E80F008DE80F002B464FF4C3724FF499
S2144027C0D7712648B84796E80F008DE80F002B468D
S2144027D040F297124FF4D7712148B8475AE600BFE7
S2144027E01C3A400000000020B4854200852340008B
S2144027F021204000BC854200C8854200D485420066
S214402800E4854200F0854200FC854200088642008E
S214402810148642001C8642002486420030864200CF
S21440282044864200488642005886420060864200FF
S2144028307086420074864200788642008C8642004B
S2144028409C864200BC864200D8864200F8864200FB
S21440285008874200148742002C8742003487420093
S21440286048874200F1044000103F40003D204000B1
S2144028704FF00009CDF80490CDF800904FF4B573B2
S2144028804FF4117250210A20DFF870A3D047CDF8DC
S2144028900C90012602964FF4BD7301934FF491734A
S2144028A0009308234FF494724FF41461C648C74C03
S2144028B0A047C74F07F505730FCB8DE80F004B4673
S2144028C00A221146C348DFF83C83C04707F509751E
S2144028D095E80F008DE80F0033464FF4C872142178
S2144028E0BD48C04707F50D730FCB8DE80F00334644
S2144028F055221421B948C04707F511730FCB8DE810
S2144029000F0033466422F021B548C04707F51574DA
S21440291094E80F008DE80F0033468722FA21B1482D
S214402920C04707F5197797E80F008DE80F00334644
S214402930B4222D21AC48C04795E80F008DE80F0023
S2144029403346D2224621A948C04795E80F008DE875
S2144029500F003346BA22F021A548C04794E80F003E
S2144029608DE80F003346DD22FA21A248C047019683
S214402970009632234FF411724FF4A0710A20D047CC
S21440298094E80F008DE80F004B4640F24F1241216D
S2144029909948C0477EE5012303930024029401949E
S2144029A0009408234FF494724FF414618648DFF87D
S2144029B01CB2D8470194009428234122122140F2A9
S2144029C03D108E4DA847DFF8089209F5117898E833
S2144029D00F008DE80F000123162240F2451188486B
S2144029E0884FB84700943A234FF41672194620464B
S2144029F0DFF86CA2D04709F5FA7595E80F008DE828
S214402A000F0023463F2209217F48B84709F515762F
S214402A1096E80F008DE80F0023463C2236217B487F
S214402A20B84796E80F008DE80F002346522236211D
S214402A307748B84796E80F008DE80F00234668228F
S214402A4036217448B84796E80F008DE80F002346B5
S214402A507E2236217048B84796E80F008DE80F0072
S214402A602346942236216D48B84795E80F008DE8F6
S214402A700F0023463C2240F222216948B84798E896
S214402A800F008DE80F0023464A2240F21F2165487A
S214402A90B84795E80F008DE80F00234668224FF4AC
S214402AA0E6716148B84709F51D730FCB8DE80F00F6
S214402AB02346802240F2B1115C48B8470094B023C8
S214402AC04FF4167219462046D04795E80F008DE819
S214402AD00F002346B72209215548B84709F5097A19
S214402AE09AE80F008DE80F002346B422362151485D
S214402AF0B8479AE80F008DE80F002346D2223621C9
S214402B004D48B84709F5017999E80F008DE80F0060
S214402B102346EC2236214948B84799E80F008DE80D
S214402B200F0023464FF4887236214548B84795E84B
S214402B300F008DE80F002346B72240F2222141487D
S214402B40B84798E80F008DE80F002346C32240F2AE
S214402B5026213D48B84795E80F008DE80F002346EC
S214402B60E22240F2DB113948B84798E80F008DE87A
S214402B700F002346EE2240F202213548B84795E83A
S214402B800F008DE80F00234640F227124FF40771DE
S214402B903048B8470123039302944FF4A57301933A
S214402BA0A72300930A2340F20B1240F66E212A48D0
S214402BB0D84796E80F008DE80F00234640F295125E
S214402BC0AE212648B84765E41C3A4000F104400070
S214402BD00000002050874200608742007487420011
S214402BE08087420094874200B8874200C4874200EC
S214402BF0D0874200E8874200F48742003D204000EC
S214402C002C884200852340003088420038884200A5
S214402C104C884200648842007088420080884200A7
S214402C20888842009088420094884200A8884200E3
S214402C30B0884200B4884200C4884200E48842001B
S214402C40F88842000C8942001489420018894200E4
S214402C502C89420034894200A458400040894200F2
S214402C602120400008B5164B9847164B98474FF41E
S214402C700002154B1A631C46144D1EE0E36B13F41A
S214402C80007F14D0E36B13F0010F05D1E36B13F014
S214402C90010FFBD03046A847E36B13F0807FEDD1A1
S214402CA0E36B13F0807FFBD00120A847E6E7E36B99
S214402CB013F4007FFBD00220A8470026E2E700BFBF
S214402CC011024000F1234000000E0E4071244000E7
S214402CD070B50D4E0D4CA41BA4100025A54209D17D
S214402CE00B4E0C4C25F06CFEA41BA4100025A542F0
S214402CF005D170BD56F8253098470135EEE756F8B1
S214402D00253098470135F2E7CC894200CC8942000D
S214402D10CC894200D0894200024B0146186800F038
S214402D200BB800BF1403002002440346934200D170
S214402D30704703F8011BF9E770B5CD1C25F0030575
S214402D4008350C2D38BF0C25002D064601DBA94260
S214402D5003D90C233360002070BD00F05BF8234A93
S214402D601468214691B9224C23681BB9304600F0BE
S214402D7041F820602946304600F03CF8431C26D1F6
S214402D800C233360304600F046F8E4E70B685B1BE4
S214402D901AD40B2B0FD90B60CD50CC18304600F010
S214402DA03AF804F10B00231D20F00700C31A1BD08D
S214402DB05A42E25070BD8C420DBF63684B686360F8
S214402DC0136018BF0C46E9E70C464968CAE7C41CBE
S214402DD024F00304A04205D0211A304600F00AF839
S214402DE00130CDD02560D9E770BD00BF9C030020E0
S214402DF0A003002038B5064C00230546084623604D
S214402E00FDF7A4FA431C02D1236803B12B6038BDFA
S214402E1030040020704770472418181800181810FF
S214402E2008000000000000000000000041111111E1
S214402E300100000000000000101818281818181884
S214402E4008000000000000000000000033122213BB
S214402E5011000000000000002E04110000000000D9
S214402E60000000000000000010000000000100000C
S214402E700001000000010410000144000000400072
S214402E80000000000000400000000000000140106C
S214402E900005401000000000001451000000000033
S214402EA0000000001000000010000000000140007C
S214402EB000114000000104100001440000004000E2
S214402EC00000000000014410000100000001401016
S214402ED000054010000100000015510000001000E1
S214402EE0100000001000000010000000000140002C
S214402EF00011401000010410001144000001400081
S214402F00000040100041441000010000001544102D
S214402F100045441000010400001551000000100058
S214402F2010000000100000001000000000014400E7
S214402F300011401000010410001144000041400000
S214402F400000401000454410000140100015441099
S214402F5000454410000544100025510004001000B0
S214402F601000000010004000100040000001441017
S214402F7000154010000504100011441000414000A8
S214402F800011401000454410000144100015441044
S214402F90004544100005441000255100041154001B
S214402FA01000400010014000104144000001441051
S214402FB00055401004450410005544100045440098
S214402FC00011401000454410000144100015441004
S214402FD000454410000554100025510004115400CB
S214402FE0100140001001400010414400000544100C
S214402FF000554414044554100055441000454410F0
S2144030000011441000454410000544100055541467
S2144030100045541400055410002551000455541022
S21440302014015000105144101441441000455410EF
S21440303004554414044554100055441000454410AB
S21440304000554410004554140015441400555414BB
S21440305000455514000554140029510004555410D9
S214403060140150101051541014414410005554107F
S214403070045544140445541400554414104554143F
S214403080005544100045541400155414005554146B
S2144030900045551400055414002951001455541089
S2144030A01401501010555414144144101055541027
S2144030B004555414044554140055441410455414EF
S2144030C00455541000455414001554140055541417
S2144030D000555514000554140029A10014555410E9
S2144030E014015014105554141441541014555414CB
S2144030F0045554141445541410554414104554148F
S21440310004555414004554140015541400555514D1
S2144031101155551411055414002AA200185554147C
S2144031201401501410555414144154141455541486
S214403130045554141445541410555414104554143E
S214403140045554140045541411155414015555147F
S2144031501155551511055514106AA20018555514E9
S21440316014455414105554141441541414555414FE
S21440317014555514154555141155541411455414E9
S214403180155554140145541411155414015555142D
S214403190115555151105551410AAA6001855551465
S2144031A015455414105554141445541414555414B9
S2144031B0145555151545551515555414154554149F
S2144031C015555414014554141115541411555514DD
S2144031D0115555151105551411AAA6101865551503
S2144031E01545551414555414144554141455541474
S2144031F0155555151545551515655414154554144E
S214403200155554141155551411555414115555143B
S214403210115555151105551411AAA61018A5A955EE
S214403220554555141455541415855514155599156A
S21440323015655515154559151565591415855515B2
S21440324015555514119555141155541411555514BA
S214403250115555155105555551AAAA1018A5A955E9
S2144032605955551515A5551555859914155699153D
S2144032701565555515555955156599551595951511
S21440328015659514119555141156541411655554D9
S214403290519595555115555551AAAA1028AAA95584
S2144032A06955951525A59515698599141596991509
S2144032B015AA9555159A595555A699551595995542
S2144032C015A595141195991411669514116999557B
S2144032D0519995555115595555AAAA5428AAA955F4
S2144032E06996A55525A699556986995419AA99555A
S2144032F015AA9555559A996555AA9955159A995569
S21440330055A59914159699145166991411AA99556C
S21440331055AA95555115995555AAAA6428AAA9653E
S2144033206996A55525AAA9556996995419AAA965D5
S21440333019AA9565599A996555AA9955159A995510
S21440334055AA9924159A9925556A991411AA9965EA
S21440335055AAA965511A995555AAAAA528AAA96594
S21440336069AAA56569AAA9656996A96459AAA965BD
S21440337059AAA965599AA96555AA9965559A99551C
S21440338055AA9964559A9965556A992415AA9965D6
S21440339055AAA965511AA95555AAAAA568AAAAA5C3
S2144033A069AAA96569AAA965699AA96559AAA96574
S2144033B059AAA965599AA96555AAA965559AA965AC
S2144033C059AAA96455AAA96555AAA92415AAA96502
S2144033D055AAA965511AA96555AAAAAA68AAAAAA69
S2144033E068AAAA6969AAA969699AA96569AAA9651C
S2144033F059AAAA6959AAAA6555AAA96555AAA96546
S21440340059AAA96555AAA96555AAA96455AAA96540
S21440341055AAAA65552AA96555AAAAAAA8AAAAAAD3
S214403420A8AAAA6A69AAA96969AAAA6969AAA96981
S21440343059AAAA6959AAAA6959AAA96969AAA969E1
S21440344059AAAA6555AAA96955AAA96955AAAA69F1
S21440345055AAAA69552AAA6555AAAAAAA8AAAAAA8E
S214403460AAAAAAAA68AAAAAA68AAAAA968AAAA6A7E
S21440347068AAAAAA68AAAA6A68AAA96968AAAA6932
S21440348058AAAA6954AAAA6954AAA96954AAAA69B0
S21440349054AAAA6A542AAA6955AAAAAAA8AAAAAA4B
S2144034A0AAAAAAAA68AAAAAAA8AAAAA968AAAAAABE
S2144034B068AAAAAA68AAAAAA68AAAAA968AAAAAA30
S2144034C068AAAA6958AAAA6964AAAA6954AAAAA90B
S2144034D064AAAAAA642AAA69599AAAAAAAAAAAAAB5
S2144034E0AAAAAAAA6AAAAAAAAAAAAAAA6AAAAAAA77
S2144034F06AAAAAAA6AAAAAAA6AAAAAAA6AAAAAAAE7
S2144035006AAAAA696AAAAA696AAAAA696AAAAAA99A
S2144035106AAAAAAAA62AAAAA68AAAAAAAAAAAAAACC
S214403520AAAAAAAAAAAAAAAAAAAAAAAAAAAAAAAAB6
S2144035306AAAAAAA6AAAAAAAAAAAAAAA6AAAAAAA66
S214403540AAAAAAA96AAAAAAAAAAAAA696AAAAAAA58
S214403550AAAAAAAAA62AAAAAA84AAAAAAAAAAAAA6C
S214403560AAAAAAAAAAAAAAAAAAAAAAAAAAAAAAAA76
S214403570AAAAAAAAAAAAAAAAAAAAAAAA6AAAAAAAA6
S214403580AAAAAAAAAAAAAAAAAAAAAAA96AAAAAAA97
S214403590AAAAAAAAA62AAAAAAA4AAAAAAAAAAAAA2A
S2144035A0AAAAAAAAAAAAAAAAAAAAAAAAAAAAAAAA36
S2144035B0AAAAAAAAAAAAAAAAAAAAAAAAAAAAAAAA26
S2144035C0AAAAAAAAAAAAAAAAAAAAAAAA6AAAAAAA56
S2144035D0AA9AAAAAAA1AAAAAAA4AAAAAAA6AAAAA46
S2144035E0AA6AAAAAAA6AAAAAAA6AAAAAAAAAAAAAB6
S2144035F0AAAAAAAAAAAAAAAAAA9AAAAAAA6AAAAA36
S214403600AA6AAAAAAA6AAAAAAA5AAAAAAAAAAAAAA5
S214403610AAAAAAAAAA2AAAAAAA4AAAAAAA6AAAAAE5
S214403620AA6AAAAAAA6AAAAAAA6AAAAAAA6AAAAAB5
S214403630AA6AAAAAAA6AAAAAAA6AAAAAAA6AAAAAA5
S214403640AA6AAAAAAA5AAAAAAA6AAAAAAA6AAAAAA5
S214403650AA4AAAAAAA4AAAAAAA4AAAAAAA5AAAAAF5
S214403660AA5AAAAAAA5AAAAAAA6AAAAAA66AAAAA99
S214403670AA6AAAAAAA5AAAAAAA4AAAAAAA5AAAAAA5
S214403680AA5AAAAAAA6AAAAAAA49AAAAAA5AAAAA96
S214403690AA4A9AAAAA4AAAAAAA52AAAAA66A2AAA31
S2144036A0A66AAAAAA66AAAAAA66AAAAAAA6AA2AA49
S2144036B0AA529AAAAA622AAAAA4A9AAAAA6AA2AA0D
S2144036C0AA6A2AAAAA4AAAAAAA4A2AAAAA62AAAA5D
S2144036D0AA4A2AAAAA4A22AAA612AAAAAA4A226A91
S2144036E0AA4AAAAAAA4AAAAAAA5A22AAA25A22AA6D
S2144036F0AA62AA6AAA4222AAAA42A2AAAA42A2AA3D
S214403700AA4220AAAA4AAAAAAA402AAAA642A26AC4
S214403710AA4A0A6AAA4A12AAAA1552AAA24212AAF1
S214403720A2429AAAA2429A6AA262126AA26212AA04
S214403730AA4288AAAA4220AAAA4202AAAA42226A60
S214403740AA4210AAA64AAA6AA640106AAA4222AA72
S214403750A6420AAAAA4220AAA216626AA211622A0F
S214403760A2116A69A21162AAA21162A9A251626A52
S214403770A651482AA651506AA651426AA65150AA56
S214403780A6516069AA5950A9AA5060A9A251522AC6
S214403790AA514A2AAA514069A21552AAA2164229FB
S2144037A0A21648AAA2164229A216402AA21642A942
S2144037B0AA164829AA1660A9AA1642AAAA166029D5
S2144037C0AA1640AAA216602A2214402AA2566029A7
S2144037D0A2564A29265640AAA2555519A255541A09
S2144037E022555418A255541AA2555418A255541A84
S2144037F0A255541AA255541AA2555419A255541AF1
S214403800225554182255541822555418A255541A65
S2144038102255541A2A5554182255552A26555528A5
S21440382026555528A65555282655552826555528F3
S214403830A6555528A65555282655552AA6555528E1
S2144038402655552826555528265555282655552853
S214403850265555282655552826555554065555540B
S21440386006555554065555540655555426555554E3
S2144038702655555426555554265555542655555473
S2144038802655555426555554265555542655555463
S2144038902655555426555554265555555455555523
S2144038A05455555554555555545555555455555587
S2144038B05455555554555555545555555455555577
S2144038C05455555554555555545555555455555567
S2144038D05455555554555555545555555455555557
S2144038E05455555554555555545555555455555547
S2144038F05455555554555555545555555455555537
S2144039005455555554555555545555555455555526
S21440391054555555545555555454AAAAA854AAAA70
S214403920A854AAAAA854AAAAA854AAAAA854AAAA12
S214403930A854AAAAA854AAAAA854AAAAA854AAAA02
S214403940A854AAAAA854AAAAA854AAAAA854AAAAF2
S214403950A854AAAAA854AAAAA85000000850000032
S21440396008500000085000000850000008500000B2
S21440397008500000085000000850000008500000A2
S2144039800850000008500000085000000850000092
S21440399008500000085000000840000008400000A2
S2144039A008400000084000000840000008400000B2
S2144039B008400000084000000840000008400000A2
S2144039C00840000008400000084000000840000092
S2144039D0084000000840000008000000000000000A
S2144039E00000000000000000000000000000000092
S2144039F00000000000000000000000000000000082
S214403A000000000000000000000000000000000071
S214403A100000000000000000000000000000000061
S214403A200000000000000000000000000000000051
S214403A300000000000000000000000000000000041
S214403A400000000000000000000000000001F00040
S214403A50000000000001FE00000000000001FFC062
S214403A60000000000001FFF8000000000001FFFF1A
S214403A70000000000001FFFFF00000000001FFFF13
S214403A80FE0000000001FFFFFFC000000001FFFF36
S214403A90FFF800000001FFFFFFFC00000001FFFFF1
S214403AA0FFFC60000001FFFFFFFC7C000001FFFF01
S214403AB0FFFC7F800001FFFFFFFC7FC00001FFFF8F
S214403AC0FFFC7FC00001FFFFFFFC7FC00001FFFF3F
S214403AD0FFFC7FC00001FFFFFFFC7FC00001FFFF2F
S214403AE0FFFC7FC00000FFFFFFFC7FC000003FFFE1
S214403AF0FFFC7FC0000003FFFFFC7FC00000007F8C
S214403B00FFFC7FC00000000FFFFC7FC00001F001FB
S214403B10FFFC7FC00001FE003FFC7FC00001FFC0ED
S214403B2007FC7FC00001FFF800FC7FC00001FFFFDC
S214403B30001C7FC00001FFFFF0007FC00001FFFFB8
S214403B40FE003FC00001FFFFFFC007C00001FFFFAF
S214403B50FFF800C00001FFFFFFFC00000001FFFF70
S214403B60FFFC70000001FFFFFFFC7E000001FFFF2E
S214403B70FFFC7F800001FFFFFFFC7FC00001FFFFCE
S214403B80FFFC7FC000003FFFFFFC7FC0000007FF38
S214403B90FFFC7FC0000000FFFFFC7FC00000001F4E
S214403BA0FFFC7FC000000007FFFC7FC00000003F16
S214403BB0FFFC7FC0000001FFFFFC7FC000001FFF2E
S214403BC0FFFC7FC00000FFFFFFFC7FC00001FFFF3F
S214403BD0FFFC7FC00001FFFFFFFC7FC00001FFFF2E
S214403BE0FFFC7FC00001FFFFFFFC7FC00001FFFF1E
S214403BF0FFFC7FC00001FFFFFFFC7FC00001FFFF0E
S214403C00FFFC7FC00001FFFFFFFC7FC00001FFFFFD
S214403C10FFF07FC00001FFFFFF007FC00001FFFFF5
S214403C20F8007FC00001FFFF80007FC00001FFFF5B
S214403C30C0007FC00001FFFFF8007FC00001FFFF0B
S214403C40FF007FC00001FFFFFFE07FC00001FFFFD5
S214403C50FFFC7FC00001FFFFFFFC7FC00001FFFFAD
S214403C60FFFC7FC00001FFFFFFFC7FC00001FFFF9D
S214403C70FFFC7FC00001FFFFFFFC7FC000007FFF0E
S214403C80FFFC7FC000000FFFFFFC7FC0000001FF6D
S214403C90FFFC7FC00000003FFFFC7FC00001E00744
S214403CA0FFFC7FC00001FC00FFFC7FC00001FF80DE
S214403CB01FFC7FC00001FFF003FC7FC00001FFFE39
S214403CC0003C7FC00001FFFFC01C7FC00001FFFF1B
S214403CD0F8007FC00001FFFFFF007FC00001FFFF2C
S214403CE0FFE07FC00001FFFFFFFC7FC00001FFFF39
S214403CF0FFFC7FC00001FFFFFFFC7FC00001FFFF0D
S214403D00FFFC7FC00001FFFFFFFC7FC00001FFFFFC
S214403D10FFFC7FC00001FFFFFFFC7FC00001FFFFEC
S214403D20FFFC7FC00001FFFFFFFC7FC00001FFFFDC
S214403D30FFFC7FC00001FFFFFFFC7FC00001FFFFCC
S214403D40FFFC7FC00001FFFFFFFC7FC00001FF3F7C
S214403D50FFFC7FC00001FF1FFFFC7FC00001FF1F6C
S214403D60FFFC7FC00001FF1FFFFC7FC00001FF1F5C
S214403D70E3FC7FC00001FF1FE3FC7FC00001FF1F84
S214403D80E3FC7FC00001FF1FE3FC7FC00001FF1F74
S214403D90E3FC7FC00001FF1FE3FC7FC00001FF1F64
S214403DA0E3FC7FC00001FF1FE3FC7FC00001FF1F54
S214403DB0E3FC7FC00001FF1FE3FC7FC00000FF1F45
S214403DC0E3FC7FC000000F1FE3FC7FC00000011F24
S214403DD0E3FC7FC00001C00FE3FC7FC00001F80198
S214403DE0E3FC7FC00001FF0023FC7FC00001FFF022
S214403DF003FC7FC00001FFFE03FC7FC00001FFFF05
S214403E00C07C7FC00001FFFFF80C7FC00001FFFFB1
S214403E10FF007FC00001FFFFFFE07FC00001FFFF03
S214403E20FFFC7FC00001FFFFFFFC7FC00001FFFFDB
S214403E30FFFC7FC00001FFFFFFFC7FC00001FFFFCB
S214403E40FFFC7FC00001FFFFFFFC7FC00001FFFFBB
S214403E50FFFC7FC00001FFFFFFFC7FC00001FFFFAB
S214403E60FFFC7FC00001FFFFFFFC7FC00001FFFF9B
S214403E70FFFC7FC00001FFFFFFFC7FC00001FFFF8B
S214403E80FFFC7FC00001FFFFFFFC7FC00001FF3F3B
S214403E90FFFC7FC00001FF07FFFC7FC00001FF0062
S214403EA0FFFC7FC00001FF001FFC7FC00001FF0039
S214403EB001FC7FC00001FF00003C7FC00001FF0006
S214403EC0001C7FC00001FF0000007FC00001FF0013
S214403ED000007FC00001FF0000007FC00001FF001F
S214403EE000007FC00001FF0000007FC00001FF000F
S214403EF000007FC00001FF0000007FC000003F00C0
S214403F0000007FC00000070000007FC00001800066
S214403F1000007FC00001F00000007FC00001FE00EE
S214403F2000007FC00001FFC000007FC00001FFF816
S214403F3000007FC00001FFFF00007FC00001FFFFC0
S214403F40E0007FC00001FFFFFC007FC00001FFFFD4
S214403F50FFC07FC00001FFFFFFF87FC00001FFFFEA
S214403F60FFFFFFC00001FFFFFFFFFFC00001FFFF94
S214403F70FFFFFFC00001FFFFFFFFFFC00001FFFF84
S214403F80FFFFFFC00001FFFFFFFFFFC00001FFFF74
S214403F90FFFFFFC00001FFFFFFFFFFC00001FFFF64
S214403FA0FFFFFFC00001FFFFFFFFFFC00000FFFF55
S214403FB0FFFFFFC000001FFFFFFFFFC0000003FF22
S214403FC0FFFFFFC00000007FFFFFFFC00001C00FE3
S214403FD0FFFFFFC00001FC00FFFFFFC00001FF80A5
S214403FE01FFFFFC00001FFF003FFFFC00001FFFE00
S214403FF0007FFFC00001FFFFC00FFFC00001FFFFB2
S214404000F801FFC00001FFFFFF007FC00001FFFF77
S214404010FFE07FC00001FFFFFFFC7FC00001FFFF05
S214404020FFFC7FC00001FFFFFFFC7FC00001FFFFD9
S214404030FFFC7FC00001FFFFFFFC7FC00001FFFFC9
S214404040FFFC7FC00001FFFFFFFC7FC00001FFFFB9
S214404050FFFC7FC00001FFFFFFFC7FC00001FFFFA9
S214404060FFFC7FC00001FFFFFFFC7FC00001FFFF99
S214404070FFFC7FC00001FFFFFFFC7FC00001FF3F49
S214404080FFFC7FC00001FF1FFFFC7FC00001FF1F39
S214404090FFFC7FC00001FF1FFFFC7FC00001FF1F29
S2144040A0E7FC7FC00001FF1FE3FC7FC00001FF1F4D
S2144040B0E3FC7FC00001FF1FE3FC7FC00001FF1F41
S2144040C0E3FC7FC00001FF1FE3FC7FC00001FF1F31
S2144040D0E3FC7FC00001FF1FE3FC7FC00001FF1F21
S2144040E0E3FC7FC00001FF1FE3FC7FC00000FF1F12
S2144040F0E3FC7FC000001F1FE3FC7FC00000031FDF
S214404100E3FC7FC00001C00FE3FC7FC00001F80164
S214404110E3FC7FC00001FF0023FC7FC00001FFE0FE
S21440412003FC7FC00001FFFC03FC7FC00001FFFFD3
S214404130807C7FC00001FFFFF00C7FC00001FFFFC6
S214404140FE007FC00001FFFFFFC07FC00001FFFFF1
S214404150FFFC7FC00001FFFFFFFC7FC00001FFFFA8
S214404160FFFC7FC00001FFFFFFFC7FC00001FFFF98
S214404170FFFC7FC00001FFFFFFFC7FC00001FFFF88
S214404180FFFC7FC00001FFFFFFFC7FC00001FFFF78
S214404190FFFC7FC00001FFFFFFFC7FC00001FFFF68
S2144041A0FFFC7FC000003FFFFFFC7FC0000007FF12
S2144041B0FFFC7FC0000000FFFFFC7FC00000001F28
S2144041C0FFFC7FC000000003FFFC7FC0000000072C
S2144041D0FFFC7FC00000007FCFFC7FC0000007FFD1
S2144041E0E1FC7FC000007FFFF01C7FC00001FFFFA6
S2144041F0FC007FC00001FFFFFE007FC00001FFFF04
S214404200FF007FC00001FFFFFF807FC00001FFFF6F
S214404210FFC07FC00001FFFFFFE07FC00001FFFF3F
S214404220FFF07FC00001FFFFFFF87FC00001FFFFE7
S214404230FFFC7FC00001FFFFFFFC7FC00001FFFFC7
S214404240FFFC7FC00001FFFFFFFC7FC00001FFFFB7
S214404250FFFC7FC00001FFFFFFFC7FC00001FFFEA8
S214404260FFFC7FC00001FFF87FFC7FC00001FFC05D
S2144042703FFC7FC00001FF001FFC7FC00001FC0028
S2144042800FFC7FC00001E00007FC7FC000018000FB
S21440429003FC7FC00000000001FC7FC0000000005F
S2144042A000FC7FC000000000007C7FC000000000D3
S2144042B0007C7FC000000000003C7FC00000000083
S2144042C0001C7FC000000000000C7FC00000000003
S2144042D000047FC00000000000007FC00000000017
S2144042E000007FC00000000000007FC0000000000B
S2144042F000007FC00000000000003FC0000000003B
S21440430000001FC00000000000000FC000000000BA
S214404310000007C000000000000003C000000000CE
S214404320000001C000000000000000C000000000C7
S2144043300000000000000000000000000000000038
S2144043400000000000000000000000000000000028
S2144043500000000000000000000000001FFFFFFFFC
S214404360FE0001FFFC0FFFFFFFFF1FFFFFFFFE00E9
S21440437001FFFC0FFFFFFFFF1FFFFFFFFE0001FFD7
S214404380FC0FFFFFFFFF1FFFFFFFFE0001FFFC0FBC
S214404390FFFFFFFF1FFFFFFFFE0001FFFC0FFFFFB9
S2144043A0FFFF1F0000003E0FC1F07C0F8000001F83
S2144043B01F0000003E0FC1F07C0F8000001F1F0052
S2144043C000003E0FC1F07C0F8000001F1F00000061
S2144043D03E0FC1F07C0F8000001F1F0000003E0F04
S2144043E0C1F07C0F8000001F1F07FFF83E00000052
S2144043F0000F83FFFC1F1F07FFF83E000000000F62
S21440440083FFFC1F1F07FFF83E000000000F83FFDE
S214404410FC1F1F07FFF83E000000000F83FFFC1F35
S2144044201F07FFF83E000000000F83FFFC1F1F071A
S214404430FFF83E000000000F83FFFC1F1F07FFF839
S2144044403E0FFFF0000F83FFFC1F1F07FFF83E0FD5
S214404450FFF0000F83FFFC1F1F07FFF83E0FFFF023
S214404460000F83FFFC1F1F07FFF83E0FFFF0000FF3
S21440447083FFFC1F1F07FFF83E0FFFF0000F83FF70
S214404480FC1F1F07FFF83E0FFFFF800F83FFFC1F38
S2144044901F07FFF83E0FFFFF800F83FFFC1F1F071D
S2144044A0FFF83E0FFFFF800F83FFFC1F1F07FFF83C
S2144044B03E0FFFFF800F83FFFC1F1F07FFF83E0FD6
S2144044C0FFFF800F83FFFC1F1F0000003E003E00E2
S2144044D07C0F8000001F1F0000003E003E007C0F47
S2144044E08000001F1F0000003E003E007C0F800042
S2144044F0001F1F0000003E003E007C0F8000001F93
S2144045001F0000003E003E007C0F8000001F1FFF83
S214404510FFFFFE0FC1F07C0FFFFFFFFF1FFFFFFFF7
S214404520FE0FC1F07C0FFFFFFFFF1FFFFFFFFE0FD8
S214404530C1F07C0FFFFFFFFF1FFFFFFFFE0FC1F024
S2144045407C0FFFFFFFFF1FFFFFFFFE0FC1F07C0F3A
S214404550FFFFFFFF00000000000001FFFC0000001E
S214404560000000000000000001FFFC00000000000A
S21440457000000000000001FFFC00000000000000FA
S2144045800000000001FFFC000000000000000000EA
S214404590000001FFFC0000000000000000000000DA
S2144045A001FFFC00000000001FF80007FFFFC000EE
S2144045B0000F83FF00001FF80007FFFFC000000F3A
S2144045C083FF00001FF80007FFFFC000000F83FFB7
S2144045D000001FF80007FFFFC000000F83FF000029
S2144045E01FF80007FFFFC000000F83FF00001FF802
S2144045F03F07FFF001FFFFF0001FFFFF1FF83F07D8
S214404600FFF001FFFFF0001FFFFF1FF83F07FFF01E
S21440461001FFFFF0001FFFFF1FF83F07FFF001FFFD
S214404620FFF0001FFFFF1FF83F07FFF001FFFFF0FE
S214404630001FFFFF1FFFFF07C1FFFFF003FFFFFF45
S214404640001F1FFFFF07C1FFFFF003FFFFFF001F14
S2144046501FFFFF07C1FFFFF003FFFFFF001F1FFF05
S214404660FF07C1FFFFF003FFFFFF001F1FFFFF070D
S214404670C1FFFFF003FFFFFF001F1F0000F83FFFD2
S214404680C0000000001F03FF1F0000F83FFFC000EF
S2144046900000001F03FF1F0000F83FFFC00000009F
S2144046A0001F03FF1F0000F83FFFC0000000001F70
S2144046B003FF1F0000F83FFFC0000000001F03FF7D
S2144046C000003F07FE0FFFFFFFFFFFE0001F000058
S2144046D03F07FE0FFFFFFFFFFFE0001F00003F0702
S2144046E0FE0FFFFFFFFFFFE0001F00003F07FE0F2B
S2144046F0FFFFFFFFFFE0001F00003F07FE0FFFFF2A
S214404700FFFFFFE0001F00003F07FE0FFFFFFFFF19
S214404710FFE0001F0007FF003E0FC1FF80000000C3
S21440472000000007FF003E0FC1FF800000000000B1
S2144047300007FF003E0FC1FF80000000000000079A
S214404740FF003E0FC1FF8000000000000007FF0092
S2144047503E0FC1FF8000000000000007C0003E0F73
S214404760C000000FFFFFFFFF0007C0003E0FC00065
S214404770000FFFFFFFFF0007C0003E0FC000000F06
S214404780FFFFFFFF0007C0003E0FC000000FFFFF07
S214404790FFFF0007C0003E0FC000000FFFFFFFFFF7
S2144047A01FFFFFF800003FF0000F8000001F1FFFB4
S2144047B0FFF800003FF0000F8000001F1FFFFFF8CB
S2144047C000003FF0000F8000001F1FFFFFF80000B2
S2144047D03FF0000F8000001F1FFFFFF800003FF073
S2144047E0000F8000001F00003FF801F03FFFFC0F65
S2144047F083FFFC1F00003FF801F03FFFFC0F83FFE4
S214404800FC1F00003FF801F03FFFFC0F83FFFC1F3A
S21440481000003FF801F03FFFFC0F83FFFC1F000045
S2144048203FF801F03FFFFC0F83FFFC1F1FFFC00057
S214404830000000007C0F83FFFC1F1FFFC00000002D
S21440484000007C0F83FFFC1F1FFFC000000000001D
S2144048507C0F83FFFC1F1FFFC000000000007C0F82
S21440486083FFFC1F1FFFC000000000007C0F83FF7B
S214404870FC1F1FFFC000000000007C0F83FFFC1FD2
S2144048801FF83FFFC1FFFFFF800F83FFFC1F1FF88D
S2144048903FFFC1FFFFFF800F83FFFC1F1FF83FFF56
S2144048A0C1FFFFFF800F83FFFC1F1FF83FFFC1FFC4
S2144048B0FFFF800F83FFFC1F1FF83FFFC1FFFFFF76
S2144048C0800F83FFFC1F0007C0003E0FFE00000F56
S2144048D08000001F0007C0003E0FFE00000F800053
S2144048E0001F0007C0003E0FFE00000F8000001FA4
S2144048F00007C0003E0FFE00000F8000001F0007AC
S214404900C0003E0FFE00000F8000001F00FFC0F8F2
S21440491001F03FF0000FFFFFFFFF00FFC0F801F07F
S2144049203FF0000FFFFFFFFF00FFC0F801F03FF031
S214404930000FFFFFFFFF00FFC0F801F03FF0000F41
S214404940FFFFFFFF00FFC0F801F03FF0000FFFFF42
S214404950FFFF000000000000000000000000000014
S214404960FFFFFFFFFFFFFFFF00000000FFFFFFFF0E
S2144049700000000000000000FFFFFFFF00000000F6
S214404980000000000000000000000000FFFFFFFFE6
S21440499000000000FFFFFFFF0000000000000000D6
S2144049A000000000FFFFFFFFFFFFFFFF00000000CA
S2144049B00000000000000000FFFFFFFFFFFFFFFFBA
S2144049C000000000FFFFFFFFFFFFFFFFFFFFFFFFAE
S2144049D0000000000000000000000000FFFFFFFF96
S2144049E000000000FFFFFFFFFFFFFFFF000000008A
S2144049F0FFFFFFFFFFFFFFFFFFFFFFFF000000007E
S214404A00FFFFFFFF00000000000000000000000065
S214404A10FFFFFFFF00000000FFFFFFFF0000000059
S214404A200000000000000000FFFFFFFFFFFFFFFF49
S214404A30000000000000000000000000FFFFFFFF35
S214404A4000000000FFFFFFFFFFFFFFFFFFFFFFFF2D
S214404A5000000000FFFFFFFFFFFFFFFF0000000019
S214404A600000000000000000FFFFFFFFFFFFFFFF09
S214404A7000000000FFFFFFFF0000000000000000F5
S214404A8000000000FFFFFFFF0000000000000000E5
S214404A9000000000FFFFFFFFFFFFFFFF00000000D9
S214404AA0FFFFFFFFFFFFFFFFFFFFFFFF00000000CD
S214404AB000000000FFFFFFFF0000000000000000B5
S214404AC0FFFFFFFFFFFFFFFF00000000FFFFFFFFAD
S214404AD0FFFFFFFFFFFFFFFF000000000000000099
S214404AE0FFFFFFFF0000000000000000FFFFFFFF89
S214404AF000000000FFFFFFFFFFFFFFFF0000000079
S214404B00FFFFFFFFFFFFFFFFFFFFFFFF000000006C
S214404B100000000000000000FFFFFFFF0000000054
S214404B2000000000FFFFFFFFFFFFFFFFFFFFFFFF4C
S214404B300000000000000000FFFFFFFFFFFFFFFF38
S214404B4000000000FFFFFFFFFFFFFFFFFFFFFFFF2C
S214404B500000000000000000FFFFFFFF0000000014
S214404B60FFFFFFFFFFFFFFFF000000000000000008
S214404B70FFFFFFFF000000000000000000000000F4
S214404B80FFFFFFFF00000000FFFFFFFFFFFFFFFFEC
S214404B90000000000000000000000000FFFFFFFFD4
S214404BA00000000000000000FFFFFFFFFFFFFFFFC8
S214404BB000000000FFFFFFFFFFFFFFFFFFFFFFFFBC
S214404BC00000000000000000FFFFFFFF00000000A4
S214404BD0FFFFFFFFFFFFFFFFFFFFFFFF000000009C
S214404BE0FFFFFFFFFFFFFFFF000000000000000088
S214404BF000000000FFFFFFFFFFFFFFFF0000000078
S214404C00FFFFFFFFFFFFFFFFFFFFFFFF000000006B
S214404C10FFFFFFFFFFFFFFFFFFFFFFFF000000005B
S214404C20FFFFFFFFFFFFFFFF00000000FFFFFFFF4B
S214404C30FFFFFFFFFFFFFFFF000000000000000037
S214404C4000000000FFFFFFFF00000000FFFFFFFF27
S214404C500000000000000000FFFFFFFFFFFFFFFF17
S214404C6000000000FFFFFFFFFFFFFFFFFFFFFFFF0B
S214404C700000000000000000FFFFFFFFFFFFFFFFF7
S214404C80000000000000000000000000FFFFFFFFE3
S214404C90FFFFFFFFFFFFFFFF00000000FFFFFFFFDB
S214404CA000000000FFFFFFFFFFFFFFFF00000000C7
S214404CB001FFFFFFFFFFFFFFFFFFFFFFFFFFFFFFBD
S214404CC0FFFFFFFF01FFFFFFFFFFFFFFFFFFFFFFAD
S214404CD0FFFFFFFFFFFFFFFF01FFFFFFFFFFFFFF9D
S214404CE0FFFFFFFFFFFFFFFFFFFFFFFF01FFFFFF8D
S214404CF0FFFFFFFFFFFFFFFFFFFFFFFFFFFFFFFF7F
S214404D0001FFFFFFFFFFFFFFFFFFFFFFFFFFFFFF6C
S214404D10FFFFFFFF01FF83C1F0783E00003E0FFF1C
S214404D20C01FFFC1E0F8000001FF83C1F0783E00DD
S214404D30003E0FFFC01FFFC1E0F8000001FF83C127
S214404D40F0783E00003E0FFFC01FFFC1E0F80000B5
S214404D5001FF83C1F0783E00003E0FFFC01FFFC139
S214404D60E0F8000001FF83C1F0783E00003E0FFFF0
S214404D70C01FFFC1E0F8000001F003C0000001FFC3
S214404D8087C1FFF801E007FE00FFC01F01F003C027
S214404D90000001FF87C1FFF801E007FE00FFC01FCB
S214404DA001F003C0000001FF87C1FFF801E007FEE5
S214404DB000FFC01F01F003C0000001FF87C1FFF8DD
S214404DC001E007FE00FFC01F01F0003E0FF83E0F57
S214404DD0803E0F003E1F07C1FFF83FE001F0003E57
S214404DE00FF83E0F803E0F003E1F07C1FFF83FE022
S214404DF001F0003E0FF83E0F803E0F003E1F07C1F9
S214404E00FFF83FE001F0003E0FF83E0F803E0F00F7
S214404E103E1F07C1FFF83FE001F0003E0FF83E0F8F
S214404E20803E0F003E1F07C1FFF83FE001FF83FEB4
S214404E300F8001F07FC1FF07FE00FFC1E0FFFFFFCC
S214404E4001FF83FE0F8001F07FC1FF07FE00FFC118
S214404E50E0FFFFFF01FF83FE0F8001F07FC1FF07E9
S214404E60FE00FFC1E0FFFFFF01FF83FE0F8001F061
S214404E707FC1FF07FE00FFC1E0FFFFFF01FF83FE8B
S214404E800F8001F07FC1FF07FE00FFC1E0FFFFFF7C
S214404E9001FF83C00F8001F0783E0F003E00FFFE0A
S214404EA01FFFFC0001FF83C00F8001F0783E0F001B
S214404EB03E00FFFE1FFFFC0001FF83C00F8001F095
S214404EC0783E0F003E00FFFE1FFFFC0001FF83C040
S214404ED00F8001F0783E0F003E00FFFE1FFFFC00F3
S214404EE001FF83C00F8001F0783E0F003E00FFFEBA
S214404EF01FFFFC0001FFFFC0007FC1FF87FFFF00D0
S214404F003E1F07FFFFF803FF01FFFFC0007FC1FF02
S214404F1087FFFF003E1F07FFFFF803FF01FFFFC0AC
S214404F20007FC1FF87FFFF003E1F07FFFFF803FF1C
S214404F3001FFFFC0007FC1FF87FFFF003E1F07FF46
S214404F40FFF803FF01FF83C1FFF83FFF803E0FF8E5
S214404F503E000001FFFFC00001FF83C1FFF83FFF96
S214404F60803E0FF83E000001FFFFC00001FF83C1F6
S214404F70FFF83FFF803E0FF83E000001FFFFC000F5
S214404F8001FF83C1FFF83FFF803E0FF83E0000015F
S214404F90FFFFC00001FF83C1FFF83FFF803E0FF8D0
S214404FA03E000001FFFFC00001F07FC00FFFFFF092
S214404FB07FC1FFFFFE00F8001FFFC3FF01F07FC068
S214404FC00FFFFFF07FC1FFFFFE00F8001FFFC3FF8B
S214404FD001F07FC00FFFFFF07FC1FFFFFE00F8002B
S214404FE01FFFC3FF01F07FC00FFFFFF07FC1FFFF31
S214404FF0FE00F8001FFFC3FF01F07FC00FFFFFF069
S2144050007FC1FFFFFE00F8001FFFC3FF01FF8001C6
S214405010F07FC0007FC00F003E00FFC1E0F83FE0D9
S21440502001FF8001F07FC0007FC00F003E00FFC13F
S214405030E0F83FE001FF8001F07FC0007FC00F0036
S2144050403E00FFC1E0F83FE001FF8001F07FC00076
S2144050507FC00F003E00FFC1E0F83FE001FF800147
S214405060F07FC0007FC00F003E00FFC1E0F83FE089
S21440507001FFFFC0007FFFF00001FFF83FFF003F49
S214405080E0003FFF01FFFFC0007FFFF00001FFF898
S2144050903FFF003FE0003FFF01FFFFC0007FFFF003
S2144050A00001FFF83FFF003FE0003FFF01FFFFC069
S2144050B0007FFFF00001FFF83FFF003FE0003FFFAA
S2144050C001FFFFC0007FFFF00001FFF83FFF003FF9
S2144050D0E0003FFF01F07C3E0F87FFFF87C00F07D1
S2144050E0FFE0FFC01FF803E001F07C3E0F87FFFFA4
S2144050F087C00F07FFE0FFC01FF803E001F07C3ECB
S2144051000F87FFFF87C00F07FFE0FFC01FF803E0D1
S21440511001F07C3E0F87FFFF87C00F07FFE0FFC010
S2144051201FF803E001FFFFC0007FC1FFF801FF0743
S214405130C1E007C1E0F8001F01FFFFC0007FC1FFCC
S214405140F801FF07C1E007C1E0F8001F01FFFFC0FC
S214405150007FC1FFF801FF07C1E007C1E0F8001F6C
S21440516001FFFFC0007FC1FFF801FF07C1E007C194
S214405170E0F8001F01FFFFC0007FC1FFF801FF07F6
S214405180C1E007C1E0F8001F01FFFC3FFFFFC00F72
S21440519080000FFFFE0000001F003C0001FFFC3FA8
S2144051A0FFFFC00F80000FFFFE0000001F003C0006
S2144051B001FFFC3FFFFFC00F80000FFFFE00000016
S2144051C01F003C0001FFFC3FFFFFC00F80000FFFA9
S2144051D0FE0000001F003C0001FFFC3FFFFFC00F29
S2144051E080000FFFFE0000001F003C0001F07C0026
S2144051F00FFFFE000001FFF83FFFF801E0FFC3FF8E
S21440520001F07C000FFFFE000001FFF83FFFF801B1
S214405210E0FFC3FF01F07C000FFFFE000001FFF837
S2144052203FFFF801E0FFC3FF01F07C000FFFFE00E8
S2144052300001FFF83FFFF801E0FFC3FF01F07C00EC
S2144052400FFFFE000001FFF83FFFF801E0FFC3FF3D
S21440525001F07C3E0F87C1F0783E0F07C1E0F83E74
S2144052601F07C3E001F07C3E0F87C1F0783E0F0772
S214405270C1E0F83E1F07C3E001F07C3E0F87C1F057
S214405280783E0F07C1E0F83E1F07C3E001F07C3EC2
S2144052900F87C1F0783E0F07C1E0F83E1F07C3E016
S2144052A001FFFFFFFFFFFFFFFFFFFFFFFFFFFFFFC7
S2144052B0FFFFFFFF01FFFFFFFFFFFFFFFFFFFFFFB7
S2144052C0FFFFFFFFFFFFFFFF01FFFFFFFFFFFFFFA7
S2144052D0FFFFFFFFFFFFFFFFFFFFFFFF01FFFFFF97
S2144052E0FFFFFFFFFFFFFFFFFFFFFFFFFFFFFFFF89
S2144052F001FFFFFFFFFFFFFFFFFFFFFFFFFFFFFF77
S214405300FFFFFFFF01FFFC3FFFF8000F87C00FFFC6
S214405310C000FFC00007FC0001FFFC3FFFF8000F85
S21440532087C00FFFC000FFC00007FC0001FFFC3F26
S214405330FFF8000F87C00FFFC000FFC00007FC004B
S21440534001FFFC3FFFF8000F87C00FFFC000FFC003
S2144053500007FC0001FFFC3FFFF8000F87C00FFF6F
S214405360C000FFC00007FC0001F07FFFF00001F026
S21440537007C1FFFFC1E0FFC01FFFFFFF01F07FFF37
S214405380F00001F007C1FFFFC1E0FFC01FFFFFFFB5
S21440539001F07FFFF00001F007C1FFFFC1E0FFC052
S2144053A01FFFFFFF01F07FFFF00001F007C1FFFF86
S2144053B0C1E0FFC01FFFFFFF01F07FFFF00001F0DC
S2144053C007C1FFFFC1E0FFC01FFFFFFF01F0003E27
S2144053D0007FFE0F87FE0F07FFFFF801E007FC0087
S2144053E001F0003E007FFE0F87FE0F07FFFFF8012B
S2144053F0E007FC0001F0003E007FFE0F87FE0F072F
S214405400FFFFF801E007FC0001F0003E007FFE0FC2
S21440541087FE0F07FFFFF801E007FC0001F003C11D
S214405420F078000FFFFFFFF80000F8001FF83C1F61
S21440543001F003C1F078000FFFFFFFF80000F8000E
S2144054401FF83C1F01F003C1F078000FFFFFFFF884
S2144054500000F8001FF83C1F01F003C1F078000F71
S214405460FFFFFFF80000F8001FF83C1F01F003C1E3
S214405470F078000FFFFFFFF80000F8001FF83C1F11
S21440548001F07C000F87C1FFF8000FFFFFE0FFC16F
S214405490E0003C0001F07C000F87C1FFF8000FFFE2
S2144054A0FFE0FFC1E0003C0001F07C000F87C1FF39
S2144054B0F8000FFFFFE0FFC1E0003C0001F07C0079
S2144054C00F87C1FFF8000FFFFFE0FFC1E0003C0080
S2144054D001F07C000F87C1FFF8000FFFFFE0FFC11F
S2144054E0E0003C0001FF803FFF87C00F8001FFFFC8
S2144054F0C1E007FE000003FF01FF803FFF87C00FAB
S2144055008001FFFFC1E007FE000003FF01FF803F70
S214405510FF87C00F8001FFFFC1E007FE000003FFCA
S21440552001FF803FFF87C00F8001FFFFC1E007FEFD
S214405530000003FF01FF803FFF87C00F8001FFFF91
S214405540C1E007FE000003FF01FF83C1F07FC000FB
S21440555007FE0F07FFFF07FE00F83C0001FF83C170
S214405560F07FC00007FE0F07FFFF07FE00F83C0075
S21440557001FF83C1F07FC00007FE0F07FFFF07FE55
S21440558000F83C0001FF83C1F07FC00007FE0F0714
S214405590FFFF07FE00F83C0001FF83C1F07FC0001C
S2144055A007FE0F07FFFF07FE00F83C0001F07FFEF6
S2144055B00FF800007FFFFF07C1FF0001E000001F5B
S2144055C001F07FFE0FF800007FFFFF07C1FF0001DC
S2144055D0E000001F01F07FFE0FF800007FFFFF078E
S2144055E0C1FF0001E000001F01F07FFE0FF8000041
S2144055F07FFFFF07C1FF0001E000001F01FF8000A2
S214405600007801FF87C00FF8001F000000FFC000B1
S21440561001FF8000007801FF87C00FF8001F0000E0
S21440562000FFC00001FF8000007801FF87C00FF830
S214405630001F000000FFC00001FF8000007801FF4F
S21440564087C00FF8001F000000FFC00001FF800069
S214405650007801FF87C00FF8001F000000FFC00061
S21440566001FF803FF0783FFFFFC1FFF83E0007FE96
S2144056701F003FFF01FF803FF0783FFFFFC1FFF86C
S2144056803E0007FE1F003FFF01FF803FF0783FFFD0
S214405690FFC1FFF83E0007FE1F003FFF01FF803FAF
S2144056A0F0783FFFFFC1FFF83E0007FE1F003FFFB8
S2144056B001FF803FF0783FFFFFC1FFF83E0007FE46
S2144056C01F003FFF01F003FE0078000FF8000F00B8
S2144056D03FFFFFC1E0F8000001F003FE0078000F36
S2144056E0F8000F003FFFFFC1E0F8000001F003FEA6
S2144056F00078000FF8000F003FFFFFC1E0F8000001
S21440570001F003FE0078000FF8000F003FFFFFC1D6
S214405710E0F8000001F003FE0078000FF8000F00EC
S2144057203FFFFFC1E0F8000001F07FC0007FFFF0C0
S214405730003FFF00001FF83FE0F803FF01F07FC086
S214405740007FFFF0003FFF00001FF83FE0F803FF38
S21440575001F07FC0007FFFF0003FFF00001FF83FD2
S214405760E0F803FF01F07FC0007FFFF0003FFF003E
S214405770001FF83FE0F803FF01F0003E0000000F76
S214405780FFFE0FFFC1E0FFFFFFFFC00001F0003E3D
S2144057900000000FFFFE0FFFC1E0FFFFFFFFC0004D
S2144057A001F0003E0000000FFFFE0FFFC1E0FFFFCC
S2144057B0FFFFC00001F0003E0000000FFFFE0FFF9D
S2144057C0C1E0FFFFFFFFC00001F0003E0000000FF9
S2144057D0FFFE0FFFC1E0FFFFFFFFC00001F000012A
S2144057E0F07FC1F00001FFFFFE00F83FE0F8001F29
S2144057F001F00001F07FC1F00001FFFFFE00F83F1E
S214405800E0F8001F01F00001F07FC1F00001FFFF4B
S214405810FE00F83FE0F8001F01F00001F07FC1F005
S2144058200001FFFFFE00F83FE0F8001F01F0000116
S214405830F07FC1F00001FFFFFE00F83FE0F8001FD8
S21440584001F07C3E0F87C1F0783E0F07C1E0F83E7E
S2144058501F07C3E001F07C3E0F87C1F0783E0F077C
S214405860C1E0F83E1F07C3E001F07C3E0F87C1F061
S214405870783E0F07C1E0F83E1F07C3E001F07C3ECC
S2144058800F87C1F0783E0F07C1E0F83E1F07C3E020
S21440589001F07C3E0F87C1F0783E0F07C1E0F83E2E
S2144058A01F07C3E000000000000000000000FFFFEC
S2144058B0FFFFFFFFFFFFFFFFFFFFFFFFFFFFFFFFB3
