:020000040040BA
:10000000280A002079014000750140007501400078
:1000100075014000750140007501400000000000BE
:10002000000000000000000000000000750140001A
:10003000750140000000000075014000750140009E
:1000400075014000750140007501400075014000D8
:1000500075014000750140007501400075014000C8
:10006000750140007501400000000000750140006E
:1000700075014000750140007501400075014000A8
:100080007501400075014000750140007501400098
:100090007501400075014000750140007501400088
:1000A0007501400075014000750140007501400078
:1000B00075014000750140000000000000000000D4
:1000C0000000000000000000000000000000000030
:1000D0000000000000000000000000000000000020
:1000E0000000000000000000000000000000000010
:1000F000000000000000000000000000750140004A
:10010000750140007501400010B5054C237833B9E6
:10011000044B13B10448AFF300800123237010BDDA
:100120004C0300200000000094E744000C4B43B156
:100130000C480D4910B5AFF300800C48036823B993
:1001400010BD0A48036833B97047094B002BF7D03C
:10015000BDE810401847064B002BF5D0184700BFEC
:100160000000000094E744005003002094E744009E
:1001700000000000FEE7000008B5174B174A9A423E
:1001800010D0174B144A9A420CD2013B9B1A23F011
:10019000030304331344114951F8040B42F8040BD0
:1001A0009A42F9D10F4B104A9A420AD2013B9B1A4C
:1001B00023F0030304331344002142F8041B934249
:1001C000FBD10A4A0A4B23F07F039360094B9847FF
:1001D000094B9847FEE700BF0000002094E7440069
:1001E0004C030020280400204C03002000ED00E018
:1001F000000040003D354000D134400008B50248C1
:10020000024B984708BD00BF10E000E01903400012
:1002100008B5354B9847354B9B6913F4006F03D1F4
:100220004FF40062314B1A61304B9B6913F4805FCD
:1002300003D14FF480522D4B1A612D4A536843F479
:10024000004353602B4B01225A61C3F890205A6639
:100250001A604FF400725A61C3F890205A661A600F
:100260004FF480615963196119604FF400625A6359
:100270001A611A604FF480505863186118604FF487
:1002800000505863186118604FF48040586318613B
:1002900018604FF400305863186118604FF4000084
:1002A0001863186118604FF080705861C3F89000AF
:1002B000586618604FF000705863186118604FF06E
:1002C00080605863186118604FF00050186318611F
:1002D000186003F500735963196119605A631A6154
:1002E0001A60054B984708BD7D03400000040E408E
:1002F00050140E40000E0E40FD014000EFF310833D
:10030000036072B6BFF35F8F7047BFF35F8F036800
:1003100083F310887047000008B5024B1860024B49
:10032000984708BD680300204104400010B5044B05
:100330001C68044B984701462046034B984710BD64
:100340006803002071034000550440000346064A3C
:10035000126822B1044A10680344136070470349CD
:10036000014A1160F6E700BF6C030020280A002054
:1003700045F6C05303FB00F07047000000B583B0A2
:1003800001A80D4B98470D4AD2F8883043F470030A
:10039000C2F88830BFF34F8FBFF36F8F01A8084BAF
:1003A0009847084A136823F470631360064B984714
:1003B00003B05DF804FB00BFFD02400000ED00E06B
:1003C0000B034000000A0E40CD0340001B4A136A95
:1003D00043F45C1343F008031362936E13F4003F7D
:1003E000FBD0164A136A23F0700343F45C1343F006
:1003F00020031362936E13F4003FFBD00F4A136A7D
:1004000023F0807343F45C131362136B23F0030334
:1004100043F001031363936E13F0080FFBD0074AF8
:10042000136B23F070031363936E13F0080FFBD06C
:10043000024B00229A6380221A60704700040E402B
:10044000034B6FF07F425A6005221A60704700BF6D
:1004500010E000E00B0E03B330B45D1EEDB2284691
:10046000124A6FF07F4454609460136813F4803F25
:10047000FBD00138C0B2FF28F5D1A5EB056501F12D
:100480007F4101312944094B596099601A4613682C
:1004900013F4803FFBD030BC7047044B5960996027
:1004A0001A46136813F4803FFBD0704710E000E059
:1004B00008B5024B1B681B68984708BD8C030020D9
:1004C00008B5024B1B68DB6A984708BD2004002072
:1004D00008B5024B1B681B6B984708BD2004002021
:1004E00030B585B0084C24689DF82C5003959DF8D4
:1004F00028500295BDF824500195BDF82050009574
:10050000646BA04705B030BD200400202DE9F04FFA
:1005100089B0BDF848100691BDF84C1007919DF8C0
:1005200050809DF85490C84543D0002A41D005938F
:100530000492029000230393DFF87CA02AE0B9F133
:10054000080F04D031194A4689B20198D0470134C6
:10055000082C0DD02B78234113F0010FEFD0B8F108
:10056000080FF4D03119424689B20198D047EEE71E
:10057000013FBFB20836B6B22FB107EB0B05029BA5
:100580001D440024E6E7039B01339BB20393049AC6
:100590009A420ED9059A1346571EBFB2002FF2D0C9
:1005A000039903FB01FB079E069B0B449BB201933F
:1005B000E3E709B0BDE8F08FC10440002DE9F04F3A
:1005C00087B0BDF84090BDF8441005919DF8487083
:1005D0009DF84C80474545D0002A43D019460493E6
:1005E00013460291421801924B449BB20393DFF8E9
:1005F0007CA02AE0B8F1080F04D03119424689B234
:100600004846D0470134082C0DD015F8013C234151
:1006100013F0010FEED0082FF4D031193A4689B209
:100620004846D047EEE70836B6B2013D5D4501D0F9
:100630000024EAE709F101091FFA89F9019B029AEE
:1006400013440193039B99450CD0049B002BF1D0DC
:10065000C3F1000B6FEA0B4B6FEA1B4B019DAB44E0
:10066000059EE5E707B0BDE8F08F00BFC10440007C
:1006700010B584B09DF8244003949DF82040029466
:10068000BDF81C400194BDF818400094014CA047EF
:1006900004B010BDBD0540002DE9F04F87B0BDF896
:1006A0004090BDF8441005919DF848709DF84C802D
:1006B000474545D0002A43D019460493134602917A
:1006C000421801924B449BB20393DFF87CA02AE0CE
:1006D000B8F1080F04D03119424689B24846D047D4
:1006E0000134082C0DD015F8013C234113F0010F03
:1006F000EED0082FF4D031193A4689B24846D04797
:10070000EEE70836B6B2013D5D4501D00024EAE7C8
:1007100009F101091FFA89F9019B029A1344019317
:10072000039B99450CD0049B002BF1D0C3F1000B27
:100730006FEA0B4B6FEA1B4B019DAB44059EE5E74F
:1007400007B0BDE8F08F00BFC10440002DE9F04FB5
:1007500087B0BDF8401005919DF848709DF84C8019
:10076000474549D00392002A46D00293019003F5F1
:10077000FF531F33BDF8442002EBC3039BB2049325
:1007800000230093DFF878A028E0B8F1080F04D028
:100790003119424689B24846D0470134082C0CD062
:1007A0002B78234113F0010FEFD0082FF5D031192A
:1007B0003A4689B24846D047EFE7083EB6B201351F
:1007C0005D4501D00024EBE7009B01330093019AC3
:1007D00002990A440192039A93420DD0029B002B86
:1007E000F2D0019D05EB030B049E059B009A03EBE1
:1007F00002091FFA89F9E5E707B0BDE8F08F00BFED
:10080000C10440002DE9F04F87B0BDF840100591BC
:100810009DF848709DF84C80474549D00392002AC6
:1008200046D00293019003F5FF531F33BDF84420D7
:1008300002EBC3039BB2049300230093DFF878A07C
:1008400028E0B8F1080F04D03119424689B2484671
:10085000D0470134082C0CD02B78234113F0010F22
:10086000EFD0082FF5D031193A4689B24846D04723
:10087000EFE7083EB6B201355D4501D00024EBE755
:10088000009B01330093019A02990A440192039A52
:1008900093420DD0029B002BF2D0019D05EB030B80
:1008A000049E059B009A03EB02091FFA89F9E5E70C
:1008B00007B0BDE8F08F00BFC10440002DE9F04F44
:1008C00087B0BDF8401005919DF848709DF84C80A8
:1008D000474549D00392002A46D00293019003F580
:1008E000FF531F33BDF8442002EBC3039BB20493B4
:1008F00000230093DFF878A028E0B8F1080F04D0B7
:100900003119424689B24846D0470134082C0CD0F0
:100910002B78234113F0010FEFD0082FF5D03119B8
:100920003A4689B24846D047EFE7083EB6B20135AD
:100930005D4501D00024EBE7009B01330093019A51
:1009400002990A440192039A93420DD0029B002B14
:10095000F2D0019D05EB030B049E059B009A03EB6F
:1009600002091FFA89F9E5E707B0BDE8F08F00BF7B
:10097000C10440002DE9F04F89B0BDF84810069140
:10098000BDF84C1007919DF850809DF85490C845D3
:1009900043D0002A41D00593049202900023039390
:1009A000DFF87CA02AE0B9F1080F04D031194A46DB
:1009B00089B20198D0470134082C0DD02B782341FF
:1009C00013F0010FEFD0B8F1080FF4D031194246FF
:1009D00089B20198D047EEE7013FBFB20836B6B200
:1009E0002FB107EB0B05029B1D440024E6E7039B98
:1009F00001339BB20393049A9A420ED9059A134687
:100A0000571EBFB2002FF2D0039903FB01FB079ED4
:100A1000069B0B449BB20193E3E709B0BDE8F08F5E
:100A2000C10440002DE9F04F87B0BDF84090BDF8FB
:100A3000441005919DF848709DF84C80474545D07D
:100A4000002A43D01946049313460291421801929A
:100A50004B449BB20393DFF87CA02AE0B8F1080F67
:100A600004D03119424689B24846D0470134082C97
:100A70000DD015F8013C234113F0010FEED0082FE3
:100A8000F4D031193A4689B24846D047EEE70836E5
:100A9000B6B2013D5D4501D00024EAE709F1010944
:100AA0001FFA89F9019B029A13440193039B99450C
:100AB0000CD0049B002BF1D0C3F1000B6FEA0B4B61
:100AC0006FEA1B4B019DAB44059EE5E707B0BDE80F
:100AD000F08F00BFC104400070470000F0B4224B0B
:100AE0004FF080621A614FF400321A614FF40062D5
:100AF0001A614FF400521A614FF480521A614FF498
:100B000080421A6108BB184B4FF080675F634FF457
:100B100000361E634FF400651D634FF400541C63E0
:100B20004FF4805058634FF4804159634FF0007286
:100B30005A61C3F890205A661F601E601D601C60D9
:100B4000186019601A60F0BC704703F500734FF429
:100B500080625A61C3F890205A661A604FF40062AE
:100B60001A611A631A60CEE7000E0E40314B9B8863
:100B70009BB2834222D92F4BDB889BB28B421DD97B
:100B800010B42C4B1B78DBB2012B18D0294B1B78EF
:100B9000DBB2022B1ED0274B1B78DBB2032B27D0F6
:100BA00001EB8101C1EBC10101EBE003C04300F0A7
:100BB00007004AB3012A32D05DF8044B7047CB10CE
:100BC000C3F1220300EB8000C0EBC000034401F03E
:100BD0000700EEE740F21714A4EBE0046FF02203E5
:100BE00003FB014101F582437D3300F00700E0E79C
:100BF00044F27D1303EBE1036FF0220404FB0033A6
:100C0000C84300F00700D4E70B4A12681269C0B26B
:100C100001218140D05C20EA0100D054CCE7064A93
:100C200012681169C0B2012202FA00F0CA5C1043D6
:100C3000C854C1E7040400202004002010B4444C30
:100C40006488A4B284424FD9414CA488A4B28C4297
:100C50004AD93F4B1B786BB13D4B1B78DBB2022B63
:100C600008D04FF4967303FB01F101EB500300F041
:100C7000010107E04FF4967303FB00F303EB51030C
:100C800001F00101002932D132490968096912F0E5
:100C9000080FC85C14BF60F07F0000F07F00C854EC
:100CA0002C490968096912F0040FC85C14BF40F0B0
:100CB000400020F04000C85426490968096912F034
:100CC000020FC85C14BF40F0200020F02000C85480
:100CD00020490968096912F0010FCA5C14BF42F08B
:100CE000100222F01002CA545DF8044B70471949F3
:100CF0000968096912F0080FC85C14BF40F00800C9
:100D000020F00800C85413490968096912F0040F5B
:100D1000C85C14BF40F0040020F00400C8540D4922
:100D20000968096912F0020FC85C14BF40F00200A4
:100D300020F00200C85407490968096912F0010F40
:100D4000CA5C14BF42F0010222F00102CA54CBE790
:100D5000A00300202004002008B51AB10F22034B85
:100D6000984708BD014B984708BD00BF3D0C4000A7
:100D70002DE9F04F87B0BDF840100291002A37D01E
:100D80000192059304904FF0000A03F1FF3B1FFA14
:100D90008BFBBDF844300393DFF85C805C46BBF10D
:100DA000000F1ED0039D059B049A03FB0A29029B9A
:100DB00003EB0A07BFB219F8046006F00F0282F0D5
:100DC000FF0229463846C0476FEA1612691CD2B2A4
:100DD00089B23846C047013CA4B20235ADB2002CFE
:100DE000E9D10AF1010A1FFA8AFA019B5345D5D8C5
:100DF00007B0BDE8F08F00BF3D0C4000334B9B882F
:100E00009BB283421CD910B4304BDC88A4B28C4214
:100E100014D95B78DBB2012B13D02C4B5B78DBB29F
:100E2000032B0ED04FF4967303FB01F101EB50033B
:100E300000F0010050B36AB1012A19D05DF8044BEB
:100E400070474FF4967303FB00F000EB510301F081
:100E50000100EFE71E490A681069C25C22F0020235
:100E6000C2540A681169CA5C22F00102CA54E5E75B
:100E700017490A681069C25C42F00202C2540A684B
:100E80001169CA5C42F00102CA54D7E77AB1012A5B
:100E9000D4D10F490A681069C25C42F02002C254E2
:100EA0000A681169CA5C42F01002CA54C6E70849D0
:100EB0000A681069C25C22F02002C2540A681169F3
:100EC000CA5C22F01002CA54B8E700BFF803002041
:100ED00020040020954B9B889BB283423FD910B4DD
:100EE000924BDC88A4B28C4237D95B78DBB2012B01
:100EF00017D08E4B5B78DBB2032B12D04FF4967376
:100F000003FB01F101EB500300F00100002800F0A9
:100F1000B380072A21D8DFE802F00D235F73374B37
:100F2000879B4FF4967303FB00F000EB510301F035
:100F30000100EBE77E4A11680869C15C21F00401F9
:100F4000C15411680869C15C21F00201C1541268E2
:100F50001169CA5C22F00102CA545DF8044B704763
:100F6000734A11680869C15C21F00401C154116819
:100F70000869C15C21F00201C15412681169CA5CA0
:100F800042F00102CA54E8E7694A11680869C15C85
:100F900021F00401C15411680869C15C41F00201EB
:100FA000C15412681169CA5C22F00102CA54D4E724
:100FB0005F4A11680869C15C21F00401C1541168DD
:100FC0000869C15C41F00201C15412681169CA5C30
:100FD00042F00102CA54C0E7554A11680869C15C71
:100FE00041F00401C15411680869C15C21F002019B
:100FF000C15412681169CA5C22F00102CA54ACE7FC
:101000004B4A11680869C15C41F00401C154116880
:101010000869C15C21F00201C15412681169CA5CFF
:1010200042F00102CA5498E7414A11680869C15C5C
:1010300041F00401C15411680869C15C41F002012A
:10104000C15412681169CA5C22F00102CA5484E7D3
:10105000374A11680869C15C41F00401C154116844
:101060000869C15C41F00201C15412681169CA5C8F
:1010700042F00102CA5470E7072A3FF66EAFDFE87C
:1010800002F00418596D2C408195294A11680869AD
:10109000C15C21F04001C15411680869C15C21F0B4
:1010A0002001C15412681169CA5C22F01002CA54AE
:1010B00053E71F4A11680869C15C21F04001C1541F
:1010C00011680869C15C21F02001C15412681169DE
:1010D000CA5C42F01002CA543FE7154A1168086919
:1010E000C15C21F04001C15411680869C15C41F044
:1010F0002001C15412681169CA5C22F01002CA545E
:101100002BE70B4A11680869C15C21F04001C1540A
:1011100011680869C15C41F02001C154126811696D
:10112000CA5C42F01002CA5417E700BFF80300205F
:1011300020040020274A11680869C15C41F0400181
:10114000C15411680869C15C21F02001C1541268C2
:101150001169CA5C22F01002CA54FEE61D4A1168E9
:101160000869C15C41F04001C15411680869C15C63
:1011700021F02001C15412681169CA5C42F01002CA
:10118000CA54EAE6134A11680869C15C41F040019B
:10119000C15411680869C15C41F02001C154126852
:1011A0001169CA5C22F01002CA54D6E6094A1168D5
:1011B0000869C15C41F04001C15411680869C15C13
:1011C00041F02001C15412681169CA5C42F010025A
:1011D000CA54C2E620040020944B9B889BB28342F1
:1011E00040F27781914BDB889BB28B4240F2718158
:1011F0008E4B5B78DBB2012B17D08C4B5B78DBB26C
:10120000032B12D001EB8101890101EB500300F0A7
:101210000100002800F0B180072A00F25A81DFE8BF
:1012200002F00C205C703448849800EB800083014D
:1012300003EB510301F00100EBE77D4A11680869F7
:10124000C15C21F00401C15411680869C15C21F03E
:101250000201C15412681169CA5C22F00102CA5429
:101260007047734A11680869C15C21F00401C154D8
:1012700011680869C15C21F00201C154126811694A
:10128000CA5C42F00102CA547047694A1168086991
:10129000C15C21F00401C15411680869C15C41F0CE
:1012A0000201C15412681169CA5C22F00102CA54D9
:1012B00070475F4A11680869C15C21F00401C1549C
:1012C00011680869C15C41F00201C15412681169DA
:1012D000CA5C42F00102CA547047554A1168086955
:1012E000C15C41F00401C15411680869C15C21F07E
:1012F0000201C15412681169CA5C22F00102CA5489
:1013000070474B4A11680869C15C41F00401C1543F
:1013100011680869C15C21F00201C15412681169A9
:10132000CA5C42F00102CA547047414A1168086918
:10133000C15C41F00401C15411680869C15C41F00D
:101340000201C15412681169CA5C22F00102CA5438
:101350007047374A11680869C15C41F00401C15403
:1013600011680869C15C41F00201C1541268116939
:10137000CA5C42F00102CA547047072A00F2A980F1
:10138000DFE802F00418586C2C408094284A116859
:101390000869C15C21F04001C15411680869C15C51
:1013A00021F02001C15412681169CA5C22F01002B8
:1013B000CA5470471E4A11680869C15C21F0400197
:1013C000C15411680869C15C21F02001C154126840
:1013D0001169CA5C42F01002CA547047144A11687D
:1013E0000869C15C21F04001C15411680869C15C01
:1013F00041F02001C15412681169CA5C22F0100248
:10140000CA5470470A4A11680869C15C21F040015A
:10141000C15411680869C15C41F02001C1541268CF
:101420001169CA5C42F01002CA547047F8030020E8
:1014300020040020274A11680869C15C41F040017E
:10144000C15411680869C15C21F02001C1541268BF
:101450001169CA5C22F01002CA5470471D4A116813
:101460000869C15C41F04001C15411680869C15C60
:1014700021F02001C15412681169CA5C42F01002C7
:10148000CA547047134A11680869C15C41F04001B1
:10149000C15411680869C15C41F02001C15412684F
:1014A0001169CA5C22F01002CA547047094A1168D7
:1014B0000869C15C41F04001C15411680869C15C10
:1014C00041F02001C15412681169CA5C42F0100257
:1014D000CA54704720040020F0B5284C2478E4B2A8
:1014E000032C0CD8DFE804F002101C26234CE38800
:1014F000591A8BB2E688B6B2A788BFB20546B34286
:1015000001D2BD421ED3F0BD1C4CA388181A83B271
:10151000E588691A8DB2A688B6B2E788BFB2EEE751
:10152000164CA588281A85B2E688B6B2A788BFB23D
:101530000B46E4E7114B9E88B6B2DF88BFB20D467A
:101540000346DCE70E490968013303EB830303EB31
:101550008303A3EBE503013B9BB2096905F0070593
:1015600032B90122AA40CD5C25EA0205CD54CAE772
:101570000122AA40CD5C1543CD54F0BDA803002044
:101580002004002070B4374C2389E588E488A4B295
:10159000844226D99BB2ADB2324C2489A4B28C428B
:1015A0001FD9304CE478E4B2012C1CD02D4CE478E7
:1015B000E4B2032C17D0C3F3C70300FB03336FEA75
:1015C000E100034401F0070126488078D0B926489D
:1015D0000068446982B901208840E15C21EA000189
:1015E000E15470BC7047C5F3C705C30801FB053360
:1015F000C14301F00701E7E701208840E15C0143B6
:10160000E154EEE7BAB1023AD2B2012A01D800267B
:1016100012E0154C22681569012202FA01F0EA5C19
:101620000243EA54226852691A4401208840117822
:1016300001431170D5E701260B4C22681569012280
:1016400002FA01F0EA5C22EA0002EA5422685469D4
:10165000E218002EE9D101208840E15C21EA000176
:10166000E154BEE7E80300202004002008B5014B48
:10167000984708BD8515400010B4154CA3886488B0
:10168000A4B2844217D99BB2114CA488A4B28C4254
:1016900011D9C3F3C70300FB03F3A3EBE103013B41
:1016A00001F0070152B10B4A1268506901228A40C9
:1016B000C15C1143C1545DF8044B7047054A126880
:1016C000506901228A40C15C21EA0201C154F2E75B
:1016D000800300202004002030B40D4619B94FF4D7
:1016E00000620E4B5A6308230C4A4FF480544FF4A7
:1016F000804110F0800F14BF1463546311634000E5
:10170000C0B25163013B13F0FF03F2D11DB94FF496
:101710000062024B1A6330BC704700BF000E0E40DF
:10172000F8B50C4615460B4E4FF4003777634FF46F
:10173000006373630021084B9847376345B1254424
:101740000027054E394614F8010BB047A542F9D1E0
:10175000F8BD00BF000E0E40D916400010B582B093
:101760000022114604201E4B98471E4AD36B13F0EB
:10177000007FFBD0202255211046194CA0474FF482
:10178000007281212220A047802200212620A0472C
:1017900001238DF8003000238DF801308DF80230E0
:1017A0008DF803307F228DF804208DF80530FF235B
:1017B0008DF80630072269461220A047094AD36BEC
:1017C00013F0007FFBD0002211460220044B984703
:1017D000044AD36B13F0007FFBD102B010BD00BFF1
:1017E00021174000000E0E4010B5002211460420C3
:1017F0000A4CA047002211461220A047084AD36B8A
:1018000013F0007FFBD0002211460220034B9847C3
:10181000034AD36B13F0007FFBD010BD21174000AB
:10182000000E0E4038B50546002211460420234C18
:10183000A047234B1B684FF4945219691020A0470E
:10184000002211461120A0471E4AD36B13F0007FDF
:10185000FBD01B4B1B684FF4945259691320174C53
:10186000A047002211461120A047164AD36B13F05F
:10187000007FFBD0BDB90022114602200F4B9847D4
:10188000104AD36B13F0007FFBD00F4B9B784BB902
:101890000B4802685169C95C1269D1540133B3F530
:1018A000945FF6D138BD002211461220034B9847B1
:1018B000044AD36B13F0007FFBD0DCE72117400014
:1018C00020040020000E0E40E803002010B5002286
:1018D000114604200A4CA047002211461220A047BE
:1018E000084AD36B13F0007FFBD000221146022080
:1018F000034B9847034AD36B13F0007FFBD010BD16
:1019000021174000000E0E4038B505460022114652
:1019100004201D4CA0471D4B1B6841F2F852196969
:101920001020A047002211461120A047184AD36B6F
:1019300013F0007FFBD0154B1B6841F2F852596938
:101940001320114CA047002211461120A047104A35
:10195000D36B13F0007FFBD055B900221146022053
:10196000094B98470A4AD36B13F0007FFBD038BD70
:10197000002211461220044B9847054AD36B13F0FE
:10198000007FFBD0E9E700BF2117400020040020C2
:10199000000E0E4000B583B0144B5B78DBB2012B18
:1019A00019D0F7238DF80430012201A92220104B11
:1019B0009847104AD36B13F0007FFBD100221146E9
:1019C00020200B4B98470B4AD36B13F0007FFBD1C1
:1019D00003B05DF804FB054B9B781BB9C7238DF85A
:1019E0000430E1E7FF238DF80430DDE7A803002091
:1019F00021174000000E0E4008B5002211460420B9
:101A00000D4B98470D4AD36B13F0007FFBD000229B
:101A100011461220084B9847084AD36B13F0007FF9
:101A2000FBD0002211460220034B9847034AD36B98
:101A300013F0007FFBD008BD21174000000E0E40C0
:101A400010B50446164B1B684FF40C321969102070
:101A5000144B9847144AD36B13F0007FFBD004B9A2
:101A600010BD0022114604200E4B98470E4AD36B3E
:101A700013F0007FFBD0002211461220094B98473B
:101A8000094AD36B13F0007FFBD0002211460220DD
:101A9000044B9847044AD36B13F0007FFBD0DFE779
:101AA0002004002021174000000E0E4008B500223F
:101AB000114604200D4B98470D4AD36B13F0007F5D
:101AC000FBD0002211461220084B9847084AD36BDE
:101AD00013F0007FFBD0002211460220034B9847F1
:101AE000034AD36B13F0007FFBD008BD21174000E1
:101AF000000E0E4010B50446164B1B68164A1969B5
:101B00001020164B9847164AD36B13F0007FFBD07A
:101B100004B910BD002211460420104B9847104A0A
:101B2000D36B13F0007FFBD00022114612200B4B29
:101B300098470B4AD36B13F0007FFBD0002211466D
:101B40000220064B9847064AD36B13F0007FFBD068
:101B5000DFE700BF20040020000D02002117400035
:101B6000000E0E4010B50022114604200A4CA0477A
:101B7000002211461220A047084AD36B13F0007FC1
:101B8000FBD0002211460220034B9847034AD36B37
:101B900013F0007FFBD010BD21174000000E0E4057
:101BA00038B50546002211460420144CA047144BBA
:101BB0001B68144A19691020A04700221146112001
:101BC000A047114AD36B13F0007FFBD055B9002218
:101BD00011460220094B98470B4AD36B13F0007F44
:101BE000FBD038BD002211461220044B9847064A0C
:101BF000D36B13F0007FFBD0E9E700BF2117400053
:101C000020040020000D0200000E0E4070B584B0CC
:101C1000002211460420174B9847174AD36B13F044
:101C2000007FFBD018238DF8043000248DF8054088
:101C30008DF806408DF807408DF8084002268DF893
:101C4000096058238DF80A3001238DF80B30E0230A
:101C50008DF80C30092201A91220064DA847224612
:101C600021463046A847044AD36B13F0007FFBD0CF
:101C700004B070BD21174000000E0E4008B50C4B9B
:101C8000DB787BB969220B4932200B4B9847002245
:101C900011462020084B9847084AD36B13F0007F69
:101CA000FBD108BD692206493220034B9847EEE775
:101CB000040400207436400021174000000E0E403E
:101CC000E036400070B582B0064600248DF804402E
:101CD0008DF80540022201A94E20154DA8478DF828
:101CE00004408DF80540022201A94F20A847114B5E
:101CF0001B6844F2A01219692420A84786B10E4B34
:101D0000DB787BB969220D493220A84700221146B1
:101D10002020074B98470A4AD36B13F0007FFBD172
:101D200002B070BD692207493220014B9847EDE7A8
:101D300021174000200400200404002074364000D5
:101D4000000E0E40E03640002DE9F04F83B0814692
:101D50000C463D490978C9B201294AD03A49097867
:101D6000C9B202295CD038490978C9B2032960D0C8
:101D700004EB8405C5EBC50505EBE00100F0F80BAD
:101D80000BEB020002F0070BCBF1080B50FA8BFBB8
:101D9000BBF1000FB8BF0BF1070BCBF3CF0B2B4AF6
:101DA000126815690D440BB3C9F3012A23441FFAC5
:101DB00083F80227264E8DF804908DF805A03A4648
:101DC00001A94E20B0478DF80440C4F301238DF8DB
:101DD00005303A4601A94F20B04723355A462946D7
:101DE0002420B0470134A4B24445E4D103B0BDE897
:101DF000F08FE11831F0070148BF0731C910C1F178
:101E0000220100EB8005C5EBC5052944C3F58C70A4
:101E1000001B4FEAD30B13464C461FFA80F9BEE76E
:101E2000C108C1F5854214326FF0220505FB04217B
:101E3000B5E76FF0220101FB04F101EBE40101F5CC
:101E400082417D31ABE700BF040400202004002064
:101E5000211740002DE9F04182B0804602AC7D237D
:101E600004F8043D012221462C202A4DA8471827BA
:101E70008DF8047000268DF805600222214644206A
:101E8000A8478DF80470012221464E20A847C72399
:101E90008DF804308DF80560022221464F20A847B6
:101EA0001D4B1B6841F2883219692420A8471B4A40
:101EB000D36B13F0007FFBD1B8F1000F02D102B059
:101EC000BDE8F081164B5B78DBB2012B17D0F7230E
:101ED0008DF800300122694622200E4B98470F4AA8
:101EE000D36B13F0007FFBD1002211462020094B59
:101EF00098470A4AD36B13F0007FFBD1DFE7084B0A
:101F00009B781BB9C7238DF80030E3E7FF238DF8DA
:101F10000030DFE72117400020040020000E0E40B3
:101F2000A803002070B586B0054600238DF8103058
:101F30008DF811308DF812308DF8133002238DF8A2
:101F4000143058238DF8153001238DF81630E02316
:101F50008DF81730082204A98320294CA047294B6B
:101F60001B68294A19691020A047284B1B78DBB24F
:101F7000012B0FD0254B1B78DBB2022B0AD002239A
:101F80008DF81030012204A9E0201D4B98472DB98F
:101F900006B070BD03238DF81030F3E70022114620
:101FA0000420174B98471A4AD36B13F0007FFBD0DD
:101FB00018238DF8043000248DF805408DF8064074
:101FC0008DF807408DF8084002268DF809605823E7
:101FD0008DF80A3001238DF80B30E0238DF80C309A
:101FE000092201A91220064DA84722462146304663
:101FF000A847074AD36B13F0007FFBD0C8E700BFA8
:10200000211740002004002080320200A00300209D
:10201000000E0E4030B585B0054600238DF808301F
:102020008DF809308DF80A307F228DF80B208DF85D
:102030000C30FF238DF80D30062202A914202A4C03
:10204000A0472A4B1B684FF4805259691620A047BD
:1020500065B90023254802685169C95C1269D154E9
:102060000133B3F5805FF6D105B030BD00221146D3
:102070000420A0471E4AD36B13F0007FFBD0202220
:1020800055211046184CA0474FF4007281212220A0
:10209000A047802200212620A04701238DF8003090
:1020A00000238DF801308DF802308DF803307F2247
:1020B0008DF804208DF80530FF238DF806300722B7
:1020C00069461220A0470A4AD36B13F0007FFBD069
:1020D000002211460220044B9847054AD36B13F0A7
:1020E000007FFBD1B5E700BF21174000200400208E
:1020F000000E0E40F8B505461446104B9847CDB972
:102100000E4B9847ACB1C4F30A06A41BE50A09D0EC
:1021100000240A4F4FF40063013BFDD1B84701345E
:10212000A542F7D11EB1002301339E42FCD1034BDF
:102130009847F8BD014B9847E2E700BFB104400063
:1021400010B50023014CA04710BD00BFF520400092
:1021500030B585B02E4C94F83040E4B2032C0BD847
:10216000DFE804F002273547ADF80410ADF80600AB
:10217000ADF80830ADF80A209DF82030ADF80C30ED
:10218000012201A93420234CA04701220DF10601B0
:102190000020A047012202A90020A04701220DF142
:1021A0000A010020A047012203A90020A04705B092
:1021B00030BDADF804001648008D80B2411AC91A2E
:1021C000ADF80610ADF80820ADF80A30D4E7104D90
:1021D0006C8DA4B2611AC91AADF80410298D89B2A8
:1021E000081A801AADF80600ADF80830ADF80A20DC
:1021F000C2E7074C648DA4B2201A801AADF804001F
:10220000ADF80610ADF80820ADF80A30B4E700BF0D
:10221000B00300204121400030B585B00024ADF866
:102220000440ADF80640114B5A8DADF808201B8DC7
:10223000ADF80A30ADF80C00012201A934200C4D94
:10224000A84701220DF106012046A847012202A954
:102250002046A84701220DF10A012046A847012285
:1022600003A92046A84705B030BD00BFB003002039
:10227000412140002DE9F04F85B080460D461646BD
:102280001F46484B1C68DFF82491D9F83430D9F840
:1022900034A040F20A22ADF800201B0CADF8023049
:1022A000022269461120DFF800B1D8474FF40273CB
:1022B000ADF80030ADF802A0022269461120D847DF
:1022C00099F83030DBB2022B29D0032B29D0012B17
:1022D00014BF0023012343F02003ADF80430ADF810
:1022E0000650ADF80880ADF80A70ADF80C60052214
:1022F00001A921202C4B98472C4B93F8303093B1F7
:102300002A4B93F83030DBB2022B0CD0274B1B8DBD
:10231000C3F38D0308FB03F804EB48040BE002232E
:10232000D9E70323D7E7214B5B8DC3F38D0308FB6C
:1023300003F804EB4804AD0804EB4504B04646B38B
:10234000BF084FEA470ABB460025DFF85C90174EEE
:1023500009E0738DC3F38D03A3EB0B0304EB43047C
:102360000135454515D03A4621460020C84754441A
:1023700096F83030002BECD096F83030DBB2022BE0
:10238000E7D0338DC3F38D03A3EB0B0304EB4304BE
:10239000E6E7002211462220034B984705B0BDE82E
:1023A000F08F00BF9403002041214000B0030020C3
:1023B00030B585B00024ADF80440ADF80640114BAF
:1023C0005A8DADF808201B8DADF80A300223ADF808
:1023D0000C30012201A934200B4DA84701220DF138
:1023E00006012046A847012202A92046A84701224B
:1023F0000DF10A012046A847012203A92046A8475B
:1024000005B030BDB00300204121400010B50123CC
:10241000014CA04710BD00BFF5204000F0B585B0CD
:102420000546334C636B676B40F20A22ADF804201B
:102430001B0CADF80630022201A911202D4EB04729
:102440004FF40273ADF80430ADF80670022201A912
:102450001120B04794F83030DBB2022B1DD0032B93
:102460001DD0012B14BF0023012343F0200304A936
:1024700021F8023D012220201E4CA0471C4BDA6AA5
:1024800052081D4B196800201C4B9847002211462A
:102490002220A0472DB905B0F0BD0223E5E70323B4
:1024A000E3E70024ADF80440ADF80640104B5A8D28
:1024B000ADF808201B8DADF80A300223ADF80C30C2
:1024C000012201A934200B4DA84701220DF106017C
:1024D0002046A847012202A92046A84701220DF163
:1024E0000A012046A847012203A92046A847D2E7AF
:1024F000B003002041214000940300200D2440003F
:1025000032B901238B40017821EA03010170704741
:1025100001238B400178194301707047F8B5314BA6
:102520001E68738883423ED9B3888B423BD92E4BB9
:1025300093F830307BB12C4B93F83030DBB2022B68
:1025400009D0294B5C88C4F34E044B0800FB0434CB
:1025500001F0010108E0244B1C88C4F34E044B0831
:1025600000FB043401F001011546E9B13069C2F302
:10257000C002072120441D4EB0471A4F3B6818691E
:10258000C5F3800206212044B0473B681869C5F3B3
:10259000400205212044B0473B68186905F001025C
:1025A00004212044B047F8BD3069C2F3C0020321C2
:1025B00020440E4EB0470B4F3B681869C5F38002AC
:1025C00002212044B0473B681869C5F3400201214D
:1025D0002044B0473B68186905F0010200212044FF
:1025E000B047F8BD20040020B003002001254000C2
:1025F0002DE9F04F87B0BDF84080BDF84490002130
:10260000ADF81610BDF8161089B28A426AD91E4676
:1026100001928246354FDFF8D8B058E0BDF812304D
:1026200002339BB2ADF81230BDF8143001339BB2C7
:10263000ADF81430BDF814309BB2B3423BD2BDF8B4
:10264000164018FA84F4A4B2BDF81250ADB23B683B
:102650005A88A242E2D94D44ADB29B88AB42DDD943
:10266000BDF816309BB2BDF8142006FB03F31AFA2E
:1026700082F2D35C03F00F03ADF81030BDF81630D2
:102680009BB2BDF8142006FB03F31AFA82F2D35C66
:102690001B09ADF80E30BDF81020D243691CD2B230
:1026A00089B22046D847BDF80E20D243D2B229467F
:1026B0002046D847B2E7BDF8163001339BB2ADF8DB
:1026C0001630BDF816309BB2019A93420AD200230D
:1026D000ADF81230ADF81430BDF814309BB29E4204
:1026E000ADD8E8E707B0BDE8F08F00BF20040020B8
:1026F0001D25400070B50B480B4B984701200B4B34
:1027000098470B4D4FF400566E630120094CA047CB
:102710002E630120A0472A46D36B13F0007FFBD025
:1027200070BD00BF10E000E019034000DD0A40006A
:10273000000E0E402D03400010B582B00446006824
:1027400063490860217803290FD8DFE801F0022CE3
:102750004156637803F0FD03012B1CD05C494FF414
:1027600020728A804FF4F073CB8002218DF8001024
:102770008DF8012001228DF802208DF8033004220B
:1027800069466120534B98472378032B4DD8DFE8E7
:1027900003F0497E82864E494FF4F0738B804FF4EC
:1027A0002072CA80E1E7637803F0FD03012B07D0B4
:1027B00047494FF416728A804FF4E173CB80D4E717
:1027C00043494FF4E1738B804FF41672CA80CCE713
:1027D000637803F0FD03012B07D03D494FF42072CD
:1027E0008A804FF4E073CB80BFE739494FF4E07340
:1027F0008B804FF42072CA80B7E7637803F0FD0343
:10280000012B07D032494FF416728A804FF4E073DF
:10281000CB80AAE72E494FF4E0738B804FF41672F9
:10282000CA80A2E700238DF80030E278012A9DF8E3
:1028300000304FEA031308BF43F008038DF800305F
:102840006378012B36D073B3032B3AD09DF8003058
:102850005B00DBB28DF80030A178012904BF43F0A2
:1028600001038DF800309DF800305B0043F0010358
:102870008DF80030012A03BF08238DF801300222B1
:10288000012269460020134B984702B010BD012376
:102890008DF80030C9E702238DF80030C5E7032327
:1028A0008DF80030C1E79DF8003043F003038DF848
:1028B0000030CBE79DF8003043F002038DF8003084
:1028C000C4E79DF8003043F001038DF80030BDE708
:1028D000F803002021174000F0B583B00022114614
:1028E00004202A4B98472A4AD36B13F0007FFBD071
:1028F000012402A901F8044D22466520234B984784
:102900004FF40062234B5A6321460320224DA8470F
:1029100021460020A84721466420A84721460020E0
:10292000A847082300241A494FF48042194D0A632E
:10293000E86B10F4806F18BF44F001044A63012B68
:1029400005D06400E4B2013B13F0FF03EFD14FF474
:102950000062104B1A63002702AD05F8047D0122C6
:1029600029466520094EB0478DF8044001222946CA
:102970008220B0473A4639460220B047044AD36B1A
:1029800013F0007FFBD003B0F0BD00BF2117400063
:10299000000E0E4000100E40D916400070B584B0F5
:1029A00004460068019001A8604B98470C238DF8FD
:1029B00008302379012B04BF0D238DF808309DF8D2
:1029C00008305B00DBB28DF80830A279012A04BF21
:1029D00043F001038DF808309DF808305B00DBB24E
:1029E0008DF808306279012A04BF43F001038DF8A5
:1029F0000830E379032B29D8DFE803F0021C2024F8
:102A000000238DF80930E378012B0CBF2323052325
:102A10008DF80A308DF80B30042202A90120444BB6
:102A20009847E378BBB1237A032B20D8DFE803F083
:102A30001C5E626601238DF80930E4E702238DF8FD
:102A40000930E0E703238DF80930DCE7043BDBB213
:102A5000032BD8D8FEE704A9032301F8083D01227F
:102A6000E520334B9847DEE700238DF8083001223C
:102A700002A903202E4B9847E378012B42D0C723AD
:102A80008DF80830CC238DF8093028238DF80A30D2
:102A9000032202A90620264DA8473C238DF80830C2
:102AA000032202A93020A84700268DF808600122E1
:102AB00002A94120A84737238DF80830012202A936
:102AC0005020A84722238DF80830012202A9602057
:102AD000A8478DF80860012202A96520A847E3787D
:102AE000012B18D0E378F3B104B070BD10238DF83A
:102AF0000830BCE720238DF80830B8E730238DF884
:102B00000830B4E7C7238DF808308DF809301D234D
:102B10008DF80A30BCE704A9AA2301F8083D012278
:102B2000E320A847DEE7034B9847DDE7392740005D
:102B300021174000D928400070B506460D464FF4D5
:102B40000C30134B9847134B1860134CC4F83C01DE
:102B5000124B98470123F370022333703046104B19
:102B60009847737884F8383104F596740D4B1C60DF
:102B700000230C48112102681269D1540133B3F5C6
:102B80000C3FF8D105B970BD0120074B9847FAE713
:102B9000853540008803002000000020F526400015
:102BA0009D29400020040020411A4000F0B583B068
:102BB0005F4B1B685A88ADF804209B88ADF8003045
:102BC0000023ADF80630BDF8062092B2BDF80430FF
:102BD0009BB29A4280F0A9800446554D554E97E02D
:102BE000072C55D8DFE804F0040D1F1628313A43AE
:102BF000BDF80600BDF80210002289B280B2B047CD
:102C000046E0BDF80600BDF80210012289B280B28C
:102C1000B0473DE0BDF80600BDF80210032289B2BE
:102C200080B2B04734E0BDF80600BDF802100222C1
:102C300089B280B2B0472BE0BDF80600BDF80210A3
:102C4000042289B280B2B04722E0BDF80600BDF888
:102C50000210052289B280B2B04719E0BDF8060023
:102C6000BDF80210062289B280B2B04710E0BDF86C
:102C70000600BDF802103A4689B280B2B04707E0BC
:102C8000BDF80600BDF80210002289B280B2B0473C
:102C9000BDF8023001339BB2ADF80230BDF802201E
:102CA00092B2BDF800309BB29A4223D22B681B78B7
:102CB000062B95D0032CEBD801A353F824F000BFCA
:102CC000812C4000D12C4000E32C4000E32C40003C
:102CD000BDF80600BDF80210012289B280B2B047EB
:102CE000D6E7BDF80600BDF80210022289B280B214
:102CF000B047CDE7BDF8063001339BB2ADF80630E2
:102D0000BDF8062092B2BDF804309BB29A420CD2B4
:102D10000023ADF80230BDF8022092B2BDF80030B9
:102D20009BB29A42E6D20727C0E703B0F0BD00BFCE
:102D300020040020C10440002DE9F04F83B0054677
:102D40000091924698469DF830709DF8344002EB11
:102D5000000B584512DA0646DFF83C91013B0B4464
:102D60009BB201933A4600993046C8473A460199CA
:102D70003046C8470136B6B25E45F3DB009EB0442C
:102D8000464512DADFF810910AF1FF3AAA441FFA19
:102D90008AFA3A4631462846C8473A4631465046AE
:102DA000C8470136B6B24645F3DB082C71D0013571
:102DB000AEB20BF1FF3301939E426ADA009B0133FE
:102DC0001FFA83FBDFF8D0A05BE0072C31D8DFE8E7
:102DD00004F00409130E181D22270022294630464C
:102DE000D04726E0012229463046D04721E0032281
:102DF00029463046D0471CE0022229463046D047BB
:102E000017E0042229463046D04712E00522294621
:102E10003046D0470DE0062229463046D04708E02C
:102E2000072229463046D04703E000222946304693
:102E3000D0470135ADB2BD421EDAD9F800301B785B
:102E4000053BDBB2012BC0D9032CF2D801A353F808
:102E500024F000BF2B2E4000652E40006F2E400056
:102E60006F2E4000012229463046D047E1E702227A
:102E700029463046D047DCE70136B6B2019B9E4278
:102E800007DA5D4608F1FF37BB45F5DADFF80C904D
:102E9000D3E703B0BDE8F08FC10440002004002058
:102EA0002DE9F04F91B09DF8684001949DF86C4079
:102EB00002941E9C9DF87D709DF87E809DF87F5049
:102EC000ADF81E10ADF81A2000260C969DF87C1067
:102ED000401A0D900A960A980D9988423FD22646CC
:102EE0000C9816F8011B07FB01010C910A9901319E
:102EF0000A910A980D998842F2D3307807FB00F0C6
:102F00000C9E0D990644645C1D9907FB04118E42CA
:102F100080F0EA801C9C76490968097809290C9997
:102F200004BF01F1FF31C9190C44002109910C992A
:102F3000013908440B900C990A910A980B99884220
:102F400000F2D2801E46049203977B0005934FF057
:102F5000000BDFF8A0A1DFF8A091654F27E026461F
:102F6000CBE7B8F1010F2FD0CDF820B008230F9395
:102F70000F9B002B73D1099B01330993BDF81A30C5
:102F800008339BB2ADF81A303B681B78092B00F070
:102F90008F800134099B039A9A4200F098800A9B23
:102FA00001330A930A9A0B9B9A4200F29D80B8F172
:102FB000000FD6D13B681B78092BD5D0CDF83CB09B
:102FC0000F9B072B15D9D6E73B681B78092BCBD174
:102FD000F4E725BB4EBBBDF81C00BDF81810019AE4
:102FE00089B280B2C8470F9B01330F930F9B072B09
:102FF000C1D80F9A2378134103F001030E93BDF853
:103000001E309BB2ADF81C300F9ABDF81A3012FA80
:1030100083F39BB2ADF818300E9B012BD9D00E9BD9
:10302000002BE0D1012DDED1D4E7BDF81C00BDF8A6
:103030001810029A89B280B2D047D4E74DBB002E57
:103040002DD1BDF81C00BDF81810019A89B280B2CC
:10305000C8470F9B013B0F930F9B002B8BD00F9A00
:103060002378013A134103F001030E93BDF81E309B
:103070009BB2ADF81C30089ABDF81A3012FA83F3EF
:103080009BB2ADF81830089B013308930E9B012BBF
:10309000D4D00E9B002BDCD1012DDAD1CFE7BDF8C7
:1030A0001C00BDF81810029A89B280B2D047D0E750
:1030B000013C099B039A9A427FF471AFCDF824B08A
:1030C000BDF81030ADF81A30059B1C4405E0CDF872
:1030D00024B0BDF81030ADF81A30BDF81E30013301
:1030E0009BB2ADF81E305AE711B0BDE8F08F00BFBB
:1030F00020040020D1044000C10440002DE9F04F1D
:1031000089B0079290F800E0BEF1000F27D0074683
:103110000C469A468146002502AEA846DFF844B028
:1031200012AB0FCB86E80F00CDF80480CDF800A0DD
:103130004346079A21467046D84799F800309DF8D3
:1031400054209B1A149AD35C1C44A4B20135EDB2EE
:1031500007EB050917F805E0BEF1000FE0D109B053
:10316000BDE8F08FA12E400000B585B003238DF897
:10317000043000218DF8051001238DF806308DF8FC
:1031800007108DF808308DF80A308DF809308DF869
:103190000B108DF80C108DF80D108DF80E1001A885
:1031A000024B984705B05DF804FB00BF392B400087
:1031B0002DE9F04784B00546AC4C4FF48067676357
:1031C0000720AB4EB047AB4B1B685B6A01209847AA
:1031D00027634FF0005363630120B047012D4DD0AA
:1031E00075B1022D00F0FC80A24B1B685B6A0120C8
:1031F00098474FF000529D4B1A6304B0BDE8F0872A
:1032000008260396002402940194009438234FF476
:10321000167248F240319848984DA8470396052306
:1032200002930194009438234FF4167248F240310F
:103230009348A847039606230293019400943823E9
:103240004FF4167248F240318E48A8470396022385
:1032500002930194009438234FF4167248F24031DF
:103260008948A847894B0FCB8DE80F0001234FF405
:10327000C672C3218648874CA047B5E7864C04F543
:103280002A730FCB8DE80F0000231A4605218348CF
:10329000804FB84704F52E730FCB8DE80F00052340
:1032A0003E2207217E48B84704F5327595E80F00A5
:1032B0008DE80F0000236B2208217A48B8470123CC
:1032C00001934FF00008CDF80080642396224D2131
:1032D0004FF4D870DFF8F4A1D047052301930826F6
:1032E0000096642333224D214FF4D870D0474FF01D
:1032F0000209CDF804900096642333224D2140F258
:103300001320D04704F536730FCB8DE80F0006234A
:10331000A72233216448B84795E80F008DE80F00D5
:103320004346EC22EA216148B84703964FF0040A6D
:10333000CDF808A040F251130193212300930C23F0
:10334000D22240F6D8115A484C4DA84704F52674AD
:1033500094E80F008DE80F00534640F29F123C2185
:103360005448B84794E80F008DE80F00534640F2E8
:103370009F12A0215048B8470396CDF80880D02767
:10338000019740F23B1400941E2340F2451242F292
:1033900016614A48A8470396CDF808A00197009403
:1033A0001E2340F2451242F216614548A847039693
:1033B00006230293019700941E2340F2451242F225
:1033C00016614048A8470396CDF8089001970094ED
:1033D0001E2340F2451242F216613B48A84703E71C
:1033E0000024019400944FF4CC7350221421084619
:1033F000364DA8470123019300944FF4CC7350221B
:1034000014216420A8470223019300944FF4CC7345
:1034100050221421B420A8470423019300944FF4B0
:10342000CC73502214214FF48270A84705230193D6
:1034300000944FF4CC73502214214FF4AA70A84783
:103440000323019300944FF4CC73502214214FF4C2
:10345000D270A8470623019300944FF4CC735022F6
:1034600014214FF4FA70A847BEE600BF000E0E40CC
:10347000AD2B40002004002050434000E1044000F8
:1034800090C64000D049410010CD41009802002074
:10349000B8E64400FD30400000000020D0E64400C3
:1034A000E4E64400ECE64400FCE6440000E74400A7
:1034B0005050420004E744000CE74400285A420000
:1034C0004080420058A6420070CC4200392D400096
:1034D00008B5164B9847164B98474FF48062154B2A
:1034E0001A631C46144D1EE0E36B13F0010F14D059
:1034F000E36B13F4007F05D1E36B13F4007FFBD083
:103500003046A847E36B13F0807FEDD1E36B13F0F7
:10351000807FFBD00120A847E6E7E36B13F0010FA3
:10352000FBD00220A8470026E2E700BF11024000BE
:1035300069314000000E0E40B131400070B50D4EB3
:103540000D4CA41BA4100025A54209D10B4E0C4C18
:103550004BF010F9A41BA4100025A54205D170BDA5
:1035600056F8253098470135EEE756F8253098474C
:103570000135F2E780E7440080E7440080E744003B
:1035800084E74400024B0146186800F003B800BF0E
:10359000E802002070B5CD1C25F0030508350C2D80
:1035A00038BF0C25002D064601DBA94203D90C23A8
:1035B0003360002070BD00F05BF8234A1468214698
:1035C00091B9224C23681BB9304600F041F82060C5
:1035D0002946304600F03CF8431C26D10C233360CA
:1035E000304600F046F8E4E70B685B1B1AD40B2B5F
:1035F0000FD90B60CD50CC18304600F03AF804F1EA
:103600000B00231D20F00700C31A1BD05A42E250C2
:1036100070BD8C420DBF63684B686360136018BF58
:103620000C46E9E70C464968CAE7C41C24F00304C9
:10363000A04205D0211A304600F00AF80130CDD062
:103640002560D9E770BD00BF70030020740300201F
:1036500038B5064C0023054608462360FCF776FE85
:10366000431C02D1236803B12B6038BD2404002021
:10367000704770472A050000000000000000052A7E
:1036800000000000000000002A15000000000000FB
:103690000000050A0000000000000000000000001B
:1036A0000000000000000002030A0002060A0500F4
:1036B000000000000000000000000000000000000A
:1036C00000000000000000000000000000000000FA
:1036D0000000000000000000222222222200000040
:1036E00000000000000000000000012A00000000AF
:1036F000000000000A55000000000000000000006B
:1037000000000000000000000000000000000000B9
:10371000000000000505000503050500000000008D
:103720000000000000000000000000000000000099
:103730000000000000000000000000000000000089
:103740000000000022222222220000002418181863
:103750000018181008000000000000000000000021
:10376000411111110100000000000000101818287C
:1037700018181818080000000000000000000000E1
:103780003312221311000000000000002E0411006B
:103790000000000000000000000000001000000019
:1037A00000010000000100000001041000014400BD
:1037B0000000400000000000000040000000000089
:1037C00000014010000540100000000000145100EE
:1037D00000000000000000001000000010000000C9
:1037E00000014000001140000001041000014400ED
:1037F0000000400000000000000144100001000033
:1038000000014010000540100001000000155100AB
:103810000000100010000000100000001000000068
:10382000000140000011401000010410001144008C
:103830000001400000004010004144100001000061
:10384000001544100045441000010400001551000B
:103850000000100010000000100000001000000028
:103860000001440000114010000104100011440048
:10387000004140000000401000454410000140108D
:103880000015441000454410000544100025510067
:103890000400100010000000100040001000400064
:1038A00000014410001540100005041000114410E0
:1038B0000041400000114010004544100001441038
:1038C0000015441000454410000544100025510027
:1038D0000411540010004000100140001041440049
:1038E00000014410005540100445041000554410D8
:1038F00000454400001140100045441000014410F0
:1039000000154410004544100005541000255100D6
:103910000411540010014000100140001041440007
:10392000000544100055441404455410005544103B
:103930000045441000114410004544100005441097
:10394000005554140045541400055410002551002E
:1039500004555410140150001051441014414410E7
:1039600000455410045544140445541000554410A7
:1039700000454410005544100045541400154414EB
:1039800000555414004555140005541400295100E5
:103990000455541014015010105154101441441087
:1039A000005554100455441404455414005544144F
:1039B0001045541400554410004554140015541477
:1039C00000555414004555140005541400295100A5
:1039D000145554101401501010555414144144102F
:1039E00010555410045554140445541400554414EF
:1039F0001045541404555410004554140015541423
:103A00000055541400555514000554140029A10004
:103A100014555410140150141055541414415410DA
:103A20001455541404555414144554141055441486
:103A300010455414045554140045541400155414DE
:103A4000005555141155551411055414002AA2009F
:103A5000185554141401501410555414144154148E
:103A60001455541404555414144554141055541436
:103A7000104554140455541400455414111554148D
:103A8000015555141155551511055514106AA2000C
:103A90001855551414455414105554141441541405
:103AA00014555414145555141545551411555414E2
:103AB000114554141555541401455414111554143A
:103AC00001555514115555151105551410AAA60088
:103AD00018555514154554141055541414455414C0
:103AE000145554141455551515455515155554149C
:103AF00015455414155554140145541411155414F6
:103B000011555514115555151105551411AAA61026
:103B10001865551515455514145554141445541469
:103B2000145554141555551515455515156554144A
:103B30001545541415555414115555141155541454
:103B400011555514115555151105551411AAA610E6
:103B500018A5A955554555141455541415855514D3
:103B600015559915156555151545591515655914AA
:103B70001585551515555514119555141155541491
:103B800011555514115555155105555551AAAA10E1
:103B900018A5A9555955551515A5551555859914A7
:103BA0001556991515655555155559551565995558
:103BB00015959515156595141195551411565414B0
:103BC00011655554519595555115555551AAAA1041
:103BD00028AAA9556955951525A59515698599149E
:103BE0001596991515AA9555159A595555A699558D
:103BF0001595995515A59514119599141166951457
:103C000011699955519995555115595555AAAA5467
:103C100028AAA9556996A55525A699556986995446
:103C200019AA995515AA9555559A996555AA995560
:103C3000159A995555A59914159699145166991484
:103C400011AA995555AA95555115995555AAAA6481
:103C500028AAA9656996A55525AAA95569969954D2
:103C600019AAA96519AA9565599A996555AA9955E8
:103C7000159A995555AA9924159A9925556A991412
:103C800011AA996555AAA965511A995555AAAAA5C7
:103C900028AAA96569AAA56569AAA9656996A964FA
:103CA00059AAA96559AAA965599AA96555AA9965F4
:103CB000559A995555AA9964559A9965556A9924C2
:103CC00015AA996555AAA965511AA95555AAAAA573
:103CD00068AAAAA569AAA96569AAA965699AA96530
:103CE00059AAA96559AAA965599AA96555AAA965A4
:103CF000559AA96559AAA96455AAA96555AAA924DE
:103D000015AAA96555AAA965511AA96555AAAAAA0D
:103D100068AAAAAA68AAAA6969AAA969699AA965E2
:103D200069AAA96559AAAA6959AAAA6555AAA9653D
:103D300055AAA96559AAA96555AAA96555AAA9644C
:103D400055AAA96555AAAA65552AA96555AAAAAA78
:103D5000A8AAAAAAA8AAAA6A69AAA96969AAAA690C
:103D600069AAA96959AAAA6959AAAA6959AAA969ED
:103D700069AAA96959AAAA6555AAA96955AAA969EA
:103D800055AAAA6955AAAA69552AAA6555AAAAAA2E
:103D9000A8AAAAAAAAAAAAAA68AAAAAA68AAAAA90A
:103DA00068AAAA6A68AAAAAA68AAAA6A68AAA9693D
:103DB00068AAAA6958AAAA6954AAAA6954AAA969A8
:103DC00054AAAA6954AAAA6A542AAA6955AAAAAAEC
:103DD000A8AAAAAAAAAAAAAA68AAAAAAA8AAAAA98A
:103DE00068AAAAAA68AAAAAA68AAAAAA68AAAAA93C
:103DF00068AAAAAA68AAAA6958AAAA6964AAAA6902
:103E000054AAAAA964AAAAAA642AAA69599AAAAA17
:103E1000AAAAAAAAAAAAAAAA6AAAAAAAAAAAAAAA42
:103E20006AAAAAAA6AAAAAAA6AAAAAAA6AAAAAAAF2
:103E30006AAAAAAA6AAAAA696AAAAA696AAAAA69A5
:103E40006AAAAAA96AAAAAAAA62AAAAA68AAAAAA19
:103E5000AAAAAAAAAAAAAAAAAAAAAAAAAAAAAAAAC2
:103E6000AAAAAAAA6AAAAAAA6AAAAAAAAAAAAAAA32
:103E70006AAAAAAAAAAAAAA96AAAAAAAAAAAAA6964
:103E80006AAAAAAAAAAAAAAAA62AAAAAA84AAAAAB8
:103E9000AAAAAAAAAAAAAAAAAAAAAAAAAAAAAAAA82
:103EA000AAAAAAAAAAAAAAAAAAAAAAAAAAAAAAAA72
:103EB0006AAAAAAAAAAAAAAAAAAAAAAAAAAAAAA9A3
:103EC0006AAAAAAAAAAAAAAAA62AAAAAAA4AAAAA76
:103ED000AAAAAAAAAAAAAAAAAAAAAAAAAAAAAAAA42
:103EE000AAAAAAAAAAAAAAAAAAAAAAAAAAAAAAAA32
:103EF000AAAAAAAAAAAAAAAAAAAAAAAAAAAAAAAA22
:103F00006AAAAAAAAA9AAAAAAA1AAAAAAA4AAAAA51
:103F1000AA6AAAAAAA6AAAAAAA6AAAAAAA6AAAAA01
:103F2000AAAAAAAAAAAAAAAAAAAAAAAAAA9AAAAA01
:103F3000AA6AAAAAAA6AAAAAAA6AAAAAAA5AAAAAF1
:103F4000AAAAAAAAAAAAAAAAAA2AAAAAAA4AAAAAB1
:103F5000AA6AAAAAAA6AAAAAAA6AAAAAAA6AAAAAC1
:103F6000AA6AAAAAAA6AAAAAAA6AAAAAAA6AAAAAB1
:103F7000AA6AAAAAAA6AAAAAAA5AAAAAAA6AAAAAB1
:103F8000AA6AAAAAAA4AAAAAAA4AAAAAAA4AAAAAF1
:103F9000AA5AAAAAAA5AAAAAAA5AAAAAAA6AAAAAB1
:103FA000A66AAAAAAA6AAAAAAA5AAAAAAA4AAAAAA5
:103FB000AA5AAAAAAA5AAAAAAA6AAAAAAA49AAAAA2
:103FC000AA5AAAAAAA4A9AAAAA4AAAAAAA52AAAAC9
:103FD000A66A2AAAA66AAAAAA66AAAAAA66AAAAAD1
:103FE000AA6AA2AAAA529AAAAA622AAAAA4A9AAA19
:103FF000AA6AA2AAAA6A2AAAAA4AAAAAAA4A2AAA69
:10400000AA62AAAAAA4A2AAAAA4A22AAA612AAAABC
:10401000AA4A226AAA4AAAAAAA4AAAAAAA5A22AAC0
:10402000A25A22AAAA62AA6AAA4222AAAA42A2AAB8
:10403000AA42A2AAAA4220AAAA4AAAAAAA402AAA8C
:10404000A642A26AAA4A0A6AAA4A12AAAA1552AAA9
:10405000A24212AAA2429AAAA2429A6AA262126A30
:10406000A26212AAAA4288AAAA4220AAAA4202AA24
:10407000AA42226AAA4210AAA64AAA6AA640106ABE
:10408000AA4222AAA6420AAAAA4220AAA216626AA2
:10409000A211622AA2116A69A21162AAA21162A9DE
:1040A000A251626AA651482AA651506AA651426A94
:1040B000A65150AAA6516069AA5950A9AA5060A950
:1040C000A251522AAA514A2AAA514069A21552AABB
:1040D000A2164229A21648AAA2164229A216402ACE
:1040E000A21642A9AA164829AA1660A9AA1642AA87
:1040F000AA166029AA1640AAA216602A2214402AEB
:10410000A2566029A2564A29265640AAA2555519F8
:10411000A255541A22555418A255541AA25554188F
:10412000A255541AA255541AA255541AA2555419FC
:10413000A255541A22555418225554182255541871
:10414000A255541A2255541A2A5554182255552A44
:104150002655552826555528A655552826555528FF
:1041600026555528A6555528A65555282655552A6D
:10417000A6555528265555282655552826555528DF
:104180002655552826555528265555282655555423
:10419000065555540655555406555554065555540F
:1041A000265555542655555426555554265555547F
:1041B000265555542655555426555554265555546F
:1041C000265555542655555426555554265555555E
:1041D0005455555554555555545555555455555593
:1041E0005455555554555555545555555455555583
:1041F0005455555554555555545555555455555573
:104200005455555554555555545555555455555562
:104210005455555554555555545555555455555552
:104220005455555554555555545555555455555542
:104230005455555554555555545555555455555532
:104240005455555554555555545555555454AAAA79
:10425000A854AAAAA854AAAAA854AAAAA854AAAA1E
:10426000A854AAAAA854AAAAA854AAAAA854AAAA0E
:10427000A854AAAAA854AAAAA854AAAAA854AAAAFE
:10428000A854AAAAA854AAAAA854AAAAA850000046
:1042900008500000085000000850000008500000BE
:1042A00008500000085000000850000008500000AE
:1042B000085000000850000008500000085000009E
:1042C000085000000850000008500000084000009E
:1042D00008400000084000000840000008400000BE
:1042E00008400000084000000840000008400000AE
:1042F000084000000840000008400000084000009E
:1043000008400000084000000840000008000000CD
:10431000000000000000000000000000000000009D
:10432000000000000000000000000000000000008D
:10433000000000000000000000000000000000007D
:10434000000000000000000000000000000000006D
:10435000FFFFFFFFFFFFFFFFFE0000000000000067
:10436000000000000000000000000000000000004D
:10437000000000000000000000000000000000003D
:104380000000000000000000FFFFFFFFFFFFFFFF35
:10439000FE0000000000000000000000000000001F
:1043A000000000000000000000000000000000000D
:1043B00000000000000000000000000000000000FD
:1043C000FFFFFFFFFFFFFFFFFE00000000000000F7
:1043D00000000000000000000000000000000000DD
:1043E00000000000000000000000000000000000CD
:1043F0000000000000000000FFFFFFFFFFFFFFFFC5
:10440000FE000000000000000000000000000000AE
:10441000000000000000000000000000000000009C
:10442000000000000000000000000000000000008C
:10443000FFFFFFFFFFFFFFFFFE0000000000000086
:10444000000000000000000000000000000000006C
:10445000000000000000000000000000000000005C
:104460000000000000000000FFFFFFFFFFFFFFFF54
:10447000FE0000000000000000000000000000003E
:10448000000000000000000000000000000000002C
:10449000000000000000000000000000000000001C
:1044A000FFFFFFFFFFFFFFFFFE0000000000000016
:1044B00000000000000000000000000000000000FC
:1044C00000000000000000000000000000000000EC
:1044D0000000000000000000FFFFFFFFFFFFFFFFE4
:1044E000FE000000000000000000000000000000CE
:1044F00000000000000000000000000000000000BC
:1045000000000000000000000000000000000000AB
:10451000FFFFFFFFFFFFFFFFFE00000000000000A5
:10452000000000000000000000000000000000008B
:10453000000000000000000000000000000000007B
:104540000000000000000000FFFFFFFFFFFFFFFF73
:10455000FE0000000000000000000000000000005D
:10456000000000000000000000000000000000004B
:10457000000000000000000000000000000000003B
:10458000FFFFFFFFFFFFFFFFFE0000000000000035
:10459000000000000000000000000000000000001B
:1045A000000000000000000000000000000000000B
:1045B0000000000000000000FFFFFFFFFFFFFFFF03
:1045C000FE000000000000000000000000000000ED
:1045D00000000000000000000000000000000000DB
:1045E00000000000000000000000000000000000CB
:1045F000FFFFFFFFFFFFFFFFFE00000000000000C5
:1046000000000000000000000000000000000000AA
:10461000000000000000000000000000000000009A
:104620000000000000000000FFFFFFFFFFFFFFFF92
:10463000FE0000000000000000000000000000007C
:10464000000000000000000000000000000000006A
:10465000000000000000000000000000000000005A
:10466000FFFFFFFFFFFFFFFFFE0000000000000054
:10467000000000000000000000000000000000003A
:10468000000000000000000000000000000000002A
:104690000000000000000000FFFFFFFFFFFFFFFF22
:1046A000FE0000000000000000000000000000000C
:1046B00000000000000000000000000000000000FA
:1046C00000000000000000000000000000000000EA
:1046D000FFFFFFFFFFFFFFFFFE00000000000000E4
:1046E00000000000000000000000000000000000CA
:1046F00000000000000000000000000000000000BA
:104700000000000000000000FFFFFFFFFFFFFFFFB1
:10471000FE0000000000000000000000000000009B
:104720000000000000000000000000000000000089
:104730000000000000000000000000000000000079
:10474000FFFFFFFFFFFFFFFFFE0000000000000073
:104750000000000000000000000000000000000059
:104760000000000000000000000000000000000049
:104770000000000000000000FFFFFFFFFFFFFFFF41
:10478000FE0000000000000000000000000000002B
:104790000000000000000000000000000000000019
:1047A0000000000000000000000000000000000009
:1047B000FFFFFFFFFFFFFFFFFE0000000000000003
:1047C00000000000000000000000000000000000E9
:1047D00000000000000000000000000000000000D9
:1047E0000000000000000000FFFFFFFFFFFFFFFFD1
:1047F000FE000000000000000000000000000000BB
:1048000000000000000000000000000000000000A8
:104810000000000000000000000000000000000098
:10482000FFFFFFFFFFFFFFFFFE0000000000000092
:104830000000000000000000000000000000000078
:104840000000000000000000000000000000000068
:104850000000000000000000FFFFFFFFFFFFFFFF60
:10486000FE0000000000000000000000000000004A
:104870000000000000000000000000000000000038
:104880000000000000000000000000000000000028
:10489000FFFFFFFFFFFFFFFFFE0000000000000022
:1048A0000000000000000000000000000000000008
:1048B00000000000000000000000000000000000F8
:1048C0000000000000000000FFFFFFFFFFFFFFFFF0
:1048D000FE000000000000000000000000000000DA
:1048E00000000000000000000000000000000000C8
:1048F00000000000000000000000000000000000B8
:10490000FFFFFFFFFFFFFFFFFE00000000000000B1
:104910000000000000000000000000000000000097
:104920000000000000000000000000000000000087
:104930000000000000000000FFFFFFFFFFFFFFFF7F
:10494000FE00000000000000000000000000000069
:104950000000000000000000000000000000000057
:104960000000000000000000000000000000000047
:10497000FFFFFFFFFFFFFFFFFE0000000000000041
:104980000000000000000000000000000000000027
:104990000000000000000000000000000000000017
:1049A0000000000000000000FFFFFFFFFFFFFFFF0F
:1049B000FE000000000000000000000000000000F9
:1049C00000000000000000000000000000000000E7
:1049D00000000000000000000000000000000000D7
:1049E000FFFFFFFFFFFFFFFFFE00000000000000D1
:1049F00000000000000000000000000000000000B7
:104A000000000000000000000000000000000000A6
:104A10000000000000000000FFFFFFFFFFFFFFFF9E
:104A2000FE00000000000000000000000000000088
:104A30000000000000000000000000000000000076
:104A40000000000000000000000000000000000066
:104A5000FFFFFFFFFFFFFFFFFE0000000000000060
:104A60000000000000000000000000000000000046
:104A70000000000000000000000000000000000036
:104A80000000000000000000FFFFFFFFFFFFFFFF2E
:104A9000FE00000000000000000000000000000018
:104AA0000000000000000000000000000000000006
:104AB00000000000000000000000000000000000F6
:104AC000FFFFFFFFFFFFFFFFFE00000000000000F0
:104AD00000000000000000000000000000000000D6
:104AE00000000000000000000000000000000000C6
:104AF0000000000000000000FFFFFFFFFFFFFFFFBE
:104B0000FE000000000000000000000000000000A7
:104B10000000000000000000000000000000000095
:104B20000000000000000000000000000000000085
:104B3000FFFFFFFFFFFFFFFFFE000000000000007F
:104B40000000000000000000000000000000000065
:104B50000000000000000000000000000000000055
:104B60000000000000000000FFFFFFFFFFFFFFFF4D
:104B7000FE00000000000000000000000000000037
:104B80000000000000000000000000000000000025
:104B90000000000000000000000000000000000015
:104BA000FFFFFFFFFFFFFFFFFE000000000000000F
:104BB00000000000000000000000000000000000F5
:104BC00000000000000000000000000000000000E5
:104BD0000000000000000000FFFFFFFFFFFFFFFFDD
:104BE000FE000000000000000000000000000000C7
:104BF00000000000000000000000000000000000B5
:104C000000000000000000000000000000000000A4
:104C1000FFFFFFFFFFFFFFFFFE000000000000009E
:104C20000000000000000000000000000000000084
:104C30000000000000000000000000000000000074
:104C40000000000000000000FFFFFFFFFFFFFFFF6C
:104C5000FE00000000000000000000000000000056
:104C60000000000000000000000000000000000044
:104C70000000000000000000000000000000000034
:104C8000FFFFFFFFFFFFFFFFFE000000000000002E
:104C90000000000000000000000000000000000014
:104CA0000000000000000000000000000000000004
:104CB0000000000000000000FFFFFFFFFFFFFFFFFC
:104CC000FE000000000000000000000000000000E6
:104CD00000000000000000000000000000000000D4
:104CE00000000000000000000000000000000000C4
:104CF000FFFFFFFFFFFFFFFFFE00000000000000BE
:104D000000000000000000000000000000000000A3
:104D10000000000000000000000000000000000093
:104D20000000000000000000FFFFFFFFFFFFFFFF8B
:104D3000FE00000000000000000000000000000075
:104D40000000000000000000000000000000000063
:104D50000000000000000000000000000000000053
:104D6000FFFFFFFFFFFFFFFFFE000000000000004D
:104D70000000000000000000000000000000000033
:104D80000000000000000000000000000000000023
:104D90000000000000000000FFFFFFFFFFFFFFFF1B
:104DA000FE00000000000000000000000000000005
:104DB00000000000000000000000000000000000F3
:104DC00000000000000000000000000000000000E3
:104DD000FFFFFFFFFFFFFFFFFE00000000000000DD
:104DE00000000000000000000000000000000000C3
:104DF00000000000000000000000000000000000B3
:104E00000000000000000000FFFFFFFFFFFFFFFFAA
:104E1000FE00000000000000000000000000000094
:104E20000000000000000000000000000000000082
:104E30000000000000000000000000000000000072
:104E4000FFFFFFFFFFFFFFFFFE000000000000006C
:104E50000000000000000000000000000000000052
:104E60000000000000000000000000000000000042
:104E70000000000000000000FFFFFFFFFFFFFFFF3A
:104E8000FE00000000000000000000000000000024
:104E90000000000000000000000000000000000012
:104EA0000000000000000000000000000000000002
:104EB000FFFFFFFFFFFFFFFFFE00000000000000FC
:104EC00000000000000000000000000000000000E2
:104ED00000000000000000000000000000000000D2
:104EE0000000000000000000FFFFFFFFFFFFFFFFCA
:104EF000FE000000000000000000000000000000B4
:104F000000000000000000000000000000000000A1
:104F10000000000000000000000000000000000091
:104F2000FFFFFFFFFFFFFFFFFE000000000000008B
:104F30000000000000000000000000000000000071
:104F40000000000000000000000000000000000061
:104F50000000000000000000FFFFFFFFFFFFFFFF59
:104F6000FE00000000000000000000000000000043
:104F70000000000000000000000000000000000031
:104F80000000000000000000000000000000000021
:104F9000FFFFFFFFFFFFFFFFFE000000000000001B
:104FA0000000000000000000000000000000000001
:104FB00000000000000000000000000000000000F1
:104FC0000000000000000000FFFFFFFFFFFFFFFFE9
:104FD000FE000000000000000000000000000000D3
:104FE00000000000000000000000000000000000C1
:104FF00000000000000000000000000000000000B1
:10500000FFFFFFFFFFFFFFFFFE00000000000000AA
:105010000000000000000000000000000000000090
:105020000000000000000000000000000000000080
:105030000000000000000000FFFFFFFFFFFFFFFF78
:10504000FE00000000000000000000000000000062
:105050000000000000000000000000000000000050
:105060000000000000000000000000000000000040
:10507000FFFFFFFFFFFFFFFFFE000000000000003A
:105080000000000000000000000000000000000020
:105090000000000000000000000000000000000010
:1050A0000000000000000000FFFFFFFFFFFFFFFF08
:1050B000FE000000000000000000000000000000F2
:1050C00000000000000000000000000000000000E0
:1050D00000000000000000000000000000000000D0
:1050E000FFFFFFFFFFFFFFFFFE00000000000000CA
:1050F00000000000000000000000000000000000B0
:10510000000000000000000000000000000000009F
:105110000000000000000000FFFFFFFFFFFFFFFF97
:10512000FE00000000000000000000000000000081
:10513000000000000000000000000000000000006F
:10514000000000000000000000000000000000005F
:10515000FFFFFFFFFFFFFFFFFE0000000000000059
:10516000000000000000000000000000000000003F
:10517000000000000000000000000000000000002F
:105180000000000000000000FFFFFFFFFFFFFFFF27
:10519000FE00000000000000000000000000000011
:1051A00000000000000000000000000000000000FF
:1051B00000000000000000000000000000000000EF
:1051C000FFFFFFFFFFFFFFFFFE00000000000000E9
:1051D00000000000000000000000000000000000CF
:1051E00000000000000000000000000000000000BF
:1051F0000000000000000000FFFFFFFFFFFFFFFFB7
:10520000FE000000000000000000000000000000A0
:10521000000000000000000000000000000000008E
:10522000000000000000000000000000000000007E
:10523000FFFFFFFFFFFFFFFFFE0000000000000078
:10524000000000000000000000000000000000005E
:10525000000000000000000000000000000000004E
:105260000000000000000000FFFFFFFFFFFFFFFF46
:10527000FE00000000000000000000000000000030
:10528000000000000000000000000000000000001E
:10529000000000000000000000000000000000000E
:1052A000FFFFFFFFFFFFFFFFFE0000000000000008
:1052B00000000000000000000000000000000000EE
:1052C00000000000000000000000000000000000DE
:1052D0000000000000000000FFFFFFFFFFFFFFFFD6
:1052E000FE000000000000000000000000000000C0
:1052F00000000000000000000000000000000000AE
:10530000000000000000000000000000000000009D
:10531000FFFFFFFFFFFFFFFFFE0000000000000097
:10532000000000000000000000000000000000007D
:10533000000000000000000000000000000000006D
:105340000000000000000000FFFFFFFFFFFFFFFF65
:10535000FE0000000000000000000000000000004F
:10536000000000000000000000000000000000003D
:10537000000000000000000000000000000000002D
:10538000FFFFFFFFFFFFFFFFFE0000000000000027
:10539000000000000000000000000000000000000D
:1053A00000000000000000000000000000000000FD
:1053B0000000000000000000FFFFFFFFFFFFFFFFF5
:1053C000FE000000000000000000000000000000DF
:1053D00000000000000000000000000000000000CD
:1053E00000000000000000000000000000000000BD
:1053F000FFFFFFFFFFFFFFFFFE00000000000000B7
:10540000000000000000000000000000000000009C
:10541000000000000000000000000000000000008C
:105420000000000000000000FFFFFFFFFFFFFFFF84
:10543000FE0000000000000000000000000000006E
:10544000000000000000000000000000000000005C
:10545000000000000000000000000000000000004C
:10546000FFFFFFFFFFFFFFFFFE0000000000000046
:10547000000000000000000000000000000000002C
:10548000000000000000000000000000000000001C
:105490000000000000000000FFFFFFFFFFFFFFFF14
:1054A000FE000000000000000000000000000000FE
:1054B00000000000000000000000000000000000EC
:1054C00000000000000000000000000000000000DC
:1054D000FFFFFFFFFFFFFFFFFE00000000000000D6
:1054E00000000000000000000000000000000000BC
:1054F00000000000000000000000000000000000AC
:105500000000000000000000FFFFFFFFFFFFFFFFA3
:10551000FE0000000000000000000000000000008D
:10552000000000000000000000000000000000007B
:10553000000000000000000000000000000000006B
:10554000FFFFFFFFFFFFFFFFFE0000000000000065
:10555000000000000000000000000000000000004B
:10556000000000000000000000000000000000003B
:105570000000000000000000FFFFFFFFFFFFFFFF33
:10558000FE0000000000000000000000000000001D
:10559000000000000000000000000000000000000B
:1055A00000000000000000000000000000000000FB
:1055B000FFFFFFFFFFFFFFFFFE00000000000000F5
:1055C00000000000000000000000000000000000DB
:1055D00000000000000000000000000000000000CB
:1055E0000000000000000000FFFFFFFFFFFFFFFFC3
:1055F000FE000000000000000000000000000000AD
:10560000000000000000000000000000000000009A
:10561000000000000000000000000000000000008A
:10562000FFFFFFFFFFFFFFFFFE0000000000000084
:10563000000000000000000000000000000000006A
:10564000000000000000000000000000000000005A
:105650000000000000000000FFFFFFFFFFFFFFFF52
:10566000FE0000000000000000000000000000003C
:10567000000000000000000000000000000000002A
:10568000000000000000000000000000000000001A
:10569000FFFFFFFFFFFFFFFFFE0000000000000014
:1056A00000000000000000000000000000000000FA
:1056B00000000000000000000000000000000000EA
:1056C0000000000000000000FFFFFFFFFFFFFFFFE2
:1056D000FE000000000000000000000000000000CC
:1056E00000000000000000000000000000000000BA
:1056F00000000000000000000000000000000000AA
:10570000FFFFFFFFFFFFFFFFFE00000000000000A3
:105710000000000000000000000000000000000089
:105720000000000000000000000000000000000079
:105730000000000000000000FFFFFFFFFFFFFFFF71
:10574000FE0000000000000000000000000000005B
:105750000000000000000000000000000000000049
:105760000000000000000000000000000000000039
:10577000FFFFFFFFFFFFFFFFFE0000000000000033
:105780000000000000000000000000000000000019
:105790000000000000000000000000000000000009
:1057A0000000000000000000FFFFFFFFFFFFFFFF01
:1057B000FE000000000000000000000000000000EB
:1057C00000000000000000000000000000000000D9
:1057D00000000000000000000000000000000000C9
:1057E000FFFFFFFFFFFFFFFFFE00000000000000C3
:1057F00000000000000000000000000000000000A9
:105800000000000000000000000000000000000098
:105810000000000000000000FFFFFFFFFFFFFFFF90
:10582000FE0000000000000000000000000000007A
:105830000000000000000000000000000000000068
:105840000000000000000000000000000000000058
:10585000FFFFFFFFFFFFFFFFFE0000000000000052
:105860000000000000000000000000000000000038
:105870000000000000000000000000000000000028
:105880000000000000000000FFFFFFFFFFFFFFFF20
:10589000FE0000000000000000000000000000000A
:1058A00000000000000000000000000000000000F8
:1058B00000000000000000000000000000000000E8
:1058C000FFFFFFF8007FFFFFFE0000000000000068
:1058D00000000000000000000000000000000000C8
:1058E00000000000000000000000000000000000B8
:1058F0000000000000000000FFFFFFC0000FFFFFDE
:10590000FE00000000000000000000000000000099
:105910000000000000000000000000000000000087
:105920000000000000000000000000000000000077
:10593000FFFFFE000001FFFFFE000000000000006E
:105940000000000000000000000000000000000057
:105950000000000000000000000000000000000047
:105960000000000000000000FFFFF80000007FFFC3
:10597000FE00000000000000000000000000000029
:105980000000000000000000000000000000000017
:105990000000000000000000000000000000000007
:1059A000FFFFE00000001FFFFE00000000000000FD
:1059B00000000000000000000000000000000000E7
:1059C00000000000000000000000000000000000D7
:1059D0000000000000000000FFFFC00000000FFFFB
:1059E000FE000000000000000000000000000000B9
:1059F00000000000000000000000000000000000A7
:105A00000000000000000000000000000000000096
:105A1000FFFF8000000007FFFE0000000000000004
:105A20000000000000000000000000000000000076
:105A30000000000000000000000000000000000066
:105A40000000000000000000FFFF0000000003FF56
:105A5000FE00000000000000000000000000000048
:105A60001C0000000000000000000000000000001A
:105A70000000000000000000000000000000000026
:105A8000FFFE0100000001FFFE000000000000001A
:105A9000000000000000000019800000000000006D
:105AA00000000000000000000000000000000000F6
:105AB0000000000000000000FFFC0300000000FFE9
:105AC000FE000000000000000000000000000000D8
:105AD0001C3000000000000000000000000000007A
