S01E000073616D6432315F65743031317474325F5F345F315F362E7372656303
S2140000004024002019010000150100001501000021
S21400001000000000000000000000000000000000DB
S21400002000000000000000000000000015010000B5
S214000030000000000000000015010000150100008F
S2140000401501000015010000150100001501000053
S2140000501501000015010000150100001501000043
S2140000601501000015010000150100001501000033
S2140000701501000015010000150100001501000023
S2140000801501000015010000150100001501000013
S2140000901501000015010000150100001501000003
S2140000A015010000150100001501000015010000F3
S2140000B00000000010B5064C2378002B07D1054B36
S2140000C0002B02D0044800E000BF0123237010BDBF
S2140000D0580300200000000090C50100084B10B532
S2140000E0002B03D00749084800E000BF0748036814
S2140000F0002B00D110BD064B002BFBD09847F9E72C
S214000100000000005C03002090C5010090C50100BF
S21400011000000000FEE70000F8B52A4A2A4B9A4283
S21400012011D01A00294B9A420DD2294A03339B1A42
S2140001309B0801339B000022234822498C58845098
S21400014004329A42FAD1234A234B9A420AD2D34324
S21400015021495B1803218B4304339B18002102C2FC
S2140001609342FCD11D4AFF211D4B8B439360FD3902
S21400017090235B001B4AD1501B4AD3780325AB4320
S21400018002242343D370D3780C27BB43082633437B
S214000190D370164B987B30229043202210439873DE
S2140001A0997BB943314399739A7BAA4322439A7346
S2140001B00F4A536880210B4353600E4B98470E4BF3
S2140001C09847FEE790C50100000000205803002075
S2140001D004000020580300203C04002000ED00E04E
S2140001E0000000000070004100500041004800413F
S2140001F000400041E54900007D47000010B5024878
S214000200024B984710BDC04610E000E069030000AE
S214000210F8B5DE4657464E464546E0B5404B98474D
S214000220C022D2051023536193603E4B3E4999622B
S214000230C02424069C624425585D012188435855F5
S214000240202050619060394898629C620135585D64
S2140002508843585540208446506190603448824612
S21400026098629C620135585D8843585580205061DD
S21400027090603048804698629C620135585D88439D
S214000280585580252D0255602B4898622B48986259
S21400029055604F201E5C04273E431E5495611D5C2E
S2140002A08D431D5494269151393011502030244FDF
S2140002B01F501C50C027BB46DF5D8F43B9465F46C4
S2140002C04D46DD5565469551383FD55155461D502E
S2140002D01C50C625A9465D5D2F008F434D465F55D1
S2140002E0463D955108358027575145461D501C50B0
S2140002F04737DC5D8C43DC558024E4059451882523
S21400030054511C500F4A1A5036301A5C8A431A54FD
S2140003100D4B98473CBC90469946A246AB46F8BD66
S214000320CD030000004400411000004020000040C3
S214000330400000408000004000800240000002C0F4
S21400034001000040004000C0FD010000EFF31083F4
S214000350036072B6BFF35F8F7047BFF35F8F0368AB
S21400036083F310887047000010B5024B1860024BEC
S214000370984710BD740300200D05000010B5044B0F
S2140003801C68044B984701002000034B984710BD9B
S21400039074030020C1030000210500000300064A84
S2140003A01268002A04D0044A1068C3181360704705
S2140003B00249014A1160F6E7780300204024002035
S2140003C0014B58437047C046C05D000010B5074B50
S2140003D05A685A60064B9847064B98470820064CC2
S2140003E0A047064B9847F720A04710BD00400041A5
S2140003F041040000610400000104000095040000B0
S214000400C30709D50B4B802292009A600A4A5A60AD
S2140004101A005378DB09FCD1030709D5054B0422E3
S214000420FF329A60054A5A601A005378DB09FCD1FD
S2140004307047C046000C004000070100030401009E
S214000440064B1A7AD2B21A725A7AD2B25A729A7A7A
S214000450D2B29A72DA7AD2B2DA72704700040040E8
S2140004600B4A9369FE21C9030B404E210B4393614F
S214000470137F2F390B40137711000422CB681A42E2
S214000480FCD0034A936980210B4393617047C046B2
S214000490000800400222194B9A8419000E32CB68DD
S2140004A01A42FCD0164A154BDA62164B1B689B0E96
S2140004B03F2B1AD09B028022920013430F4A93626E
S2140004C002239384938C5B0712D51100D022CB684D
S2140004D01340D02BFBD1094A938C80210B43938485
S2140004E0094A5378DB09FCD17047FC23DB01E5E7BA
S2140004F002491022CB681A42FCD0ECE70008004004
S2140005000000010424608000000C0040024B034AF7
S2140005105A6005221A60704710E000E0FFFFFF00F7
S21400052070B50B0E5E1EF6B2002B13D034000E4ACA
S2140005300E4D802040025560956013680342FCD043
S214000540013CE4B2FF2CF6D13306F61A084B9C4663
S21400055061447118044B5960996019008022520258
S2140005600B681342FCD070BD10E000E0FFFFFF00F8
S214000570010000FF10B5024B1B681B68984710BDB2
S2140005809C03002010B5024B1B685B6A984710BDA1
S2140005903404002010B5024B1B68DB6A984710BD78
S2140005A03404002010B5024B1B681B6B984710BD27
S2140005B034040020F0B5DE4657464E464546E0B5C4
S2140005C08BB0039005921800079314AB1988089116
S2140005D015AB1988099116AB1F7817AB19788946A1
S2140005E08F4251D0002A4FD0002204920300013BD4
S2140005F09BB20693284B9B46B84633E04B46082BE7
S21400060003D04A4621000198D84701350134A4B2E8
S214000610082D0BD033782B41DB07EFD5082FF4D00D
S2140006203A00210001981C4B9847EEE74346013BF1
S2140006309BB29846534608339BB29A464346002BD5
S21400064008D0029B43441E00039B9C4666445446C7
S2140006500025DFE7B846049B01339BB20493059A56
S2140006609A4211D9069B1F1EF5D0079B049A534346
S2140006700293099B9A46089B944663449BB2019357
S2140006804346B8461F00DCE70BB03CBC9046994694
S214000690A246AB46F0BDC04695050000F0B5DE4666
S2140006A057464E464546E0B58BB003900592180077
S2140006B0079314AB1988089115AB1988099116ABE6
S2140006C01F7817AB197889468F4251D0002A4FD031
S2140006D0002204920300013B9BB20693284B9B46E4
S2140006E0B84633E04B46082B03D04A462100019813
S2140006F0D84701350134A4B2082D0BD033782B41EE
S214000700DB07EFD5082FF4D03A00210001981C4BE8
S2140007109847EEE74346013B9BB29846534608335C
S2140007209BB29A464346002B08D0029B43441E00C9
S214000730039B9C46664454460025DFE7B846049B68
S21400074001339BB20493059A9A4211D9069B1F1E49
S214000750F5D0079B049A53430293099B9A46089B3D
S214000760944663449BB201934346B8461F00DCE7B9
S2140007700BB03CBC90469946A246AB46F0BDC04680
S21400078095050000F0B5DE4657464E464546E0B5B0
S21400079089B01900059312AB1C88009413AB1D8812
S2140007A0069514AB1D78A84615AB1D78A946A84536
S2140007B04ED0002A4CD00B000391013B9BB202396D
S2140007C0C91A41180291A446624492B204920133B7
S2140007D00793234B9B469A462FE04B46082B03D0A5
S2140007E04A4621000098D84701350134A4B2082DA6
S2140007F00BD033782B411F42EFD04346082BF3D063
S214000800424621000098D047EEE7019B08339BB292
S2140008100193013E029B9E4203D0019C00250127C6
S214000820E7E7029B039A944663440293009B0133D6
S2140008309BB20093049A93420AD0059B002BF0D0FB
S214000840079B029A944663441E00069B0193E4E7C6
S21400085009B03CBC90469946A246AB46F0BDC046A1
S21400086095050000F0B585B00AAC24880BAD2D8840
S2140008700CAE36780DAF3F7803970296019500943C
S214000880014CA04705B0F0BD85070000F0B5DE4678
S21400089057464E464546E0B589B01900059312AB5B
S2140008A01C88009413AB1D88069514AB1D78A846CB
S2140008B015AB1D78A946A8454ED0002A4CD00B0093
S2140008C00391013B9BB20239C91A41180291A44612
S2140008D0624492B2049201330793234B9B469A4696
S2140008E02FE04B46082B03D04A4621000098D847F5
S2140008F001350134A4B2082D0BD033782B411F42AA
S214000900EFD04346082BF3D0424621000098D0474C
S214000910EEE7019B08339BB20193013E029B9E4289
S21400092003D0019C00250127E7E7029B039A944623
S21400093063440293009B01339BB20093049A934254
S2140009400AD0059B002BF0D0079B029A944663447E
S2140009501E00069B0193E4E709B03CBC904699460E
S214000960A246AB46F0BDC04695050000F0B5DE4693
S21400097057464E464546E0B589B012A90988069105
S21400098013A9098814AC277815AC2478A146A74289
S2140009904ED00592002A4BD004930390284A9446E2
S2140009A06344DB00CB18002202929BB20793254BD0
S2140009B09B462CE04B46082B03D04A462100019864
S2140009C0D84701350134A4B2082D0BD033782B411B
S2140009D0DB07EFD5082FF4D03A0021000198194B19
S2140009E09847EEE74346083B9BB298460136564585
S2140009F002D044460025E9E7029B01330293039A9E
S214000A0004998C4662440392059A934210D2049B42
S214000A10002BF1D0039E32009C4662449246079B10
S214000A209846069B029A944663449BB20193E0E77D
S214000A3009B03CBC90469946A246AB46F0BDC046BF
S214000A40FF1F000095050000F0B5DE4657464E46EF
S214000A504546E0B589B012A90988069113A9098808
S214000A6014AC277815AC2478A146A7424ED0059240
S214000A70002A4BD004930390284A94466344DB0034
S214000A80CB18002202929BB20793254B9B462CE084
S214000A904B46082B03D04A4621000198D84701351B
S214000AA00134A4B2082D0BD033782B41DB07EFD5E9
S214000AB0082FF4D03A0021000198194B9847EEE72A
S214000AC04346083B9BB298460136564502D04446FC
S214000AD00025E9E7029B01330293039A04998C46AA
S214000AE062440392059A934210D2049B002BF1D0E5
S214000AF0039E32009C4662449246079B9846069B9D
S214000B00029A944663449BB20193E0E709B03CBC6A
S214000B1090469946A246AB46F0BDC046FF1F000071
S214000B2095050000F0B5DE4657464E464546E0B50C
S214000B3089B012A90988069113A9098814AC2778E8
S214000B4015AC2478A146A7424ED00592002A4BD079
S214000B5004930390284A94466344DB00CB18002293
S214000B6002929BB20793254B9B462CE04B46082BE4
S214000B7003D04A4621000198D84701350134A4B273
S214000B80082D0BD033782B41DB07EFD5082FF4D098
S214000B903A0021000198194B9847EEE74346083B78
S214000BA09BB298460136564502D044460025E9E7F2
S214000BB0029B01330293039A04998C466244039283
S214000BC0059A934210D2049B002BF1D0039E32006C
S214000BD09C4662449246079B9846069B029A944619
S214000BE063449BB20193E0E709B03CBC904699464B
S214000BF0A246AB46F0BDC046FF1F000095050000AC
S214000C00F0B5DE4657464E464546E0B58BB00390F7
S214000C1005921800079314AB1988089115AB19882C
S214000C20099116AB1F7817AB197889468F4251D0B9
S214000C30002A4FD0002204920300013B9BB2069389
S214000C40284B9B46B84633E04B46082B03D04A4613
S214000C5021000198D84701350134A4B2082D0BD0E5
S214000C6033782B41DB07EFD5082FF4D03A0021006C
S214000C7001981C4B9847EEE74346013B9BB29846CB
S214000C80534608339BB29A464346002B08D0029B35
S214000C9043441E00039B9C46664454460025DFE7FB
S214000CA0B846049B01339BB20493059A9A4211D925
S214000CB0069B1F1EF5D0079B049A53430293099B7D
S214000CC09A46089B944663449BB201934346B846B3
S214000CD01F00DCE70BB03CBC90469946A246AB46EC
S214000CE0F0BDC04695050000F0B5DE4657464E46B8
S214000CF04546E0B589B01900059312AB1C880094F0
S214000D0013AB1D88069514AB1D78A84615AB1D7849
S214000D10A946A8454ED0002A4CD00B000391013BB3
S214000D209BB20239C91A41180291A446624492B293
S214000D30049201330793234B9B469A462FE04B467B
S214000D40082B03D04A4621000098D84701350134C5
S214000D50A4B2082D0BD033782B411F42EFD0434668
S214000D60082BF3D0424621000098D047EEE7019BBF
S214000D7008339BB20193013E029B9E4203D0019C26
S214000D8000250127E7E7029B039A944663440293F3
S214000D90009B01339BB20093049A93420AD0059BB2
S214000DA0002BF0D0079B029A944663441E00069BD5
S214000DB00193E4E709B03CBC90469946A246AB4690
S214000DC0F0BDC0469505000070470000F0B5C64669
S214000DD000B5C022D20588274026D6512A4BA82027
S214000DE02A4D1D50C02424061C500121D151284FE5
S214000DF01F501C502027B8469760264F9F629C6263
S214000E0096609D629C621025AC469560224D9D6260
S214000E109C6280259560214F9F629C6294241651A7
S214000E209827D15144469461966164465461556151
S214000E30743415511A4E1E501A4E1E5015511F303E
S214000E401C5C042634431C54D551C6241A5D8A43C0
S214000E501A55063C1A5D8A431A557B3C1A5D8A432E
S214000E601A5501341A5D8A431A55023C1A5D8A43A4
S214000E701A5503341A5D8A431A551A5C8A431A5463
S214000E8004BC9046F0BDC04600440041400000400F
S214000E90010000402000004010000040800000409C
S214000EA080000240000002C030B5334B9B889BB2E6
S214000EB083422FD9304BDB889BB28B422AD92E4BEC
S214000EC01B78012B27D02C4B1B78022B2ED02A4BBD
S214000ED01B78032B38D0C3108C006118CC00611A25
S214000EE05B1807218143254800680469E418D00789
S214000EF036D401258D402078A84320701F4800680E
S214000F004469E318920731D401228A4011001A7806
S214000F108A431A7030BDCC1021331B1B8400201866
S214000F20C400201A1B1807200140DCE7C410182351
S214000F30FF331B1B232464426143114CA4466144C7
S214000F405B1807210140CEE7CC100D4B9C4664444D
S214000F5023235B424343E318072088430100C2E78C
S214000F6001208840257828432070C7E701228A4060
S214000F7019780A431A70CDE71404002034040020C0
S214000F807D41000010B5002A03D00F22024B98477F
S214000F9010BD014B9847FBE7A90E0000F0B5DE46F2
S214000FA057464E464546E0B589B00490914619002E
S214000FB0059312AB1A88069213AB1B884A46002A82
S214000FC04AD0002293460A00013A92B20292079350
S214000FD0254F4B460393029A9146002A35D0079E2A
S214000FE0059B5A465343049A92469A44069B5B4492
S214000FF09BB201934D4653465C5D032398461A0008
S2140010002240D243D2B231000198B847A2084346E4
S2140010101A40D243D2B2711C89B20198B84722094D
S21400102043461A40D243D2B2B11C89B20198B8479F
S214001030A409E243D2B2F11C89B20198B847013D37
S214001040ADB20436B6B2002DD5D15B4601339BB2A5
S2140010509B46039B5B45BED809B03CBC9046994670
S214001060A246AB46F0BDC046A90E000010B54E4BDA
S2140010705B889BB2834244D94B4B9C88A4B28C427B
S2140010803FD91B78002B0BD0474B1B78022B07D081
S214001090441096235B004B43E3180121014006E011
S2140010A04C1096235B004343E318012001400029BF
S2140010B028D13E4909680969C91810075FD40C7819
S2140010C07F2020400870394909680969C918500707
S2140010D05BD408784024A04308703449096809693D
S2140010E0C918900756D408782024A04308702F49C2
S2140010F009680969CB18D20751D41A7810218A4397
S2140011001A7010BD294909680969C918100722D440
S21400111008780824A0430870244909680969C91892
S21400112050071DD408780424A04308701F49096896
S2140011300969C918900718D408780224A0430870D3
S2140011401A4909680969CB18D20713D41A780121FD
S2140011508A431A70D5E70878082420430870DBE72E
S2140011600878042420430870E0E708780224204327
S2140011700870E5E71A7801210A431A70C1E70C786F
S21400118080204042204308709DE708784024204392
S2140011900870A2E70878202420430870A7E71A788A
S2140011A010210A431A70ACE7B00300203404002074
S2140011B010B5002A03D00F22024B984710BD014BF2
S2140011C09847FBE76D100000F0B5DE4657464E46E2
S2140011D04546E0B587B0029093461900039310ABDE
S2140011E01A88904611AB1B885A46002A34D0002233
S2140011F092460A00013A92B2914604931A4F434629
S21400120005934B464D46002B20D0049E039B52462A
S2140012105343029A90469844059B53449BB20193CD
S21400122043465C5D0F222240D243D2B23100019881
S214001230B8472409E243D2B2711C89B20198B84774
S214001240013DADB20236B6B2002DE9D153460133A8
S2140012509BB29A469B45D4D807B03CBC904699466C
S214001260A246AB46F0BDC0466D10000010B5364B2A
S2140012709B889BB2834219D9334BDB889BB28B4247
S21400128014D9314B5B78012B11D02F4B5B78032B95
S2140012900DD0441096235B004B43E3180121084011
S2140012A000282CD0002A0AD0012A18D010BD4C10D5
S2140012B096235B004343E31801200840F0E72348E9
S2140012C002681269D21811780224A14311700268CC
S2140012D01169CB181A7801218A431A70E6E71B4871
S2140012E002681269D218117802242143117002682C
S2140012F01169CB181A7801210A431A70D6E7002A1A
S21400130011D0012AD2D1114802681269D218117878
S21400131020242143117002681169CB181A78102115
S2140013200A431A70C2E7094802681269D21811788F
S2140013302024A143117002681169CB181A78102175
S2140013408A431A70B2E7C04608040020340400201E
S21400135010B5D04B9B889BB283423AD9CD4BDB88E5
S2140013609BB28B4235D9CB4B5B78012B13D0C94B44
S2140013705B78032B0FD0441096235B004B43E31897
S21400138001210840002800D1C5E0072A21D8920094
S214001390C1498A5897464C1096235B004343E3188E
S2140013A001200840EEE7BD490A681269D218107895
S2140013B00424A04310700A681269D2181078023C00
S2140013C0A04310700A681169CB181A7801218A4365
S2140013D01A7010BDB1490A681269D2181078042430
S2140013E0A04310700A681269D2181078023CA04315
S2140013F010700A681169CB181A7801210A431A700E
S214001400E7E7A6490A681269D21810780424A043B0
S21400141010700A681269D2181078022420431070DF
S2140014200A681169CB181A7801218A431A70D0E726
S2140014309A490A681269D21810780424A0431070DA
S2140014400A681269D21810780224204310700A68BD
S2140014501169CB181A7801210A431A70B9E78F4927
S2140014600A681269D21810780424204310700A689B
S2140014701269D21810780224A04310700A68116905
S214001480CB181A7801218A431A70A2E783490A68A2
S2140014901269D21810780424204310700A68126962
S2140014A0D21810780224A04310700A681169CB186D
S2140014B01A7801210A431A708BE778490A6812697C
S2140014C0D21810780424204310700A681269D218C3
S2140014D010780224204310700A681169CB181A7815
S2140014E001218A431A7074E76C490A681269D21897
S2140014F010780424204310700A681269D2181078F5
S2140015000224204310700A681169CB181A7801214A
S2140015100A431A705DE7072A00D95AE79200604925
S2140015208A5897465D490A681269D218107840248E
S214001530A04310700A681269D2181078203CA043A5
S21400154010700A681169CB181A7810218A431A702D
S2140015503FE752490A681269D21810784024A0431F
S21400156010700A681269D2181078203CA0431070D8
S2140015700A681169CB181A7810210A431A7028E7EE
S21400158046490A681269D21810784024A0431070A1
S2140015900A681269D21810782024204310700A684E
S2140015A01169CB181A7810218A431A7011E73B4943
S2140015B00A681269D21810784024A04310700A688E
S2140015C01269D21810782024204310700A68116916
S2140015D0CB181A7810210A431A70FAE62F490A68BF
S2140015E01269D21810784024204310700A681269D5
S2140015F0D21810782024A04310700A681169CB18FE
S2140016001A7810218A431A70E3E624490A68126998
S214001610D21810784024204310700A681269D21835
S21400162010782024A04310700A681169CB181A7825
S21400163010210A431A70CCE618490A681269D218B3
S21400164010784024204310700A681269D218107867
S2140016502024204310700A681169CB181A781021CC
S2140016608A431A70B5E60D490A681269D2181078CE
S2140016704024204310700A681269D218107820247B
S214001680204310700A681169CB181A7810210A4393
S2140016901A709EE6080400208452000034040020DD
S2140016A0A452000010B5D04B9B889BB283423AD917
S2140016B0CD4BDB889BB28B4235D9CB4B5B78012B6D
S2140016C013D0C94B5B78032B0FD043108C006118E6
S2140016D089015B1801210840002800D1C5E0072ACF
S2140016E021D89200C1498A5897464B10840020188A
S2140016F080011B1801200840EEE7BD490A68126900
S214001700D21810780424A04310700A681269D21800
S2140017101078023CA04310700A681169CB181A783A
S21400172001218A431A7010BDB1490A681269D2189D
S21400173010780424A04310700A681269D218107832
S214001740023CA04310700A681169CB181A78012170
S2140017500A431A70E7E7A6490A681269D218107891
S2140017600424A04310700A681269D2181078022464
S214001770204310700A681169CB181A7801218A4331
S2140017801A70D0E79A490A681269D21810780424A9
S214001790A04310700A681269D218107802242043F9
S2140017A010700A681169CB181A7801210A431A705A
S2140017B0B9E78F490A681269D218107804242043C2
S2140017C010700A681269D21810780224A0431070AC
S2140017D00A681169CB181A7801218A431A70A2E7A1
S2140017E083490A681269D2181078042420431070BE
S2140017F00A681269D21810780224A04310700A688A
S2140018001169CB181A7801210A431A708BE77849B8
S2140018100A681269D21810780424204310700A68E7
S2140018201269D21810780224204310700A681169D1
S214001830CB181A7801218A431A7074E76C490A6833
S2140018401269D21810780424204310700A681269AE
S214001850D21810780224204310700A681169CB1839
S2140018601A7801210A431A705DE7072A00D95AE759
S214001870920060498A5897465D490A681269D218EC
S21400188010784024A04310700A681269D2181078A5
S214001890203CA04310700A681169CB181A781021F2
S2140018A08A431A703FE752490A681269D2181078BC
S2140018B04024A04310700A681269D2181078203CA1
S2140018C0A04310700A681169CB181A7810210A43D1
S2140018D01A7028E746490A681269D2181078402418
S2140018E0A04310700A681269D2181078202420438A
S2140018F010700A681169CB181A7810218A431A707A
S21400190011E73B490A681269D21810784024A043B0
S21400191010700A681269D2181078202420431070BC
S2140019200A681169CB181A7810210A431A70FAE669
S2140019302F490A681269D218107840242043107084
S2140019400A681269D21810782024A04310700A681A
S2140019501169CB181A7810218A431A70E3E62449D5
S2140019600A681269D21810784024204310700A685A
S2140019701269D21810782024A04310700A681169E2
S214001980CB181A7810210A431A70CCE618490A6850
S2140019901269D21810784024204310700A68126921
S2140019A0D21810782024204310700A681169CB18CA
S2140019B01A7810218A431A70B5E60D490A6812692A
S2140019C0D21810784024204310700A681269D21882
S2140019D010782024204310700A681169CB181A78F2
S2140019E010210A431A709EE608040020C452000024
S2140019F034040020E4520000F0B52A4C2478E4B207
S214001A00012C14D0002C08D0022C1CD0032C24D07F
S214001A10B34201D2BD4228D3F0BD224CE3885B1A04
S214001A209BB2E688B6B2A788BFB20500F0E71D4CA9
S214001A30A3881B1A9BB2E5886D1AADB2A688B6B20B
S214001A40E788BFB2E4E7174CA5882D1AADB2E68842
S214001A50B6B2A788BFB20B00DAE7124B9E88B6B2C2
S214001A60DF88BFB20D000300D2E70F4909680133D3
S214001A7098001B1898001B18E8101B1A013B9BB215
S214001A800969CB1807210D40002A05D10121A9407C
S214001A901A788A431A70BFE70639A9401A780A43AB
S214001AA01A70B9E7B80300203404002070B5384B2C
S214001AB01E89B6B2DC88A4B2DB889BB2834224D9E6
S214001AC0334B1D89ADB28D421FD9DB78012B1DD05B
S214001AD02F4BDB78032B19D00130F608F3B25843AE
S214001AE0CB10DB43C3180720014029488078002824
S214001AF01DD1284800684069C318002A10D1012269
S214001B008A4011001A788A431A7070BD4B1CE4088C
S214001B10E1B25943C310CB18103B07218143E4E7D9
S214001B2001228A4011001A780A431A70EDE7002A4B
S214001B3017D0023A012A01D8002613E0154D2A686C
S214001B401269D21801248C401078204310702A683D
S214001B505069C31801228A4011001A780A431A7085
S214001B60D3E701260B4D2A681269D21801248C404F
S214001B701078A04310702A685069C318002EE9D167
S214001B8001228A4011001A788A431A70BDE7C046BF
S214001B90F80300203404002010B5014B984710BD10
S214001BA0AD1A000010B5164CE3889BB2A488A4B208
S214001BB0844218D9124CE488A4B28C4213D9DB08AC
S214001BC0DBB24343C8101B1A013B07200140002A22
S214001BD00AD00C4A12685069C31801228A401100C4
S214001BE01A780A431A7010BD064A12685069C3185C
S214001BF001228A4011001A788A431A70F3E7C04619
S214001C00900300203404002070B53A4BDC88A4B260
S214001C109E88B6B29B889BB283422BD9354BDD8813
S214001C20ADB28D4226D91B78012B24D0314B1B78C0
S214001C30032B20D0A408E4B260438B10C01A0138EE
S214001C400323194049002C4B1B681B691B18D4073B
S214001C5044D401258D401C78AC431C70264B1B6871
S214001C601B691818013193073ED401228A40037875
S214001C709343037070BD0131B608F3B24B43811035
S214001C805B183C3B0321084040000721091AC9B2F3
S214001C90194C24682469E418950713D401258D404F
S214001CA02178A9432170144909680969CB180621CF
S214001CB0081AC0B2D2070BD4012181401A788A4391
S214001CC01A70D7E701258D40217829432170EAE76D
S214001CD0012181401A780A431A70CBE701258D400E
S214001CE01C782C431C70B9E701228A400378134302
S214001CF00370BFE7900300203404002010B5002ACC
S214001D0003D00322024B984710BD014B9847FBE7D0
S214001D10091C0000F0B5DE4657464E464546E0B57F
S214001D2089B0049091461900059312AB1A88069262
S214001D3013AB1B884A46002A4AD0002293460A0064
S214001D40013A92B202920793254F4B460393029AAA
S214001D509146002A35D0079E059B5A465343049A5F
S214001D6092469A44069B5B449BB201934D4653466B
S214001D705C5D032398461A002240D243D2B231005B
S214001D800198B847A20843461A40D243D2B2711C03
S214001D9089B20198B847220943461A40D243D2B2C4
S214001DA0B11C89B20198B847A409E243D2B2F11C2B
S214001DB089B20198B847013DADB20436B6B2002DDF
S214001DC0D5D15B4601339BB29B46039B5B45BED891
S214001DD009B03CBC90469946A246AB46F0BDC0460C
S214001DE0091C000070B5002903D12022C023DB05A2
S214001DF05A610823C022D2051026802408E0966186
S214001E0094614000C0B25461013BDBB2002B04D0A9
S214001E1045B2002DF3DB5661F2E7002903D12022FC
S214001E20C023DB059A6170BDF8B50C001500C0260E
S214001E30F60501279423F750743B73610021074B86
S214001E4098479823F750002D07D06519034E207841
S214001E500021B0470134A542F9D1F8BDE51D0000C8
S214001E60F0B585B02C4B5B78012B3CD02A4BDB7849
S214001E70022B14D00222284BDA70284C2100203185
S214001E801E322020264DA847210040318022920095
S214001E902220A8478022234920312620A84702A9CD
S214001EA000230B704B708B70CB70EF220A714B7156
S214001EB08A71E83A12201A4B98471B4F1B4E01A80E
S214001EC0B847C023DB0580255C59A02218498A58EC
S214001ED090215B5853401C40544001A8B04725420F
S214001EE0EDD005B0F0BD0C4BDB78012BD7D001222E
S214001EF0094BDA700F4C1F3221002020084DA847EE
S214001F0021002031802292002220A8478022054905
S214001F1020312620A847C2E790030020445800003E
S214001F20291E0000C45700004D0300005B0300009C
S214001F3000440041C4550000F0B587B000220021DF
S214001F400420354B9847354F354E01A8B847C02377
S214001F50DB0580255C59A02232498A5890215B58BF
S214001F6053401C40544001A8B0472542EDD02E4BAC
S214001F70DB78002B3ED104A901230B7000234B70A5
S214001F808B70CB707F220A714B71FF338B71783A5E
S214001F901220214B9847214F214E02A8B847C02354
S214001FA0DB0580255C59A0221E498A5890215B5883
S214001FB053401C40544002A8B0472542EDD00022B2
S214001FC000210220144B9847144F154E03A8B8471B
S214001FD0C023DB0580255C59A02212498A5890212F
S214001FE05B5853401C40544003A8B0472542EDD1EF
S214001FF007B0F0BD00220C4BDA70203255212020AD
S214002000054CA0478022920081212220A0478022F2
S21400201000212620A047AEE7291E00004D03000041
S2140020205B0300000044004190030020F0B583B03D
S2140020300022002104201A4CA04700220021122072
S214002040A047184F184E6846B847C023DB058025C2
S2140020505C59A02215498A5890215B5853401C4071
S21400206054406846B0472542EDD0002200210220A9
S2140020700B4B98470B4F0C4E01A8B847C023DB0507
S21400208080255C59A02209498A5890215B58534004
S2140020901C40544001A8B0472542EDD003B0F0BD27
S2140020A0291E00004D0300005B03000000440041B1
S2140020B0F0B5C64600B584B0804600220021042054
S2140020C0444CA047444B1B681969942252011020C7
S2140020D0A047002200211120A047404D404F6846EF
S2140020E0A847C023DB0580269C59A0223D498A5874
S2140020F090215B5853401C4054406846B8472642DF
S214002100EDD0354B1B685969942252011320314C8F
S214002110A047002200211120A047304D304F01A8D3
S214002120A847C023DB0580269C59A0222D498A5843
S21400213090215B5853401C40544001A8B8472642A3
S214002140EDD04346002B2BD1002200210220214B4C
S2140021509847224F224E03A8B847C023DB058025A8
S2140021605C59A0221F498A5890215B5853401C4056
S214002170544003A8B0472542EDD01B4B9B78002B5C
S2140021800AD1154C9420400122685169C95C126935
S214002190D15401338342F7D104B004BC9046F0BD5D
S2140021A00022002112200B4B98470C4F0C4E02A821
S2140021B0B847C023DB0580255C59A02209498A5808
S2140021C090215B5853401C40544002A8B04725421B
S2140021D0EDD0B9E7291E0000340400204D030000AE
S2140021E05B03000000440041F8030020F0B583B014
S2140021F00022002104201A4CA047002200211220B1
S214002200A047184F184E6846B847C023DB05802500
S2140022105C59A02215498A5890215B5853401C40AF
S21400222054406846B0472542EDD0002200210220E7
S2140022300B4B98470B4F0C4E01A8B847C023DB0545
S21400224080255C59A02209498A5890215B58534042
S2140022501C40544001A8B0472542EDD003B0F0BD65
S214002260291E00004D0300005B03000000440041EF
S214002270F0B5C64600B584B0804600220021042092
S2140022803C4CA0473C4B1B6819693C4A1020A047B1
S214002290002200211120A047394D3A4F6846A84732
S2140022A0C023DB0580269C59A02237498A589021F6
S2140022B05B5853401C4054406846B8472642EDD011
S2140022C02D4B1B6859692D4A13202A4CA047002223
S2140022D000211120A0472A4D2A4F01A8A847C02355
S2140022E0DB0580269C59A02227498A5890215B58F6
S2140022F053401C40544001A8B8472642EDD0434600
S214002300002B1CD10022002102201A4B98471C4F9C
S2140023101C4E03A8B847C023DB0580255C59A022C5
S21400232019498A5890215B5853401C40544003A8D2
S214002330B0472542EDD004B004BC9046F0BD002264
S214002340002112200B4B98470D4F0E4E02A8B8479F
S214002350C023DB0580255C59A0220B498A589021B2
S2140023605B5853401C40544002A8B0472542EDD06D
S214002370C8E7C046291E000034040020F8150000F7
S2140023804D0300005B03000000440041F0B585B03B
S214002390234B5B78012B36D0F72203AB1A70012251
S2140023A003A922201F4B98471F4F204E01A8B8476D
S2140023B0C023DB0580255C59A0221D498A58902140
S2140023C05B5853401C40544001A8B0472542EDD10D
S2140023D0002200212020134B9847134F134E02A8CB
S2140023E0B847C023DB0580255C59A02210498A58CF
S2140023F090215B5853401C40544002A8B0472542E9
S214002400EDD105B0F0BD064B9B78002B03D1C7225B
S21400241003AB1A70C3E7FF2203AB1A70BFE7C046D0
S214002420B8030020291E00004D0300005B030000D7
S21400243000440041F0B585B0002200210420254B61
S2140024409847254F254E01A8B847C023DB058025B1
S2140024505C59A02222498A5890215B5853401C4060
S214002460544001A8B0472542EDD00022002112209A
S214002470184B9847184F194E02A8B847C023DB05DB
S21400248080255C59A02216498A5890215B585340F3
S2140024901C40544002A8B0472542EDD0002200213F
S2140024A002200C4B98470C4F0C4E03A8B847C0238D
S2140024B0DB0580255C59A02209498A5890215B5883
S2140024C053401C40544003A8B0472542EDD005B009
S2140024D0F0BDC046291E00004D0300005B0300004F
S2140024E000440041F0B5C64600B584B08046374B80
S2140024F01B6819698C2292021020354B9847354F7D
S214002500354E6846B847C023DB0580255C59A022B7
S21400251032498A5890215B5853401C4054406846C4
S214002520B0472542EDD04346002B03D104B004BC8F
S2140025309046F0BD002200210420254B9847254FE9
S214002540254E01A8B847C023DB0580255C59A0228C
S21400255022498A5890215B5853401C40544001A899
S214002560B0472542EDD0002200211220184B984794
S214002570184F194E02A8B847C023DB0580255C59C2
S214002580A02216498A5890215B5853401C4054405C
S21400259002A8B0472542EDD00022002102200C4BB5
S2140025A098470C4F0C4E03A8B847C023DB05802580
S2140025B05C59A02209498A5890215B5853401C4018
S2140025C0544003A8B0472542EDD0AFE734040020BE
S2140025D0291E00004D0300005B030000004400417C
S2140025E0F0B585B0002200210420254B9847254FE2
S2140025F0254E01A8B847C023DB0580255C59A022DC
S21400260022498A5890215B5853401C40544001A8E8
S214002610B0472542EDD0002200211220184B9847E3
S214002620184F194E02A8B847C023DB0580255C5911
S214002630A02216498A5890215B5853401C405440AB
S21400264002A8B0472542EDD00022002102200C4B04
S21400265098470C4F0C4E03A8B847C023DB058025CF
S2140026605C59A02209498A5890215B5853401C4067
S214002670544003A8B0472542EDD005B0F0BDC04693
S214002680291E00004D0300005B03000000440041CB
S214002690F0B5C64600B584B08046374B1B6819694E
S2140026A0364A1020364B9847364F374E6846B8475E
S2140026B0C023DB0580255C59A02234498A58902126
S2140026C05B5853401C4054406846B0472542EDD006
S2140026D04346002B03D104B004BC9046F0BD002254
S2140026E000210420264B9847264F274E01A8B847BE
S2140026F0C023DB0580255C59A02224498A589021F6
S2140027005B5853401C40544001A8B0472542EDD0CA
S2140027100022002112201A4B98471A4F1A4E02A880
S214002720B847C023DB0580255C59A02217498A5884
S21400273090215B5853401C40544002A8B0472542A5
S214002740EDD00022002102200D4B98470D4F0E4E73
S21400275003A8B847C023DB0580255C59A0220B4997
S2140027608A5890215B5853401C40544003A8B047F9
S2140027702542EDD0AFE7C04634040020000D02002D
S214002780291E00004D0300005B03000000440041CA
S214002790F0B583B00022002104201A4CA047002286
S2140027A000211220A047184F184E6846B847C0238D
S2140027B0DB0580255C59A02215498A5890215B5874
S2140027C053401C4054406846B0472542EDD0002296
S2140027D0002102200B4B98470B4F0C4E01A8B84720
S2140027E0C023DB0580255C59A02209498A58902120
S2140027F05B5853401C40544001A8B0472542EDD0DA
S21400280003B0F0BD291E00004D0300005B0300006E
S21400281000440041F0B5C64600B584B080460022AC
S214002820002104202C4CA0472C4B1B6819692C4A0D
S2140028301020A047002200211120A047294F2A4E31
S21400284001A8B847C023DB0580255C59A02227498C
S2140028508A5890215B5853401C40544001A8B0470A
S2140028602542EDD04346002B1CD100220021022039
S214002870194B98471B4F1C4E03A8B847C023DB05CF
S21400288080255C59A02219498A5890215B585340EC
S2140028901C40544003A8B0472542EDD004B004BC09
S2140028A09046F0BD0022002112200B4B98470D4F9A
S2140028B00D4E02A8B847C023DB0580255C59A02230
S2140028C00A498A5890215B5853401C40544002A83D
S2140028D0B0472542EDD0C8E7291E0000340400208A
S2140028E0000D02004D0300005B03000000440041A1
S2140028F0F0B587B0002200210420224B9847224FD3
S214002900224E01A8B847C023DB0580255C59A022CB
S2140029101F498A5890215B5853401C40544001A8D8
S214002920B0472542EDD003A918230B7000234B7047
S2140029308B70CB700B7102334B7156338B71573BD8
S214002940CB71DF330B72092212200E4CA0470022F7
S21400295000210220A0470C4F0C4E02A8B847C02307
S214002960DB0580255C59A02209498A5890215B58CE
S21400297053401C40544002A8B0472542EDD007B053
S214002980F0BDC046291E00004D0300005B0300009A
S21400299000440041F0B583B0184BDB78002B26D1FD
S2140029A06922174940313220164B984701A9CF2398
S2140029B00B7001222220134CA04700220021202069
S2140029C0A047114F114E6846B847C023DB05802547
S2140029D05C59A0220E498A5890215B5853401C40EF
S2140029E054406846B0472542EDD103B0F0BD692299
S2140029F008492C313220034B9847D7E714040020AF
S214002A00445A0000291E00004D0300005B0300002E
S214002A1000440041C45A0000F0B5C64600B582B076
S214002A20804601AC002525706570022221004E20EC
S214002A302A4EB04725706570022221004F20B0470D
S214002A40274F3B681969274A2420B04725706570D0
S214002A50022221004E20B047257065700222210018
S214002A604F20B0473B6859691E4A2620B047434668
S214002A70002B28D01C4BDB78002B28D169221B4961
S214002A8040313220154B984701A9CF230B70012205
S214002A902220124CA047002200212020A047144FDD
S214002AA0144E6846B847C023DB0580255C59A02233
S214002AB011498A5890215B5853401C405440684640
S214002AC0B0472542EDD102B004BC9046F0BD692265
S214002AD00A492C313220014B9847D5E7291E0000C1
S214002AE034040020A041000014040020445A0000D2
S214002AF04D0300005B03000000440041C45A000080
S214002B00F0B5DE4657464E464546E0B585B08146AA
S214002B100C0040490978012950D03E49097802291D
S214002B2068D03C49097803296CD0C610A100091961
S214002B30C800411A7618072148468843C0B2801854
S214002B4007252A400825AA1AD2B28218D0170140B3
S214002B508918C9108AB201922F4A1268126996190A
S214002B60002B24D04A469205920F9246E3189BB259
S214002B70984603AD294F03239B464B462B7053467E
S214002B806B70022229004E20B8472C70230A5A4642
S214002B9013406B70022229004F20B8472336019A53
S214002BA031002420B8470134A4B24445E5D105B02D
S214002BB03CBC90469946A246AB46F0BDE6180631A8
S214002BC08E433100F017072606407618F610764238
S214002BD02236494689004944C800411A76188C2195
S214002BE04900C91A091BDB08019313004C468AB238
S214002BF09146B1E7C6100A49891B232676426643EA
S214002C008E19A9E7E210263961435618054A9446FC
S214002C106644A1E71404002034040020291E0000A6
S214002C20944200007D410000F0B587B0050004A97D
S214002C3000230B704B708B70EF22CA700B714A71B9
S214002C40E93A1420324CA047324B1B681969E1223E
S214002C5092011320A047002D01D107B0F0BD2E4BE6
S214002C605B78012B3BD02C4BDB78022B14D0022256
S214002C70294BDA70294C210020311E322020244DA9
S214002C80A84721004031802292002220A8478022B7
S214002C90234920312620A84702A900230B704B7039
S214002CA08B70CB70EF220A714B718A71E83A122052
S214002CB0174B98471B4F1C4E01A8B847C023DB058F
S214002CC080255C59A02219498A5890215B585340A8
S214002CD01C40544001A8B0472542EDD0BDE70E4B3E
S214002CE0DB78012BD8D001220B4BDA70104C1F3248
S214002CF021002020064DA847210020318022920086
S214002D002220A8478022064920312620A847C3E76C
S214002D10291E0000340400209003002044580000C0
S214002D20C45700004D0300005B0300000044004150
S214002D30C4550000F0B5C64600B586B0804605AC62
S214002D407D232370012221002C203E4DA847182702
S214002D50277000266670022221004420A8472770AC
S214002D60012221004E20A847C72323706670022246
S214002D7021004F20A847344B1B681969334A24208A
S214002D80A847334F334E02A8B847C023DB0580253B
S214002D905C59A02230498A5890215B5853401C4009
S214002DA0544002A8B0472542EDD14346002B03D13C
S214002DB006B004BC9046F0BD284B5B78012B35D09E
S214002DC0F72201AB1A70012201A922201D4B984759
S214002DD01F4F204E03A8B847C023DB0580255C594B
S214002DE0A0221D498A5890215B5853401C405440ED
S214002DF003A8B0472542EDD1002200212020114B28
S214002E009847134F134E04A8B847C023DB05802508
S214002E105C59A02210498A5890215B5853401C40A8
S214002E20544004A8B0472542EDD1C1E70B4B9B7830
S214002E30002B03D1C72201AB1A70C4E7FF2201ABF7
S214002E401A70C0E7291E0000340400208813000012
S214002E504D0300005B03000000440041B80300205F
S214002E60F0B589B0050006A900230B704B708B7077
S214002E70CB7002330B7156334B71573B8B71DF337C
S214002E80CB7108228320334CA047334B1B6819694B
S214002E90324A1020A047324B1B78012B0FD0304B04
S214002EA01B78022B0BD0022206AB1A70012206A951
S214002EB0E020284B9847002D05D109B0F0BD03222D
S214002EC006AB1A70F2E7002200210420214B984737
S214002ED0244F254E01A8B847C023DB0580255C5942
S214002EE0A02222498A5890215B5853401C405440E7
S214002EF001A8B0472542EDD003A918230B70002384
S214002F004B708B70CB700B7102334B7156338B71D9
S214002F10573BCB71DF330B72092212200D4CA047B2
S214002F20002200210220A0470E4F0F4E02A8B847ED
S214002F30C023DB0580255C59A0220C498A589021C5
S214002F405B5853401C40544002A8B0472542EDD081
S214002F50B3E7C046291E0000340400208032020079
S214002F60B00300204D0300005B0300000044004156
S214002F70F0B589B0050006A900230B704B708B7066
S214002F807F22CA700B71FF334B71793A1420434C81
S214002F90A047434B1B685969802252011620A04760
S214002FA0002D0DD100233E4C80204001226851693F
S214002FB0C95C1269D15401338342F7D109B0F0BD20
S214002FC0002200210420354B9847364F364E01A884
S214002FD0B847C023DB0580255C59A02233498A58B0
S214002FE090215B5853401C40544001A8B0472542EE
S214002FF0EDD02F4BDB78002B3DD104A901230B70BD
S21400300000234B708B70CB707F220A714B71FF339D
S2140030108B71783A1220214B9847224F224E02A8F5
S214003020B847C023DB0580255C59A0221F498A5873
S21400303090215B5853401C40544002A8B04725429C
S214003040EDD0002200210220144B9847154F164E53
S21400305003A8B847C023DB0580255C59A022134986
S2140030608A5890215B5853401C40544003A8B047F0
S2140030702542EDD196E700220D4BDA70203255211D
S2140030802020064CA0478022920081212220A047C3
S214003090802200212620A047AFE7C046291E000058
S2140030A0340400204D0300005B0300000044004190
S2140030B090030020F8B504001500124B9847002C2A
S2140030C01DD1104B9847002D18D06E05760DAD1B00
S2140030D0ED0A0024002D09D00A4F80231B01013B76
S2140030E0002BFCD1B8470134A542F6D1002E03D000
S2140030F0002301339E42FCD1024B9847F8BD014B9A
S2140031009847DEE77505000010B50023014CA04780
S21400311010BDC046B5300000F0B585B00AAC2578C5
S2140031203024264E345DE4B2012C25D0002C1DD070
S214003130022C2BD0032C36D001A90D81012234207D
S2140031401F4CA04701226B46991D0020A047012274
S21400315002A90020A04701220A2169440020A047B6
S214003160012203A90020A04705B0F0BD01AC2180D4
S2140031706080A380E280DFE701AC20800F48008DEE
S214003180411AC91A6180A280E380D5E70B4F7E8D75
S21400319001AC711AC91A2180398D081A801A60800C
S2140031A0A380E280C8E7054C668D01AC301A801A11
S2140031B020806180A280E380BEE7C046C003002076
S2140031C00931000010B584B001A900230B804B80A4
S2140031D00E4B5A8D8A801B8DCB80088101223420AD
S2140031E00B4CA04701226B46991D0020A0470122E8
S2140031F002A90020A04701220A2169440020A04716
S214003200012203A90020A04704B010BDC00300207F
S21400321009310000F0B5DE4657464E464546E0B555
S21400322087B004000D0001921F00454B1B689846AE
S214003230444E736B726B9246434A02A90A801B0C7B
S2140032404B8002221120414B9B46984782239B00CD
S21400325002AA1380130052465A8002221900112037
S214003260D8473023F35CDBB2022B22D0032B22D0CC
S214003270013B5A42534103A9202213430B804D8041
S2140032808C80CF806B469B880B81052221202F4B9C
S214003290984730232B4AD35C002B0ED03023D35CC8
S2140032A0022B0AD0274B1B8D9B085C4364004444CA
S2140032B009E00223DFE70323DDE7224B5B8D9B0853
S2140032C05C4364004444AD086D006419019E002E02
S2140032D02AD0BB0801935A0091469A4600251B4BFC
S2140032E09846184FBB4609E05B465B8D9B085246E6
S2140032F09B1A5B00E4180135B54215D2019A2100ED
S2140033000020C0474C443023FB5C002BECD030231D
S2140033100C4AD35C022BE7D00A4B1B8D9B08524607
S2140033209B1A5B00E418E6E7002200212220074BE8
S214003330984707B03CBC90469946A246AB46F0BDBF
S214003340A4030020C00300200A0200000931000088
S21400335010B584B001A900230B804B800F4B5A8D0B
S2140033608A801B8DCB8002230B81012234200C4CDB
S214003370A04701226B46991D0020A047012202A902
S2140033800020A04701220A2169440020A04701220C
S21400339003A90020A04704B010BDC046C00300200B
S2140033A00931000010B50123014CA04710BDC046EE
S2140033B0B5300000F0B5C64600B584B00500314E05
S2140033C0736B726B904601AC2F4A22801B0C638095
S2140033D00222210011202D4FB84782239B00238014
S2140033E043466380022221001120B8473023F35C55
S2140033F0DBB2022B1FD0032B1FD0013B5A42534196
S2140034000E216944202213430B80012220201F4CEA
S214003410A0471C4BDA6A52081D4B196800201D4B4A
S2140034209847002200212220A047002D07D104B093
S21400343004BC9046F0BD0223E2E70323E0E701A9BF
S21400344000230B804B800F4B5A8D8A801B8DCB80C0
S21400345002230B81012234200C4CA04701226B462C
S214003460991D0020A047012202A90020A0470122A2
S2140034700A2169440020A047012203A90020A04792
S214003480D5E7C046C00300200A020000093100004C
S214003490A4030020A5330000002A05D101228A409B
S2140034A0037893430370704701228A4003781343DE
S2140034B00370F8E7F0B5C64600B51500344B1F6834
S2140034C07B8883423FD9BB888B423CD93023314A24
S2140034D0D35C002B0CD03023D35C022B08D02D4BB2
S2140034E05C88640860434C1004190123194007E007
S2140034F0284B1C88640860434C10041901231940AB
S214003500002923D0EA08012632403869001907212D
S214003510214FB847AA0832401D4B98461B681869C9
S21400352000190621B8476A08324043461B681869E6
S21400353000190521B84732002A4043461B6818691F
S21400354000190421B84704BC9046F0BDEA080126DD
S21400355032403869001903310F4FB847AA08324085
S2140035600B4B98461B68186900190221B8476A0871
S214003570324043461B68186900190121B8473200DB
S2140035802A4043461B68186900190021B847DAE745
S21400359034040020C003002099340000F0B5DE4655
S2140035A057464E464546E0B587B00090110001925A
S2140035B0994610AB1B889A4611AB1B889B460E2378
S2140035C002AA9446634400221A801B889BB2994242
S2140035D066D90A266644364F4D46D14654E03388AF
S2140035E002339BB23380238801339BB22380238827
S2140035F09BB2AB423AD20E2302AA944663441B887F
S2140036004B449BB2984633889BB23A6851884145F2
S214003610E5D953449BB29B4693885B45DFD90E2180
S21400362061440B8822886B43009884466244D25CCF
S2140036300F23134004AA13800B8821886B43614430
S214003640CB5C1B0902A9CB801288D243D2B25B4660
S214003650591C89B24046174B984702ABDA88D243CA
S214003660D2B259464046134B9847B8E7D3460E2287
S21400367002AB9C466244138801339BB213801388C6
S2140036809BB2019A93420BD20023338005AB0022F3
S2140036901A801B889BB29D42E9D905ACDA46AAE798
S2140036A007B03CBC90469946A246AB46F0BDC04625
S2140036B034040020B5340000F0B583B01248134B34
S2140036C098470020124B9847C025ED0540266E61AE
S2140036D00120104CA047AE610120A0470E4F0F4EB0
S2140036E001A8B847C023DB0580255C59A0220C49F9
S2140036F08A5890215B5853401C40544001A8B0475C
S2140037002542EDD003B0F0BD10E000E069030000F4
S214003710CD0D00007D0300004D0300005B0300009C
S21400372000440041F0B5C64600B584B08046042289
S21400373001008648864B984743469B78012B0FD05E
S214003740002B1ED143461B7802229343012B00D147
S214003750C8E07E4B802252009A80803ADA8003E0EE
S2140037607A4BF0229A80DA8043469B78012B00D170
S214003770BEE0002B05D102AB17221A705A700F322A
S2140037809A7002AC032221000620724DA84703233C
S2140037902370002363702B33A370E370233B2371E5
S2140037A0052221000120A847002200210420A84766
S2140037B0694F6A4E01A8B847C023DB0580255C59CF
S2140037C0A02267498A5890215B5853401C405440B9
S2140037D001A8B0472542EDD043469B78012B00D187
S2140037E08EE0002B04D102AB03221A7083325A708B
S2140037F002AC022221000020564DA8470023237069
S214003800012221000320A84743469B78012B00D1C4
S21400381086E0002B02D1482202AB1A7002AC0122CD
S214003820210030204B4DA8470023237001222100A1
S2140038304120A847E1232370C13B6370103BA3706F
S214003840032221005020A84743469B78012B6BD0CB
S214003850002B06D102AB7F221A7000225A70FF326C
S2140038609A70032202A961203A4B984743469B78F8
S214003870012B60D0002B09D102ABCF221A70203A60
S2140038805A7000229A70DA7003321A7102AC05225E
S214003890210062202F4DA8472623237001222100F5
S2140038A08220A847012221008420A84702262670ED
S2140038B001222100E420A84726706670022221001B
S2140038C06320A84726706670022221006420A8475D
S2140038D01F23237001222100DF20A84704B004BC68
S2140038E09046F0BD194B7E329A808032DA803BE7F4
S2140038F002AB17221A7080325A70773A9A7040E7F5
S21400390043461B78023B012B06D90B2202AB1A70EA
S214003910862202AB5A706BE70F2202AB1A70F7E7EB
S214003920252202AB1A7079E702ABEF221A7000214B
S21400393059709A7095E702ABA9221A705A704232F3
S2140039409A70DA70E93A1A71A0E7C0469003002030
S214003950414A0000291E00004D0300005B030000E2
S21400396000440041F0B5C64600B582B00600884661
S214003970E1208001264B9847264B1860264C206194
S214003980264B98470123B3703000254B9847337871
S2140039902373244B1C600023224CFF20E121890165
S2140039A022681269D05401338B42F9D100246B4649
S2140039B01C705C709C70EF25DD701C715D710622BA
S2140039C069461420184EB047164F3B681969E12225
S2140039D092011020B0476B461C705C709C70DD70C6
S2140039E01C715D71062269461420B0473B68196950
S2140039F0E12292011320B0474346002B03D102B0C8
S214003A0004BC9046F0BD0120084B9847F7E7C04637
S214003A102D4A00008803002000000020B936000070
S214003A202537000034040020291E0000292C000041
S214003A3010B582B00400052201005948594B98473A
S214003A402378012B66D0002B53D0022B00D172E0D6
S214003A50032B00D181E02378012B00D193E0002BCB
S214003A6000D18CE0022B00D191E0032B00D192E034
S214003A706B461B785B00DBB26A4613706278012ADD
S214003A8002D113436A4613706B461B785B00DBB2A9
S214003A906A461370A278002A03D1012213436A46AD
S214003AA013706B461B789B00DBB26A461370E27895
S214003AB0013A012A03D8032213436A4613706B4661
S214003AC01B785B00DBB26A4613702279012A02D1AA
S214003AD013436A4613706B461B785B000122134340
S214003AE06A4613700122694600202F4B984702B0A1
S214003AF010BDE37802229343012B05D0284BE62223
S214003B00DA80863A1A81A6E7254B5E32DA8086325C
S214003B101A81A0E7E37802229343012B05D0204BBD
S214003B20FC22DA809C3A1A8195E71D4B5E32DA80D9
S214003B309C321A818FE7E37802229343012B06D04A
S214003B40174B94225200DA80A83A1A8183E7144B66
S214003B507E32DA80A8321A817DE7E3780222934328
S214003B60012B06D00E4B94225200DA80883A1A8136
S214003B7071E70B4B9E32DA8088321A816BE700239E
S214003B806A46137074E701236A46137070E70223CF
S214003B906A4613706CE703236A46137068E7C046EC
S214003BA0F8030020414A0000291E0000F0B5C64672
S214003BB000B586B004004379002B20D0012B22D01C
S214003BC004AA13785B00DBB21370A279012A02D133
S214003BD0134304AA1370E379002B18D0012B1AD0D4
S214003BE004AA53789B00DBB25370227A062A5BD075
S214003BF0072A5ED0052A12D0032A14D8FEE7002230
S214003C0004AB1A70DCE7012204AB1A70D8E7002276
S214003C1004AB5A70E4E7012204AB5A70E0E70122D5
S214003C20134304AA537004A9637A8B70A37ACB70EB
S214003C30E37A0B7105220120D84DA8470522210002
S214003C4002A8D74B984702A8D64B984700220021D7
S214003C500420A847D44B9846D44F6846C047C02394
S214003C60DB0580269D59A022D1498A5890215B58B1
S214003C7053401D4055406846B8472E42EDD0207B45
S214003C8001281FD0002819D002281FD0032821D0D1
S214003C9004AA1378DB00DBB21370617B072921D8F6
S214003CA08A00C44DAA5897460222134304AA5370AA
S214003CB0B9E70322134304AA5370B4E7002204AB07
S214003CC01A70E5E7012204AB1A70E1E7022204ABA2
S214003CD01A70DDE7032204AB1A70D9E701221343FA
S214003CE004AA137004AA1378DB00DBB21370A27B5D
S214003CF0072A25D89500B04E7559AF4602221343C1
S214003D0004AA1370EEE70322134304AA1370E9E72C
S214003D100422134304AA1370E4E70522134304AAFB
S214003D201370DFE70622134304AA1370DAE70722AC
S214003D30134304AA1370D5E701252B4304AD2B705B
S214003D40012830D000282AD0022830D0032832D0CC
S214003D5004AB5B78072900D98CE08800974D28587B
S214003D60874602252B4304AD2B70E9E703252B433A
S214003D7004AD2B70E4E704252B4304AD2B70DFE77E
S214003D8005252B4304AD2B70DAE706252B4304AD3F
S214003D902B70D5E707252B4304AD2B70D0E700200A
S214003DA004AB5870D4E7012004AB5870D0E702206B
S214003DB004AB5870CCE7032004AB5870C8E79B01EF
S214003DC008200343DBB204A84370072A00D9BDE0ED
S214003DD090007B4D285887469B0110200343DBB29A
S214003DE004A84370072A00D9B4E09000754D2858FF
S214003DF087469B0118200343DBB204A84370072ABA
S214003E0000D9ABE09000704D285887469B012020D3
S214003E100343DBB204A84370072A00D9A2E090004F
S214003E206A4D285887469B0128200343DBB204A826
S214003E304370072A00D999E09000654D28588746B8
S214003E409B0130200343DBB204A84370072A00D945
S214003E5090E090005F4D285887469B01382003432A
S214003E60DBB204A84370072A00D987E090005A4DB9
S214003E70285887469B01DBB204A84370072A50D80F
S214003E809000564D285887460120034304A84370E7
S214003E90072900D9D7E08900514B5B589F4602207E
S214003EA0034304A84370072900D92CE189004D4B31
S214003EB05B589F460320034304A84370072900D994
S214003EC02AE18900484B5B589F460420034304A818
S214003ED04370072900D928E18900444B5B589F4668
S214003EE00520034304A84370072900D926E189006A
S214003EF03F4B5B589F460620034304A843700729A0
S214003F0000D924E189003B4B5B589F4607200343BA
S214003F1004A84370072900D922E18900364B5B5874
S214003F209F46072906D88900344B5B589F460021D8
S214003F3004AB997004A98B78DB00DBB28B70072A80
S214003F4000D988E092002E498A589746012104AB92
S214003F509970EFE7022104AB9970EBE7032104ABFD
S214003F609970E7E7042104AB9970E3E7052104ABF9
S214003F709970DFE7062104AB9970DBE7072104ABF5
S214003F809970D7E7002204AB1A7072E0102204ABD7
S214003F901A706EE0202204AB1A706AE0291E000038
S214003FA0414A0000313A00004D0300005B03000068
S214003FB00044004104530000245300004453000012
S214003FC06453000084530000A4530000C453000050
S214003FD0E45300000454000024540000445400003D
S214003FE06454000084540000A4540000C45400002C
S214003FF0E454000004550000245500004455000019
S21400400064550000302204AB1A7032E0002204AB84
S2140040101A7038E0012204AB1A7034E0D1B20729D6
S21400402003D8134304AA137039E01100083104DAE8
S2140040300822134304AA137031E00F210A401343E9
S21400404004AA13702BE004AB9B78DB00DBB20122E2
S214004050134304AA9370032204A90620454B9847ED
S214004060237D012B92D0002B8CD0022B92D0032BD9
S214004070C8D0012204A903203E4B9847637D002B3D
S214004080C4D0012BC6D004AB1B781B01DBB21622B2
S214004090A256072AC2DD0722134304AA137004ADF2
S2140040A0012229004120334CA04777232B700122A0
S2140040B029005020A04722232B70012229006020CF
S2140040C0A0473C232B70012229005020A047002245
S2140040D000210220A047284F284E01A8B847C02339
S2140040E0DB0580255C59A02225498A5890215B581B
S2140040F053401C40544001A8B0472542EDD006B0BE
S21400410004BC9046F0BD04AB9B78DB00DBB2022219
S214004110134304AA93709EE704AB9B78DB00DBB2E4
S2140041200322134304AA937095E704AB9B78DB0045
S214004130DBB20422134304AA93708CE704AB9B788B
S214004140DB00DBB20522134304AA937083E704ABBB
S2140041509B78DB00DBB20622134304AA93707AE74F
S21400416004AB9B78DB00DBB20722134304AA9370F0
S21400417071E7C046291E00004D0300005B030000E7
S21400418000440041F0B5D64600B582B001900F4B12
S2140041901B685A8892469E880025002A11D00C4F2C
S2140041A00BE0019A21002800B8470134A4B2A642C9
S2140041B0F7D10135ADB2AA4503D00024002EF0D1C8
S2140041C0F7E702B004BC9246F0BDC04634040020B7
S2140041D0A5050000F8B5CE46474680B50600374B25
S2140041E01B685A8891469F880025002A62D0830063
S2140041F0334A9046984459E0072E37D843461B6802
S2140042009F460022210028002E4B98472EE00122D0
S214004210210028002B4B984728E003222100280085
S214004220284B984722E0022221002800254B984779
S2140042301CE0042221002800224B984716E00522A5
S214004240210028001F4B984710E006222100280076
S2140042501C4B98470AE0072221002800194B984774
S21400426004E0002221002800164B98470134A4B22F
S214004270A74217D0114B1B681B78063B012BBBD9F6
S214004280012E09D0002EECD0032EEFD802222100FA
S21400429028000C4B9847E9E7012221002800094B2B
S2140042A09847E3E70135ADB2A94503D00024002FB7
S2140042B0E0D1F7E70CBC90469946F8BD34040020E0
S2140042C08455000095050000F0B5DE4657464E467C
S2140042D04546E0B585B007000190884603929B46A8
S2140042E00EAB1E780FAB1C7891468446E1444845D9
S2140042F01BDA5A4D5B46013B43449BB20293009641
S2140043004E4623000C009846009A21003800A84725
S214004310009A02993800A8470137BFB2B742F3DBCC
S214004320B146009E4346A0461C00DA46C244D0452D
S2140043301ADA4546494F039B013B019A944663446B
S2140043409BB20093230054469A46320029000198F7
S214004350B847320029000098B8470135ADB2A542EB
S214004360F3DB5346A2461C00082C6FD0019D013596
S214004370ADB201235B429C46E1444D4566DAA3009C
S214004380374A93469B4459E0072C37D85B461B6850
S2140043909F46002231002800304B98472EE001222D
S2140043A0310028002D4B984728E0032231002800D2
S2140043B02A4B984722E0022231002800274B9847D4
S2140043C01CE0042231002800244B984716E0052202
S2140043D031002800214B984710E0062231002800C3
S2140043E01E4B98470AE00722310028001B4B9847CF
S2140043F004E0002231002800184B98470136B6B278
S214004400BE4217DA174B1B681B78063B012BBBD93D
S214004410012C09D0002CECD0032CEFD8022231005E
S21400442028000E4B9847E9E70122310028000B4B85
S2140044309847E3E70135ADB24D4507DA43465E1CC3
S214004440B6B253465F1EBE42DCDBF3E705B03CBCAB
S21400445090469946A246AB46F0BDC046950500007C
S214004460A455000034040020F0B5DE4657464E46FC
S2140044704546E0B58FB094460292984618AB1B7836
S214004480009319AB1B7801931C9C1AAB5D7B9E7B3B
S214004490B146DE7B04AFF980BA1C6146118000226B
S2140044A00A921B7BC01A0B900892089A0B9B9A42A2
S2140044B037D221000A9A0B786B439B180A93013176
S2140044C0089B01330893089A0B9B9A42F2D30A780A
S2140044D06A430A990B9B5118E35C6B431B9884460E
S2140044E06344994200D3EAE01A9C784B1B681B7819
S2140044F00A2B18D00A9BE418002307930A9B013B5B
S2140045009A1809920A9B0893089A099B9A4200D91E
S214004510D5E0AA466B0003936D4B9B4604AB9D1CEF
S214004520A3E02100D3E70A9B013B5B19E418E3E70D
S2140045304B46012B09D00023069308330D930D9BA1
S214004540002B00D17AE0012751E0604B1B681B78F6
S2140045500A2BF0D193E0002E25D14346002B28D11C
S21400456005AB188880B204AB198889B2009A594BFB
S21400457098470D9B01330D930D9B072B5ED80D9A24
S214004580237813413B400C9304AB06331B889BB245
S21400459005AA13800D9A2B889B189BB204AA138039
S2140045A00C9B012BD7D00C9B002BE2D1012EE0D127
S2140045B0D3E705AB188880B204AB198889B2019A94
S2140045C0434B9847D5E7002E29D14346002B2CD1E4
S2140045D005AB188880B204AB198889B2009A3D4BA7
S2140045E098470D9B013B0D930D9B002B26D00D9AF3
S2140045F02378013A13413B400C9304AB06331B88E7
S2140046009BB205AA1380069A2B889B189BB204AA15
S2140046101380069B013306930C9B012BD3D00C9B77
S214004620002BDED1012EDCD1CFE705AB188880B297
S21400463004AB198889B2019AD847D2E7079B0133A1
S21400464007932B8808339BB22B80204B1B681B7864
S2140046500A2B1BD00134079B9A4524D0089B0133B4
S2140046600893089A099B9A4229D84B46002B00D0FB
S2140046705EE7164B1B681B780A2B00D15BE700230E
S2140046800D930D9B072BD9D8012778E7013C079B94
S2140046909A45E3D1002307936B461B892B80039B27
S2140046A09C46644404E0002307936B461B892B80DA
S2140046B004AB9A1DDB8801339BB21380CEE70FB0A4
S2140046C03CBC90469946A246AB46F0BD340400205A
S2140046D0A505000095050000F0B5DE4657464E4697
S2140046E04546E0B589B080460C00069299460078AB
S2140046F0002827D04746002502AE00239B46154BD0
S2140047009A4684460796079B12AA43CA43C3126872
S2140047101A604B4601935B4600930123069A2100DC
S2140047206046D0473B7812AA127B9B1A149AD35C39
S214004730E418A4B20135EDB243465F193B789C46B7
S214004740002BE0D109B03CBC90469946A246AB4649
S214004750F0BDC0466944000000B583B001A8002340
S214004760437083700333C370023B03700021024B17
S214004770984703B000BDC04665390000F0B5D64680
S2140047804F4680B589B0434B9847434B98478021A6
S214004790C9059823C022D205D150FF203F4CA04720
S2140047A03F4F002399467B7001203E4DA847FA20D4
S2140047B080003D4EB0473D4B1B68442201921C3A98
S2140047C000929B6B9A461A23783282214901384818
S2140047D01C30D0474B467B700120A847FA2080004B
S2140047E0B047FF20A047334C230054336F4607CB17
S2140047F007C71B683B600123232246212E482F4E05
S214004800B0470A222E4904A82E4B984764346B46BC
S21400481007CC07C323683B60002334223E2104A84C
S214004820B0470120A8470B240126274F01960823EE
S21400483000935C338C2246213220B8472200204960
S21400484004A8204B98471B4B64336A4623CB23C2ED
S2140048501B681360002334223E2104A8174DA84786
S2140048600F4B5E7030000F4B98470134142CDDD18F
S21400487000220B4B5A7001200A4B98478021C9052D
S2140048809823C022D205D150002009B00CBC914616
S2140048909A46F0BD1102000059470000854100000D
S2140048A090030020850500007D03000034040020EE
S2140048B04467000080020020D0C40100D9460000F2
S2140048C0D8C40100C94B0000C942000000224308BA
S2140048D08B4274D303098B425FD3030A8B4244D3C3
S2140048E0030B8B4228D3030C8B420DD3FF22090205
S2140048F012BA030C8B4202D31212090265D0030BC4
S2140049008B4219D300E0090AC30B8B4201D3CB03B9
S214004910C01A5241830B8B4201D38B03C01A5241FB
S214004920430B8B4201D34B03C01A5241030B8B42FD
S21400493001D30B03C01A5241C30A8B4201D3CB02E8
S214004940C01A5241830A8B4201D38B02C01A5241CD
S214004950430A8B4201D34B02C01A5241030A8B42D0
S21400496001D30B02C01A5241CDD2C3098B4201D3E8
S214004970CB01C01A524183098B4201D38B01C01A66
S214004980524143098B4201D34B01C01A52410309DD
S2140049908B4201D30B01C01A5241C3088B4201D38C
S2140049A0CB00C01A524183088B4201D38B00C01A39
S2140049B0524143088B4201D34B00C01A5241411A60
S2140049C000D20146524110467047FFE701B500206D
S2140049D000F006F802BDC0460029F7D076E770471B
S2140049E07047C04670B500260C4D0D4C641BA410D5
S2140049F0A64209D1002617F0BBFD0A4D0A4C641BDF
S214004A00A410A64205D170BDB300EB5898470136F6
S214004A10EEE7B300EB5898470136F2E77CC5010095
S214004A207CC501007CC5010080C5010010B5034BA4
S214004A300100186800F058F810BDC046F4020020C7
S214004A40002310B59A4200D110BDCC5CC45401338B
S214004A50F8E7000070B50500002910D00C1F236889
S214004A60002B00DAE418280000F0D0F81D4A13687E
S214004A70002B05D163601460280000F0C8F870BDF4
S214004A80A34209D9216860188342F3D118685B688D
S214004A9041182160EEE713005A68002A01D0A242AE
S214004AA0F9D919685818A0420BD120680918581867
S214004AB019608242E0D110685268411819605A6045
S214004AC0DAE7A04202D90C232B60D5E721686018EC
S214004AD0824203D1106852684118216062605C60AF
S214004AE0CAE7C0467C030020032370B5CD1C9D4357
S214004AF0083506000C2D1ED20C25A9421DD8300004
S214004B0000F084F8254A14682100002919D1244CA5
S214004B102368002B03D1300000F044F82060290001
S214004B20300000F03FF8431C2CD10C2330003360DB
S214004B3000F06DF803E0002DDFDA0C233360002070
S214004B4070BD0B685B1B1AD40B2B03D90B60CC18FB
S214004B50256003E08C420ED163681360300000F0DD
S214004B6056F8200007220B30231D9043C31AE7D0C7
S214004B705A42E250E4E74B6863600C00EEE70C0034
S214004B804968C2E70323C41C9C43A042E0D0211A14
S214004B90300000F007F8431CDAD1C6E77C0300209B
S214004BA080030020002370B5064C05000800236033
S214004BB0FBF7F4FB431C03D12368002B00D02B60CB
S214004BC070BDC046380400200EB410B59DB002A9D2
S214004BD0029008610B4882248860486101204042A8
S214004BE01FABC881084804CBA400006801938C81E1
S214004BF000F070F80023029A13701DB010BC08BCB9
S214004C0003B01847FFFFFF7FF4020020704770478D
S214004C10F0B58E6885B007000C00039201939E42A3
S214004C2039D890238A89DB001A4234D003250969D3
S214004C3023685B1A0293636902985D43EB0F5D1964
S214004C40019B6D1001331B18AB4200D91D005305A4
S214004C5032D529003800FFF747FF061E09D10C237E
S214004C603B6040230120A28940421343A38105B044
S214004C70F0BD029A2169FFF7E3FEA389144A1A40A1
S214004C8080231343A381029B2661F6182660656184
S214004C90019EED1AA560019BB34200D21E003200B1
S214004CA00399206800F0ADFAA36800209B1BA36060
S214004CB023689E192660DAE72A00380000F0B3FA67
S214004CC0061EE0D121693800FFF7C4FEC7E7C046DC
S214004CD07FFBFFFFF0B59FB0029005938B890F0016
S214004CE016001B0611D50B69002B0ED14021FFF7CD
S214004CF0FBFE38603861002805D10C23029A013883
S214004D0013601FB0F0BD40237B61002306AD6B61CE
S214004D1020336B761033AB7634002378002B47D1E4
S214004D20A31B04930DD0A31B320039000298FFF793
S214004D306FFF431C00D1B5E06A69049B9446634448
S214004D406B612378002B00D1ACE001220023524295
S214004D506A6002A95432521801342B60EB60AB60D3
S214004D601370AB65584E05222178300000F03EFAED
S214004D70621C002820D12968CB0604D5532302AE36
S214004D8020309B1918700B0704D553232B2002AE36
S214004D909B19187023782A2B16D000200A21099B0D
S214004DA02278303A092A55D9002815D0099313E0FD
S214004DB0252BB5D00134B0E70123801B834029683A
S214004DC014000B432B60CDE7059B181D1B68059050
S214004DD0002B39DB0993140023782E2B0BD1637834
S214004DE0621C2A2B3ED1059B02341A1D1B680592B5
S214004DF0002B34DB0793354E21780322300000F079
S214004E00F5F9002806D04023801B83402A68013429
S214004E1013432B60217806222D48661C297600F065
S214004E20E5F9002846D02B4B002B2FD12968059B8F
S214004E300722C90528D59B189343083305936B6949
S214004E40039A9B186B6167E75B42EB6002230B4398
S214004E502B60C0E74B4301349B180120A0E70123D9
S214004E605B42C7E7002314000A201A006B60217813
S214004E703039092903D9002BBDD00792BBE742433E
S214004E80013452180123F2E70733D5E705AB009348
S214004E903A00114B2900029800E000BF0390039BE4
S214004EA00133CCD1BB890B985B0600D429E70120DF
S214004EB0404226E705AB00933A00074B29000298CC
S214004EC000F07AF8EAE7C0463CC5010042C501009A
S214004ED046C5010000000000114C0000F7B51500A3
S214004EE001938A680B6900900C00934200DA130065
S214004EF022002B6043321278002A01D001332B6047
S214004F0023689B0602D52B6802332B60062723688E
S214004F101F4027D0230043331B785A1E9341226834
S214004F20920630D42200019943320098089EB0477A
S214004F30431C25D0062320682A68E1680340002524
S214004F40042B03D18D1AEB43DB171D40A36822699F
S214004F50934201DD9B1AED180027BD4220D10020A8
S214004F6010E00137E3682A689B1A9F42D2DA2200D3
S214004F700123193201990098089EB047431CF0D1CE
S214004F8001204042FEBD3020E11843310870210068
S214004F905A1C45310978A218433202331170C1E712
S214004FA0220001231A3201990098089EB047431C3C
S214004FB0E6D00137D1E70000F0B58BB006920A00C4
S214004FC043320793059004920A7E0C00109B6E2ACB
S214004FD000D18FE017D8632A2CD008D8002A00D139
S214004FE099E0582A54D026004236327029E0642AC6
S214004FF001D0692AF7D121681A68080623D5111D41
S2140050001960156825E0732A00D188E008D86F2A51
S21400501029D0702AE7D1202209680A43226003E0DB
S214005020752A20D0782ADED12200782145321170E8
S2140050306C4A30E00E001A684236111D196013687B
S2140050403370012379E04906D9D5111D1960002374
S214005050D55E002D03DA2D23049A6D421370624B41
S2140050600A2703932FE020681968050603D5081D54
S21400507018600D6805E04006F9D50D68081D186033
S214005080ADB2594B082703936F2A18D00A2716E0AB
S21400509045310A70544A03921A682168101D186038
S2140050A01568080622D5CB0702D5202319432160B0
S2140050B01027002D03D1202322689A432260230064
S2140050C0002243331A706368A360002B5CDB042263
S2140050D0216891432160002D58D1049E002B64D096
S2140050E02600039B42361B7833705EE04806DAD50E
S2140050F0ADB2D8E709681A68080605D5111D19600B
S214005100136862691A6006E04906F7D5111D196032
S2140051101368A28A1A800023049E236154E01A684A
S214005120111D1960166800216268300000F05EF8F4
S214005130002801D0801B6060636823610023049A06
S214005140137041E02369320006990598079DA84729
S214005150431C43D0236800259B070FD4099BE068B7
S21400516098423DDA18003BE02200012319320699E6
S2140051700598079EB047431C30D00135E368099A6E
S2140051809B1A9D42F0DBE9E7002DA9D0049E28007B
S2140051903900FFF721FC039B013E5B5C280033705F
S2140051A03900FFF793FB051EF1D1082F09D12368BC
S2140051B0DB0706D563682269934202DC3023013E92
S2140051C03370049B9B1B2361079B09AA0093210055
S2140051D0069B0598FFF782FE431CB3D10120404290
S2140051E00BB0F0BD5EC501004DC50100C9B2821806
S2140051F0904201D10020704703788B42FBD00130EB
S214005200F6E710B5884202D98B18984208D30023D7
S2140052109A4207D0CC5CC4540133F9E78B5C8354C4
S214005220013AFBD210BDF8B507000D0016000029A4
S21400523005D11100FFF758FC04002000F8BD002A35
S21400524003D1FFF707FC3400F7E700F012F82C0054
S2140052508642F2D931003800FFF746FC041EECD037
S21400526029003200FFF7ECFB29003800FFF7F2FBBD
S214005270E3E70B1F1B68181F002B01DA0B58C0183A
S21400528070470000A6130000D41300005E14000050
S2140052908C1400000214000030140000BA14000041
S2140052A0E81400002415000052150000DC1500006C
S2140052B00A16000080150000AE1500003816000023
S2140052C066160000FA16000028170000B217000045
S2140052D0E017000056170000841700000E180000A4
S2140052E03C18000078180000A618000030190000CE
S2140052F05E190000D4180000021900008C19000086
S214005300BA190000E43C0000DC3C0000FC3C000055
S214005310063D0000103D00001A3D0000243D000040
S2140053202E3D0000403D0000383D0000623D00007C
S2140053306C3D0000763D0000803D00008A3D000088
S214005340943D0000743E0000BE3D0000D83D0000C5
S214005350F23D00000C3E0000263E0000403E0000ED
S2140053605A3E00004C3F0000883E00009E3E000073
S214005370B43E0000CA3E0000E03E0000F63E0000DC
S2140053800C3F0000543F0000883E00009E3E000098
S214005390B43E0000CA3E0000E03E0000F63E0000BC
S2140053A00C3F00005C3F0000883E00009E3E000070
S2140053B0B43E0000CA3E0000E03E0000F63E00009C
S2140053C00C3F0000643F0000883E00009E3E000048
S2140053D0B43E0000CA3E0000E03E0000F63E00007C
S2140053E00C3F00006C3F0000883E00009E3E000020
S2140053F0B43E0000CA3E0000E03E0000F63E00005C
S2140054000C3F0000743F0000883E00009E3E0000F7
S214005410B43E0000CA3E0000E03E0000F63E00003B
S2140054200C3F00007C3F0000883E00009E3E0000CF
S214005430B43E0000CA3E0000E03E0000F63E00001B
S2140054400C3F0000223F0000883E00009E3E000009
S214005450B43E0000CA3E0000E03E0000F63E0000FB
S2140054600C3F00002E3F00004C3F0000543F000061
S2140054705C3F0000643F00006C3F0000743F00008B
S2140054807C3F00002E3F00004C3F0000543F0000D1
S2140054905C3F0000643F00006C3F0000743F00006B
S2140054A07C3F00002E3F00004C3F0000543F0000B1
S2140054B05C3F0000643F00006C3F0000743F00004B
S2140054C07C3F00002E3F00004C3F0000543F000091
S2140054D05C3F0000643F00006C3F0000743F00002B
S2140054E07C3F00002E3F00004C3F0000543F000071
S2140054F05C3F0000643F00006C3F0000743F00000B
S2140055007C3F00002E3F00004C3F0000543F000050
S2140055105C3F0000643F00006C3F0000743F0000EA
S2140055207C3F00002E3F00004C3F0000543F000030
S2140055305C3F0000643F00006C3F0000743F0000CA
S2140055407C3F00002E3F00004C3F0000543F000010
S2140055505C3F0000643F00006C3F0000743F0000AA
S2140055607C3F0000564000004E4000000E41000008
S2140055702041000032410000444100005641000036
S21400558068410000024200000E4200002642000071
S2140055901A420000324200003E4200004A4200002A
S2140055A056420000924300009E430000B6430000AF
S2140055B0AA430000C2430000CE430000DA430000C6
S2140055C0E6430000000000000000000000000000AD
S2140055D00000000C000000000000000000000000BA
S2140055E00000000001000080010000800100008033
S2140055F001000080010000800100008001000080A2
S21400560001000080010000800100008002000040D0
S214005610020000400200004002000040020000407D
S214005620020000400200004002000040020000406D
S214005630020000400200004002000040020000405D
S214005640020000400200004002000040020000404D
S214005650020000400200004002000040020000403D
S214005660020000400200004002000040020000402D
S214005670020000400200004002000040020000401D
S214005680020000400200004002000040020000400D
S21400569002000040020000400200004002000040FD
S2140056A002000040020000400200004002000040ED
S2140056B002000040020000400200004002000040DD
S2140056C002000040020000400200004002000040CD
S2140056D00200004000000000FFFFFFFF0000000087
S2140056E000000000000000000000000000000000B5
S2140056F000000000000000000000000000000000A5
S2140057000000000000000000000000000000000094
S2140057100000000000000000000000000000000084
S2140057200000000000000000000000000000000074
S2140057300000000000000000000000000000000064
S2140057400000000000000000000000000000000054
S2140057500000000000000000000000000000000044
S2140057600000000000000000000000000000000034
S2140057700000000000000000000000000000000024
S2140057800000000000000000000000000000000014
S2140057900000000000000000000000000000000004
S2140057A000000000000000000000000000000000F4
S2140057B000000000000000000000000000000000E4
S2140057C000000000000000000000000000000000D4
S2140057D000000000000000000000000000000000C4
S2140057E000000000000000000000000000000000B4
S2140057F000000000000000000000000000000000A4
S2140058000000000000000000000000000000000093
S2140058100000000000000000000000000000000083
S2140058200000000000000000000000000000000073
S2140058300000000000000000000000000000000063
S2140058400000000000000000000000000000000053
S2140058500000000000000000000000000000000043
S214005860000000000000000000000000C000000073
S2140058700000000000000000000000000000000023
S21400588000000000A9A9A9A9A9A9A9A9A9A9A9A927
S214005890A9A9A9A9A9A9A9A9A9A9A9A9A9A9A9A17B
S2140058A0A9A929A1A8A92181A8A90581A8A10505BA
S2140058B0A880051588001554800404548254145496
