S01E000073616D6432315F65743031317474325F5F345F315F362E7372656303
S2140000003824002019010000150100001501000029
S21400001000000000000000000000000000000000DB
S21400002000000000000000000000000015010000B5
S214000030000000000000000015010000150100008F
S2140000401501000015010000150100001501000053
S2140000501501000015010000150100001501000043
S2140000601501000015010000150100001501000033
S2140000701501000015010000150100001501000023
S2140000801501000015010000150100001501000013
S2140000901501000015010000150100001501000003
S2140000A015010000150100001501000015010000F3
S2140000B00000000010B5064C2378002B07D1054B36
S2140000C0002B02D0044800E000BF0123237010BDBF
S2140000D05803002000000000C0B70100084B10B510
S2140000E0002B03D00749084800E000BF0748036814
S2140000F0002B00D110BD064B002BFBD09847F9E72C
S214000100000000005C030020C0B70100C0B701007B
S21400011000000000FEE70000F8B52A4A2A4B9A4283
S21400012011D01A00294B9A420DD2294A03339B1A42
S2140001309B0801339B000022234822498C58845098
S21400014004329A42FAD1234A234B9A420AD2D34324
S21400015021495B1803218B4304339B18002102C2FC
S2140001609342FCD11D4AFF211D4B8B439360FD3902
S21400017090235B001B4AD1501B4AD3780325AB4320
S21400018002242343D370D3780C27BB43082633437B
S214000190D370164B987B30229043202210439873DE
S2140001A0997BB943314399739A7BAA4322439A7346
S2140001B00F4A536880210B4353600E4B98470E4BF3
S2140001C09847FEE7C0B70100000000205803002053
S2140001D004000020580300203804002000ED00E052
S2140001E0000000000070004100500041004800413F
S2140001F000400041954300002D43000010B5024822
S214000200024B984710BDC04610E000E069030000AE
S214000210F8B5DE4657464E464546E0B5404B98474D
S214000220C022D2051023536193603E4B3E4999622B
S214000230C02424069C624425585D012188435855F5
S214000240202050619060394898629C620135585D64
S2140002508843585540208446506190603448824612
S21400026098629C620135585D8843585580205061DD
S21400027090603048804698629C620135585D88439D
S214000280585580252D0255602B4898622B48986259
S21400029055604F201E5C04273E431E5495611D5C2E
S2140002A08D431D5494269151393011502030244FDF
S2140002B01F501C50C027BB46DF5D8F43B9465F46C4
S2140002C04D46DD5565469551383FD55155461D502E
S2140002D01C50C625A9465D5D2F008F434D465F55D1
S2140002E0463D955108358027575145461D501C50B0
S2140002F04737DC5D8C43DC558024E4059451882523
S21400030054511C500F4A1A5036301A5C8A431A54FD
S2140003100D4B98473CBC90469946A246AB46F8BD66
S214000320CD030000004400411000004020000040C3
S214000330400000408000004000800240000002C0F4
S21400034001000040004000C0FD010000EFF31083F4
S214000350036072B6BFF35F8F7047BFF35F8F0368AB
S21400036083F310887047000010B5024B1860024BEC
S214000370984710BD740300200D05000010B5044B0F
S2140003801C68044B984701002000034B984710BD9B
S21400039074030020C1030000210500000300064A84
S2140003A01268002A04D0044A1068C3181360704705
S2140003B00249014A1160F6E778030020382400203D
S2140003C0014B58437047C046C05D000010B5074B50
S2140003D05A685A60064B9847064B98470820064CC2
S2140003E0A047064B9847F720A04710BD00400041A5
S2140003F041040000610400000104000095040000B0
S214000400C30709D50B4B802292009A600A4A5A60AD
S2140004101A005378DB09FCD1030709D5054B0422E3
S214000420FF329A60054A5A601A005378DB09FCD1FD
S2140004307047C046000C004000070100030401009E
S214000440064B1A7AD2B21A725A7AD2B25A729A7A7A
S214000450D2B29A72DA7AD2B2DA72704700040040E8
S2140004600B4A9369FE21C9030B404E210B4393614F
S214000470137F2F390B40137711000422CB681A42E2
S214000480FCD0034A936980210B4393617047C046B2
S214000490000800400222194B9A8419000E32CB68DD
S2140004A01A42FCD0164A154BDA62164B1B689B0E96
S2140004B03F2B1AD09B028022920013430F4A93626E
S2140004C002239384938C5B0712D51100D022CB684D
S2140004D01340D02BFBD1094A938C80210B43938485
S2140004E0094A5378DB09FCD17047FC23DB01E5E7BA
S2140004F002491022CB681A42FCD0ECE70008004004
S2140005000000010424608000000C0040024B034AF7
S2140005105A6005221A60704710E000E0FFFFFF00F7
S21400052070B50B0E5E1EF6B2002B13D034000E4ACA
S2140005300E4D802040025560956013680342FCD043
S214000540013CE4B2FF2CF6D13306F61A084B9C4663
S21400055061447118044B5960996019008022520258
S2140005600B681342FCD070BD10E000E0FFFFFF00F8
S214000570010000FF10B5024B1B681B68984710BDB2
S2140005809C03002010B5024B1B68DB6A984710BD21
S21400059030040020F0B5DE4657464E464546E0B5E8
S2140005A08BB0039005921800079314AB1988089136
S2140005B015AB1988099116AB1F7817AB19788946C1
S2140005C08F4251D0002A4FD0002204920300013BF4
S2140005D09BB20693284B9B46B84633E04B46082B07
S2140005E003D04A4621000198D84701350134A4B209
S2140005F0082D0BD033782B41DB07EFD5082FF4D02E
S2140006003A00210001981C4B9847EEE74346013B11
S2140006109BB29846534608339BB29A464346002BF5
S21400062008D0029B43441E00039B9C4666445446E7
S2140006300025DFE7B846049B01339BB20493059A76
S2140006409A4211D9069B1F1EF5D0079B049A534366
S2140006500293099B9A46089B944663449BB2019377
S2140006604346B8461F00DCE70BB03CBC90469946B4
S214000670A246AB46F0BDC04685050000F0B5DE4696
S21400068057464E464546E0B58BB003900592180097
S214000690079314AB1988089115AB1988099116AB06
S2140006A01F7817AB197889468F4251D0002A4FD051
S2140006B0002204920300013B9BB20693284B9B4604
S2140006C0B84633E04B46082B03D04A462100019833
S2140006D0D84701350134A4B2082D0BD033782B410E
S2140006E0DB07EFD5082FF4D03A00210001981C4B09
S2140006F09847EEE74346013B9BB29846534608337D
S2140007009BB29A464346002B08D0029B43441E00E9
S214000710039B9C46664454460025DFE7B846049B88
S21400072001339BB20493059A9A4211D9069B1F1E69
S214000730F5D0079B049A53430293099B9A46089B5D
S214000740944663449BB201934346B8461F00DCE7D9
S2140007500BB03CBC90469946A246AB46F0BDC046A0
S21400076085050000F0B5DE4657464E464546E0B5E0
S21400077089B01900059312AB1C88009413AB1D8832
S214000780069514AB1D78A84615AB1D78A946A84556
S2140007904ED0002A4CD00B000391013B9BB202398D
S2140007A0C91A41180291A446624492B204920133D7
S2140007B00793234B9B469A462FE04B46082B03D0C5
S2140007C04A4621000098D84701350134A4B2082DC6
S2140007D00BD033782B411F42EFD04346082BF3D083
S2140007E0424621000098D047EEE7019B08339BB2B3
S2140007F00193013E029B9E4203D0019C00250127E7
S214000800E7E7029B039A944663440293009B0133F6
S2140008109BB20093049A93420AD0059B002BF0D01B
S214000820079B029A944663441E00069B0193E4E7E6
S21400083009B03CBC90469946A246AB46F0BDC046C1
S21400084085050000F0B585B00AAC24880BAD2D8870
S2140008500CAE36780DAF3F7803970296019500945C
S214000860014CA04705B0F0BD65070000F0B5DE46B8
S21400087057464E464546E0B589B01900059312AB7B
S2140008801C88009413AB1D88069514AB1D78A846EB
S21400089015AB1D78A946A8454ED0002A4CD00B00B3
S2140008A00391013B9BB20239C91A41180291A44632
S2140008B0624492B2049201330793234B9B469A46B6
S2140008C02FE04B46082B03D04A4621000098D84715
S2140008D001350134A4B2082D0BD033782B411F42CA
S2140008E0EFD04346082BF3D0424621000098D0476D
S2140008F0EEE7019B08339BB20193013E029B9E42AA
S21400090003D0019C00250127E7E7029B039A944643
S21400091063440293009B01339BB20093049A934274
S2140009200AD0059B002BF0D0079B029A944663449E
S2140009301E00069B0193E4E709B03CBC904699462E
S214000940A246AB46F0BDC04685050000F0B5DE46C3
S21400095057464E464546E0B589B012A90988069125
S21400096013A9098814AC277815AC2478A146A742A9
S2140009704ED00592002A4BD004930390284A944602
S2140009806344DB00CB18002202929BB20793254BF0
S2140009909B462CE04B46082B03D04A462100019884
S2140009A0D84701350134A4B2082D0BD033782B413B
S2140009B0DB07EFD5082FF4D03A0021000198194B39
S2140009C09847EEE74346083B9BB2984601365645A5
S2140009D002D044460025E9E7029B01330293039ABE
S2140009E004998C4662440392059A934210D2049B63
S2140009F0002BF1D0039E32009C4662449246079B31
S214000A009846069B029A944663449BB20193E0E79D
S214000A1009B03CBC90469946A246AB46F0BDC046DF
S214000A20FF1F000085050000F0B5DE4657464E461F
S214000A304546E0B589B012A90988069113A9098828
S214000A4014AC277815AC2478A146A7424ED0059260
S214000A50002A4BD004930390284A94466344DB0054
S214000A60CB18002202929BB20793254B9B462CE0A4
S214000A704B46082B03D04A4621000198D84701353B
S214000A800134A4B2082D0BD033782B41DB07EFD509
S214000A90082FF4D03A0021000198194B9847EEE74A
S214000AA04346083B9BB298460136564502D044461C
S214000AB00025E9E7029B01330293039A04998C46CA
S214000AC062440392059A934210D2049B002BF1D005
S214000AD0039E32009C4662449246079B9846069BBD
S214000AE0029A944663449BB20193E0E709B03CBC8B
S214000AF090469946A246AB46F0BDC046FF1F000092
S214000B0085050000F0B5DE4657464E464546E0B53C
S214000B1089B012A90988069113A9098814AC277808
S214000B2015AC2478A146A7424ED00592002A4BD099
S214000B3004930390284A94466344DB00CB180022B3
S214000B4002929BB20793254B9B462CE04B46082B04
S214000B5003D04A4621000198D84701350134A4B293
S214000B60082D0BD033782B41DB07EFD5082FF4D0B8
S214000B703A0021000198194B9847EEE74346083B98
S214000B809BB298460136564502D044460025E9E712
S214000B90029B01330293039A04998C4662440392A3
S214000BA0059A934210D2049B002BF1D0039E32008C
S214000BB09C4662449246079B9846069B029A944639
S214000BC063449BB20193E0E709B03CBC904699466B
S214000BD0A246AB46F0BDC046FF1F000085050000DC
S214000BE0F0B5DE4657464E464546E0B58BB0039018
S214000BF005921800079314AB1988089115AB19884D
S214000C00099116AB1F7817AB197889468F4251D0D9
S214000C10002A4FD0002204920300013B9BB20693A9
S214000C20284B9B46B84633E04B46082B03D04A4633
S214000C3021000198D84701350134A4B2082D0BD005
S214000C4033782B41DB07EFD5082FF4D03A0021008C
S214000C5001981C4B9847EEE74346013B9BB29846EB
S214000C60534608339BB29A464346002B08D0029B55
S214000C7043441E00039B9C46664454460025DFE71B
S214000C80B846049B01339BB20493059A9A4211D945
S214000C90069B1F1EF5D0079B049A53430293099B9D
S214000CA09A46089B944663449BB201934346B846D3
S214000CB01F00DCE70BB03CBC90469946A246AB460C
S214000CC0F0BDC04685050000F0B5DE4657464E46E8
S214000CD04546E0B589B01900059312AB1C88009410
S214000CE013AB1D88069514AB1D78A84615AB1D786A
S214000CF0A946A8454ED0002A4CD00B000391013BD4
S214000D009BB20239C91A41180291A446624492B2B3
S214000D10049201330793234B9B469A462FE04B469B
S214000D20082B03D04A4621000098D84701350134E5
S214000D30A4B2082D0BD033782B411F42EFD0434688
S214000D40082BF3D0424621000098D047EEE7019BDF
S214000D5008339BB20193013E029B9E4203D0019C46
S214000D6000250127E7E7029B039A94466344029313
S214000D70009B01339BB20093049A93420AD0059BD2
S214000D80002BF0D0079B029A944663441E00069BF5
S214000D900193E4E709B03CBC90469946A246AB46B0
S214000DA0F0BDC0468505000070470000F0B5C64699
S214000DB000B5C022D20588274026D6512A4BA82047
S214000DC02A4D1D50C02424061C500121D151284F05
S214000DD01F501C502027B8469760264F9F629C6283
S214000DE096609D629C621025AC469560224D9D6281
S214000DF09C6280259560214F9F629C6294241651C8
S214000E009827D15144469461966164465461556171
S214000E10743415511A4E1E501A4E1E5015511F305E
S214000E201C5C042634431C54D551C6241A5D8A43E0
S214000E301A55063C1A5D8A431A557B3C1A5D8A434E
S214000E401A5501341A5D8A431A55023C1A5D8A43C4
S214000E501A5503341A5D8A431A551A5C8A431A5483
S214000E6004BC9046F0BDC04600440041400000402F
S214000E7001000040200000401000004080000040BC
S214000E8080000240000002C010B52E4B9B889BB22B
S214000E9083421CD92B4BDB889BB28B4217D9294B3C
S214000EA01B78012B14D0274B1B78022B1BD0254B0D
S214000EB01B78032B25D0C3108C006118CC00611A58
S214000EC05B1807218143002A27D0012A30D010BDA5
S214000ED0CC1021331B1B84002018C400201A1B18BA
S214000EE007200140EFE7C4101823FF331B1B232401
S214000EF064426143144CA44661445B1807210140D8
S214000F00E1E7CC10104B9C46644423235B424343EA
S214000F10E318072088430100D5E70C4A12681069D9
S214000F20C31801228A4011001A788A431A70CEE745
S214000F30064A12681069C31801228A4019780A43C3
S214000F401A70C4E7140400207D410000300400201D
S214000F5010B54E4B5B889BB2834244D94B4B9C8862
S214000F60A4B28C423FD91B78002B0BD0474B1B7882
S214000F70022B07D0441096235B004B43E318012155
S214000F80014006E04C1096235B004343E318012023
S214000F900140002928D13E4909680969C918100787
S214000FA05FD40C787F2020400870394909680969A9
S214000FB0C91850075BD408784024A0430870344909
S214000FC009680969C918900756D408782024A043F0
S214000FD008702F4909680969CB18D20751D41A78C6
S214000FE010218A431A7010BD294909680969C91871
S214000FF0100722D408780824A043087024490968FA
S2140010000969C91850071DD408780424A04308703D
S2140010101F4909680969C918900718D40878022476
S214001020A04308701A4909680969CB18D20713D477
S2140010301A7801218A431A70D5E7087808242043D5
S2140010400870DBE70878042420430870E0E7087897
S214001050022420430870E5E71A7801210A431A7033
S214001060C1E70C7880204042204308709DE708784E
S214001070402420430870A2E7087820242043087004
S214001080A7E71A7810210A431A70ACE7B0030020CD
S2140010903004002010B5002A03D00F22024B9847D8
S2140010A010BD014B9847FBE7510F0000F0B5DE4638
S2140010B057464E464546E0B587B00290934619001F
S2140010C0039310AB1A88904611AB1B885A46002A29
S2140010D034D0002292460A00013A92B29146049316
S2140010E01A4F434605934B464D46002B20D0049E90
S2140010F0039B52465343029A90469844059B53449A
S2140011009BB2019343465C5D0F222240D243D2B28B
S21400111031000198B8472409E243D2B2711C89B263
S2140011200198B847013DADB20236B6B2002DE9D1FE
S214001130534601339BB29A469B45D4D807B03CBC75
S21400114090469946A246AB46F0BDC046510F0000F9
S21400115010B5364B9B889BB2834219D9334BDB883C
S2140011609BB28B4214D9314B5B78012B11D02F4B9D
S2140011705B78032B0DD0441096235B004B43E3189B
S2140011800121084000282CD0002A0AD0012A18D0B5
S21400119010BD4C1096235B004343E3180120084023
S2140011A0F0E7234802681269D21811780224A14396
S2140011B0117002681169CB181A7801218A431A70D7
S2140011C0E6E71B4802681269D21811780224214308
S2140011D0117002681169CB181A7801210A431A7037
S2140011E0D6E7002A11D0012AD2D111480268126926
S2140011F0D218117820242143117002681169CB1887
S2140012001A7810210A431A70C2E709480268126960
S214001210D21811782024A143117002681169CB18E6
S2140012201A7810218A431A70B2E7C04608040020D4
S2140012303004002010B5D04B9B889BB283423AD92D
S214001240CD4BDB889BB28B4235D9CB4B5B78012BE1
S21400125013D0C94B5B78032B0FD0441096235B004A
S2140012604B43E31801210840002800D1C5E0072AB7
S21400127021D89200C1498A5897464C1096235B00A5
S2140012804343E31801200840EEE7BD490A681269A7
S214001290D21810780424A04310700A681269D21875
S2140012A01078023CA04310700A681169CB181A78AF
S2140012B001218A431A7010BDB1490A681269D21812
S2140012C010780424A04310700A681269D2181078A7
S2140012D0023CA04310700A681169CB181A780121E5
S2140012E00A431A70E7E7A6490A681269D218107806
S2140012F00424A04310700A681269D21810780224D9
S214001300204310700A681169CB181A7801218A43A5
S2140013101A70D0E79A490A681269D218107804241D
S214001320A04310700A681269D2181078022420436D
S21400133010700A681169CB181A7801210A431A70CE
S214001340B9E78F490A681269D21810780424204336
S21400135010700A681269D21810780224A043107020
S2140013600A681169CB181A7801218A431A70A2E715
S21400137083490A681269D218107804242043107032
S2140013800A681269D21810780224A04310700A68FE
S2140013901169CB181A7801210A431A708BE778492D
S2140013A00A681269D21810780424204310700A685C
S2140013B01269D21810780224204310700A68116946
S2140013C0CB181A7801218A431A7074E76C490A68A8
S2140013D01269D21810780424204310700A68126923
S2140013E0D21810780224204310700A681169CB18AE
S2140013F01A7801210A431A705DE7072A00D95AE7CE
S214001400920060498A5897465D490A681269D21860
S21400141010784024A04310700A681269D218107819
S214001420203CA04310700A681169CB181A78102166
S2140014308A431A703FE752490A681269D218107830
S2140014404024A04310700A681269D2181078203C15
S214001450A04310700A681169CB181A7810210A4345
S2140014601A7028E746490A681269D218107840248C
S214001470A04310700A681269D218107820242043FE
S21400148010700A681169CB181A7810218A431A70EE
S21400149011E73B490A681269D21810784024A04325
S2140014A010700A681269D218107820242043107031
S2140014B00A681169CB181A7810210A431A70FAE6DE
S2140014C02F490A681269D2181078402420431070F9
S2140014D00A681269D21810782024A04310700A688F
S2140014E01169CB181A7810218A431A70E3E624494A
S2140014F00A681269D21810784024204310700A68CF
S2140015001269D21810782024A04310700A68116956
S214001510CB181A7810210A431A70CCE618490A68C4
S2140015201269D21810784024204310700A68126995
S214001530D21810782024204310700A681169CB183E
S2140015401A7810218A431A70B5E60D490A6812699E
S214001550D21810784024204310700A681269D218F6
S21400156010782024204310700A681169CB181A7866
S21400157010210A431A709EE608040020F844000072
S214001580300400201845000010B5D04B9B889BB255
S21400159083423AD9CD4BDB889BB28B4235D9CB4BB5
S2140015A05B78012B13D0C94B5B78032B0FD043100D
S2140015B08C00611889015B1801210840002800D1C1
S2140015C0C5E0072A21D89200C1498A5897464B1091
S2140015D08400201880011B1801200840EEE7BD4952
S2140015E00A681269D21810780424A04310700A689A
S2140015F01269D2181078023CA04310700A6811696C
S214001600CB181A7801218A431A7010BDB1490A68AE
S2140016101269D21810780424A04310700A68126960
S214001620D2181078023CA04310700A681169CB18D3
S2140016301A7801210A431A70E7E7A6490A68126970
S214001640D21810780424A04310700A681269D218C1
S21400165010780224204310700A681169CB181A7893
S21400166001218A431A70D0E79A490A681269D2188B
S21400167010780424A04310700A681269D2181078F3
S2140016800224204310700A681169CB181A780121C9
S2140016900A431A70B9E78F490A681269D218107897
S2140016A00424204310700A681269D21810780224A5
S2140016B0A04310700A681169CB181A7801218A4372
S2140016C01A70A2E783490A681269D21810780424AF
S2140016D0204310700A681269D21810780224A043BA
S2140016E010700A681169CB181A7801210A431A701B
S2140016F08BE778490A681269D218107804242043C8
S21400170010700A681269D2181078022420431070EC
S2140017100A681169CB181A7801218A431A7074E78F
S2140017206C490A681269D218107804242043107095
S2140017300A681269D21810780224204310700A68CA
S2140017401169CB181A7801210A431A705DE7072A37
S21400175000D95AE7920060498A5897465D490A6858
S2140017601269D21810784024A04310700A681269D3
S214001770D2181078203CA04310700A681169CB1864
S2140017801A7810218A431A703FE752490A6812698C
S214001790D21810784024A04310700A681269D21834
S2140017A01078203CA04310700A681169CB181A788C
S2140017B010210A431A7028E746490A681269D218A7
S2140017C010784024A04310700A681269D218107866
S2140017D02024204310700A681169CB181A7810214B
S2140017E08A431A7011E73B490A681269D2181078C2
S2140017F04024A04310700A681269D218107820247A
S214001800204310700A681169CB181A7810210A4311
S2140018101A70FAE62F490A681269D218107840241E
S214001820204310700A681269D21810782024A0434A
S21400183010700A681169CB181A7810218A431A703A
S214001840E3E624490A681269D21810784024204337
S21400185010700A681269D21810782024A0431070FD
S2140018600A681169CB181A7810210A431A70CCE658
S21400187018490A681269D21810784024204310705C
S2140018800A681269D21810782024204310700A685B
S2140018901169CB181A7810218A431A70B5E60D49DB
S2140018A00A681269D21810784024204310700A681B
S2140018B01269D21810782024204310700A68116923
S2140018C0CB181A7810210A431A709EE608040020E6
S2140018D0384500003004002058450000F0B52A4C7A
S2140018E02478E4B2012C14D0002C08D0022C1CD092
S2140018F0032C24D0B34201D2BD4228D3F0BD224CE3
S214001900E3885B1A9BB2E688B6B2A788BFB205002A
S214001910F0E71D4CA3881B1A9BB2E5886D1AADB282
S214001920A688B6B2E788BFB2E4E7174CA5882D1A9A
S214001930ADB2E688B6B2A788BFB20B00DAE7124BA4
S2140019409E88B6B2DF88BFB20D000300D2E70F490B
S2140019500968013398001B1898001B18E8101B1A1A
S214001960013B9BB20969CB1807210D40002A05D11F
S2140019700121A9401A788A431A70BFE70639A940A0
S2140019801A780A431A70B9E7B8030020300400201A
S21400199070B5374C23899BB2E588ADB2E488A4B213
S2140019A0844225D9324C2489A4B28C4220D9304CAA
S2140019B0E478012C1DD02E4CE478032C19D001308D
S2140019C0DB08DBB25843CB10DB43C31807200140CB
S2140019D02748807800281BD1264800684069C3182D
S2140019E0002A0ED101228A4011001A788A431A7002
S2140019F070BDED08EBB25943C310CB1807218143E5
S214001A00E6E701228A4011001A780A431A70EFE7C7
S214001A10002A17D0023A012A01D8002613E0154DF5
S214001A202A681269D21801248C401078204310705E
S214001A302A685069C31801228A4011001A780A439E
S214001A401A70D5E701260B4D2A681269D2180124B0
S214001A508C401078A04310702A685069C318002E76
S214001A60E9D101228A4011001A788A431A70BFE72A
S214001A70F80300203004002010B5014B984710BD35
S214001A809119000010B5164CE3889BB2A488A4B246
S214001A90844218D9124CE488A4B28C4213D9DB08CD
S214001AA0DBB24343C8101B1A013B07200140002A43
S214001AB00AD00C4A12685069C31801228A401100E5
S214001AC01A780A431A7010BD064A12685069C3187D
S214001AD001228A4011001A788A431A70F3E7C0463A
S214001AE0900300203004002030B51E4CE3889BB2E3
S214001AF0A488A4B2844204D91A4CE488A4B28C42C6
S214001B0000D830BD9B08DBB2434388101B1A013B4C
S214001B10032001404900144800680069C018D40733
S214001B2012D401258D400478AC4304700E4800683A
S214001B300069C318013192070CD401228A401100B3
S214001B401A788A431A70DCE701258D4004782C4306
S214001B500470EBE701228A4011001A780A431A70D3
S214001B60CFE7C046900300203004002010B5002ABE
S214001B7003D00322024B984710BD014B9847FBE762
S214001B80E91A000070B5002903D12022C023DB0526
S214001B905A610823C022D2051026802408E09661E8
S214001BA094614000C0B25461013BDBB2002B04D00C
S214001BB045B2002DF3DB5661F2E7002903D120225F
S214001BC0C023DB059A6170BDF8B50C001500C02671
S214001BD0F60501279423F750743B73610021074BE9
S214001BE098479823F750002D07D06519034E2078A4
S214001BF00021B0470134A542F9D1F8BD851B00008D
S214001C00F0B585B02C4B5B78012B3CD02A4BDB78AB
S214001C10022B14D00222284BDA70284C21002031E7
S214001C201E322020264DA8472100403180229200F7
S214001C302220A8478022234920312620A84702A92F
S214001C4000230B704B708B70CB70EF220A714B71B8
S214001C508A71E83A12201A4B98471B4F1B4E01A870
S214001C60B847C023DB0580255C59A02218498A584E
S214001C7090215B5853401C40544001A8B047254271
S214001C80EDD005B0F0BD0C4BDB78012BD7D0012290
S214001C90094BDA700F4C1F3221002020084DA84750
S214001CA021002031802292002220A8478022054968
S214001CB020312620A847C2E790030020B84A00003B
S214001CC0C91B0000384A00004D0300005B030000FB
S214001CD00044004138480000F0B587B000220021DB
S214001CE00420354B9847354F354E01A8B847C023DA
S214001CF0DB0580255C59A02232498A5890215B5822
S214001D0053401C40544001A8B0472542EDD02E4B0E
S214001D10DB78002B3ED104A901230B7000234B7007
S214001D208B70CB707F220A714B71FF338B71783AC0
S214001D301220214B9847214F214E02A8B847C023B6
S214001D40DB0580255C59A0221E498A5890215B58E5
S214001D5053401C40544002A8B0472542EDD0002214
S214001D6000210220144B9847144F154E03A8B8477D
S214001D70C023DB0580255C59A02212498A58902191
S214001D805B5853401C40544003A8B0472542EDD151
S214001D9007B0F0BD00220C4BDA702032552120200F
S214001DA0054CA0478022920081212220A047802255
S214001DB000212620A047AEE7C91B00004D03000007
S214001DC05B0300000044004190030020F0B583B0A0
S214001DD00022002104201A4CA047002200211220D5
S214001DE0A047184F184E6846B847C023DB05802525
S214001DF05C59A02215498A5890215B5853401C40D4
S214001E0054406846B0472542EDD00022002102200B
S214001E100B4B98470B4F0C4E01A8B847C023DB0569
S214001E2080255C59A02209498A5890215B58534066
S214001E301C40544001A8B0472542EDD003B0F0BD89
S214001E40C91B00004D0300005B0300000044004176
S214001E50F0B5C64600B584B08046002200210420B6
S214001E60444CA047444B1B68196994225201102029
S214001E70A047002200211120A047404D404F684651
S214001E80A847C023DB0580269C59A0223D498A58D6
S214001E9090215B5853401C4054406846B847264241
S214001EA0EDD0354B1B685969942252011320314CF2
S214001EB0A047002200211120A047304D304F01A836
S214001EC0A847C023DB0580269C59A0222D498A58A6
S214001ED090215B5853401C40544001A8B847264206
S214001EE0EDD04346002B2BD1002200210220214BAF
S214001EF09847224F224E03A8B847C023DB0580250B
S214001F005C59A0221F498A5890215B5853401C40B8
S214001F10544003A8B0472542EDD01B4B9B78002BBE
S214001F200AD1154C9420400122685169C95C126997
S214001F30D15401338342F7D104B004BC9046F0BDBF
S214001F400022002112200B4B98470C4F0C4E02A883
S214001F50B847C023DB0580255C59A02209498A586A
S214001F6090215B5853401C40544002A8B04725427D
S214001F70EDD0B9E7C91B0000300400204D03000077
S214001F805B03000000440041F8030020F0B583B076
S214001F900022002104201A4CA04700220021122013
S214001FA0A047184F184E6846B847C023DB05802563
S214001FB05C59A02215498A5890215B5853401C4012
S214001FC054406846B0472542EDD00022002102204A
S214001FD00B4B98470B4F0C4E01A8B847C023DB05A8
S214001FE080255C59A02209498A5890215B585340A5
S214001FF01C40544001A8B0472542EDD003B0F0BDC8
S214002000C91B00004D0300005B03000000440041B4
S214002010F0B5C64600B584B08046002200210420F4
S2140020203C4CA0473C4B1B6819693C4A1020A04713
S214002030002200211120A047394D3A4F6846A84794
S214002040C023DB0580269C59A02237498A58902158
S2140020505B5853401C4054406846B8472642EDD073
S2140020602D4B1B6859692D4A13202A4CA047002285
S21400207000211120A0472A4D2A4F01A8A847C023B7
S214002080DB0580269C59A02227498A5890215B5858
S21400209053401C40544001A8B8472642EDD0434662
S2140020A0002B1CD10022002102201A4B98471C4FFF
S2140020B01C4E03A8B847C023DB0580255C59A02228
S2140020C019498A5890215B5853401C40544003A835
S2140020D0B0472542EDD004B004BC9046F0BD0022C7
S2140020E0002112200B4B98470D4F0E4E02A8B84702
S2140020F0C023DB0580255C59A0220B498A58902115
S2140021005B5853401C40544002A8B0472542EDD0CF
S214002110C8E7C046C91B000030040020F8150000C0
S2140021204D0300005B03000000440041F0B585B09D
S214002130234B5B78012B36D0F72203AB1A700122B3
S21400214003A922201F4B98471F4F204E01A8B847CF
S214002150C023DB0580255C59A0221D498A589021A2
S2140021605B5853401C40544001A8B0472542EDD16F
S214002170002200212020134B9847134F134E02A82D
S214002180B847C023DB0580255C59A02210498A5831
S21400219090215B5853401C40544002A8B04725424B
S2140021A0EDD105B0F0BD064B9B78002B03D1C722BE
S2140021B003AB1A70C3E7FF2203AB1A70BFE7C04633
S2140021C0B8030020C91B00004D0300005B0300009D
S2140021D000440041F0B585B0002200210420254BC4
S2140021E09847254F254E01A8B847C023DB05802514
S2140021F05C59A02222498A5890215B5853401C40C3
S214002200544001A8B0472542EDD0002200211220FC
S214002210184B9847184F194E02A8B847C023DB053D
S21400222080255C59A02216498A5890215B58534055
S2140022301C40544002A8B0472542EDD000220021A1
S21400224002200C4B98470C4F0C4E03A8B847C023EF
S214002250DB0580255C59A02209498A5890215B58E5
S21400226053401C40544003A8B0472542EDD005B06B
S214002270F0BDC046C91B00004D0300005B03000014
S21400228000440041F0B5C64600B584B08046374BE2
S2140022901B6819698C2292021020354B9847354FDF
S2140022A0354E6846B847C023DB0580255C59A0221A
S2140022B032498A5890215B5853401C405440684627
S2140022C0B0472542EDD04346002B03D104B004BCF2
S2140022D09046F0BD002200210420254B9847254F4C
S2140022E0254E01A8B847C023DB0580255C59A022EF
S2140022F022498A5890215B5853401C40544001A8FC
S214002300B0472542EDD0002200211220184B9847F6
S214002310184F194E02A8B847C023DB0580255C5924
S214002320A02216498A5890215B5853401C405440BE
S21400233002A8B0472542EDD00022002102200C4B17
S21400234098470C4F0C4E03A8B847C023DB058025E2
S2140023505C59A02209498A5890215B5853401C407A
S214002360544003A8B0472542EDD0AFE73004002024
S214002370C91B00004D0300005B0300000044004141
S214002380F0B585B0002200210420254B9847254F44
S214002390254E01A8B847C023DB0580255C59A0223E
S2140023A022498A5890215B5853401C40544001A84B
S2140023B0B0472542EDD0002200211220184B984746
S2140023C0184F194E02A8B847C023DB0580255C5974
S2140023D0A02216498A5890215B5853401C4054400E
S2140023E002A8B0472542EDD00022002102200C4B67
S2140023F098470C4F0C4E03A8B847C023DB05802532
S2140024005C59A02209498A5890215B5853401C40C9
S214002410544003A8B0472542EDD005B0F0BDC046F5
S214002420C91B00004D0300005B0300000044004190
S214002430F0B5C64600B584B08046374B1B681969B0
S214002440364A1020364B9847364F374E6846B847C0
S214002450C023DB0580255C59A02234498A58902188
S2140024605B5853401C4054406846B0472542EDD068
S2140024704346002B03D104B004BC9046F0BD0022B6
S21400248000210420264B9847264F274E01A8B84720
S214002490C023DB0580255C59A02224498A58902158
S2140024A05B5853401C40544001A8B0472542EDD02D
S2140024B00022002112201A4B98471A4F1A4E02A8E3
S2140024C0B847C023DB0580255C59A02217498A58E7
S2140024D090215B5853401C40544002A8B047254208
S2140024E0EDD00022002102200D4B98470D4F0E4ED6
S2140024F003A8B847C023DB0580255C59A0220B49FA
S2140025008A5890215B5853401C40544003A8B0475B
S2140025102542EDD0AFE7C04630040020000D020093
S214002520C91B00004D0300005B030000004400418F
S214002530F0B583B00022002104201A4CA0470022E8
S21400254000211220A047184F184E6846B847C023EF
S214002550DB0580255C59A02215498A5890215B58D6
S21400256053401C4054406846B0472542EDD00022F8
S214002570002102200B4B98470B4F0C4E01A8B84782
S214002580C023DB0580255C59A02209498A58902182
S2140025905B5853401C40544001A8B0472542EDD03C
S2140025A003B0F0BDC91B00004D0300005B03000034
S2140025B000440041F0B5C64600B584B0804600220F
S2140025C0002104202C4CA0472C4B1B6819692C4A70
S2140025D01020A047002200211120A047294F2A4E94
S2140025E001A8B847C023DB0580255C59A0222749EF
S2140025F08A5890215B5853401C40544001A8B0476D
S2140026002542EDD04346002B1CD10022002102209B
S214002610194B98471B4F1C4E03A8B847C023DB0531
S21400262080255C59A02219498A5890215B5853404E
S2140026301C40544003A8B0472542EDD004B004BC6B
S2140026409046F0BD0022002112200B4B98470D4FFC
S2140026500D4E02A8B847C023DB0580255C59A02292
S2140026600A498A5890215B5853401C40544002A89F
S214002670B0472542EDD0C8E7C91B00003004002053
S214002680000D02004D0300005B0300000044004103
S214002690F0B587B0002200210420224B9847224F35
S2140026A0224E01A8B847C023DB0580255C59A0222E
S2140026B01F498A5890215B5853401C40544001A83B
S2140026C0B0472542EDD003A918230B7000234B70AA
S2140026D08B70CB700B7102334B7156338B71573B3B
S2140026E0CB71DF330B72092212200E4CA04700225A
S2140026F000210220A0470C4F0C4E02A8B847C0236A
S214002700DB0580255C59A02209498A5890215B5830
S21400271053401C40544002A8B0472542EDD007B0B5
S214002720F0BDC046C91B00004D0300005B0300005F
S21400273000440041F0B583B0154BDB78002B20D168
S2140027406922144940313220134B98470022002159
S2140027502020114B9847114F114E01A8B847C023AF
S214002760DB0580255C59A0220E498A5890215B58CB
S21400277053401C40544001A8B0472542EDD103B059
S214002780F0BD692208492C313220034B9847DDE71B
S21400279014040020B84C0000C91B00004D030000C4
S2140027A05B03000000440041384D0000F0B583B0E4
S2140027B0070001AC002525706570022221004E201E
S2140027C01D4EB04725706570022221004F20B0478D
S2140027D01A4B1B6819691A4A2420B047002F22D0CA
S2140027E0184BDB78002B20D1692217494031322064
S2140027F0114B98470022002120200F4B9847134F7B
S214002800134E6846B847C023DB0580255C59A022D6
S21400281010498A5890215B5853401C4054406846E3
S214002820B0472542EDD103B0F0BD69220A492C31EC
S2140028303220014B9847DDE7C91B0000300400201A
S214002840A041000014040020B84C00004D03000016
S2140028505B03000000440041384D0000F0B5DE4642
S21400286057464E464546E0B585B081460C00404981
S2140028700978012950D03E490978022968D03C4998
S214002880097803296CD0C610A1000919C800411A9E
S2140028907618072148468843C0B2801807252A4084
S2140028A00825AA1AD2B28218D01701408918C91072
S2140028B08AB201922F4A126812699619002B24D008
S2140028C04A469205920F9246E3189BB2984603AD8D
S2140028D0294F03239B464B462B7053466B700222B0
S2140028E029004E20B8472C70230A5A4613406B70B6
S2140028F0022229004F20B8472336019A31002420AF
S214002900B8470134A4B24445E5D105B03CBC904676
S2140029109946A246AB46F0BDE61806318E43310016
S214002920F017072606407618F610764222364946F5
S21400293089004944C800411A76188C214900C91AF2
S214002940091BDB08019313004C468AB29146B1E797
S214002950C6100A49891B2326764266438E19A9E7C4
S214002960E210263961435618054A94466644A1E7A4
S2140029701404002030040020C91B0000944200000C
S2140029807D410000F0B587B0050004A900230B7058
S2140029904B708B70EF22CA700B714A71E93A1420A3
S2140029A0324CA047324B1B681969E1229201132072
S2140029B0A047002D01D107B0F0BD2E4B5B78012B50
S2140029C03BD02C4BDB78022B14D00222294BDA703A
S2140029D0294C210020311E322020244DA8472100FA
S2140029E04031802292002220A847802223492031AD
S2140029F02620A84702A900230B704B708B70CB7063
S214002A00EF220A714B718A71E83A1220174B9847E9
S214002A101B4F1C4E01A8B847C023DB0580255C5918
S214002A20A02219498A5890215B5853401C405440B4
S214002A3001A8B0472542EDD0BDE70E4BDB78012B51
S214002A40D8D001220B4BDA70104C1F322100202008
S214002A50064DA84721002031802292002220A84758
S214002A608022064920312620A847C3E7C91B00005C
S214002A703004002090030020B84A0000384A0000C6
S214002A804D0300005B03000000440041384800008E
S214002A90F0B5C64600B586B0804605AC7D232370EB
S214002AA0012221002C203E4DA8471827277000261B
S214002AB06670022221004420A847277001222100C8
S214002AC04E20A847C72323706670022221004F209D
S214002AD0A847344B1B681969334A2420A847334F4C
S214002AE0334E02A8B847C023DB0580255C59A022D8
S214002AF030498A5890215B5853401C40544002A8E5
S214002B00B0472542EDD14346002B03D106B004BCA6
S214002B109046F0BD284B5B78012B35D0F72201ABF1
S214002B201A70012201A922201D4B98471F4F204EE4
S214002B3003A8B847C023DB0580255C59A0221D49A1
S214002B408A5890215B5853401C40544003A8B04715
S214002B502542EDD1002200212020114B9847134F2B
S214002B60134E04A8B847C023DB0580255C59A02275
S214002B7010498A5890215B5853401C40544004A882
S214002B80B0472542EDD1C1E70B4B9B78002B03D114
S214002B90C72201AB1A70C4E7FF2201AB1A70C0E768
S214002BA0C91B000030040020881300004D030000FD
S214002BB05B03000000440041B8030020F0B589B074
S214002BC0050006A900230B704B708B70CB70023388
S214002BD00B7156334B71573B8B71DF33CB71082229
S214002BE08320334CA047334B1B681969324A1020A8
S214002BF0A047324B1B78012B0FD0304B1B78022B93
S214002C000BD0022206AB1A70012206A9E020284B40
S214002C109847002D05D109B0F0BD032206AB1A7007
S214002C20F2E7002200210420214B9847244F254E2E
S214002C3001A8B847C023DB0580255C59A02222499D
S214002C408A5890215B5853401C40544001A8B04716
S214002C502542EDD003A918230B7000234B708B7010
S214002C60CB700B7102334B7156338B71573BCB7164
S214002C70DF330B72092212200D4CA04700220021E0
S214002C800220A0470E4F0F4E02A8B847C023DB0510
S214002C9080255C59A0220C498A5890215B585340E5
S214002CA01C40544002A8B0472542EDD0B3E7C046CA
S214002CB0C91B00003004002080320200B003002050
S214002CC04D0300005B03000000440041F0B589B0EE
S214002CD0050006A900230B704B708B707F22CA700C
S214002CE00B71FF334B71793A1420434CA047434B8A
S214002CF01B685969802252011620A047002D0DD16D
S214002D0000233E4C8020400122685169C95C12694C
S214002D10D15401338342F7D109B0F0BD002200211F
S214002D200420354B9847364F364E01A8B847C02387
S214002D30DB0580255C59A02233498A5890215B58D0
S214002D4053401C40544001A8B0472542EDD02F4BBD
S214002D50DB78002B3DD104A901230B7000234B70B8
S214002D608B70CB707F220A714B71FF338B71783A70
S214002D701220214B9847224F224E02A8B847C02364
S214002D80DB0580255C59A0221F498A5890215B5894
S214002D9053401C40544002A8B0472542EDD00022C4
S214002DA000210220144B9847154F164E03A8B8472B
S214002DB0C023DB0580255C59A02213498A58902140
S214002DC05B5853401C40544003A8B0472542EDD101
S214002DD096E700220D4BDA70203255212020064C53
S214002DE0A0478022920081212220A0478022002135
S214002DF02620A047AFE7C046C91B000030040020CD
S214002E004D0300005B0300000044004190030020D7
S214002E10F8B504001500124B9847002C1DD1104B36
S214002E209847002D18D06E05760DAD1BED0A0024D0
S214002E30002D09D00A4F80231B01013B002BFCD13B
S214002E40B8470134A542F6D1002E03D00023013343
S214002E509E42FCD1024B9847F8BD014B9847DEE7EF
S214002E607505000010B50023014CA04710BDC046F4
S214002E70112E0000F0B585B00AAC25783024264E19
S214002E80345DE4B2012C25D0002C1DD0022C2BD0B2
S214002E90032C36D001A90D81012234201F4CA047F7
S214002EA001226B46991D0020A047012202A900209E
S214002EB0A04701220A2169440020A047012203A955
S214002EC00020A04705B0F0BD01AC21806080A38043
S214002ED0E280DFE701AC20800F48008D411AC91A56
S214002EE06180A280E380D5E70B4F7E8D01AC711A1E
S214002EF0C91A2180398D081A801A6080A380E28062
S214002F00C8E7054C668D01AC301A801A20806180B7
S214002F10A280E380BEE7C046C0030020652E000006
S214002F2010B584B001A900230B804B800E4B5A8D40
S214002F308A801B8DCB800881012234200B4CA04751
S214002F4001226B46991D0020A047012202A90020FD
S214002F50A04701220A2169440020A047012203A9B4
S214002F600020A04704B010BDC0030020652E00005E
S214002F70F0B5DE4657464E464546E0B587B00400F7
S214002F800D0001921F00454B1B689846444E736B1C
S214002F90726B9246434A02A90A801B0C4B8002229F
S214002FA01120414B9B46984782239B0002AA138020
S214002FB0130052465A80022219001120D8473023A7
S214002FC0F35CDBB2022B22D0032B22D0013B5A4209
S214002FD0534103A9202213430B804D808C80CF8061
S214002FE06B469B880B81052221202F4B9847302368
S214002FF02B4AD35C002B0ED03023D35C022B0AD096
S214003000274B1B8D9B085C436400444409E0022365
S214003010DFE70323DDE7224B5B8D9B085C43640000
S2140030204444AD086D006419019E002E2AD0BB08EA
S21400303001935A0091469A4600251B4B9846184F16
S214003040BB4609E05B465B8D9B0852469B1A5B00BD
S214003050E4180135B54215D2019A21000020C04778
S2140030604C443023FB5C002BECD030230C4AD35C62
S214003070022BE7D00A4B1B8D9B0852469B1A5B001F
S214003080E418E6E7002200212220074B984707B005
S2140030903CBC90469946A246AB46F0BDA403002031
S2140030A0C00300200A020000652E000010B584B0A0
S2140030B001A900230B804B800F4B5A8D8A801B8DF5
S2140030C0CB8002230B81012234200C4CA047012226
S2140030D06B46991D0020A047012202A90020A047A8
S2140030E001220A2169440020A047012203A90020EA
S2140030F0A04704B010BDC046C0030020652E0000E7
S21400310010B50123014CA04710BDC046112E00008B
S214003110F0B5C64600B584B00500314E736B726BD1
S214003120904601AC2F4A22801B0C638002222100AD
S21400313011202D4FB84782239B002380434663808F
S214003140022221001120B8473023F35CDBB2022BA9
S2140031501FD0032B1FD0013B5A4253410E21694416
S214003160202213430B80012220201F4CA0471C4B1B
S214003170DA6A52081D4B196800201D4B984700223A
S21400318000212220A047002D07D104B004BC9046A1
S214003190F0BD0223E2E70323E0E701A900230B804A
S2140031A04B800F4B5A8D8A801B8DCB8002230B8160
S2140031B0012234200C4CA04701226B46991D0020AA
S2140031C0A047012202A90020A04701220A21694443
S2140031D00020A047012203A90020A047D5E7C0464B
S2140031E0C00300200A020000652E0000A403002091
S2140031F001310000002A05D101228A40037893435A
S2140032000370704701228A40037813430370F8E77F
S214003210F0B5C64600B51500344B1F687B88834260
S2140032203FD9BB888B423CD93023314AD35C002B34
S2140032300CD03023D35C022B08D02D4B5C8864085E
S21400324060434C1004190123194007E0284B1C88E2
S214003250640860434C10041901231940002923D048
S214003260EA0801263240386900190721214FB8477D
S214003270AA0832401D4B98461B681869001906219B
S214003280B8476A08324043461B681869001905218A
S214003290B84732002A4043461B68186900190421C3
S2140032A0B84704BC9046F0BDEA08012632403869AB
S2140032B0001903310F4FB847AA0832400B4B984607
S2140032C01B68186900190221B8476A08324043464D
S2140032D01B68186900190121B84732002A40434686
S2140032E01B68186900190021B847DAE73004002087
S2140032F0C0030020F5310000F0B5DE4657464E46C6
S2140033004546E0B587B0009011000192994610AB93
S2140033101B889A4611AB1B889B460E2302AA94462E
S214003320634400221A801B889BB2994266D90A26FB
S2140033306644364F4D46D14654E0338802339BB23E
S2140033403380238801339BB2238023889BB2AB4211
S2140033503AD20E2302AA944663441B884B449BB27F
S214003360984633889BB23A6851884145E5D953441C
S2140033709BB29B4693885B45DFD90E2161440B8840
S21400338022886B43009884466244D25C0F23134025
S21400339004AA13800B8821886B436144CB5C1B090D
S2140033A002A9CB801288D243D2B25B46591C89B29E
S2140033B04046174B984702ABDA88D243D2B25946FA
S2140033C04046134B9847B8E7D3460E2202AB9C46BE
S2140033D06244138801339BB2138013889BB2019A10
S2140033E093420BD20023338005AB00221A801B8841
S2140033F09BB29D42E9D905ACDA46AAE707B03CBCC9
S21400340090469946A246AB46F0BDC0463004002022
S21400341011320000F0B583B01248134B98470020D5
S214003420124B9847C025ED0540266E610120104CD2
S214003430A047AE610120A0470E4F0F4E01A8B84727
S214003440C023DB0580255C59A0220C498A589021B0
S2140034505B5853401C40544001A8B0472542EDD06D
S21400346003B0F0BD10E000E069030000AD0D000001
S2140034707D0300004D0300005B0300000044004194
S214003480F0B5C64600B584B08046042201008148E7
S214003490814B984743469B78012B0FD0002B1ED1BB
S2140034A043461B7802229343012B00D1C8E0794B98
S2140034B0802252009A80803ADA8003E0754BF02230
S2140034C09A80DA8043469B78012B00D1BEE0002B21
S2140034D005D102AB17221A705A700F329A7002ACDE
S2140034E00322210006206D4DA847032323700023E6
S2140034F063702B33A370E370233B237105222100F6
S2140035000120A847002200210420A847644F654EEA
S21400351001A8B847C023DB0580255C59A022624974
S2140035208A5890215B5853401C40544001A8B0472D
S2140035302542EDD043469B78012B00D18EE0002B30
S21400354004D102AB03221A7083325A7002AC0222F4
S21400355021000020514DA84700232370012221009E
S2140035600320A84743469B78012B00D17CE0002B24
S21400357002D1482202AB1A7002AC01222100302090
S214003580464DA84700232370012221004120A8476A
S214003590E1232370C13B6370103BA370032221001C
S2140035A05020A84743469B78012B61D0002B06D1BC
S2140035B002AB7F221A7000225A70FF329A700322E2
S2140035C002A96120354B984743469B78012B56D07D
S2140035D0002B09D102ABCF221A70203A5A70002273
S2140035E09A70DA7003321A7102AC0522210062204A
S2140035F02A4DA84726232370012221008220A847AF
S214003600012221008420A8470226267001222100DC
S214003610E420A84726706670022221006320A8478F
S21400362026706670022221006420A8471F2323709C
S21400363001222100DF20A84704B004BC9046F0BD5C
S214003640144B7E329A808032DA803BE702AB172238
S2140036501A7080325A70773A9A7040E702AB0B22A3
S2140036601A707B325A7071E7252202AB1A7083E714
S21400367002ABEF221A70002159709A709FE702ABD6
S214003680A9221A705A7042329A70DA70E93A1A71A0
S214003690AAE7C04690030020F1430000C91B0000C3
S2140036A04D0300005B03000000440041F0B5C64631
S2140036B000B582B006008846E1208001264B984778
S2140036C0264B1860264C2061264B98470123B37082
S2140036D03000254B984733782373244B1C60002317
S2140036E0224CFF20E121890122681269D05401335F
S2140036F08B42F9D100246B461C705C709C70EF25E1
S214003700DD701C715D71062269461420184EB047A4
S214003710164F3B681969E12292011020B0476B46AC
S2140037201C705C709C70DD701C715D7106226946B1
S2140037301420B0473B681969E12292011320B04774
S2140037404346002B03D102B004BC9046F0BD0120D6
S214003750084B9847F7E7C046DD4300008803002083
S21400376000000020153400008134000030040020E2
S214003770C91B000085290000F0B5DE4657464E46B8
S2140037804546E0B589B0049091461900059312AB02
S2140037901A88069213AB1B884A46002A4AD0002293
S2140037A093460A00013A92B202920793254F4B467F
S2140037B00393029A9146002A35D0079E059B5A46E7
S2140037C05343049A92469A44069B5B449BB20193E9
S2140037D04D4653465C5D032398461A002240D2436A
S2140037E0D2B231000198B847A20843461A40D243E5
S2140037F0D2B2711C89B20198B847220943461A40D2
S214003800D243D2B2B11C89B20198B847A409E243A8
S214003810D2B2F11C89B20198B847013DADB2043668
S214003820B6B2002DD5D15B4601339BB29B46039BB7
S2140038305B45BED809B03CBC90469946A246AB460E
S214003840F0BDC046E91A000010B582B0040005229B
S21400385001005948594B98472378012B66D0002B16
S21400386053D0022B00D172E0032B00D181E02378E5
S214003870012B00D193E0002B00D18CE0022B00D16D
S21400388091E0032B00D192E06B461B785B00DBB225
S2140038906A4613706278012A02D113436A4613708F
S2140038A06B461B785B00DBB26A461370A278002A70
S2140038B003D1012213436A4613706B461B789B00A4
S2140038C0DBB26A461370E278013A012A03D8032273
S2140038D013436A4613706B461B785B00DBB26A467E
S2140038E013702279012A02D113436A4613706B467D
S2140038F01B785B00012213436A4613700122694657
S21400390000202F4B984702B010BDE3780222934365
S214003910012B05D0284BE622DA80863A1A81A6E7E4
S214003920254B5E32DA8086321A81A0E7E3780222DF
S2140039309343012B05D0204BFC22DA809C3A1A8157
S21400394095E71D4B5E32DA809C321A818FE7E3786A
S21400395002229343012B06D0174B94225200DA80A2
S214003960A83A1A8183E7144B7E32DA80A8321A818D
S2140039707DE7E37802229343012B06D00E4B942278
S2140039805200DA80883A1A8171E70B4B9E32DA8051
S21400399088321A816BE700236A46137074E70123A6
S2140039A06A46137070E702236A4613706CE70323B7
S2140039B06A46137068E7C046F8030020F14300002B
S2140039C0C91B0000F0B5C64600B586B004004379B2
S2140039D0002B20D0012B22D004AA13785B00DBB288
S2140039E01370A279012A02D1134304AA1370E37953
S2140039F0002B18D0012B1AD004AA53789B00DBB2F8
S214003A005370227A062A5BD0072A5ED0052A12D087
S214003A10032A14D8FEE7002204AB1A70DCE7012262
S214003A2004AB1A70D8E7002204AB5A70E4E7012210
S214003A3004AB5A70E0E70122134304AA537004A9AA
S214003A40637A8B70A37ACB70E37A0B710522012020
S214003A50D84DA8470522210002A8D74B984702A8B0
S214003A60D64B9847002200210420A847D44B9846FE
S214003A70D44F6846C047C023DB0580269D59A02248
S214003A80D1498A5890215B5853401D40554068469E
S214003A90B8472E42EDD0207B01281FD0002819D031
S214003AA002281FD0032821D004AA1378DB00DBB23B
S214003AB01370617B072921D88A00C44DAA589746FF
S214003AC00222134304AA5370B9E70322134304AA3D
S214003AD05370B4E7002204AB1A70E5E7012204AB8A
S214003AE01A70E1E7022204AB1A70DDE7032204AB8A
S214003AF01A70D9E70122134304AA137004AA137894
S214003B00DB00DBB21370A27B072A25D89500B04EE7
S214003B107559AF460222134304AA1370EEE7032238
S214003B20134304AA1370E9E70422134304AA13708C
S214003B30E4E70522134304AA1370DFE706221343C3
S214003B4004AA1370DAE70722134304AA1370D5E712
S214003B5001252B4304AD2B70012830D000282AD035
S214003B60022830D0032832D004AB5B78072900D96E
S214003B708CE08800974D2858874602252B4304ADD5
S214003B802B70E9E703252B4304AD2B70E4E70425EF
S214003B902B4304AD2B70DFE705252B4304AD2B70BC
S214003BA0DAE706252B4304AD2B70D5E707252B4314
S214003BB004AD2B70D0E7002004AB5870D4E701208A
S214003BC004AB5870D0E7022004AB5870CCE7032053
S214003BD004AB5870C8E79B0108200343DBB204A877
S214003BE04370072A00D9BDE090007B4D28588746D1
S214003BF09B0110200343DBB204A84370072A00D9B8
S214003C00B4E09000754D285887469B011820034362
S214003C10DBB204A84370072A00D9ABE09000704DD1
S214003C20285887469B0120200343DBB204A8437034
S214003C30072A00D9A2E090006A4D285887469B01C3
S214003C4028200343DBB204A84370072A00D999E072
S214003C509000654D285887469B0130200343DBB211
S214003C6004A84370072A00D990E090005F4D2858BA
S214003C7087469B0138200343DBB204A84370072A1B
S214003C8000D987E090005A4D285887469B01DBB242
S214003C9004A84370072A50D89000564D28588746E7
S214003CA00120034304A84370072900D9D7E0890000
S214003CB0514B5B589F460220034304A843700729D4
S214003CC000D92CE189004D4B5B589F4603200343E7
S214003CD004A84370072900D92AE18900484B5B589D
S214003CE09F460420034304A84370072900D928E10F
S214003CF08900444B5B589F460520034304A8437045
S214003D00072900D926E189003F4B5B589F460620CD
S214003D10034304A84370072900D924E189003B4BDC
S214003D205B589F460720034304A84370072900D921
S214003D3022E18900364B5B589F46072906D8890042
S214003D40344B5B589F46002104AB997004A98B78CE
S214003D50DB00DBB28B70072A00D988E092002E4980
S214003D608A589746012104AB9970EFE7022104AB0D
S214003D709970EBE7032104AB9970E7E7042104ABE5
S214003D809970E3E7052104AB9970DFE7062104ABE1
S214003D909970DBE7072104AB9970D7E7002204ABE4
S214003DA01A7072E0102204AB1A706EE0202204AB88
S214003DB01A706AE0C91B0000F14300004938000091
S214003DC04D0300005B0300000044004178450000FE
S214003DD098450000B8450000D8450000F8450000AA
S214003DE01846000038460000584600007846000096
S214003DF098460000B8460000D8460000F846000086
S214003E001847000038470000584700007847000071
S214003E1098470000B8470000D8470000302204AB9F
S214003E201A7032E0002204AB1A7038E0012204ABAC
S214003E301A7034E0D1B2072903D8134304AA1370CA
S214003E4039E01100083104DA0822134304AA13707B
S214003E5031E00F210A40134304AA13702BE004AB91
S214003E609B78DB00DBB20122134304AA9370032283
S214003E7004A90620454B9847237D012B92D0002BA2
S214003E808CD0022B92D0032BC8D0012204A9032089
S214003E903E4B9847637D002BC4D0012BC6D004ABA5
S214003EA01B781B01DBB21622A256072AC2DD0722A8
S214003EB0134304AA137004AD012229004120334C99
S214003EC0A04777232B70012229005020A0472223E9
S214003ED02B70012229006020A0473C232B70012272
S214003EE029005020A047002200210220A047284F8A
S214003EF0284E01A8B847C023DB0580255C59A022C0
S214003F0025498A5890215B5853401C40544001A8CC
S214003F10B0472542EDD006B004BC9046F0BD04ABD9
S214003F209B78DB00DBB20222134304AA93709EE761
S214003F3004AB9B78DB00DBB20322134304AA937026
S214003F4095E704AB9B78DB00DBB20422134304AA9C
S214003F5093708CE704AB9B78DB00DBB2052213433F
S214003F6004AA937083E704AB9B78DB00DBB20622DF
S214003F70134304AA93707AE704AB9B78DB00DBB2AA
S214003F800722134304AA937071E7C046C91B0000BA
S214003F904D0300005B0300000044004110B5010023
S214003FA0034B1B689A681869024B984710BDC046B9
S214003FB0300400200344000030B583B00400684B92
S214003FC01B68598801AA11809B8869460B806B463E
S214003FD00021D98006331B8812889BB2934200D3F7
S214003FE0BBE085005F4B9C466544ABE0072C5AD887
S214003FF02B689F466B46D88880B26B46598889B234
S2140040000022594B98474EE06B46D88880B26B46E4
S214004010598889B20122544B984744E06B46D888A9
S21400402080B26B46598889B203224F4B98473AE0D4
S2140040306B46D88880B26B46598889B202224A4BB2
S214004040984730E06B46D88880B26B46598889B26C
S2140040500422454B984726E06B46D88880B26B46CC
S214004060598889B20522404B98471CE06B46D88891
S21400407080B26B46598889B206223B4B984712E0BD
S2140040806B46D88880B26B46598889B20722364B71
S214004090984708E06B46D88880B26B46598889B244
S2140040A00022314B98476B4606331B889BB2EF2B9A
S2140040B02CD06B469A1C5B8801339BB21380138806
S2140040C06A4612889BB2934230D2254B1B681B78F7
S2140040D0063B012B00D889E7012C0DD0002CD9D047
S2140040E0032CE0D86B46D88880B26B46598889B2D4
S2140040F002221D4B9847D6E76B46D88880B26B469F
S214004100598889B20122184B9847CCE76B46023390
S2140041101B889BB2EF2BCCD16B46D88880B26B46FF
S214004120598889B20122104B9847C2E76B469A1D00
S214004130DB8801339BB21380138801AA12889BB2D6
S21400414093420AD26B4600225A8002331B886A4684
S21400415012889BB29342B8D3E8E703B030BDC0469E
S21400416030040020F847000085050000F0B5DE4664
S21400417057464E464546E0B585B00700019088464E
S21400418003929B460EAB1E780FAB1C789146844676
S214004190E14448451BDA5A4D5B46013B43449BB21B
S2140041A0029300964E4623000C009846009A210083
S2140041B03800A847009A02993800A8470137BFB2CE
S2140041C0B742F3DBB146009E4346A0461C00DA46E3
S2140041D0C244D0451ADA4546494F039B013B019A33
S2140041E0944663449BB20093230054469A4632009A
S2140041F029000198B847320029000098B8470135D1
S214004200ADB2A542F3DB5346A2461C00082C6FD085
S214004210019D0135ADB201235B429C46E1444D450C
S21400422066DAA300374A93469B4459E0072C37D8F2
S2140042305B461B689F46002231002800304B98479B
S2140042402EE00122310028002D4B984728E003225B
S214004250310028002A4B984722E00222310028002D
S214004260274B98471CE0042231002800244B98472F
S21400427016E0052231002800214B984710E0062260
S214004280310028001E4B98470AE00722310028001C
S2140042901B4B984704E0002231002800184B984733
S2140042A00136B6B2BE4217DA174B1B681B78063BC0
S2140042B0012BBBD9012C09D0002CECD0032CEFD855
S2140042C00222310028000E4B9847E9E70122310010
S2140042D028000B4B9847E3E70135ADB24D4507DAAA
S2140042E043465E1CB6B253465F1EBE42DCDBF3E7B7
S2140042F005B03CBC90469946A246AB46F0BDC046CB
S21400430085050000184800003004002000B583B082
S21400431001A800230370437083700333C370002129
S214004320014B984703B000BDAD36000010B582B013
S214004330104B9847104B9847FF20104B9847442344
S21400434001931C3B00930E3BA0220D490D481C30E8
S2140043500D4CA04700220D4B5A700D4B1B685B6A34
S214004360012098478021C9059823C022D205D15044
S214004370FEE7C046110200000D4300009D3F00000E
S2140043803B100000B8590000793700009003002069
S2140043903004002070B500260C4D0D4C641BA41094
S2140043A0A64209D1002617F0FBF90A4D0A4C641BF9
S2140043B0A410A64205D170BDB300EB58984701364D
S2140043C0EEE7B300EB5898470136F2E7ACB70100CA
S2140043D0ACB70100ACB70100B0B7010010B5034B95
S2140043E00100186800F016F810BDC046F402002060
S2140043F0002310B59A4200D110BDCC5CC4540133E2
S214004400F8E703008218934200D170471970013311
S214004410F9E70000032370B5CD1C9D430835060060
S2140044200C2D1ED20C25A9421DD8300000F062F8D3
S214004430254A14682100002919D1244C2368002B32
S21400444003D1300000F044F820602900300000F06E
S2140044503FF8431C2CD10C233000336000F04BF89F
S21400446003E0002DDFDA0C233360002070BD0B68FC
S2140044705B1B1AD40B2B03D90B60CC18256003E00A
S2140044808C420ED163681360300000F034F82000D0
S21400449007220B30231D9043C31AE7D05A42E2503E
S2140044A0E4E74B6863600C00EEE70C004968C2E77F
S2140044B00323C41C9C43A042E0D0211A300000F025
S2140044C007F8431CDAD1C6E77C03002080030020EF
S2140044D0002370B5064C050008002360FBF75EFF5E
S2140044E0431C03D12368002B00D02B6070BDC04650
S2140044F034040020704770478A120000B81200008B
S2140045004213000070130000E612000014130000AF
S2140045109E130000CC1300000814000036140000A0
S214004520C0140000EE140000641400009214000092
S2140045301C1500004A150000DE1500000C160000D1
S21400454096160000C41600003A1600006816000012
S214004550F2160000201700005C1700008A17000003
S2140045601418000042180000B8170000E6170000F4
S214004570701800009E180000FC3A0000F43A000094
S214004580143B00001E3B0000283B0000323B0000AE
S2140045903C3B0000463B0000583B0000503B000000
S2140045A07A3B0000843B00008E3B0000983B0000F6
S2140045B0A23B0000AC3B00008C3C0000D63B000059
S2140045C0F03B00000A3C0000243C00003E3C00009B
S2140045D0583C0000723C0000643D0000A03C000017
S2140045E0B63C0000CC3C0000E23C0000F83C00007A
S2140045F00E3D0000243D00006C3D0000A03C000085
S214004600B63C0000CC3C0000E23C0000F83C000059
S2140046100E3D0000243D0000743D0000A03C00005C
S214004620B63C0000CC3C0000E23C0000F83C000039
S2140046300E3D0000243D00007C3D0000A03C000034
S214004640B63C0000CC3C0000E23C0000F83C000019
S2140046500E3D0000243D0000843D0000A03C00000C
S214004660B63C0000CC3C0000E23C0000F83C0000F9
S2140046700E3D0000243D00008C3D0000A03C0000E4
S214004680B63C0000CC3C0000E23C0000F83C0000D9
S2140046900E3D0000243D0000943D0000A03C0000BC
S2140046A0B63C0000CC3C0000E23C0000F83C0000B9
S2140046B00E3D0000243D00003A3D0000A03C0000F6
S2140046C0B63C0000CC3C0000E23C0000F83C000099
S2140046D00E3D0000243D0000463D0000643D000005
S2140046E06C3D0000743D00007C3D0000843D0000F1
S2140046F08C3D0000943D0000463D0000643D0000F7
S2140047006C3D0000743D00007C3D0000843D0000D0
S2140047108C3D0000943D0000463D0000643D0000D6
S2140047206C3D0000743D00007C3D0000843D0000B0
S2140047308C3D0000943D0000463D0000643D0000B6
S2140047406C3D0000743D00007C3D0000843D000090
S2140047508C3D0000943D0000463D0000643D000096
S2140047606C3D0000743D00007C3D0000843D000070
S2140047708C3D0000943D0000463D0000643D000076
S2140047806C3D0000743D00007C3D0000843D000050
S2140047908C3D0000943D0000463D0000643D000056
S2140047A06C3D0000743D00007C3D0000843D000030
S2140047B08C3D0000943D0000463D0000643D000036
S2140047C06C3D0000743D00007C3D0000843D000010
S2140047D08C3D0000943D00006E3E0000663E0000EA
S2140047E0263F0000383F00004A3F00005C3F0000C4
S2140047F06E3F0000803F0000F43F000008400000CD
S214004800304000001C4000004440000058400000BB
S2140048106C4000008040000036420000424200002B
S2140048205A4200004E4200006642000072420000FB
S2140048307E4200008A4200000000000000000000E7
S214004840000000000000000C000000000000000057
S2140048500000000000000000010000800100008051
S214004860010000800100008001000080010000803F
S214004870010000800100008001000080010000802F
S214004880020000400200004002000040020000401B
S214004890020000400200004002000040020000400B
S2140048A002000040020000400200004002000040FB
S2140048B002000040020000400200004002000040EB
S2140048C002000040020000400200004002000040DB
S2140048D002000040020000400200004002000040CB
S2140048E002000040020000400200004002000040BB
S2140048F002000040020000400200004002000040AB
S214004900020000400200004002000040020000409A
S214004910020000400200004002000040020000408A
S214004920020000400200004002000040020000407A
S214004930020000400200004002000040020000406A
S214004940020000400200004000000000FFFFFFFFE2
S2140049500000000000000000000000000000000052
S2140049600000000000000000000000000000000042
S2140049700000000000000000000000000000000032
S2140049800000000000000000000000000000000022
S2140049900000000000000000000000000000000012
S2140049A00000000000000000000000000000000002
S2140049B000000000000000000000000000000000F2
S2140049C000000000000000000000000000000000E2
S2140049D000000000000000000000000000000000D2
S2140049E000000000000000000000000000000000C2
S2140049F000000000000000000000000000000000B2
S214004A0000000000000000000000000000000000A1
S214004A100000000000000000000000000000000091
S214004A200000000000000000000000000000000081
S214004A300000000000000000000000000000000071
S214004A400000000000000000000000000000000061
S214004A500000000000000000000000000000000051
S214004A600000000000000000000000000000000041
S214004A700000000000000000000000000000000031
S214004A800000000000000000000000000000000021
S214004A900000000000000000000000000000000011
S214004AA00000000000000000000000000000000001
S214004AB000000000000000000000000000000000F1
S214004AC000000000000000000000000000000000E1
S214004AD000000000000000000000000000000000D1
S214004AE0C000000000000000000000000000000001
S214004AF00000000000000000A9A9A9A9A9A9A9A969
S214004B00A9A9A9A9A9A9A9A9A9A9A9A9A9A9A9A910
S214004B10A9A9A9A1A9A929A1A8A92181A8A905810E
S214004B20A8A10505A880051588001554800404541E
S214004B3082541454425614544656565446565654A6
S214004B405656565656565656565652525656525210
S214004B505656525256525252565252525252524230
S214004B60525252425A4A4A4A6A6A6A6A6A6A6A6A80
S214004B7000000000FFFFFFFF000000000000000034
S214004B800000000000000000000000000000000020
S214004B900000000000000000000000000000000010
S214004BA00000000000000000000000000000000000
S214004BB000000000000000000000000000000000F0
S214004BC000000000000000000000000000000000E0
S214004BD000000000000000000000000000000000D0
S214004BE000000000000000000000000000000000C0
S214004BF000000000000000000000000000000000B0
S214004C00000000000000000000000000000000009F
S214004C10000000000000000000000000000000008F
S214004C20000000000000000000000000000000007F
S214004C30000000000000000000000000000000006F
S214004C40000000000000000000000000000000005F
S214004C50000000000000000000000000000000004F
S214004C60000000000000000000000000000000003F
S214004C70000000000000000000000000000000002F
S214004C80000000000000000000000000000000001F
S214004C90000000000000000000000000000000000F
S214004CA000000000000000000000000000000000FF
S214004CB000000000000000000000000000000000EF
S214004CC000000000000000000000000000000000DF
S214004CD000000000000000000000000000000000CF
S214004CE000000000000000000000000000000000BF
S214004CF000000000000000002A0500000000000080
S214004D000000052A00000000000000002A15000030
S214004D10000000000000050A00000000000000007F
S214004D20000000000000000000000002030A00026D
S214004D30060A050000000000000000000000000059
S214004D40000000000000000000000000000000005E
S214004D5000000000000000000000000022222222C6
S214004D602200000000000000000000000000012AF1
S214004D7000000000000000000A55000000000000CF
S214004D80000000000000000000000000000000001E
S214004D9000000000000000000505000503050500F2
S214004DA000000000000000000000000000000000FE
S214004DB000000000000000000000000000000000EE
S214004DC00000000000000000222222222200000034
S214004DD0241818180018181008000000000000001A
S214004DE00000000041111111010000000000000049
S214004DF010181828181818180800000000000000DE
S214004E000000000033122213110000000000000012
S214004E102E0411000000000000000000000000004A
S214004E201000000000010000000100000001041056
S214004E3000014400000040000000000000004000A8
S214004E4000000000000140100005401000000000B7
S214004E5000145100000000000000000010000000D8
S214004E601000000000014000001140000001041086
S214004E700001440000004000000000000001441053
S214004E800001000000014010000540100001000075
S214004E900015510000001000100000001000000077
S214004EA01000000000014000001140100001041036
S214004EB00011440000014000000040100041441072
S214004EC000010000001544100045441000010400D5
S214004ED00015510000001000100000001000000037
S214004EE010000000000144000011401000010410F2
S214004EF000114400004140000000401000454410EE
S214004F0000014010001544100045441000054410F0
S214004F1000255100040010001000000010004000A2
S214004F201000400000014410001540100005041059
S214004F30001144100041400000114010004544108C
S214004F4000014410001544100045441000054410AC
S214004F5000255100041154001000400010014000CC
S214004F601041440000014410005540100445041050
S214004F700055441000454400001140100045441000
S214004F80000144100015441000454410000554105C
S214004F90002551000411540010014000100140008B
S214004FA010414400000544100055441404455410B4
S214004FB000554410004544100011441000454410AC
S214004FC000054410005554140045541400055410B0
S214004FD0002551000455541014015000105144107F
S214004FE0144144100045541004554414044554100C
S214004FF00055441000454410005544100045541414
S2140050000015441400555414004555140005541456
S214005010002951000455541014015010105154101A
S21400502014414410005554100455441404455414B7
S21400503000554414104554140055441000455414AB
S2140050400015541400555414004555140005541406
S21400505000295100145554101401501010555414C2
S2140050601441441010555410045554140445541457
S2140050700055441410455414045554100045541457
S21400508000155414005554140055551400055414B6
S2140050900029A1001455541014015014105554142E
S2140050A014415410145554140455541414455414EF
S2140050B01055441410455414045554140045541403
S2140050C00015541400555514115555141105541453
S2140050D0002AA200185554141401501410555414E4
S2140050E014415414145554140455541414455414AB
S2140050F010555414104554140455541400455414B3
S21400510011155414015555141155551511055514FE
S214005110106AA2001855551414455414105554140A
S2140051201441541414555414145555141545551457
S214005130115554141145541415555414014554145E
S21400514011155414015555141155551511055514BE
S21400515010AAA60018555514154554141055541485
S2140051601445541414555414145555151545551511
S2140051701555541415455414155554140145541416
S214005180111554141155551411555515110555146E
S21400519011AAA6101865551515455514145554141E
S2140051A014455414145554141555551515455515D0
S2140051B015655414154554141555541411555514A5
S2140051C011555414115555141155551511055514EE
S2140051D011AAA61018A5A9555545551414555414CA
S2140051E015855514155599151565551515455915F3
S2140051F015655914158555151555551411955514DD
S214005200115554141155551411555515510555552C
S21400521051AAAA1018A5A9555955551515A55515DD
S214005220558599141556991515655555155559559D
S214005230156599551595951515659514119555147B
S214005240115654141165555451959555511555558B
S21400525051AAAA1028AAA9556955951525A59515E8
S214005260698599141596991515AA9555159A59553F
S21400527055A699551595995515A5951411959914F2
S21400528011669514116999555199955551155955A9
S21400529055AAAA5428AAA9556996A55525A699558A
S2140052A06986995419AA995515AA9555559A9965D6
S2140052B055AA9955159A995555A599141596991460
S2140052C05166991411AA995555AA9555511599558F
S2140052D055AAAA6428AAA9656996A55525AAA95516
S2140052E06996995419AAA96519AA9565599A99654E
S2140052F055AA9955159A995555AA9924159A9925F6
S214005300556A991411AA996555AAA965511A99550D
S21400531055AAAAA528AAA96569AAA56569AAA9651C
S2140053206996A96459AAA96559AAA965599AA96549
S21400533055AA9965559A995555AA9964559A9965A5
S214005340556A992415AA996555AAA965511AA955A9
S21400535055AAAAA568AAAAA569AAA96569AAA96557
S214005360699AA96559AAA96559AAA965599AA96504
S21400537055AAA965559AA96559AAA96455AAA96501
S21400538055AAA92415AAA96555AAA965511AA965F9
S21400539055AAAAAA68AAAAAA68AAAA6969AAA96905
S2140053A0699AA96569AAA96559AAAA6959AAAA659E
S2140053B055AAA96555AAA96559AAA96555AAA965B0
S2140053C055AAA96455AAA96555AAAA65552AA96524
S2140053D055AAAAAAA8AAAAAAA8AAAA6A69AAA96944
S2140053E069AAAA6969AAA96959AAAA6959AAAA6941
S2140053F059AAA96969AAA96959AAAA6555AAA9694B
S21400540055AAA96955AAAA6955AAAA69552AAA65D4
S21400541055AAAAAAA8AAAAAAAAAAAAAA68AAAAAA80
S21400542068AAAAA968AAAA6A68AAAAAA68AAAA6A60
S21400543068AAA96968AAAA6958AAAA6954AAAA69F8
S21400544054AAA96954AAAA6954AAAA6A542AAA6993
S21400545055AAAAAAA8AAAAAAAAAAAAAA68AAAAAA40
S214005460A8AAAAA968AAAAAA68AAAAAA68AAAAAA60
S21400547068AAAAA968AAAAAA68AAAA6958AAAA6922
S21400548064AAAA6954AAAAA964AAAAAA642AAA69A2
S214005490599AAAAAAAAAAAAAAAAAAAAA6AAAAAAA08
S2140054A0AAAAAAAA6AAAAAAA6AAAAAAA6AAAAAAA17
S2140054B06AAAAAAA6AAAAAAA6AAAAA696AAAAA69C9
S2140054C06AAAAA696AAAAAA96AAAAAAAA62AAAAABD
S2140054D068AAAAAAAAAAAAAAAAAAAAAAAAAAAAAA69
S2140054E0AAAAAAAAAAAAAAAA6AAAAAAA6AAAAAAA97
S2140054F0AAAAAAAA6AAAAAAAAAAAAAA96AAAAAAA88
S214005500AAAAAA696AAAAAAAAAAAAAAAA62AAAAAFB
S214005510A84AAAAAAAAAAAAAAAAAAAAAAAAAAAAA48
S214005520AAAAAAAAAAAAAAAAAAAAAAAAAAAAAAAAD6
S214005530AAAAAAAA6AAAAAAAAAAAAAAAAAAAAAAA06
S214005540AAAAAAA96AAAAAAAAAAAAAAAA62AAAAA7B
S214005550AA4AAAAAAAAAAAAAAAAAAAAAAAAAAAAA06
S214005560AAAAAAAAAAAAAAAAAAAAAAAAAAAAAAAA96
S214005570AAAAAAAAAAAAAAAAAAAAAAAAAAAAAAAA86
S214005580AAAAAAAA6AAAAAAAAA9AAAAAAA1AAAAA56
S214005590AA4AAAAAAA6AAAAAAA6AAAAAAA6AAAAA86
S2140055A0AA6AAAAAAAAAAAAAAAAAAAAAAAAAAAAA96
S2140055B0AA9AAAAAAA6AAAAAAA6AAAAAAA6AAAAA16
S2140055C0AA5AAAAAAAAAAAAAAAAAAAAAAA2AAAAA06
S2140055D0AA4AAAAAAA6AAAAAAA6AAAAAAA6AAAAA46
S2140055E0AA6AAAAAAA6AAAAAAA6AAAAAAA6AAAAA16
S2140055F0AA6AAAAAAA6AAAAAAA6AAAAAAA5AAAAA16
S214005600AA6AAAAAAA6AAAAAAA4AAAAAAA4AAAAA35
S214005610AA4AAAAAAA5AAAAAAA5AAAAAAA5AAAAA35
S214005620AA6AAAAAA66AAAAAAA6AAAAAAA5AAAAAE9
S214005630AA4AAAAAAA5AAAAAAA5AAAAAAA6AAAAA05
S214005640AA49AAAAAA5AAAAAAA4A9AAAAA4AAAAA36
S214005650AA52AAAAA66A2AAAA66AAAAAA66AAAAA49
S214005660A66AAAAAAA6AA2AAAA529AAAAA622AAA51
S214005670AA4A9AAAAA6AA2AAAA6A2AAAAA4AAAAA5D
S214005680AA4A2AAAAA62AAAAAA4A2AAAAA4A22AA65
S214005690A612AAAAAA4A226AAA4AAAAAAA4AAAAAE9
S2140056A0AA5A22AAA25A22AAAA62AA6AAA4222AA85
S2140056B0AA42A2AAAA42A2AAAA4220AAAA4AAAAA77
S2140056C0AA402AAAA642A26AAA4A0A6AAA4A12AA0B
S2140056D0AA1552AAA24212AAA2429AAAA2429A6A5A
S2140056E0A262126AA26212AAAA4288AAAA4220AAA1
S2140056F0AA4202AAAA42226AAA4210AAA64AAA6AEB
S214005700A640106AAA4222AAA6420AAAAA4220AA2A
S214005710A216626AA211622AA2116A69A21162AA7C
S214005720A21162A9A251626AA651482AA651506ADD
S214005730A651426AA65150AAA6516069AA5950A914
S214005740AA5060A9A251522AAA514A2AAA514069CF
S214005750A21552AAA2164229A21648AAA2164229A1
S214005760A216402AA21642A9AA164829AA1660A975
S214005770AA1642AAAA166029AA1640AAA216602A43
S2140057802214402AA2566029A2564A29265640AA22
S214005790A2555519A255541A22555418A255541AF2
S2140057A0A2555418A255541AA255541AA255541A62
S2140057B0A2555419A255541A225554182255541855
S2140057C022555418A255541A2255541A2A555418BC
S2140057D02255552A2655552826555528A655552866
S2140057E02655552826555528A6555528A6555528D4
S2140057F02655552AA6555528265555282655552842
S21400580026555528265555282655552826555528B3
S2140058102655555406555554065555540655555453
S2140058200655555426555554265555542655555403
S21400583026555554265555542655555426555554D3
S21400584026555554265555542655555426555554C3
S2140058502655555554555555545555555455555525
S21400586054555555545555555455555554555555E7
S21400587054555555545555555455555554555555D7
S21400588054555555545555555455555554555555C7
S21400589054555555545555555455555554555555B7
S2140058A054555555545555555455555554555555A7
S2140058B05455555554555555545555555455555597
