:020000040040BA
:10000000500B00207901400075014000750140004F
:1000100075014000750140007501400000000000BE
:10002000000000000000000000000000750140001A
:10003000750140000000000075014000750140009E
:1000400075014000750140007501400075014000D8
:1000500075014000750140007501400075014000C8
:10006000750140007501400000000000750140006E
:1000700075014000750140007501400075014000A8
:100080007501400075014000750140007501400098
:100090007501400075014000750140007501400088
:1000A0007501400075014000750140007501400078
:1000B00075014000750140000000000000000000D4
:1000C0000000000000000000000000000000000030
:1000D0000000000000000000000000000000000020
:1000E0000000000000000000000000000000000010
:1000F000000000000000000000000000750140004A
:10010000750140007501400010B5054C237833B9E6
:10011000044B13B10448AFF300800123237010BDDA
:100120006804002000000000609E42000C4B43B1B8
:100130000C480D4910B5AFF300800C48036823B993
:1001400010BD0A48036833B97047094B002BF7D03C
:10015000BDE810401847064B002BF5D0184700BFEC
:1001600000000000609E42006C040020609E42007F
:1001700000000000FEE7000008B5174B174A9A423E
:1001800010D0174B144A9A420CD2013B9B1A23F011
:10019000030304331344114951F8040B42F8040BD0
:1001A0009A42F9D10F4B104A9A420AD2013B9B1A4C
:1001B00023F0030304331344002142F8041B934249
:1001C000FBD10A4A0A4B23F07F039360094B9847FF
:1001D000094B9847FEE700BF00000020609E4200E8
:1001E000680400204C0500206804002000ED00E0B9
:1001F00000004000352F4000C92E400008B50248DD
:10020000024B984708BD00BF10E000E0F902400033
:1002100008B52D4B98472D4B9B6913F4006F03D104
:100220004FF40062294B1A61294A536843F4004392
:100230005360284B01225A61C3F890205A661A6015
:100240004FF400725A61C3F890205A661A604FF456
:1002500080621A631A611A604FF400625A631A616D
:100260001A604FF480525A631A611A604FF40052B8
:100270005A631A611A604FF480425A631A611A6015
:100280004FF400325A631A611A604FF400025A6345
:100290001A611A604FF080725A61C3F890205A6652
:1002A0001A604FF000725A631A611A604FF0806250
:1002B0005A631A611A604FF000521A631A611A6089
:1002C000054B984708BD00BF5D03400000040E4089
:1002D00050140E40000E0E40FD014000EFF310835D
:1002E000036072B6BFF35F8F7047BFF35F8F036821
:1002F00083F310887047000008B5024B1860024B6A
:10030000984708BD840400202104400010B5044B28
:100310001C68044B984701462046034B984710BD84
:100320008404002051034000350440000346064A7F
:10033000126822B1044A10680344136070470349ED
:10034000014A1160F6E700BF88040020500B00202E
:1003500045F6C05303FB00F07047000000B583B0C2
:1003600001A80D4B98470D4AD2F8883043F470032A
:10037000C2F88830BFF34F8FBFF36F8F01A8084BCF
:100380009847084A136823F470631360064B984734
:1003900003B05DF804FB00BFDD02400000ED00E0AB
:1003A000EB024000000A0E40AD0340001B4A136AF6
:1003B00043F45C1343F008031362936E13F4003F9D
:1003C000FBD0164A136A23F0700343F45C1343F026
:1003D00020031362936E13F4003FFBD00F4A136A9D
:1003E00023F0807343F45C131362136B23F0030355
:1003F00043F001031363936E13F0080FFBD0074A19
:10040000136B23F070031363936E13F0080FFBD08C
:10041000024B00229A6380221A60704700040E404B
:10042000034B6FF07F425A6005221A60704700BF8D
:1004300010E000E00B0E03B330B45D1EEDB22846B1
:10044000124A6FF07F4454609460136813F4803F45
:10045000FBD00138C0B2FF28F5D1A5EB056501F14D
:100460007F4101312944094B596099601A4613684C
:1004700013F4803FFBD030BC7047044B5960996047
:100480001A46136813F4803FFBD0704710E000E079
:1004900008B5024B1B681B68984708BDAC040020D8
:1004A00008B5024B1B68DB6A984708BD440500206D
:1004B00008B5024B1B681B6B984708BD440500201C
:1004C0002DE9F04F89B0BDF848100691BDF84C10E9
:1004D00007919DF850809DF85490C84543D0002A5C
:1004E00041D005930492029000230393DFF87CA08F
:1004F0002AE0B9F1080F04D031194A4689B20198AF
:10050000D0470134082C0DD02B78234113F0010F74
:10051000EFD0B8F1080FF4D03119424689B20198F2
:10052000D047EEE7013FBFB20836B6B22FB107EBB6
:100530000B05029B1D440024E6E7039B01339BB29D
:100540000393049A9A420ED9059A1346571EBFB2D6
:10055000002FF2D0039903FB01FB079E069B0B447F
:100560009BB20193E3E709B0BDE8F08FA10440001E
:100570002DE9F04F89B0BDF848100691BDF84C1038
:1005800007919DF850809DF85490C84543D0002AAB
:1005900041D005930492029000230393DFF87CA0DE
:1005A0002AE0B9F1080F04D031194A4689B20198FE
:1005B000D0470134082C0DD02B78234113F0010FC4
:1005C000EFD0B8F1080FF4D03119424689B2019842
:1005D000D047EEE7013FBFB20836B6B22FB107EB06
:1005E0000B05029B1D440024E6E7039B01339BB2ED
:1005F0000393049A9A420ED9059A1346571EBFB226
:10060000002FF2D0039903FB01FB079E069B0B44CE
:100610009BB20193E3E709B0BDE8F08FA10440006D
:100620002DE9F04F87B0BDF84090BDF8441005911A
:100630009DF848709DF84C80474545D0002A43D02E
:100640001946049313460291421801924B449BB2FF
:100650000393DFF87CA02AE0B8F1080F04D0311929
:10066000424689B24846D0470134082C0DD015F8CF
:10067000013C234113F0010FEED0082FF4D03119C3
:100680003A4689B24846D047EEE70836B6B2013D51
:100690005D4501D00024EAE709F101091FFA89F953
:1006A000019B029A13440193039B99450CD0049B30
:1006B000002BF1D0C3F1000B6FEA0B4B6FEA1B4B21
:1006C000019DAB44059EE5E707B0BDE8F08F00BF94
:1006D000A104400010B584B09DF8244003949DF817
:1006E00020400294BDF81C400194BDF818400094CD
:1006F000014CA04704B010BD210640002DE9F04F89
:1007000087B0BDF84090BDF8441005919DF8487041
:100710009DF84C80474545D0002A43D019460493A4
:1007200013460291421801924B449BB20393DFF8A7
:100730007CA02AE0B8F1080F04D03119424689B2F2
:100740004846D0470134082C0DD015F8013C234110
:1007500013F0010FEED0082FF4D031193A4689B2C8
:100760004846D047EEE70836B6B2013D5D4501D0B8
:100770000024EAE709F101091FFA89F9019B029AAD
:1007800013440193039B99450CD0049B002BF1D09B
:10079000C3F1000B6FEA0B4B6FEA1B4B019DAB449F
:1007A000059EE5E707B0BDE8F08F00BFA10440005B
:1007B0002DE9F04F87B0BDF8401005919DF84870C5
:1007C0009DF84C80474549D00392002A46D00293B9
:1007D000019003F5FF531F33BDF8442002EBC30320
:1007E0009BB2049300230093DFF878A028E0B8F1CF
:1007F000080F04D03119424689B24846D047013427
:10080000082C0CD02B78234113F0010FEFD0082FC8
:10081000F5D031193A4689B24846D047EFE7083E4D
:10082000B6B201355D4501D00024EBE7009B0133F2
:100830000093019A02990A440192039A93420DD0BF
:10084000029B002BF2D0019D05EB030B049E059B40
:10085000009A03EB02091FFA89F9E5E707B0BDE842
:10086000F08F00BFA10440002DE9F04F87B0BDF824
:10087000401005919DF848709DF84C80474549D03F
:100880000392002A46D00293019003F5FF531F33D1
:10089000BDF8442002EBC3039BB2049300230093F2
:1008A000DFF878A028E0B8F1080F04D031194246EB
:1008B00089B24846D0470134082C0CD02B7823410C
:1008C00013F0010FEFD0082FF5D031193A4689B255
:1008D0004846D047EFE7083EB6B201355D4501D046
:1008E0000024EBE7009B01330093019A02990A442C
:1008F0000192039A93420DD0029B002BF2D0019DEE
:1009000005EB030B049E059B009A03EB02091FFAFB
:1009100089F9E5E707B0BDE8F08F00BFA10440000A
:100920002DE9F04F87B0BDF8401005919DF8487053
:100930009DF84C80474549D00392002A46D0029347
:10094000019003F5FF531F33BDF8442002EBC303AE
:100950009BB2049300230093DFF878A028E0B8F15D
:10096000080F04D03119424689B24846D0470134B5
:10097000082C0CD02B78234113F0010FEFD0082F57
:10098000F5D031193A4689B24846D047EFE7083EDC
:10099000B6B201355D4501D00024EBE7009B013381
:1009A0000093019A02990A440192039A93420DD04E
:1009B000029B002BF2D0019D05EB030B049E059BCF
:1009C000009A03EB02091FFA89F9E5E707B0BDE8D1
:1009D000F08F00BFA10440002DE9F04F89B0BDF8B1
:1009E00048100691BDF84C1007919DF850809DF875
:1009F0005490C84543D0002A41D0059304920290F8
:100A000000230393DFF87CA02AE0B9F1080F04D09B
:100A100031194A4689B20198D0470134082C0DD0CB
:100A20002B78234113F0010FEFD0B8F1080FF4D069
:100A30003119424689B20198D047EEE7013FBFB273
:100A40000836B6B22FB107EB0B05029B1D440024FC
:100A5000E6E7039B01339BB20393049A9A420ED9B3
:100A6000059A1346571EBFB2002FF2D0039903FB1D
:100A700001FB079E069B0B449BB20193E3E709B081
:100A8000BDE8F08FA10440002DE9F04F87B0BDF81C
:100A90004090BDF8441005919DF848709DF84C8039
:100AA000474545D0002A43D0194604931346029186
:100AB000421801924B449BB20393DFF87CA02AE0DA
:100AC000B8F1080F04D03119424689B24846D047E0
:100AD0000134082C0DD015F8013C234113F0010F0F
:100AE000EED0082FF4D031193A4689B24846D047A3
:100AF000EEE70836B6B2013D5D4501D00024EAE7D5
:100B000009F101091FFA89F9019B029A1344019323
:100B1000039B99450CD0049B002BF1D0C3F1000B33
:100B20006FEA0B4B6FEA1B4B019DAB44059EE5E75B
:100B300007B0BDE8F08F00BFA1044000704700007F
:100B4000F0B4144B4FF080671F614FF400361E6104
:100B50004FF400651D614FF400541C614FF4805048
:100B600018614FF4804119615F631E631D631C634C
:100B7000586359634FF000725A61C3F890205A6667
:100B80001F601E601D601C60186019601A60F0BC58
:100B9000704700BF000E0E40394B9B889BB28342CA
:100BA00039D9374BDB889BB28B4234D930B4344BC4
:100BB0001B78DBB2012B2FD0314B1B78DBB2022B21
:100BC00035D02F4B1B78DBB2032B3ED001EB8101DC
:100BD000C1EBC10101EBE003C04300F0070029496C
:100BE0000968096912F0010F3BD1C5B2012404FA6A
:100BF00005F5CC5C24EA0504CC54224909684C690B
:100C000012F0020F34D1C0B201218140E05C20EA31
:100C10000100E05430BC7047CB10C3F1220300EB5D
:100C20008000C0EBC000034401F00700D7E740F2AA
:100C30001714A4EBE0046FF0220303FB014101F55C
:100C400082437D3300F00700C9E744F27D1303EBD4
:100C5000E1036FF0220404FB0033C84300F00700F7
:100C6000BDE7C5B20124AC40CD5C2C43CC54C4E7F5
:100C7000C0B2012202FA00F0E25C1043E054C9E77E
:100C8000240500204405002008B51AB10F22034BAB
:100C9000984708BD014B984708BD00BF990B40001D
:100CA0002DE9F04F87B0BDF840100291002A47D0DF
:100CB0000192059304904FF0000A03F1FF3B1FFAE5
:100CC0008BFBBDF844300393DFF87C805E46BBF1BC
:100CD000000F2ED0039C059B049A03FB0A29029B5C
:100CE00003EB0A07BFB219F8065005F0030282F0C1
:100CF000FF0221463846C047C5F38102611C82F0DD
:100D0000FF0289B23846C047C5F30112A11C82F028
:100D1000FF0289B23846C0476FEA9512E11CD2B291
:100D200089B23846C047013EB6B20434A4B2002EA0
:100D3000D9D10AF1010A1FFA8AFA019B5345C5D895
:100D400007B0BDE8F08F00BF990B400010B4444CD1
:100D50006488A4B284424FD9414CA488A4B28C4286
:100D60004AD93F4B1B786BB13D4B1B78DBB2022B52
:100D700008D04FF4967303FB01F101EB500300F030
:100D8000010107E04FF4967303FB00F303EB5103FB
:100D900001F00101002932D132490968096912F0D4
:100DA000080FC85C14BF60F07F0000F07F00C854DB
:100DB0002C490968096912F0040FC85C14BF40F09F
:100DC000400020F04000C85426490968096912F023
:100DD000020FC85C14BF40F0200020F02000C8546F
:100DE00020490968096912F0010FCA5C14BF42F07A
:100DF000100222F01002CA545DF8044B70471949E2
:100E00000968096912F0080FC85C14BF40F00800B7
:100E100020F00800C85413490968096912F0040F4A
:100E2000C85C14BF40F0040020F00400C8540D4911
:100E30000968096912F0020FC85C14BF40F0020093
:100E400020F00200C85407490968096912F0010F2F
:100E5000CA5C14BF42F0010222F00102CA54CBE77F
:100E6000C00400204405002008B51AB10F22034B2E
:100E7000984708BD014B984708BD00BF4D0D400085
:100E80002DE9F04F87B0BDF840100291002A37D00D
:100E90000192059304904FF0000A03F1FF3B1FFA03
:100EA0008BFBBDF844300393DFF85C805C46BBF1FC
:100EB000000F1ED0039D059B049A03FB0A29029B89
:100EC00003EB0A07BFB219F8046006F00F0282F0C4
:100ED000FF0229463846C0476FEA1612691CD2B293
:100EE00089B23846C047013CA4B20235ADB2002CED
:100EF000E9D10AF1010A1FFA8AFA019B5345D5D8B4
:100F000007B0BDE8F08F00BF4D0D4000334B9B880C
:100F10009BB283421CD910B4304BDC88A4B28C4203
:100F200014D95B78DBB2012B13D02C4B5B78DBB28E
:100F3000032B0ED04FF4967303FB01F101EB50032A
:100F400000F0010050B36AB1012A19D05DF8044BDA
:100F500070474FF4967303FB00F000EB510301F070
:100F60000100EFE71E490A681069C25C22F0020224
:100F7000C2540A681169CA5C22F00102CA54E5E74A
:100F800017490A681069C25C42F00202C2540A683A
:100F90001169CA5C42F00102CA54D7E77AB1012A4A
:100FA000D4D10F490A681069C25C42F02002C254D1
:100FB0000A681169CA5C42F01002CA54C6E70849BF
:100FC0000A681069C25C22F02002C2540A681169E2
:100FD000CA5C22F01002CA54B8E700BF180500200E
:100FE00044050020954B9B889BB283423FD910B4A7
:100FF000924BDC88A4B28C4237D95B78DBB2012BF0
:1010000017D08E4B5B78DBB2032B12D04FF4967364
:1010100003FB01F101EB500300F00100002800F098
:10102000B380072A21D8DFE802F00D235F73374B26
:10103000879B4FF4967303FB00F000EB510301F024
:101040000100EBE77E4A11680869C15C21F00401E8
:10105000C15411680869C15C21F00201C1541268D1
:101060001169CA5C22F00102CA545DF8044B704752
:10107000734A11680869C15C21F00401C154116808
:101080000869C15C21F00201C15412681169CA5C8F
:1010900042F00102CA54E8E7694A11680869C15C74
:1010A00021F00401C15411680869C15C41F00201DA
:1010B000C15412681169CA5C22F00102CA54D4E713
:1010C0005F4A11680869C15C21F00401C1541168CC
:1010D0000869C15C41F00201C15412681169CA5C1F
:1010E00042F00102CA54C0E7554A11680869C15C60
:1010F00041F00401C15411680869C15C21F002018A
:10110000C15412681169CA5C22F00102CA54ACE7EA
:101110004B4A11680869C15C41F00401C15411686F
:101120000869C15C21F00201C15412681169CA5CEE
:1011300042F00102CA5498E7414A11680869C15C4B
:1011400041F00401C15411680869C15C41F0020119
:10115000C15412681169CA5C22F00102CA5484E7C2
:10116000374A11680869C15C41F00401C154116833
:101170000869C15C41F00201C15412681169CA5C7E
:1011800042F00102CA5470E7072A3FF66EAFDFE86B
:1011900002F00418596D2C408195294A116808699C
:1011A000C15C21F04001C15411680869C15C21F0A3
:1011B0002001C15412681169CA5C22F01002CA549D
:1011C00053E71F4A11680869C15C21F04001C1540E
:1011D00011680869C15C21F02001C15412681169CD
:1011E000CA5C42F01002CA543FE7154A1168086908
:1011F000C15C21F04001C15411680869C15C41F033
:101200002001C15412681169CA5C22F01002CA544C
:101210002BE70B4A11680869C15C21F04001C154F9
:1012200011680869C15C41F02001C154126811695C
:10123000CA5C42F01002CA5417E700BF180500202C
:1012400044050020274A11680869C15C41F040014B
:10125000C15411680869C15C21F02001C1541268B1
:101260001169CA5C22F01002CA54FEE61D4A1168D8
:101270000869C15C41F04001C15411680869C15C52
:1012800021F02001C15412681169CA5C42F01002B9
:10129000CA54EAE6134A11680869C15C41F040018A
:1012A000C15411680869C15C41F02001C154126841
:1012B0001169CA5C22F01002CA54D6E6094A1168C4
:1012C0000869C15C41F04001C15411680869C15C02
:1012D00041F02001C15412681169CA5C42F0100249
:1012E000CA54C2E644050020944B9B889BB28342BB
:1012F00040F27781914BDB889BB28B4240F2718147
:101300008E4B5B78DBB2012B17D08C4B5B78DBB25A
:10131000032B12D001EB8101890101EB500300F096
:101320000100002800F0B180072A00F25A81DFE8AE
:1013300002F00C205C703448849800EB800083013C
:1013400003EB510301F00100EBE77D4A11680869E6
:10135000C15C21F00401C15411680869C15C21F02D
:101360000201C15412681169CA5C22F00102CA5418
:101370007047734A11680869C15C21F00401C154C7
:1013800011680869C15C21F00201C1541268116939
:10139000CA5C42F00102CA547047694A1168086980
:1013A000C15C21F00401C15411680869C15C41F0BD
:1013B0000201C15412681169CA5C22F00102CA54C8
:1013C00070475F4A11680869C15C21F00401C1548B
:1013D00011680869C15C41F00201C15412681169C9
:1013E000CA5C42F00102CA547047554A1168086944
:1013F000C15C41F00401C15411680869C15C21F06D
:101400000201C15412681169CA5C22F00102CA5477
:1014100070474B4A11680869C15C41F00401C1542E
:1014200011680869C15C21F00201C1541268116998
:10143000CA5C42F00102CA547047414A1168086907
:10144000C15C41F00401C15411680869C15C41F0FC
:101450000201C15412681169CA5C22F00102CA5427
:101460007047374A11680869C15C41F00401C154F2
:1014700011680869C15C41F00201C1541268116928
:10148000CA5C42F00102CA547047072A00F2A980E0
:10149000DFE802F00418586C2C408094284A116848
:1014A0000869C15C21F04001C15411680869C15C40
:1014B00021F02001C15412681169CA5C22F01002A7
:1014C000CA5470471E4A11680869C15C21F0400186
:1014D000C15411680869C15C21F02001C15412682F
:1014E0001169CA5C42F01002CA547047144A11686C
:1014F0000869C15C21F04001C15411680869C15CF0
:1015000041F02001C15412681169CA5C22F0100236
:10151000CA5470470A4A11680869C15C21F0400149
:10152000C15411680869C15C41F02001C1541268BE
:101530001169CA5C42F01002CA54704718050020B5
:1015400044050020274A11680869C15C41F0400148
:10155000C15411680869C15C21F02001C1541268AE
:101560001169CA5C22F01002CA5470471D4A116802
:101570000869C15C41F04001C15411680869C15C4F
:1015800021F02001C15412681169CA5C42F01002B6
:10159000CA547047134A11680869C15C41F04001A0
:1015A000C15411680869C15C41F02001C15412683E
:1015B0001169CA5C22F01002CA547047094A1168C6
:1015C0000869C15C41F04001C15411680869C15CFF
:1015D00041F02001C15412681169CA5C42F0100246
:1015E000CA54704744050020F0B5284C2478E4B272
:1015F000032C0CD8DFE804F002101C26234CE388EF
:10160000591A8BB2E688B6B2A788BFB20546B34274
:1016100001D2BD421ED3F0BD1C4CA388181A83B260
:10162000E588691A8DB2A688B6B2E788BFB2EEE740
:10163000164CA588281A85B2E688B6B2A788BFB22C
:101640000B46E4E7114B9E88B6B2DF88BFB20D4669
:101650000346DCE70E490968013303EB830303EB20
:101660008303A3EBE503013B9BB2096905F0070582
:1016700032B90122AA40CD5C25EA0205CD54CAE761
:101680000122AA40CD5C1543CD54F0BDC804002012
:101690004405002070B4384B1C89DD88DB889BB280
:1016A000834225D9A6B2ADB2334B1C89A4B28C4279
:1016B0001ED9DB78DBB2012B1CD02F4BDB78DBB2E1
:1016C000032B17D0C6F3C70400FB04446FEAE10301
:1016D000234401F0070128488078E0B927480068D2
:1016E000446992B901208840E15C21EA0001E1549B
:1016F00070BC7047C5F3C70301FB033303EBE00382
:10170000103BC14301F00701E5E701208840E15C9F
:101710000143E154ECE7BAB1023AD2B2012A01D84E
:10172000002612E0154C22681569012202FA01F028
:10173000EA5C0243EA54226852691A4401238B404E
:10174000117819431170D3E701260C4C22681569F2
:10175000012202FA01F0EA5C22EA0002EA5422685D
:101760005469E218002EE9D101208840E15C21EAA9
:101770000001E154BCE700BF08050020440500203B
:1017800008B5014B984708BD9516400010B4154C9C
:10179000E388A488A4B2844217D99BB2114CE48890
:1017A000A4B28C4211D9C3F3C70300FB03F3A3EB2C
:1017B000E103013B01F0070152B10B4A1268506985
:1017C00001228A40C15C1143C1545DF8044B70474B
:1017D000054A1268506901228A40C15C21EA02016F
:1017E000C154F2E7A00400204405002030B4374B78
:1017F000DC88A5B29C889B889BB2834236D9A4B270
:10180000324BDB889BB28B4230D9304B1B78DBB23A
:10181000012B2DD02D4B1B78DBB2032B28D0C5F329
:10182000870400FB04F0A0EBA100013801F00301E4
:101830004900274B1B681B6912F0010F4FF0010490
:1018400004FA01F51C5C14BF2C43AC431C54204B20
:101850001B681B69013112F0020F4FF0010202FAFE
:1018600001F2195C14BF11439143195430BC704705
:10187000C4F3870301FB033303EBA0033C3B00F0FD
:1018800003004000C0F10701C9B2114C246824696B
:1018900012F0020F4FF0010505FA01F5E15C14BFEB
:1018A0002943A943E1540A4909680969C0F10600BE
:1018B000C0B212F0010F4FF0010202FA00F2C85C50
:1018C00014BF10439043C854D0E700BFA0040020C9
:1018D0004405002008B51AB10322034B984708BD00
:1018E000014B984708BD00BFED1740002DE9F04FB0
:1018F00087B0BDF840100291002A47D001920593AD
:1019000004904FF0000A03F1FF3B1FFA8BFBBDF878
:1019100044300393DFF87C805E46BBF1000F2ED08D
:10192000039C059B049A03FB0A29029B03EB0A070D
:10193000BFB219F8065005F0030282F0FF022146FB
:101940003846C047C5F38102611C82F0FF0289B2AC
:101950003846C047C5F30112A11C82F0FF0289B2CC
:101960003846C0476FEA9512E11CD2B289B23846B8
:10197000C047013EB6B20434A4B2002ED9D10AF158
:10198000010A1FFA8AFA019B5345C5D807B0BDE882
:10199000F08F00BFED17400030B40D4619B94FF479
:1019A00000620E4B5A6308230C4A4FF480544FF4E4
:1019B000804110F0800F14BF146354631163400022
:1019C000C0B25163013B13F0FF03F2D11DB94FF4D4
:1019D0000062024B1A6330BC704700BF000E0E401D
:1019E000F8B50C4615460B4E4FF4003777634FF4AD
:1019F000006373630021084B9847376345B1254462
:101A00000027054E394614F8010BB047A542F9D11D
:101A1000F8BD00BF000E0E409919400030B583B0EC
:101A20002A4B5B78DBB2012B35D0284BDB78DBB25D
:101A3000022B14D00222254BDA70254D202205F509
:101A400028711046234CA0474FF4007205F5307101
:101A50002220A047802205F508712620A0470023F8
:101A60008DF800308DF801308DF802308DF803309C
:101A7000EF228DF804208DF805308DF8062007221E
:101A800069461220134B9847134AD36B13F0007F1B
:101A9000FBD003B030BD0D4BDB78DBB2012BDED0C9
:101AA00001220A4BDA700A4D202229461046094CC1
:101AB000A0474FF4007205F120012220A0478022A8
:101AC00005F508712620A047C9E700BFA004002043
:101AD0006C304000E1194000000E0E4030B583B07C
:101AE000002211460420224B9847224AD36B13F060
:101AF000007FFBD0204BDB783BBB01238DF800300F
:101B000000238DF801308DF802308DF803307F22EC
:101B10008DF804208DF80530FF238DF8063007225C
:101B200069461220124B9847124AD36B13F0007F7C
:101B3000FBD00022114602200D4B98470D4AD36B73
:101B400013F0007FFBD103B030BD00250A4BDD70E0
:101B5000202255211046064CA0474FF400728121E7
:101B60002220A047802229462620A047C5E700BFA3
:101B7000E1194000000E0E40A004002010B5002224
:101B8000114604200A4CA047002211461220A0470B
:101B9000084AD36B13F0007FFBD0002211460220CD
:101BA000034B9847034AD36B13F0007FFBD010BD63
:101BB000E1194000000E0E4038B5054600221146DE
:101BC0000420234CA047234B1B684FF494521969FF
:101BD0001020A047002211461120A0471E4AD36BB7
:101BE00013F0007FFBD01B4B1B684FF494525969D4
:101BF0001320174CA047002211461120A047164A77
:101C0000D36B13F0007FFBD0BDB900221146022038
:101C10000F4B9847104AD36B13F0007FFBD00F4B4C
:101C20009B784BB90B4802685169C95C1269D15461
:101C30000133B3F5945FF6D138BD0022114612206E
:101C4000034B9847044AD36B13F0007FFBD0DCE7CB
:101C5000E119400044050020000E0E400805002058
:101C600010B50022114604200A4CA047002211465C
:101C70001220A047084AD36B13F0007FFBD000224C
:101C800011460220034B9847034AD36B13F0007FA1
:101C9000FBD010BDE1194000000E0E4038B50546DE
:101CA0000022114604201D4CA0471D4B1B6841F229
:101CB000F85219691020A047002211461120A047B0
:101CC000184AD36B13F0007FFBD0154B1B6841F211
:101CD000F85259691320114CA047002211461120D7
:101CE000A047104AD36B13F0007FFBD055B90022F8
:101CF00011460220094B98470A4AD36B13F0007F24
:101D0000FBD038BD002211461220044B9847054AEB
:101D1000D36B13F0007FFBD0E9E700BFE11940006F
:101D200044050020000E0E4000B583B0144B5B78D4
:101D3000DBB2012B19D0F7238DF80430012201A961
:101D40002220104B9847104AD36B13F0007FFBD131
:101D50000022114620200B4B98470B4AD36B13F0FF
:101D6000007FFBD103B05DF804FB054B9B781BB9EA
:101D7000C7238DF80430E1E7FF238DF80430DDE759
:101D8000C8040020E1194000000E0E4008B50022F2
:101D9000114604200D4B98470D4AD36B13F0007F7A
:101DA000FBD0002211461220084B9847084AD36BFB
:101DB00013F0007FFBD0002211460220034B98470E
:101DC000034AD36B13F0007FFBD008BDE11940003C
:101DD000000E0E4010B50446164B1B684FF40C3233
:101DE00019691020144B9847144AD36B13F0007FE5
:101DF000FBD004B910BD0022114604200E4B9847B9
:101E00000E4AD36B13F0007FFBD000221146122044
:101E1000094B9847094AD36B13F0007FFBD000228F
:101E200011460220044B9847044AD36B13F0007FFD
:101E3000FBD0DFE744050020E1194000000E0E4012
:101E400008B50022114604200D4B98470D4AD36B6C
:101E500013F0007FFBD0002211461220084B984758
:101E6000084AD36B13F0007FFBD0002211460220FA
:101E7000034B9847034AD36B13F0007FFBD008BD98
:101E8000E1194000000E0E4010B50446164B1B68C9
:101E9000164A19691020164B9847164AD36B13F04F
:101EA000007FFBD004B910BD002211460420104B66
:101EB0009847104AD36B13F0007FFBD000221146E5
:101EC00012200B4B98470B4AD36B13F0007FFBD0CB
:101ED000002211460220064B9847064AD36B13F0A6
:101EE000007FFBD0DFE700BF44050020000D0200AB
:101EF000E1194000000E0E4010B5002211460420EA
:101F00000A4CA047002211461220A047084AD36B72
:101F100013F0007FFBD0002211460220034B9847AC
:101F2000034AD36B13F0007FFBD010BDE1194000D2
:101F3000000E0E4038B50546002211460420144C10
:101F4000A047144B1B68144A19691020A0470022AF
:101F500011461120A047114AD36B13F0007FFBD02C
:101F600055B9002211460220094B98470B4AD36B02
:101F700013F0007FFBD038BD002211461220044B25
:101F80009847064AD36B13F0007FFBD0E9E700BF08
:101F9000E119400044050020000D0200000E0E4033
:101FA00070B584B0002211460420174B9847174A99
:101FB000D36B13F0007FFBD018238DF8043000247E
:101FC0008DF805408DF806408DF807408DF80840E3
:101FD00002268DF8096058238DF80A3001238DF808
:101FE0000B30E0238DF80C30092201A91220064D98
:101FF000A847224621463046A847044AD36B13F02F
:10200000007FFBD004B070BDE1194000000E0E400F
:1020100010B582B0104BDB78BBB969220F49322072
:102020000F4B984702A9CF2301F8043D012222203B
:102030000B4CA047002211462020A047094AD36B31
:1020400013F0007FFBD102B010BD69220649322097
:10205000034B9847E6E700BF240500202C354000DD
:10206000E1194000000E0E4098354000F0B583B0F5
:10207000074600248DF804408DF80540022201A98E
:102080004E20244DA8478DF804408DF805400222CB
:1020900001A94F20A847204E336844F2A0121969C5
:1020A0002420A8478DF804408DF80540022201A99C
:1020B0004E20A8478DF804408DF80540022201A962
:1020C0004F20A847336844F2A01259692620A84738
:1020D000BFB1124BDB78B3B9692211493220A8474E
:1020E00002A9CF2301F8043D01222220094CA04778
:1020F000002211462020A0470A4AD36B13F0007F2C
:10210000FBD103B0F0BD692207493220014B98474B
:10211000E6E700BFE1194000440500202405002047
:102120002C354000000E0E40983540002DE9F04F50
:1021300083B081460C463D490978C9B201294AD08D
:102140003A490978C9B202295CD038490978C9B23C
:10215000032960D004EB8405C5EBC50505EBE00160
:1021600000F0F80B0BEB020002F0070BCBF1080BB1
:1021700050FA8BFBBBF1000FB8BF0BF1070BCBF391
:10218000CF0B2B4A126815690D440BB3C9F3012A12
:1021900023441FFA83F80227264E8DF804908DF809
:1021A00005A03A4601A94E20B0478DF80440C4F37B
:1021B00001238DF805303A4601A94F20B047233559
:1021C0005A4629462420B0470134A4B24445E4D1FC
:1021D00003B0BDE8F08FE11831F0070148BF0731C7
:1021E000C910C1F1220100EB8005C5EBC5052944EA
:1021F000C3F58C70001B4FEAD30B13464C461FFAF5
:1022000080F9BEE7C108C1F5854214326FF022059E
:1022100005FB0421B5E76FF0220101FB04F101EB9E
:10222000E40101F582417D31ABE700BF24050020C8
:1022300044050020E11940002DE9F04182B08046BC
:1022400002AC7D2304F8043D012221462C202A4DB6
:10225000A84718278DF8047000268DF80560022223
:1022600021464420A8478DF80470012221464E20C3
:10227000A847C7238DF804308DF805600222214657
:102280004F20A8471D4B1B6841F288321969242052
:10229000A8471B4AD36B13F0007FFBD1B8F1000FA6
:1022A00002D102B0BDE8F081164B5B78DBB2012BA6
:1022B00017D0F7238DF800300122694622200E4BFB
:1022C00098470F4AD36B13F0007FFBD100221146D1
:1022D0002020094B98470A4AD36B13F0007FFBD1AB
:1022E000DFE7084B9B781BB9C7238DF80030E3E785
:1022F000FF238DF80030DFE7E1194000440500209E
:10230000000E0E40C804002030B585B005460023FD
:102310008DF808308DF809308DF80A30EF228DF8ED
:102320000B208DF80C308DF80D20062202A9142008
:102330002F4CA0472F4B1B684FF461521969132093
:10234000A0470DB905B030BD2B4B5B78DBB2012B3C
:1023500034D0294BDB78DBB2022B14D00222264B7F
:10236000DA70264D202205F528711046204CA04732
:102370004FF4007205F530712220A047802205F548
:1023800008712620A04700238DF800308DF8013019
:102390008DF802308DF80330EF228DF804208DF88F
:1023A00005308DF80620072269461220104B984709
:1023B000134AD36B13F0007FFBD0C3E70E4BDB78DF
:1023C000DBB2012BDFD001220B4BDA700B4D202248
:1023D00029461046A0474FF4007205F12001222043
:1023E000A047802205F508712620A047CBE700BF53
:1023F000E119400044050020A00400206C3040009A
:10240000000E0E4070B586B0054600238DF81030E2
:102410008DF811308DF812308DF8133002238DF8BD
:10242000143058238DF8153001238DF81630E02331
:102430008DF81730082204A98320294CA047294B86
:102440001B68294A19691020A047284B1B78DBB26A
:10245000012B0FD0254B1B78DBB2022B0AD00223B5
:102460008DF81030012204A9E0201D4B98472DB9AA
:1024700006B070BD03238DF81030F3E7002211463B
:102480000420174B98471A4AD36B13F0007FFBD0F8
:1024900018238DF8043000248DF805408DF806408F
:1024A0008DF807408DF8084002268DF80960582302
:1024B0008DF80A3001238DF80B30E0238DF80C30B5
:1024C000092201A91220064DA8472246214630467E
:1024D000A847074AD36B13F0007FFBD0C8E700BFC3
:1024E000E11940004405002080320200C0040020B1
:1024F000000E0E4030B585B0054600238DF808303B
:102500008DF809308DF80A307F228DF80B208DF878
:102510000C30FF238DF80D30062202A914202E4C1A
:10252000A0472E4B1B684FF4805259691620A047D4
:1025300065B90023294802685169C95C1269D15400
:102540000133B3F5805FF6D105B030BD00221146EE
:102550000420A047224AD36B13F0007FFBD0214B0D
:10256000DB7833BB01238DF8003000238DF8013078
:102570008DF802308DF803307F228DF804208DF81D
:102580000530FF238DF80630072269461220124BD2
:102590009847134AD36B13F0007FFBD000221146FB
:1025A00002200D4B98470E4AD36B13F0007FFBD1EE
:1025B000BFE700250B4BDD70202255211046064C4D
:1025C000A0474FF4007281212220A0478022294693
:1025D0002620A047C6E700BFE119400044050020BF
:1025E000000E0E40A0040020F8B505461446104B1E
:1025F0009847CDB90E4B9847ACB1C4F30A06A41B5B
:10260000E50A09D000240A4F4FF40063013BFDD1D5
:10261000B8470134A542F7D11EB1002301339E42D1
:10262000FCD1034B9847F8BD014B9847E2E700BF48
:102630009104400010B50023014CA04710BD00BF1D
:10264000E925400030B585B02E4C94F83040E4B216
:10265000032C0BD8DFE804F002273547ADF804104F
:10266000ADF80600ADF80830ADF80A209DF820302E
:10267000ADF80C30012201A93420234CA0470122DF
:102680000DF106010020A047012202A90020A04769
:1026900001220DF10A010020A047012203A9002018
:1026A000A04705B030BDADF804001648008D80B2DB
:1026B000411AC91AADF80610ADF80820ADF80A3075
:1026C000D4E7104D6C8DA4B2611AC91AADF804108C
:1026D000298D89B2081A801AADF80600ADF80830C5
:1026E000ADF80A20C2E7074C648DA4B2201A801A04
:1026F000ADF80400ADF80610ADF80820ADF80A30CA
:10270000B4E700BFD00400203526400030B585B0C6
:102710000024ADF80440ADF80640114B5A8DADF8D9
:1027200008201B8DADF80A30ADF80C00012201A97C
:1027300034200C4DA84701220DF106012046A84780
:10274000012202A92046A84701220DF10A012046D4
:10275000A847012203A92046A84705B030BD00BF05
:10276000D0040020352640002DE9F04F85B080468A
:102770000D4616461F46484B1C68DFF82491D9F8D1
:102780003430D9F834A040F20A22ADF800201B0CF6
:10279000ADF80230022269461120DFF800B1D847B7
:1027A0004FF40273ADF80030ADF802A00222694682
:1027B0001120D84799F83030DBB2022B29D0032BF7
:1027C00029D0012B14BF0023012343F02003ADF8CF
:1027D0000430ADF80650ADF80880ADF80A70ADF8D9
:1027E0000C60052201A921202C4B98472C4B93F813
:1027F000303093B12A4B93F83030DBB2022B0CD03F
:10280000274B1B8DC3F38D0308FB03F804EB48042F
:102810000BE00223D9E70323D7E7214B5B8DC3F3FA
:102820008D0308FB03F804EB4804AD0804EB4504F2
:10283000B04646B3BF084FEA470ABB460025DFF85B
:102840005C90174E09E0738DC3F38D03A3EB0B036C
:1028500004EB43040135454515D03A462146002096
:10286000C847544496F83030002BECD096F83030FE
:10287000DBB2022BE7D0338DC3F38D03A3EB0B0345
:1028800004EB4304E6E7002211462220034B98475D
:1028900005B0BDE8F08F00BFB4040020352640002D
:1028A000D004002030B585B00024ADF80440ADF868
:1028B0000640114B5A8DADF808201B8DADF80A303B
:1028C0000223ADF80C30012201A934200B4DA8479A
:1028D00001220DF106012046A847012202A9204647
:1028E000A84701220DF10A012046A847012203A9A9
:1028F0002046A84705B030BDD00400203526400052
:1029000010B50123014CA04710BD00BFE9254000D0
:10291000F0B585B00546334C636B676B40F20A2215
:10292000ADF804201B0CADF80630022201A91120DD
:102930002D4EB0474FF40273ADF80430ADF8067079
:10294000022201A91120B04794F83030DBB2022BEB
:102950001DD0032B1DD0012B14BF0023012343F0F6
:10296000200304A921F8023D012220201E4CA0478B
:102970001C4BDA6A52081D4B196800201C4B984703
:10298000002211462220A0472DB905B0F0BD022338
:10299000E5E70323E3E70024ADF80440ADF8064083
:1029A000104B5A8DADF808201B8DADF80A3002236C
:1029B000ADF80C30012201A934200B4DA8470122AB
:1029C0000DF106012046A847012202A92046A8478A
:1029D00001220DF10A012046A847012203A9204641
:1029E000A847D2E7D004002035264000B4040020D8
:1029F0000129400032B901238B40017821EA03010B
:102A00000170704701238B400178194301707047B2
:102A1000F8B5314B1E68738883423ED9B3888B4228
:102A20003BD92E4B93F830307BB12C4B93F83030A0
:102A3000DBB2022B09D0294B5C88C4F34E044B084F
:102A400000FB043401F0010108E0244B1C88C4F3AE
:102A50004E044B0800FB043401F001011546E9B1B6
:102A60003069C2F3C002072120441D4EB0471A4FFF
:102A70003B681869C5F3800206212044B0473B68D3
:102A80001869C5F3400205212044B0473B68186926
:102A900005F0010204212044B047F8BD3069C2F3BB
:102AA000C002032120440E4EB0470B4F3B6818690B
:102AB000C5F3800202212044B0473B681869C5F382
:102AC000400201212044B0473B68186905F001022B
:102AD00000212044B047F8BD44050020D004002068
:102AE000F52940002DE9F04F87B0BDF84080BDF8D2
:102AF00044900021ADF81610BDF8161089B28A4234
:102B00006AD91E4601928246354FDFF8D8B058E0A8
:102B1000BDF8123002339BB2ADF81230BDF814305C
:102B200001339BB2ADF81430BDF814309BB2B34200
:102B30003BD2BDF8164018FA84F4A4B2BDF8125086
:102B4000ADB23B685A88A242E2D94D44ADB29B88EF
:102B5000AB42DDD9BDF816309BB2BDF8142006FBA0
:102B600003F31AFA82F2D35C03F00F03ADF81030CE
:102B7000BDF816309BB2BDF8142006FB03F31AFA19
:102B800082F2D35C1B09ADF80E30BDF81020D243A1
:102B9000691CD2B289B22046D847BDF80E20D24374
:102BA000D2B229462046D847B2E7BDF816300133E5
:102BB0009BB2ADF81630BDF816309BB2019A934225
:102BC0000AD20023ADF81230ADF81430BDF814303D
:102BD0009BB29E42ADD8E8E707B0BDE8F08F00BFDA
:102BE00044050020112A400070B51048104B98474A
:102BF0000120104B9847104D4FF400566E63012092
:102C00000E4CA0472E630120A0472A46D36B13F039
:102C1000007FFBD1002211461220094B9847064A3B
:102C2000D36B13F0007FFBD170BD00BF10E000E05C
:102C3000F9024000410B4000000E0E400D03400021
:102C4000E11940002DE9F04385B0074604A9F723B8
:102C500001F80C3D01224620604B9847604AD36B37
:102C600013F0007FFBD104A9F72301F80C3D0122EA
:102C700047205A4B98475A4AD36B13F0007FFBD139
:102C80004FF0DF088DF8048001268DF805600024E0
:102C90008DF80640032201A93046504DA8478DF813
:102CA0000440324601A90320A84741238DF804308F
:102CB000A8238DF8053032238DF80630032201A9B0
:102CC0000420A84703238DF80430324601A91120BF
:102CD000A8478DF80440324601A93C20A847AE23FE
:102CE0008DF80430C7238DF80530C3238DF80630E6
:102CF000C0238DF807308DF80830052201A90C207B
:102D0000A84780238DF80430324601A91820A8472F
:102D10004FF044098DF80490324601A92C20A847B1
:102D20008DF804408DF805408DF806408DF8074079
:102D30008DF808408DF809408DF80A408DF80B4059
:102D40008DF80C408DF80D400A2201A93720A847C4
:102D50008DF804408DF8054017238DF806308DF866
:102D6000076004220DEB02014846A8478DF8044095
:102D70008DF805408DF806808DF8076004220DEB74
:102D800002014520A8478DF804408DF80540022235
:102D900001A94E20A8478DF804408DF80540022275
:102DA00001A94F20A8473A680E4B1A603B7803F000
:102DB000FD03B34209D00B4B4FF48C729A804FF451
:102DC000F072DA8005B0BDE8F083064B4FF4F07284
:102DD0009A804FF48C72DA80F4E700BFE11940006A
:102DE000000E0E4024050020F8B506460C4644F2BD
:102DF000A010174DA8470746164B186044F2A010C4
:102E0000A847154B1860154DC5F86872C5F86C02D7
:102E1000134B98473046134B9847337885F8643204
:102E200005F51675104B1D6000230F49FF2244F273
:102E3000A01508680069C25408684069C25401338B
:102E4000AB42F6D104B9F8BD0120084B9847FAE728
:102E50007D2F4000400500203C05002000000020A0
:102E6000E92B4000452C4000440500206D20400027
:102E70002DE9F047124B1B68B3F802A09D88BAF108
:102E8000000F05D007464FF00009DFF838800FE04B
:102E9000BDE8F0873A46A1B23046C0470134A3B23C
:102EA000AB42F7D309F101091FFA89F3534505D263
:102EB0001FFA89F60024002DECD1F3E7BDE8F08776
:102EC00044050020B104400000B585B0124B98477E
:102ED00000218DF80C108DF80D108DF80E108DF866
:102EE0000F1003A80D4B984703200D4B98470D4B2F
:102EF0001B68462201923C2200929C6B1A23A0225E
:102F00004FF482510848A0470120084B98474FF4DE
:102F10000002074B1A63FEE711024000E92D400052
:102F2000712E400044050020084240006D20400002
:102F3000000E0E4070B50D4E0D4CA41BA4100025C4
:102F4000A54209D10B4E0C4C26F07AFFA41BA4100D
:102F50000025A54205D170BD56F8253098470135AA
:102F6000EEE756F8253098470135F2E74C9E4200CF
:102F70004C9E42004C9E4200509E4200024B014635
:102F8000186800F003B800BF0404002070B5CD1C21
:102F900025F0030508350C2D38BF0C25002D0646FD
:102FA00001DBA94203D90C233360002070BD00F07F
:102FB0005BF8234A1468214691B9224C23681BB957
:102FC000304600F041F820602946304600F03CF8D9
:102FD000431C26D10C233360304600F046F8E4E76A
:102FE0000B685B1B1AD40B2B0FD90B60CD50CC1880
:102FF000304600F03AF804F10B00231D20F00700E2
:10300000C31A1BD05A42E25070BD8C420DBF636898
:103010004B686360136018BF0C46E9E70C464968CB
:10302000CAE7C41C24F00304A04205D0211A30468C
:1030300000F00AF80130CDD02560D9E770BD00BF9F
:103040008C0400209004002038B5064C002305466F
:1030500008462360FDF76AF9431C02D1236803B1D7
:103060002B6038BD48050020704770470000000005
:1030700000000000000000000000000C0000000044
:1030800000000000000000000000000001000080BF
:10309000010000800100008001000080010000802C
:1030A000010000800100008001000080010000801C
:1030B00001000080020000400200004002000040C9
:1030C00002000040020000400200004002000040F8
:1030D00002000040020000400200004002000040E8
:1030E00002000040020000400200004002000040D8
:1030F00002000040020000400200004002000040C8
:1031000002000040020000400200004002000040B7
:1031100002000040020000400200004002000040A7
:103120000200004002000040020000400200004097
:103130000200004002000040020000400200004087
:103140000200004002000040020000400200004077
:103150000200004002000040020000400200004067
:103160000200004002000040020000400200004057
:103170000200004002000040020000400000000089
:10318000FFFFFFFF00000000000000000000000043
:10319000000000000000000000000000000000002F
:1031A000000000000000000000000000000000001F
:1031B000000000000000000000000000000000000F
:1031C00000000000000000000000000000000000FF
:1031D00000000000000000000000000000000000EF
:1031E00000000000000000000000000000000000DF
:1031F00000000000000000000000000000000000CF
:1032000000000000000000000000000000000000BE
:1032100000000000000000000000000000000000AE
:10322000000000000000000000000000000000009E
:10323000000000000000000000000000000000008E
:10324000000000000000000000000000000000007E
:10325000000000000000000000000000000000006E
:10326000000000000000000000000000000000005E
:10327000000000000000000000000000000000004E
:10328000000000000000000000000000000000003E
:10329000000000000000000000000000000000002E
:1032A000000000000000000000000000000000001E
:1032B000000000000000000000000000000000000E
:1032C00000000000000000000000000000000000FE
:1032D00000000000000000000000000000000000EE
:1032E00000000000000000000000000000000000DE
:1032F00000000000000000000000000000000000CE
:1033000000000000000000000000000000000000BD
:1033100000000000C00000000000000000000000ED
:10332000000000000000000000000000A9A9A9A9F9
:10333000A9A9A9A9A9A9A9A9A9A9A9A9A9A9A9A9FD
:10334000A9A9A9A9A9A9A9A1A9A929A1A8A921812E
:10335000A8A90581A8A10505A88005158800155410
:1033600080040454825414544256145446565654FD
:103370004656565456565656565656565656525207
:103380005656525256565252565252525652525205
:1033900052525242525252425A4A4A4A6A6A6A6ADD
:1033A0006A6A6A6A00000000FFFFFFFF0000000079
:1033B000000000000000000000000000000000000D
:1033C00000000000000000000000000000000000FD
:1033D00000000000000000000000000000000000ED
:1033E00000000000000000000000000000000000DD
:1033F00000000000000000000000000000000000CD
:1034000000000000000000000000000000000000BC
:1034100000000000000000000000000000000000AC
:10342000000000000000000000000000000000009C
:10343000000000000000000000000000000000008C
:10344000000000000000000000000000000000007C
:10345000000000000000000000000000000000006C
:10346000000000000000000000000000000000005C
:10347000000000000000000000000000000000004C
:10348000000000000000000000000000000000003C
:10349000000000000000000000000000000000002C
:1034A000000000000000000000000000000000001C
:1034B000000000000000000000000000000000000C
:1034C00000000000000000000000000000000000FC
:1034D00000000000000000000000000000000000EC
:1034E00000000000000000000000000000000000DC
:1034F00000000000000000000000000000000000CC
:1035000000000000000000000000000000000000BB
:1035100000000000000000000000000000000000AB
:103520000000000000000000000000002A06150056
:103530000000000000002806140000000000000049
:103540002006100000000000000014062800000003
:103550000000000000000000000000000000000269
:10356000020A0000000808020002020A000000002F
:10357000000000000000000000000000000000004B
:10358000000000000000000000000000000000003B
:103590002222222222000000000000000000000081
:1035A0000000012A00000000000000000A55000091
:1035B000000000000000000000000000000000000B
:1035C00000000000000000000000000005050005EC
:1035D00003050500000000000000000000000000DE
:1035E00000000000000000000000000000000000DB
:1035F0000000000000000000000000002222222243
:1036000022000000241818180018181008000000E4
:103610000000000000000000411111110100000035
:1036200000000000101818281818181808000000CA
:1036300000000000000000003312221311000000FF
:10364000000000002E041100000000000000000037
:103650000000000010000000000100000001000058
:1036600000010410000144000000400000000000C0
:103670000000400000000000000140100005401064
:1036800000000000001451000000000000000000D5
:103690001000000010000000000140000011400078
:1036A0000001041000014400000040000000000080
:1036B000000144100001000000014010000540100E
:1036C0000001000000155100000010001000000073
:1036D0001000000010000000000140000011401028
:1036E00000010410001144000001400000004010DF
:1036F0000041441000010000001544100045441032
:10370000000104000015510000001000100000002E
:1037100010000000100000000001440000114010E3
:10372000000104100011440000414000000040105E
:10373000004544100001401000154410004544109D
:103740000005441000255100040010001000000086
:10375000100040001000400000014410001540100F
:1037600000050410001144100041400000114010F9
:103770000045441000014410001544100045441059
:1037800000054410002551000411540010004000B1
:103790001001400010414400000144100055401049
:1037A0000445041000554410004544000011401029
:1037B0000045441000014410001544100045441019
:1037C0000005541000255100041154001001400060
:1037D00010014000104144000005441000554414FD
:1037E0000445541000554410004544100011441085
:1037F000004544100005441000555414004554146D
:1038000000055410002551000455541014015000B7
:1038100010514410144144100045541004554414F0
:103820000445541000554410004544100055441000
:103830000045541400154414005554140045551403
:10384000000554140029510004555410140150105F
:103850001051541014414410005554100455441490
:103860000445541400554414104554140055441094
:1038700000455414001554140055541400455514B3
:10388000000554140029510014555410140150100F
:103890001055541414414410105554100455541428
:1038A0000445541400554414104554140455541040
:1038B0000045541400155414005554140055551463
:1038C000000554140029A10014555410140150147B
:1038D00010555414144154101455541404555414D0
:1038E00014455414105544141045541404555414DC
:1038F0000045541400155414005555141155551411
:1039000011055414002AA20018555414140150141F
:10391000105554141441541414555414045554148B
:10392000144554141055541410455414045554148B
:1039300000455414111554140155551411555515BD
:1039400011055514106AA200185555141445541445
:10395000105554141441541414555414145555143A
:103960001545551411555414114554141555541436
:10397000014554141115541401555514115555157C
:103980001105551410AAA6001855551415455414C0
:1039900010555414144554141455541414555515F5
:1039A00015455515155554141545541415555414ED
:1039B000014554141115541411555514115555152C
:1039C0001105551411AAA61018655515154555145D
:1039D00014555414144554141455541415555515B0
:1039E000154555151565541415455414155554149D
:1039F000115555141155541411555514115555158B
:103A00001105551411AAA61018A5A9555545551408
:103A100014555414158555141555991515655515D6
:103A20001545591515655914158555151555551410
:103A3000119555141155541411555514115555150A
:103A40005105555551AAAA1018A5A95559555515EE
:103A500015A555155585991415569915156555557E
:103A6000155559551565995515959515156595145F
:103A70001195551411565414116555545195955579
:103A80005115555551AAAA1028AAA9556955951539
:103A900025A59515698599141596991515AA955515
:103AA000159A595555A699551595995515A59514D5
:103AB0001195991411669514116999555199955557
:103AC0005115595555AAAA5428AAA9556996A5551C
:103AD00025A699556986995419AA995515AA9555F7
:103AE000559A996555AA9955159A995555A59914B8
:103AF000159699145166991411AA995555AA955578
:103B00005115995555AAAA6428AAA9656996A5557B
:103B100025AAA9556996995419AAA96519AA95655E
:103B2000599A996555AA9955159A995555AA99245E
:103B3000159A9925556A991411AA996555AAA965E6
:103B4000511A995555AAAAA528AAA96569AAA565D1
:103B500069AAA9656996A96459AAA96559AAA96516
:103B6000599AA96555AA9965559A995555AA99647E
:103B7000559A9965556A992415AA996555AAA96512
:103B8000511AA95555AAAAA568AAAAA569AAA965FC
:103B900069AAA965699AA96559AAA96559AAA965D1
:103BA000599AA96555AAA965559AA96559AAA964FA
:103BB00055AAA96555AAA92415AAA96555AAA96552
:103BC000511AA96555AAAAAA68AAAAAA68AAAA699E
:103BD00069AAA969699AA96569AAA96559AAAA6978
:103BE00059AAAA6555AAA96555AAA96559AAA96598
:103BF00055AAA96555AAA96455AAA96555AAAA6591
:103C0000552AA96555AAAAAAA8AAAAAAA8AAAA6AC8
:103C100069AAA96969AAAA6969AAA96959AAAA691E
:103C200059AAAA6959AAA96969AAA96959AAAA6532
:103C300055AAA96955AAA96955AAAA6955AAAA693E
:103C4000552AAA6555AAAAAAA8AAAAAAAAAAAAAA45
:103C500068AAAAAA68AAAAA968AAAA6A68AAAAAA0D
:103C600068AAAA6A68AAA96968AAAA6958AAAA69D0
:103C700054AAAA6954AAA96954AAAA6954AAAA6A00
:103C8000542AAA6955AAAAAAA8AAAAAAAAAAAAAA02
:103C900068AAAAAAA8AAAAA968AAAAAA68AAAAAA4D
:103CA00068AAAAAA68AAAAA968AAAAAA68AAAA69BE
:103CB00058AAAA6964AAAA6954AAAAA964AAAAAA1B
:103CC000642AAA69599AAAAAAAAAAAAAAAAAAAAABC
:103CD0006AAAAAAAAAAAAAAA6AAAAAAA6AAAAAAA04
:103CE0006AAAAAAA6AAAAAAA6AAAAAAA6AAAAA6975
:103CF0006AAAAA696AAAAA696AAAAAA96AAAAAAAA7
:103D0000A62AAAAA68AAAAAAAAAAAAAAAAAAAAAAD9
:103D1000AAAAAAAAAAAAAAAAAAAAAAAA6AAAAAAA43
:103D20006AAAAAAAAAAAAAAA6AAAAAAAAAAAAAA974
:103D30006AAAAAAAAAAAAA696AAAAAAAAAAAAAAAA4
:103D4000A62AAAAAA84AAAAAAAAAAAAAAAAAAAAAB9
:103D5000AAAAAAAAAAAAAAAAAAAAAAAAAAAAAAAAC3
:103D6000AAAAAAAAAAAAAAAA6AAAAAAAAAAAAAAAF3
:103D7000AAAAAAAAAAAAAAA96AAAAAAAAAAAAAAAE4
:103D8000A62AAAAAAA4AAAAAAAAAAAAAAAAAAAAA77
:103D9000AAAAAAAAAAAAAAAAAAAAAAAAAAAAAAAA83
:103DA000AAAAAAAAAAAAAAAAAAAAAAAAAAAAAAAA73
:103DB000AAAAAAAAAAAAAAAA6AAAAAAAAA9AAAAAB3
:103DC000AA1AAAAAAA4AAAAAAA6AAAAAAA6AAAAAC3
:103DD000AA6AAAAAAA6AAAAAAAAAAAAAAAAAAAAAC3
:103DE000AAAAAAAAAA9AAAAAAA6AAAAAAA6AAAAAC3
:103DF000AA6AAAAAAA5AAAAAAAAAAAAAAAAAAAAAB3
:103E0000AA2AAAAAAA4AAAAAAA6AAAAAAA6AAAAA72
:103E1000AA6AAAAAAA6AAAAAAA6AAAAAAA6AAAAA02
:103E2000AA6AAAAAAA6AAAAAAA6AAAAAAA6AAAAAF2
:103E3000AA5AAAAAAA6AAAAAAA6AAAAAAA4AAAAA12
:103E4000AA4AAAAAAA4AAAAAAA5AAAAAAA5AAAAA32
:103E5000AA5AAAAAAA6AAAAAA66AAAAAAA6AAAAAD6
:103E6000AA5AAAAAAA4AAAAAAA5AAAAAAA5AAAAA02
:103E7000AA6AAAAAAA49AAAAAA5AAAAAAA4A9AAA03
:103E8000AA4AAAAAAA52AAAAA66A2AAAA66AAAAA52
:103E9000A66AAAAAA66AAAAAAA6AA2AAAA529AAABA
:103EA000AA622AAAAA4A9AAAAA6AA2AAAA6A2AAAB2
:103EB000AA4AAAAAAA4A2AAAAA62AAAAAA4A2AAACA
:103EC000AA4A22AAA612AAAAAA4A226AAA4AAAAA5E
:103ED000AA4AAAAAAA5A22AAA25A22AAAA62AA6AE2
:103EE000AA4222AAAA42A2AAAA42A2AAAA4220AAF4
:103EF000AA4AAAAAAA402AAAA642A26AAA4A0A6A60
:103F0000AA4A12AAAA1552AAA24212AAA2429AAA7E
:103F1000A2429A6AA262126AA26212AAAA4288AA5B
:103F2000AA4220AAAA4202AAAA42226AAA4210AA25
:103F3000A64AAA6AA640106AAA4222AAA6420AAAC9
:103F4000AA4220AAA216626AA211622AA2116A6972
:103F5000A21162AAA21162A9A251626AA651482ABC
:103F6000A651506AA651426AA65150AAA65160694C
:103F7000AA5950A9AA5060A9A251522AAA514A2A64
:103F8000AA514069A21552AAA2164229A21648AA0D
:103F9000A2164229A216402AA21642A9AA16482908
:103FA000AA1660A9AA1642AAAA166029AA1640AAA9
:103FB000A216602A2214402AA2566029A2564A2933
:103FC000265640AAA2555519A255541A22555418DE
:103FD000A255541AA2555418A255541AA255541A4F
:103FE000A255541AA2555419A255541A22555418C0
:103FF0002255541822555418A255541A2255541AB1
:104000002A5554182255552A2655552826555528DF
:10401000A65555282655552826555528A6555528C0
:10402000A65555282655552AA655552826555528AE
:1040300026555528265555282655552826555528A0
:10404000265555282655555406555554065555544C
:104050000655555406555554265555542655555410
:1040600026555554265555542655555426555554C0
:1040700026555554265555542655555426555554B0
:104080002655555426555555545555555455555541
:1040900054555555545555555455555554555555D4
:1040A00054555555545555555455555554555555C4
:1040B00054555555545555555455555554555555B4
:1040C00054555555545555555455555554555555A4
:1040D0005455555554555555545555555455555594
:1040E0005455555554555555545555555455555584
:1040F0005455555554555555545555555455555574
:10410000545555555454AAAAA854AAAAA854AAAAC0
:10411000A854AAAAA854AAAAA854AAAAA854AAAA5F
:10412000A854AAAAA854AAAAA854AAAAA854AAAA4F
:10413000A854AAAAA854AAAAA854AAAAA854AAAA3F
:10414000A854AAAAA8500000085000000850000077
:1041500008500000085000000850000008500000FF
:1041600008500000085000000850000008500000EF
:1041700008500000085000000850000008500000DF
:1041800008500000084000000840000008400000FF
:1041900008400000084000000840000008400000FF
:1041A00008400000084000000840000008400000EF
:1041B00008400000084000000840000008400000DF
:1041C000084000000800000000000000000000009F
:1041D00000000000000000000000000000000000DF
:1041E00000000000000000000000000000000000CF
:1041F00000000000000000000000000000000000BF
:1042000000000000000000000000000000000000AE
:10421000000000000000000000000000000000009E
:10422000000000000000000000000000000000008E
:10423000000000000000000000000000000000007E
:10424000000000000000000000000000000000006E
:10425000000000000000000000000000000003FF5C
:10426000FFFFFFFFFFFFFF800000000000000000D5
:1042700000000000000000001EAAAAAAAAAAAAAA7A
:10428000AAF0000000000000000000000000000094
:1042900000003AAAAAAAAAAAAAAAAAA800000000EC
:1042A0000000000000000000000000007AAAAAAA96
:1042B000AAAAAAAAAAAC0000000000000000000000
:1042C0000000000000007AAAAAAAAAAAAAAAAAAC78
:1042D00000000000000000000000000000000000DE
:1042E0007AAAAAAAAAAAAAAAAAAC00000000000058
:1042F000000000000000000000007AAAAAAAAAAAF2
:10430000AAAAAAAC00000000000000000000000003
:10431000000000007AAAAAAAAAAAAAAAAAAC000027
:1043200000000000000000000000000000007AAA69
:10433000AAAAAAAAAAAAAAAC00000000000000002B
:1043400000000000000000007AAAAAAAAAAAAAAA4D
:10435000AAAC000000000000000000000000000007
:1043600000007AAAAAAAAAAAAAAAAAAC00000000D7
:104370000000000000000000000000007AAAAAAAC5
:10438000AAAAAAAAAAAC000000000000000000002F
:104390000000000000007AAAAAAAAAAAAAAAAAACA7
:1043A000000000000000000000000000000000000D
:1043B0007AAAAAAAAAAAAAAAAAAC00000000000087
:1043C000000000015555555555557AAAAAAAAAAA22
:1043D000AAAAAAAD55555555555540000016FFFFE0
:1043E000FFFFFFFFFAAAAAAAAAAAAAAAAAAFFFFFDA
:1043F000FFFFFFFF9400006FFFFFFFFFEAAAAAAADA
:10440000AAAAAAAAAAAAAAAAAAAAAAAAAAAFF90062
:1044100001FFFFFFFFFEAAAAAAAAAAAAAAAAAAAAFD
:10442000AAAAAAAAAAAAAAAFFF4007FFFFFFFFFAFB
:10443000AAAAAAAAAAAAAAAAAAAAAAAAAAAAAAAADC
:10444000AAAFFFD00BFFFFFFFFEAAAAAAAAAAAAA57
:10445000AAAAAAAAAAAAAAAAAAAAAAAFFFE00FFF72
:10446000FFFFFFAAAAAAAAAAAAAAAAAAAAAAAAAAAD
:10447000AAAAAAAAAAAFFFF01FFFFFFFFEAAAAAA34
:10448000AAAAAAAAAAAAAAAAAAAAAAAAAAAAAAAF87
:10449000FFF41FFFFFFFFAAAAAAAAAAAAAAAAAAA19
:1044A000AAAAAAAAAAAAAAAAAAAFFFF82FFFFFFF40
:1044B000EAAAAAAAAAAAAAAAAAAAAAAAAAAAAAAA1C
:1044C000AAAAAAAFFFF82FFFFFFFAAAAAAAAAAAA20
:1044D000AAAAAAAAAAAAAAAAAAAAAAAAAAAFFFF894
:1044E0002FFFFFFEAAAAAAAAAAAAAAAAAAAAAAAAA9
:1044F000AAAAAAAAAAAAAAAFFFF82FFFFFFAAAAAF5
:10450000AAAAAAAAAAAAAAAAAAAAAAAAAAAAAAAA0B
:10451000AAAFFFF82FFFFFEAAAAAAAAAAAAAAAAAE4
:10452000AAAAAAAAAAAAAAAAAAAAAAAFFFF82FFF69
:10453000FFEAAAAAAAAAAAAAAAAAAAAAAAAAAAAA46
:10454000AAAAAAAAAAAFFFF82FFFFFAAAAAAAAAAF4
:10455000AAAAAA555555555555555556AAAAAAAFB2
:10456000FFF82FFFFFAAAAAAAAAAAAAAAA000000D7
:10457000000000000005AAAAAAAFFFF82FFFFEAABC
:10458000AAAAAAAAAAAAAA00000000000000000580
:10459000AAAAAAAFFFF82FFFFEAAAAAAAAAAAAAAA5
:1045A000AA000000000000000005AAAAAAAFFFF8B8
:1045B0002FFFFEAAAAAAAAAAAAAAAA00000000007F
:1045C00000000005AAAAAAAFFFF82FFFFEAAAAAA18
:1045D000AAAAAAAAAA000000000000000005AAAA30
:1045E000AAAFFFF82FFFFEAAAAAAAAAAAAAAAA00FF
:1045F0000000000000000005AAAAAAAFFFF82FFFE4
:10460000FEAAAAAAAAAAAAAAAA000000000000005C
:104610000005AAAAAAAFFFF82FFFFEAAAAAAAAAA73
:10462000AAAAAA000000000000000005AAAAAAAFDA
:10463000FFF82FFFFEAAAAAAAAAAAAAAAA00000007
:10464000015500000005AAAAAAAFFFF82FFFFEAA95
:10465000AAAAAAAAAAAAAA0000015AFE94000005C2
:10466000AAAAAAAFFFF82FFFFEAAAAAAAAAAAAAAD4
:10467000AA000016FFFFFE800005AAAAAAAFFFF855
:104680002FFFFEAAAAAAAAAAAAAAAA00006FFFFF41
:10469000FFD40005AAAAAAAFFFF82FFFFEAAAAAA74
:1046A000AAAAAAAAAA0001BFFFFFFFFD0005AAAAA5
:1046B000AAAFFFF82FFFFEAAAAAAAAAAAAAAAA002E
:1046C00007FFFFFFFFFF4005AAAAAAAFFFF82FFFD1
:1046D000FEAAAAAAAAAAAAAAAA001FFFFFFFFFFF72
:1046E000D005AAAAAAAFFFF82FFFFEAAAAAAAAAAD3
:1046F000AAAAAA006FFFFFFFFFFFF405AAAAAAAFAC
:10470000FFF82FFFFEAAAAAAAAAAAAAAAA01BFFF77
:10471000FFFFFFFFF805AAAAAAAFFFF82FFFFEAA26
:10472000AAAAAAAAAAAAAA01FFFFFFFFFFFFFD05E6
:10473000AAAAAAAFFFF82FFFFEAAAAAAAAAAAAAA03
:10474000AA06FFFFFFFFFFFFFF05AAAAAAAFFFF817
:104750002FFFFEAAAAAAAAAAAAAAAA06FFFFFFFFDB
:10476000FFFFFF45AAAAAAAFFFF82FFFFEAAAAAA39
:10477000AAAAAAAAAA07FFFFFFFFFFFFFF85AAAA0E
:10478000AAAFFFF82FFFFEAAAAAAAAAAAAAAAA1B42
:10479000FFFFFFFFFFFFFFC5AAAAAAAFFFF82FFF89
:1047A000FEAAAAAAAAAAAAAAAA1BFFFFFFFFEBFFBA
:1047B000FFC5AAAAAAAFFFF82FFFFEAAAAAAAAAB12
:1047C000FAAAAA1BFFFFFFF9557FFFC5AAAAAAAF45
:1047D000FFF82FFFFEAAAAAABFFFFEAAAA1BFFFF8F
:1047E000FFE4001FFFC5AAAAAAAFFFF82FFFFEAA89
:1047F000ABFFFFFFFAAAAA1BFFFFFF900007FFC550
:10480000AAAAAAAFFFF82FFFFEAAAFFFFFAAAAAA83
:10481000AA1BFFFFFF800001FFC5AAAAAAAFFFF8ED
:104820002FFFFEAAAFFEBEAAAAAAAA17FFFFFF404B
:104830000000FF85AAAAAAAFFFF82FFFFEAAAAAA26
:10484000BEAAAAAAAA06FFFFFF400000FF45AAAA27
:10485000AAAFFFF82FFFFEAAAAAABEAAAAAAAA0672
:10486000FFFFFF400000FF05AAAAAAAFFFF82FFF35
:10487000FEAAAAAAFEAAAAAAAA01FFFFFF40000256
:10488000FE05AAAAAAAFFFF82FFFFEAAAAAAFEAAAF
:10489000AAAAAA01BFFFFFD00003FC05AAAAAAAFDB
:1048A000FFF82FFFFEAAAAAAFEAAAAAAAA007FFFC3
:1048B000FFE4000FF405AAAAAAAFFFF82FFFFEAA93
:1048C000AAAAFEAAAAAAAA001FFFFFFD007FE00570
:1048D000AAAAAAAFFFF82FFFFEAAAAAAFEAAAAAA0E
:1048E000AA001BFFFFFFFFFFC005AAAAAAAFFFF89F
:1048F0002FFFFEAAAAAAFEAAAAAAAA0006FFFFFFE5
:10490000FFFF0005AAAAAAAFFFF82FFFFEAAAAAAD6
:10491000FEAAAAAAAA00007FFFFFFFF80005AAAA24
:10492000AAAFFFF82FFFFEAAAAAAFAAAAAAAAA006B
:10493000001BFFFFFFC00005AAAAAAAFFFF82FFFC8
:10494000FEAAAAAAFAAAAAAAAA000001BFFFF940D1
:104950000005AAAAAAAFFFF82FFFFEAAAAAAFAAAE0
:10496000AAAAAA000000055550000005AAAAAAAFED
:10497000FFF82FFFFEAAAAAAFAAAAAAAAA00000074
:10498000000000000005AAAAAAAFFFF82FFFFEAAA8
:10499000AAABFAAAAAAAAA0000000000000000051B
:1049A000AAAAAAAFFFF82FFFFEAAAAABFAAAAAAA40
:1049B000AA000000000000000005AAAAAAAFFFF8A4
:1049C0002FFFFEAAAAABFAAAAAAAAA00000000001A
:1049D00000000005AAAAAAAFFFF82FFFFEAAAAAB03
:1049E000FAAAAAAAAA000000000000000005AAAACC
:1049F000AAAFFFF82FFFFEAAAAABFAAAAAAAAA009A
:104A00000000000000000005AAAAAAAFFFF82FFFCF
:104A1000FEAAAAABFAAAAAAAAA00000000000000F7
:104A20000005AAAAAAAFFFF82FFFFEAAAAABFAAA0E
:104A3000AAAAAA000000000000000005AAAAAAAFC6
:104A4000FFF82FFFFEAAAAABFAAAAAAAAA000000A2
:104A5000000000000005AAAAAAAFFFF82FFFFEAAD7
:104A6000AAABFAAAAAAAAA0000000000000000054A
:104A7000AAAAAAAFFFF82FFFFEAAAAABFAAAAAAA6F
:104A8000AA000000000000000005AAAAAAAFFFF8D3
:104A90002FFFFEAAAAABFAAAAAAAAA000000000049
:104AA00000000005AAAAAAAFFFF82FFFFEAAAAAB32
:104AB000FAAAAAAAAA000000000000000005AAAAFB
:104AC000AAAFFFF82FFFFEAAAAAAFAAAAAAAAA00CA
:104AD0000000055400000005AAAAAAAFFFF82FFFA6
:104AE000FEAAAAAAFAAAAAAAAA000001BFFFF94030
:104AF0000005AAAAAAAFFFF82FFFFEAAAAAAFAAA3F
:104B0000AAAAAA00001BFFFFFFC00005AAAAAAAF1D
:104B1000FFF82FFFFEAAAAAAFAAAAAAAAA00007F53
:104B2000FFFFFFF80005AAAAAAAFFFF82FFFFEAA11
:104B3000AAAAFEAAAAAAAA0006FFFFFFFFFF000575
:104B4000AAAAAAAFFFF82FFFFEAAAAAAFEAAAAAA9B
:104B5000AA001BFFFFFFFFFFC005AAAAAAAFFFF82C
:104B60002FFFFEAAAAAAFEAAAAAAAA001FFFFFFF59
:104B7000FFFFE005AAAAAAAFFFF82FFFFEAAAAAA84
:104B8000FEAAAAAAAA007FFFFFFFFFFFF405AAAAB8
:104B9000AAAFFFF82FFFFEAAAAAAFEAAAAAAAA01F4
:104BA000BFFFFFFFFFFFFC05AAAAAAAFFFF82FFF78
:104BB000FEAAAAAAFEAAAAAAAA01FFFFFFFFFFFF58
:104BC000FE05AAAAAAAFFFF82FFFFEAAAAAAFEAA6C
:104BD000AAAAAA06FFFFFFFFFFFFFF05AAAAAAAF26
:104BE000FFF82FFFFEAAAAAABEAAAAAAAA06FFFF3A
:104BF000FFFFFFFFFF45AAAAAAAFFFF82FFFFEAAFB
:104C0000ABEABEAAAAAAAA17FFFFFFFFFFFFFF8514
:104C1000AAAAAAAFFFF82FFFFEAAAFFFFFAAAAAA6F
:104C2000AA1BFFFFFFFFFFFFFFC5AAAAAAAFFFF85D
:104C30002FFFFEAAABFFFFFFEAAAAA1BFFFFFFFEA2
:104C400095BFFFC5AAAAAAAFFFF82FFFFEAAAAAB7D
:104C5000FFFFFAAAAA1BFFFFFFF4001FFFC5AAAAC5
:104C6000AAAFFFF82FFFFEAAAAAAAABFFAAAAA1BF8
:104C7000FFFFFFD00007FFC5AAAAAAAFFFF82FFFCA
:104C8000FEAAAAAAAAAAAAAAAA1BFFFFFF9000032B
:104C9000FFC5AAAAAAAFFFF82FFFFEAAAAAAAAAA2E
:104CA000AAAAAA1BFFFFFF400001FFC5AAAAAAAF3C
:104CB000FFF82FFFFEAAAAAAAAAAAAAAAA07FFFF7C
:104CC000FF400000FF85AAAAAAAFFFF82FFFFEAAA7
:104CD000AAAAAAAAAAAAAA06FFFFFF400000FF05E7
:104CE000AAAAAAAFFFF82FFFFEAAAAAAAAAAAAAA4E
:104CF000AA06FFFFFF400001FF05AAAAAABFFFF80E
:104D00002FFFFEAAAAAAAAAAAAAAAA01FFFFFF9099
:104D10000003FD05AAAAAABFFFF82FFFFEAAAAAAB0
:104D2000AAAAAAAAAA01BFFFFFD0000BF805AAAA47
:104D3000AABFFFF82FFFFEAAAAAAAAAAAAAAAA0097
:104D40006FFFFFF8002FF405AAAAAABFFFF82FFFF4
:104D5000FEAAAAAAAAAAAAAAAA001FFFFFFEAABF81
:104D6000D005AAAAAABFFFF82FFFFEAAAAAAAAAA3C
:104D7000AAAAAA0007FFFFFFFFFF4005AAAAAABF31
:104D8000FFF82FFFFEAAAAAAAAAAAAAAAA0001BFF0
:104D9000FFFFFFFD0005AAAAAABFFFF82FFFFEAA8A
:104DA000AAAAAAAAAAAAAA00006FFFFFFFD4000518
:104DB000AAAAAABFFFF82FFFFEAAAAAAAAAAAAAA6D
:104DC000AA000016FFFFFE800005AAAAAABFFFF8EE
:104DD0002FFFFEAAAAAAAAAAAAAAAA0000015AFEFE
:104DE00094000005AAAAAABFFFF82FFFFEAAAAAA4C
:104DF000AAAAAAAAAA000000015500000005AAAAB2
:104E0000AABFFFF82FFFFEAAAAAAAAAAAAAAAA00C6
:104E10000000000000000005AAAAAABFFFF82FFFAB
:104E2000FEAAAAAAAAAAAAAAAA0000000000000034
:104E30000005AAAAAABFFFF82FFFFEAAAAAAAAAA3B
:104E4000AAAAAA000000000000000005AAAAAABFA2
:104E5000FFF82FFFFEAAAAAAAAAAAAAAAA000000DF
:104E6000000000000005AAAAAABFFFF82FFFFEAAB3
:104E7000AAAAAAAAAAAAAA00000000000000000587
:104E8000AAAAAABFFFF82FFFFEAAAAAAAAAAAAAA9C
:104E9000AA000000000000000005AAAAAABFFFF8AF
:104EA0002FFFFEAAAAAAAAAAAAAAAA000000000086
:104EB00000000005AAAAAABFFFF82FFFFEAAAAAA0F
:104EC000AAAAAAAAAA000000000000000005AAAA37
:104ED000AABFFFF82FFFFEAAAAAAAAAAAAAAAA55A1
:104EE0005555555555555556AAAAAAFFFFF82FFFF7
:104EF000FEAAAAAAAAAAAAAAAAAAAAAAAAAAAAAABE
:104F0000AAAAAAAAAAFFFFF82FFFFEAAAAAAAAAADB
:104F1000AAAAAAAAAAAAAAAAAAAAAAAAAAAAABFF9B
:104F2000FFF82FFFFEAAAAAAAAAAAAAAAAAAAAAA10
:104F3000AAAAAAAAAAAAAAAAABFFFFF82FFFFEAAAA
:104F4000AAAAAAAAAAAAAAAAAAAAAAAAAAAAAAAAC1
:104F5000AAAAAFFFFFF82FFFFEAAAAAAAAAAAAAA86
:104F6000AAAAAAAAAAAAAAAAAAAAAAAABFFFFFF894
:104F70002FFFFEAAAAAAAAAAAAAAAAAAAAAAAAAA63
:104F8000AAAAAAAAAAAAFFFFFFF82FFFFEAAAAAA06
:104F9000AAAAAAAAAAAAAAAAAAAAAAAAAAAAAAAB70
:104FA000FFFFFFF81FFFFEAAAAAAAAAAAAAAAAAAF6
:104FB000AAAAAAAAAAAAAAAAAAAFFFFFFFF40FFF49
:104FC000FEAAAAAAAAAAAAAAAAAAAAAAAAAAAAAAED
:104FD000AAAAAABFFFFFFFF00BFFFEAAAAAAAAAACD
:104FE000AAAAAAAAAAAAAAAAAAAAAAAAAAFFFFFF22
:104FF000FFE007FFFEAAAAAAAAAAAAAAAAAAAAAA80
:10500000AAAAAAAAAAAAABFFFFFFFFD001FFFEAA85
:10501000AAAAAAAAAAAAAAAAAAAAAAAAAAAAAAAAF0
:10502000AFFFFFFFFF40006FFFAAAAAAAAAAAAAA81
:10503000AAAAAAAAAAAAAAAAAAABFFFFFFFFF900D6
:105040000016FFFFFFFFFFFFFAAAAAAAAAAAAAAAB0
:10505000AAAFFFFFFFFFFFFFD400000155555555D4
:1050600055557AAAAAAAAAAAAAAAAAAD55555555CB
:105070005555400000000000000000007AAAAAAACE
:10508000AAAAAAAAAAAC0000000000000000000022
:105090000000000000007AAAAAAAAAAAAAAAAAAC9A
:1050A0000000000000000000000000000000000000
:1050B0007AAAAAAAAAAAAAAAAAAC0000000000007A
:1050C000000000000000000000007AAAAAAAAAAA14
:1050D000AAAAAAAC00000000000000000000000026
:1050E000000000007AAAAAAAAAAAAAAAAAAC00004A
:1050F00000000000000000000000000000007AAA8C
:10510000AAAAAAAAAAAAAAAC00000000000000004D
:1051100000000000000000007AAAAAAAAAAAAAAA6F
:10512000AAAC000000000000000000000000000029
:1051300000007AAAAAAAAAAAAAAAAAAC00000000F9
:105140000000000000000000000000007AAAAAAAE7
:10515000AAAAAAAAAAAC0000000000000000000051
:105160000000000000007AAAAAAAAAAAAAAAAAACC9
:10517000000000000000000000000000000000002F
:105180007AAAAAAAAAAAAAAAAAAC000000000000A9
:10519000000000000000000000003AAAAAAAAAAA83
:1051A000AAAAAABC00000000000000000000000045
:1051B000000000001EAAAAAAAAAAAAAAAAF0000091
:1051C000000000000000000000000000000003FFDD
:1051D000FFFFFFFFFFFFFFC0000000000000000016
:1051E00000000000000000000000000000000000BF
:1051F00000000000000000000000000000000000AF
:10520000000000000000000000000000000000009E
:10521000000000000000000000000000000000008E
:10522000000000000000000000000000000000007E
:10523000000000000000000000000000000000006E
:10524000000000000000000000000000000000005E
:10525000000000000000000000000000000000004E
:10526000000000000000000000000000000000003E
:1052700000000000000000000001F000000000003D
:105280000001FE00000000000001FFC0000000005F
:105290000001FFF8000000000001FFFF0000000017
:1052A0000001FFFFF00000000001FFFFFE00000012
:1052B0000001FFFFFFC000000001FFFFFFF800003A
:1052C0000001FFFFFFFC00000001FFFFFFFC60008A
:1052D0000001FFFFFFFC7C000001FFFFFFFC7F805F
:1052E0000001FFFFFFFC7FC00001FFFFFFFC7FC04C
:1052F0000001FFFFFFFC7FC00001FFFFFFFC7FC03C
:105300000001FFFFFFFC7FC00001FFFFFFFC7FC02B
:105310000000FFFFFFFC7FC000003FFFFFFC7FC0DD
:10532000000003FFFFFC7FC00000007FFFFC7FC088
:105330000000000FFFFC7FC00001F001FFFC7FC0F8
:105340000001FE003FFC7FC00001FFC007FC7FC0E2
:105350000001FFF800FC7FC00001FFFF001C7FC0C0
:105360000001FFFFF0007FC00001FFFFFE003FC013
:105370000001FFFFFFC007C00001FFFFFFF800C0F2
:105380000001FFFFFFFC00000001FFFFFFFC7000B9
:105390000001FFFFFFFC7E000001FFFFFFFC7F809C
:1053A0000001FFFFFFFC7FC00001FFFFFFFC7FC08B
:1053B00000003FFFFFFC7FC0000007FFFFFC7FC035
:1053C000000000FFFFFC7FC00000001FFFFC7FC04B
:1053D00000000007FFFC7FC00000003FFFFC7FC013
:1053E000000001FFFFFC7FC000001FFFFFFC7FC02B
:1053F0000000FFFFFFFC7FC00001FFFFFFFC7FC03C
:105400000001FFFFFFFC7FC00001FFFFFFFC7FC02A
:105410000001FFFFFFFC7FC00001FFFFFFFC7FC01A
:105420000001FFFFFFFC7FC00001FFFFFFFC7FC00A
:105430000001FFFFFFFC7FC00001FFFFFFF07FC006
:105440000001FFFFFF007FC00001FFFFF8007FC0E9
:105450000001FFFF80007FC00001FFFFC0007FC090
:105460000001FFFFF8007FC00001FFFFFF007FC0C9
:105470000001FFFFFFE07FC00001FFFFFFFC7FC0D6
:105480000001FFFFFFFC7FC00001FFFFFFFC7FC0AA
:105490000001FFFFFFFC7FC00001FFFFFFFC7FC09A
:1054A0000001FFFFFFFC7FC000007FFFFFFC7FC00B
:1054B00000000FFFFFFC7FC0000001FFFFFC7FC06A
:1054C0000000003FFFFC7FC00001E007FFFC7FC041
:1054D0000001FC00FFFC7FC00001FF801FFC7FC0BB
:1054E0000001FFF003FC7FC00001FFFE003C7FC015
:1054F0000001FFFFC01C7FC00001FFFFF8007FC05C
:105500000001FFFFFF007FC00001FFFFFFE07FC041
:105510000001FFFFFFFC7FC00001FFFFFFFC7FC019
:105520000001FFFFFFFC7FC00001FFFFFFFC7FC009
:105530000001FFFFFFFC7FC00001FFFFFFFC7FC0F9
:105540000001FFFFFFFC7FC00001FFFFFFFC7FC0E9
:105550000001FFFFFFFC7FC00001FFFFFFFC7FC0D9
:105560000001FFFFFFFC7FC00001FFFFFFFC7FC0C9
:105570000001FFFFFFFC7FC00001FF3FFFFC7FC079
:105580000001FF1FFFFC7FC00001FF1FFFFC7FC069
:105590000001FF1FFFFC7FC00001FF1FE3FC7FC075
:1055A0000001FF1FE3FC7FC00001FF1FE3FC7FC081
:1055B0000001FF1FE3FC7FC00001FF1FE3FC7FC071
:1055C0000001FF1FE3FC7FC00001FF1FE3FC7FC061
:1055D0000001FF1FE3FC7FC00001FF1FE3FC7FC051
:1055E0000001FF1FE3FC7FC00000FF1FE3FC7FC042
:1055F00000000F1FE3FC7FC00000011FE3FC7FC021
:105600000001C00FE3FC7FC00001F801E3FC7FC094
:105610000001FF0023FC7FC00001FFF003FC7FC0FE
:105620000001FFFE03FC7FC00001FFFFC07C7FC0C4
:105630000001FFFFF80C7FC00001FFFFFF007FC0EB
:105640000001FFFFFFE07FC00001FFFFFFFC7FC004
:105650000001FFFFFFFC7FC00001FFFFFFFC7FC0D8
:105660000001FFFFFFFC7FC00001FFFFFFFC7FC0C8
:105670000001FFFFFFFC7FC00001FFFFFFFC7FC0B8
:105680000001FFFFFFFC7FC00001FFFFFFFC7FC0A8
:105690000001FFFFFFFC7FC00001FFFFFFFC7FC098
:1056A0000001FFFFFFFC7FC00001FFFFFFFC7FC088
:1056B0000001FFFFFFFC7FC00001FF3FFFFC7FC038
:1056C0000001FF07FFFC7FC00001FF00FFFC7FC05F
:1056D0000001FF001FFC7FC00001FF0001FC7FC034
:1056E0000001FF00003C7FC00001FF00001C7FC0E4
:1056F0000001FF0000007FC00001FF0000007FC02C
:105700000001FF0000007FC00001FF0000007FC01B
:105710000001FF0000007FC00001FF0000007FC00B
:105720000001FF0000007FC000003F0000007FC0BC
:105730000000070000007FC00001800000007FC063
:105740000001F00000007FC00001FE0000007FC0EB
:105750000001FFC000007FC00001FFF800007FC013
:105760000001FFFF00007FC00001FFFFE0007FC0DD
:105770000001FFFFFC007FC00001FFFFFFC07FC0F2
:105780000001FFFFFFF87FC00001FFFFFFFFFFC028
:105790000001FFFFFFFFFFC00001FFFFFFFFFFC091
:1057A0000001FFFFFFFFFFC00001FFFFFFFFFFC081
:1057B0000001FFFFFFFFFFC00001FFFFFFFFFFC071
:1057C0000001FFFFFFFFFFC00001FFFFFFFFFFC061
:1057D0000001FFFFFFFFFFC00000FFFFFFFFFFC052
:1057E00000001FFFFFFFFFC0000003FFFFFFFFC01F
:1057F0000000007FFFFFFFC00001C00FFFFFFFC0E0
:105800000001FC00FFFFFFC00001FF801FFFFFC081
:105810000001FFF003FFFFC00001FFFE007FFFC09B
:105820000001FFFFC00FFFC00001FFFFF801FFC034
:105830000001FFFFFF007FC00001FFFFFFE07FC00E
:105840000001FFFFFFFC7FC00001FFFFFFFC7FC0E6
:105850000001FFFFFFFC7FC00001FFFFFFFC7FC0D6
:105860000001FFFFFFFC7FC00001FFFFFFFC7FC0C6
:105870000001FFFFFFFC7FC00001FFFFFFFC7FC0B6
:105880000001FFFFFFFC7FC00001FFFFFFFC7FC0A6
:105890000001FFFFFFFC7FC00001FFFFFFFC7FC096
:1058A0000001FFFFFFFC7FC00001FF3FFFFC7FC046
:1058B0000001FF1FFFFC7FC00001FF1FFFFC7FC036
:1058C0000001FF1FFFFC7FC00001FF1FE7FC7FC03E
:1058D0000001FF1FE3FC7FC00001FF1FE3FC7FC04E
:1058E0000001FF1FE3FC7FC00001FF1FE3FC7FC03E
:1058F0000001FF1FE3FC7FC00001FF1FE3FC7FC02E
:105900000001FF1FE3FC7FC00001FF1FE3FC7FC01D
:105910000001FF1FE3FC7FC00000FF1FE3FC7FC00E
:1059200000001F1FE3FC7FC00000031FE3FC7FC0DB
:105930000001C00FE3FC7FC00001F801E3FC7FC061
:105940000001FF0023FC7FC00001FFE003FC7FC0DB
:105950000001FFFC03FC7FC00001FFFF807C7FC0D3
:105960000001FFFFF00C7FC00001FFFFFE007FC0C1
:105970000001FFFFFFC07FC00001FFFFFFFC7FC0F1
:105980000001FFFFFFFC7FC00001FFFFFFFC7FC0A5
:105990000001FFFFFFFC7FC00001FFFFFFFC7FC095
:1059A0000001FFFFFFFC7FC00001FFFFFFFC7FC085
:1059B0000001FFFFFFFC7FC00001FFFFFFFC7FC075
:1059C0000001FFFFFFFC7FC00001FFFFFFFC7FC065
:1059D00000003FFFFFFC7FC0000007FFFFFC7FC00F
:1059E000000000FFFFFC7FC00000001FFFFC7FC025
:1059F00000000003FFFC7FC000000007FFFC7FC029
:105A00000000007FCFFC7FC0000007FFE1FC7FC0EB
:105A100000007FFFF01C7FC00001FFFFFC007FC083
:105A20000001FFFFFE007FC00001FFFFFF007FC0FD
:105A30000001FFFFFF807FC00001FFFFFFC07FC0AC
:105A40000001FFFFFFE07FC00001FFFFFFF07FC00C
:105A50000001FFFFFFF87FC00001FFFFFFFC7FC0D8
:105A60000001FFFFFFFC7FC00001FFFFFFFC7FC0C4
:105A70000001FFFFFFFC7FC00001FFFFFFFC7FC0B4
:105A80000001FFFFFFFC7FC00001FFFEFFFC7FC0A5
:105A90000001FFF87FFC7FC00001FFC03FFC7FC01A
:105AA0000001FF001FFC7FC00001FC000FFC7FC055
:105AB0000001E00007FC7FC00001800003FC7FC004
:105AC0000000000001FC7FC00000000000FC7FC05F
:105AD00000000000007C7FC000000000007C7FC050
