:020000040040BA
:10000000800A002079014000750140007501400020
:1000100075014000750140007501400000000000BE
:10002000000000000000000000000000750140001A
:10003000750140000000000075014000750140009E
:1000400075014000750140007501400075014000D8
:1000500075014000750140007501400075014000C8
:10006000750140007501400000000000750140006E
:1000700075014000750140007501400075014000A8
:100080007501400075014000750140007501400098
:100090007501400075014000750140007501400088
:1000A0007501400075014000750140007501400078
:1000B00075014000750140000000000000000000D4
:1000C0000000000000000000000000000000000030
:1000D0000000000000000000000000000000000020
:1000E0000000000000000000000000000000000010
:1000F000000000000000000000000000750140004A
:10010000750140007501400010B5054C237833B9E6
:10011000044B13B10448AFF300800123237010BDDA
:10012000B403002000000000987D42000C4B43B156
:100130000C480D4910B5AFF300800C48036823B993
:1001400010BD0A48036833B97047094B002BF7D03C
:10015000BDE810401847064B002BF5D0184700BFEC
:1001600000000000987D4200B8030020987D420006
:1001700000000000FEE7000008B5174B174A9A423E
:1001800010D0174B144A9A420CD2013B9B1A23F011
:10019000030304331344114951F8040B42F8040BD0
:1001A0009A42F9D10F4B104A9A420AD2013B9B1A4C
:1001B00023F0030304331344002142F8041B934249
:1001C000FBD10A4A0A4B23F07F039360094B9847FF
:1001D000094B9847FEE700BF00000020987D4200D1
:1001E000B40300207C040020B403002000ED00E0F4
:1001F000000040006D2340000123400008B5024884
:10020000024B984708BD00BF10E000E0F902400033
:1002100008B52D4B98472D4B9B6913F4006F03D104
:100220004FF40062294B1A61294A536843F4004392
:100230005360284B01225A61C3F890205A661A6015
:100240004FF400725A61C3F890205A661A604FF456
:1002500080621A631A611A604FF400625A631A616D
:100260001A604FF480525A631A611A604FF40052B8
:100270005A631A611A604FF480425A631A611A6015
:100280004FF400325A631A611A604FF400025A6345
:100290001A611A604FF080725A61C3F890205A6652
:1002A0001A604FF000725A631A611A604FF0806250
:1002B0005A631A611A604FF000521A631A611A6089
:1002C000054B984708BD00BF5D03400000040E4089
:1002D00050140E40000E0E40FD014000EFF310835D
:1002E000036072B6BFF35F8F7047BFF35F8F036821
:1002F00083F310887047000008B5024B1860024B6A
:10030000984708BDD00300202104400010B5044BDD
:100310001C68044B984701462046034B984710BD84
:10032000D003002051034000350440000346064A34
:10033000126822B1044A10680344136070470349ED
:10034000014A1160F6E700BFD4030020800A0020B4
:1003500045F6C05303FB00F07047000000B583B0C2
:1003600001A80D4B98470D4AD2F8883043F470032A
:10037000C2F88830BFF34F8FBFF36F8F01A8084BCF
:100380009847084A136823F470631360064B984734
:1003900003B05DF804FB00BFDD02400000ED00E0AB
:1003A000EB024000000A0E40AD0340001B4A136AF6
:1003B00043F45C1343F008031362936E13F4003F9D
:1003C000FBD0164A136A23F0700343F45C1343F026
:1003D00020031362936E13F4003FFBD00F4A136A9D
:1003E00023F0807343F45C131362136B23F0030355
:1003F00043F001031363936E13F0080FFBD0074A19
:10040000136B23F070031363936E13F0080FFBD08C
:10041000024B00229A6380221A60704700040E404B
:10042000034B6FF07F425A6005221A60704700BF8D
:1004300010E000E00B0E03B330B45D1EEDB22846B1
:10044000124A6FF07F4454609460136813F4803F45
:10045000FBD00138C0B2FF28F5D1A5EB056501F14D
:100460007F4101312944094B596099601A4613684C
:1004700013F4803FFBD030BC7047044B5960996047
:100480001A46136813F4803FFBD0704710E000E079
:1004900008B5024B1B681B68984708BDE80300209D
:1004A00008B5024B1B68DB6A984708BD740400203E
:1004B0002DE9F04F87B0BDF84090BDF8441005918C
:1004C0009DF848709DF84C80474545D0002A43D0A0
:1004D0001946049313460291421801924B449BB271
:1004E0000393DFF87CA02AE0B8F1080F04D031199B
:1004F000424689B24846D0470134082C0DD015F841
:10050000013C234113F0010FEED0082FF4D0311934
:100510003A4689B24846D047EEE70836B6B2013DC2
:100520005D4501D00024EAE709F101091FFA89F9C4
:10053000019B029A13440193039B99450CD0049BA1
:10054000002BF1D0C3F1000B6FEA0B4B6FEA1B4B92
:10055000019DAB44059EE5E707B0BDE8F08F00BF05
:10056000A104400010B584B09DF8244003949DF888
:1005700020400294BDF81C400194BDF8184000943E
:10058000014CA04704B010BDB10440002DE9F04F6C
:1005900087B0BDF84090BDF8441005919DF84870B3
:1005A0009DF84C80474545D0002A43D01946049316
:1005B00013460291421801924B449BB20393DFF819
:1005C0007CA02AE0B8F1080F04D03119424689B264
:1005D0004846D0470134082C0DD015F8013C234182
:1005E00013F0010FEED0082FF4D031193A4689B23A
:1005F0004846D047EEE70836B6B2013D5D4501D02A
:100600000024EAE709F101091FFA89F9019B029A1E
:1006100013440193039B99450CD0049B002BF1D00C
:10062000C3F1000B6FEA0B4B6FEA1B4B019DAB4410
:10063000059EE5E707B0BDE8F08F00BFA1044000CC
:100640002DE9F04F87B0BDF8401005919DF8487036
:100650009DF84C80474549D00392002A46D002932A
:10066000019003F5FF531F33BDF8442002EBC30391
:100670009BB2049300230093DFF878A028E0B8F140
:10068000080F04D03119424689B24846D047013498
:10069000082C0CD02B78234113F0010FEFD0082F3A
:1006A000F5D031193A4689B24846D047EFE7083EBF
:1006B000B6B201355D4501D00024EBE7009B013364
:1006C0000093019A02990A440192039A93420DD031
:1006D000029B002BF2D0019D05EB030B049E059BB2
:1006E000009A03EB02091FFA89F9E5E707B0BDE8B4
:1006F000F08F00BFA10440002DE9F04F87B0BDF896
:10070000401005919DF848709DF84C80474549D0B0
:100710000392002A46D00293019003F5FF531F3342
:10072000BDF8442002EBC3039BB204930023009363
:10073000DFF878A028E0B8F1080F04D0311942465C
:1007400089B24846D0470134082C0CD02B7823417D
:1007500013F0010FEFD0082FF5D031193A4689B2C6
:100760004846D047EFE7083EB6B201355D4501D0B7
:100770000024EBE7009B01330093019A02990A449D
:100780000192039A93420DD0029B002BF2D0019D5F
:1007900005EB030B049E059B009A03EB02091FFA6D
:1007A00089F9E5E707B0BDE8F08F00BFA10440007C
:1007B0002DE9F04F89B0BDF848100691BDF84C10F6
:1007C00007919DF850809DF85490C84543D0002A69
:1007D00041D005930492029000230393DFF87CA09C
:1007E0002AE0B9F1080F04D031194A4689B20198BC
:1007F000D0470134082C0DD02B78234113F0010F82
:10080000EFD0B8F1080FF4D03119424689B20198FF
:10081000D047EEE7013FBFB20836B6B22FB107EBC3
:100820000B05029B1D440024E6E7039B01339BB2AA
:100830000393049A9A420ED9059A1346571EBFB2E3
:10084000002FF2D0039903FB01FB079E069B0B448C
:100850009BB20193E3E709B0BDE8F08FA10440002B
:100860002DE9F04F87B0BDF84090BDF844100591D8
:100870009DF848709DF84C80474545D0002A43D0EC
:100880001946049313460291421801924B449BB2BD
:100890000393DFF87CA02AE0B8F1080F04D03119E7
:1008A000424689B24846D0470134082C0DD015F88D
:1008B000013C234113F0010FEED0082FF4D0311981
:1008C0003A4689B24846D047EEE70836B6B2013D0F
:1008D0005D4501D00024EAE709F101091FFA89F911
:1008E000019B029A13440193039B99450CD0049BEE
:1008F000002BF1D0C3F1000B6FEA0B4B6FEA1B4BDF
:10090000019DAB44059EE5E707B0BDE8F08F00BF51
:10091000A104400070470000F0B4144B4FF0806712
:100920001F614FF400361E614FF400651D614FF4E6
:1009300000541C614FF4805018614FF480411961DC
:100940005F631E631D631C63586359634FF000723D
:100950005A61C3F890205A661F601E601D601C60BB
:10096000186019601A60F0BC704700BF000E0E409E
:10097000314B9B889BB2834222D92F4BDB889BB2A1
:100980008B421DD910B42C4B1B78DBB2012B18D035
:10099000294B1B78DBB2022B1ED0274B1B78DBB216
:1009A000032B27D001EB8101C1EBC10101EBE00377
:1009B000C04300F007004AB3012A32D05DF8044B6F
:1009C0007047CB10C3F1220300EB8000C0EBC000E6
:1009D000034401F00700EEE740F21714A4EBE00433
:1009E0006FF0220303FB014101F582437D3300F0E8
:1009F0000700E0E744F27D1303EBE1036FF022040C
:100A000004FB0033C84300F00700D4E70B4A126828
:100A10001269C0B201218140D05C20EA0100D054AB
:100A2000CCE7064A12681169C0B2012202FA00F04E
:100A3000CA5C1043C854C1E75C0400207404002061
:100A400010B4444C6488A4B284424FD9414CA48869
:100A5000A4B28C424AD93F4B1B786BB13D4B1B78FB
:100A6000DBB2022B08D04FF4967303FB01F101EBCC
:100A7000500300F0010107E04FF4967303FB00F30D
:100A800003EB510301F00101002932D13249096819
:100A9000096912F0080FC85C14BF60F07F0000F015
:100AA0007F00C8542C490968096912F0040FC85C1A
:100AB00014BF40F0400020F04000C85426490968A7
:100AC000096912F0020FC85C14BF40F0200020F04A
:100AD0002000C85420490968096912F0010FCA5C56
:100AE00014BF42F0100222F01002CA545DF8044B09
:100AF000704719490968096912F0080FC85C14BFEA
:100B000040F0080020F00800C8541349096809693A
:100B100012F0040FC85C14BF40F0040020F0040081
:100B2000C8540D490968096912F0020FC85C14BF66
:100B300040F0020020F00200C85407490968096922
:100B400012F0010FCA5C14BF42F0010222F0010250
:100B5000CA54CBE7FC0300207404002008B51AB186
:100B60000F22034B984708BD014B984708BD00BFB3
:100B7000410A40002DE9F04F87B0BDF840100291C6
:100B8000002A37D00192059304904FF0000A03F138
:100B9000FF3B1FFA8BFBBDF844300393DFF85C800A
:100BA0005C46BBF1000F1ED0039D059B049A03FB1E
:100BB0000A29029B03EB0A07BFB219F8046006F08A
:100BC0000F0282F0FF0229463846C0476FEA16122C
:100BD000691CD2B289B23846C047013CA4B2023582
:100BE000ADB2002CE9D10AF1010A1FFA8AFA019B81
:100BF0005345D5D807B0BDE8F08F00BF410A40008B
:100C0000334B9B889BB283421CD910B4304BDC8899
:100C1000A4B28C4214D95B78DBB2012B13D02C4BDD
:100C20005B78DBB2032B0ED04FF4967303FB01F11C
:100C300001EB500300F0010050B36AB1012A19D052
:100C40005DF8044B70474FF4967303FB00F000EB24
:100C5000510301F00100EFE71E490A681069C25C08
:100C600022F00202C2540A681169CA5C22F0010231
:100C7000CA54E5E717490A681069C25C42F00202EB
:100C8000C2540A681169CA5C42F00102CA54D7E72B
:100C90007AB1012AD4D10F490A681069C25C42F0C6
:100CA0002002C2540A681169CA5C42F01002CA5498
:100CB000C6E708490A681069C25C22F02002C254E3
:100CC0000A681169CA5C22F01002CA54B8E700BF72
:100CD0005404002074040020954B9B889BB28342EF
:100CE0003FD910B4924BDC88A4B28C4237D95B78E0
:100CF000DBB2012B17D08E4B5B78DBB2032B12D00B
:100D00004FF4967303FB01F101EB500300F0010077
:100D1000002800F0B380072A21D8DFE802F00D2375
:100D20005F73374B879B4FF4967303FB00F000EB28
:100D3000510301F00100EBE77E4A11680869C15CCC
:100D400021F00401C15411680869C15C21F002015D
:100D5000C15412681169CA5C22F00102CA545DF8DC
:100D6000044B7047734A11680869C15C21F00401A3
:100D7000C15411680869C15C21F00201C1541268B4
:100D80001169CA5C42F00102CA54E8E7694A116875
:100D90000869C15C21F00401C15411680869C15C93
:100DA00041F00201C15412681169CA5C22F00102CB
:100DB000CA54D4E75F4A11680869C15C21F0040194
:100DC000C15411680869C15C41F00201C154126844
:100DD0001169CA5C42F00102CA54C0E7554A116861
:100DE0000869C15C41F00401C15411680869C15C23
:100DF00021F00201C15412681169CA5C22F001029B
:100E0000CA54ACE74B4A11680869C15C41F004015F
:100E1000C15411680869C15C21F00201C154126813
:100E20001169CA5C42F00102CA5498E7414A11684C
:100E30000869C15C41F00401C15411680869C15CD2
:100E400041F00201C15412681169CA5C22F001022A
:100E5000CA5484E7374A11680869C15C41F004014B
:100E6000C15411680869C15C41F00201C1541268A3
:100E70001169CA5C42F00102CA5470E7072A3FF6C2
:100E80006EAFDFE802F00418596D2C408195294AB5
:100E900011680869C15C21F04001C15411680869FA
:100EA000C15C21F02001C15412681169CA5C22F0B2
:100EB0001002CA5453E71F4A11680869C15C21F047
:100EC0004001C15411680869C15C21F02001C1547E
:100ED00012681169CA5C42F01002CA543FE7154A11
:100EE00011680869C15C21F04001C15411680869AA
:100EF000C15C41F02001C15412681169CA5C22F042
:100F00001002CA542BE70B4A11680869C15C21F032
:100F10004001C15411680869C15C41F02001C1540D
:100F200012681169CA5C42F01002CA5417E700BF88
:100F30005404002074040020274A11680869C15C29
:100F400041F04001C15411680869C15C21F02001E1
:100F5000C15412681169CA5C22F01002CA54FEE63C
:100F60001D4A11680869C15C41F04001C154116813
:100F70000869C15C21F02001C15412681169CA5C82
:100F800042F01002CA54EAE6134A11680869C15CCB
:100F900041F04001C15411680869C15C41F0200171
:100FA000C15412681169CA5C22F01002CA54D6E614
:100FB000094A11680869C15C41F04001C1541168D7
:100FC0000869C15C41F02001C15412681169CA5C12
:100FD00042F01002CA54C2E674040020F0B5284C56
:100FE0002478E4B2032C0CD8DFE804F002101C26AD
:100FF000234CE388591A8BB2E688B6B2A788BFB2F1
:101000000546B34201D2BD421ED3F0BD1C4CA3889D
:10101000181A83B2E588691A8DB2A688B6B2E78835
:10102000BFB2EEE7164CA588281A85B2E688B6B29C
:10103000A788BFB20B46E4E7114B9E88B6B2DF88A3
:10104000BFB20D460346DCE70E490968013303EBE6
:10105000830303EB8303A3EBE503013B9BB2096925
:1010600005F0070532B90122AA40CD5C25EA020548
:10107000CD54CAE70122AA40CD5C1543CD54F0BD42
:10108000040400207404002070B4374C2389E588E0
:10109000E488A4B2844226D99BB2ADB2324C2489F2
:1010A000A4B28C421FD9304CE478E4B2012C1CD09D
:1010B0002D4CE478E4B2032C17D0C3F3C70300FB34
:1010C00003336FEAE100034401F00701264880780A
:1010D000D0B926480068446982B901208840E15CA3
:1010E00021EA0001E15470BC7047C5F3C705C3088D
:1010F00001FB0533C14301F00701E7E70120884008
:10110000E15C0143E154EEE7BAB1023AD2B2012AFE
:1011100001D8002612E0154C22681569012202FA56
:1011200001F0EA5C0243EA54226852691A44012041
:101130008840117801431170D5E701260B4C2268D5
:101140001569012202FA01F0EA5C22EA0002EA547F
:1011500022685469E218002EE9D101208840E15C40
:1011600021EA0001E154BEE7440400207404002099
:1011700008B5014B984708BD8910400030B40D46B2
:1011800019B94FF400620E4B5A6308230C4A4FF40E
:1011900080544FF4804110F0800F14BF14635463E7
:1011A00011634000C0B25163013B13F0FF03F2D161
:1011B0001DB94FF40062024B1A6330BC704700BF88
:1011C000000E0E40F8B50C4615460B4E4FF4003796
:1011D00077634FF4006373630021084B98473763CC
:1011E00045B125440027054E394614F8010BB04798
:1011F000A542F9D1F8BD00BF000E0E407D114000A0
:1012000010B50022114604200A4CA04700221146C6
:101210001220A047084AD36B13F0007FFBD00022B6
:1012200011460220034B9847034AD36B13F0007F0B
:10123000FBD010BDC5114000000E0E4038B505466C
:10124000002211460420234CA047234B1B684FF477
:10125000945219691020A047002211461120A0477E
:101260001E4AD36B13F0007FFBD01B4B1B684FF45F
:10127000945259691320174CA0470022114611209F
:10128000A047164AD36B13F0007FFBD0BDB90022F4
:10129000114602200F4B9847104AD36B13F0007F82
:1012A000FBD00F4B9B784BB90B4802685169C95C66
:1012B0001269D1540133B3F5945FF6D138BD0022E1
:1012C00011461220034B9847044AD36B13F0007F5A
:1012D000FBD0DCE7C511400074040020000E0E4076
:1012E0004404002010B50022114604200A4CA047F7
:1012F000002211461220A047084AD36B13F0007F4A
:10130000FBD0002211460220034B9847034AD36BBF
:1013100013F0007FFBD010BDC5114000000E0E4041
:1013200038B505460022114604201D4CA0471D4B30
:101330001B6841F2F85219691020A047002211469B
:101340001120A047184AD36B13F0007FFBD0154B38
:101350001B6841F2F85259691320114CA047002232
:1013600011461120A047104AD36B13F0007FFBD029
:1013700055B9002211460220094B98470A4AD36BFF
:1013800013F0007FFBD038BD002211461220044B21
:101390009847054AD36B13F0007FFBD0E9E700BF05
:1013A000C511400074040020000E0E4000B583B04B
:1013B000144B5B78DBB2012B19D0F7238DF8043086
:1013C000012201A92220104B9847104AD36B13F039
:1013D000007FFBD10022114620200B4B98470B4A7F
:1013E000D36B13F0007FFBD103B05DF804FB054B1A
:1013F0009B781BB9C7238DF80430E1E7FF238DF8F4
:101400000430DDE704040020C5114000000E0E404A
:1014100008B50022114604200D4B98470D4AD36BA6
:1014200013F0007FFBD0002211461220084B984792
:10143000084AD36B13F0007FFBD000221146022034
:10144000034B9847034AD36B13F0007FFBD008BDD2
:10145000C5114000000E0E4010B50446164B1B6827
:10146000164A19691020164B9847164AD36B13F089
:10147000007FFBD004B910BD002211460420104BA0
:101480009847104AD36B13F0007FFBD0002211461F
:1014900012200B4B98470B4AD36B13F0007FFBD005
:1014A000002211460220064B9847064AD36B13F0E0
:1014B000007FFBD0DFE700BF74040020000D0200B6
:1014C000C5114000000E0E4010B500221146042048
:1014D0000A4CA047002211461220A047084AD36BAD
:1014E00013F0007FFBD0002211460220034B9847E7
:1014F000034AD36B13F0007FFBD010BDC511400031
:10150000000E0E4038B50546002211460420144C4A
:10151000A047144B1B68144A19691020A0470022E9
:1015200011461120A047114AD36B13F0007FFBD066
:1015300055B9002211460220094B98470B4AD36B3C
:1015400013F0007FFBD038BD002211461220044B5F
:101550009847064AD36B13F0007FFBD0E9E700BF42
:10156000C511400074040020000D0200000E0E4062
:1015700070B584B0002211460420174B9847174AD3
:10158000D36B13F0007FFBD018238DF804300024B8
:101590008DF805408DF806408DF807408DF808401D
:1015A00002268DF8096058238DF80A3001238DF842
:1015B0000B30E0238DF80C30092201A91220064DD2
:1015C000A847224621463046A847044AD36B13F069
:1015D000007FFBD004B070BDC5114000000E0E406E
:1015E00008B50C4BDB787BB96E220B4932200B4BD4
:1015F0009847002211462020084B9847084AD36B91
:1016000013F0007FFBD108BD6E2206493220034B48
:101610009847EEE75C040020A4244000C511400078
:10162000000E0E401025400070B582B00646002422
:101630008DF804408DF80540022201A94E20154D79
:10164000A8478DF804408DF80540022201A94F20DB
:10165000A847114B1B6844F2A01219692420A8471F
:1016600086B10E4BDB787BB969220D493220A84741
:10167000002211462020074B98470A4AD36B13F0EB
:10168000007FFBD102B070BD692207493220014BB7
:101690009847EDE7C5114000740400205C04002069
:1016A00010254000000E0E40A42440002DE9F0411A
:1016B00082B0804602AC7D2304F8043D012221461D
:1016C0002C202A4DA84718278DF8047000268DF885
:1016D0000560022221464420A8478DF804700122AB
:1016E00021464E20A847C7238DF804308DF80560A9
:1016F000022221464F20A8471D4B1B6841F2883229
:1017000019692420A8471B4AD36B13F0007FFBD133
:10171000B8F1000F02D102B0BDE8F081164B5B7842
:10172000DBB2012B17D0F7238DF800300122694678
:1017300022200E4B98470F4AD36B13F0007FFBD14A
:10174000002211462020094B98470A4AD36B13F018
:10175000007FFBD1DFE7084B9B781BB9C7238DF8CF
:101760000030E3E7FF238DF80030DFE7C5114000CC
:1017700074040020000E0E400404002070B586B0F2
:10178000054600238DF810308DF811308DF8123099
:101790008DF8133002238DF8143058238DF815304E
:1017A00001238DF81630E0238DF81730082204A9A4
:1017B0008320294CA047294B1B68294A196910200E
:1017C000A047284B1B78DBB2012B0FD0254B1B7891
:1017D000DBB2022B0AD002238DF81030012204A9BB
:1017E000E0201D4B98472DB906B070BD03238DF83E
:1017F0001030F3E7002211460420174B98471A4A8D
:10180000D36B13F0007FFBD018238DF80430002435
:101810008DF805408DF806408DF807408DF808409A
:1018200002268DF8096058238DF80A3001238DF8BF
:101830000B30E0238DF80C30092201A91220064D4F
:10184000A847224621463046A847074AD36B13F0E3
:10185000007FFBD0C8E700BFC51140007404002022
:1018600080320200FC030020000E0E40F8B5054651
:101870001446104B9847CDB90E4B9847ACB1C4F302
:101880000A06A41BE50A09D000240A4F4FF400639E
:10189000013BFDD1B8470134A542F7D11EB1002369
:1018A00001339E42FCD1034B9847F8BD014B98474A
:1018B000E2E700BF9104400010B50023014CA047AF
:1018C00010BD00BF6D18400030B585B02E4C94F8A7
:1018D0003040E4B2032C0BD8DFE804F00227354790
:1018E000ADF80410ADF80600ADF80830ADF80A20E8
:1018F0009DF82030ADF80C30012201A93420234C92
:10190000A04701220DF106010020A047012202A9F3
:101910000020A04701220DF10A010020A04701226A
:1019200003A90020A04705B030BDADF8040016485B
:10193000008D80B2411AC91AADF80610ADF8082022
:10194000ADF80A30D4E7104D6C8DA4B2611AC91AF3
:10195000ADF80410298D89B2081A801AADF8060076
:10196000ADF80830ADF80A20C2E7074C648DA4B288
:10197000201A801AADF80400ADF80610ADF8082062
:10198000ADF80A30B4E700BF0C040020B9184000DD
:1019900030B585B00024ADF80440ADF80640114BD9
:1019A0005A8DADF808201B8DADF80A30ADF80C004B
:1019B000012201A934200C4DA84701220DF1060196
:1019C0002046A847012202A92046A84701220DF17E
:1019D0000A012046A847012203A92046A84705B0CE
:1019E00030BD00BF0C040020B91840002DE9F04FB5
:1019F00085B080460D4616461F46484B1C68DFF8EA
:101A00002491D9F83430D9F834A040F20A22ADF844
:101A100000201B0CADF80230022269461120DFF8CD
:101A200000B1D8474FF40273ADF80030ADF802A012
:101A3000022269461120D84799F83030DBB2022BD8
:101A400029D0032B29D0012B14BF0023012343F0FD
:101A50002003ADF80430ADF80650ADF80880ADF8BD
:101A60000A70ADF80C60052201A921202C4B984783
:101A70002C4B93F8303093B12A4B93F83030DBB2D3
:101A8000022B0CD0274B1B8DC3F38D0308FB03F8EF
:101A900004EB48040BE00223D9E70323D7E7214BEB
:101AA0005B8DC3F38D0308FB03F804EB4804AD081A
:101AB00004EB4504B04646B3BF084FEA470ABB46AD
:101AC0000025DFF85C90174E09E0738DC3F38D039A
:101AD000A3EB0B0304EB43040135454515D03A460F
:101AE00021460020C847544496F83030002BECD0F3
:101AF00096F83030DBB2022BE7D0338DC3F38D0381
:101B0000A3EB0B0304EB4304E6E70022114622207B
:101B1000034B984705B0BDE8F08F00BFF0030020ED
:101B2000B91840000C04002030B585B00024ADF891
:101B30000440ADF80640114B5A8DADF808201B8DBE
:101B4000ADF80A300223ADF80C30012201A934208F
:101B50000B4DA84701220DF106012046A84701229E
:101B600002A92046A84701220DF10A012046A847F4
:101B7000012203A92046A84705B030BD0C0400206F
:101B8000B918400010B50123014CA04710BD00BF9B
:101B90006D184000F0B585B00546334C636B676B3C
:101BA00040F20A22ADF804201B0CADF806300222E8
:101BB00001A911202D4EB0474FF40273ADF8043047
:101BC000ADF80670022201A91120B04794F8303018
:101BD000DBB2022B1DD0032B1DD0012B14BF002321
:101BE000012343F0200304A921F8023D0122202013
:101BF0001E4CA0471C4BDA6A52081D4B1968002086
:101C00001C4B9847002211462220A0472DB905B051
:101C1000F0BD0223E5E70323E3E70024ADF8044029
:101C2000ADF80640104B5A8DADF808201B8DADF86D
:101C30000A300223ADF80C30012201A934200B4DEB
:101C4000A84701220DF106012046A847012202A95A
:101C50002046A84701220DF10A012046A84701228B
:101C600003A92046A847D2E70C040020B918400079
:101C7000F0030020851B400032B901238B4001781E
:101C800021EA03010170704701238B400178194359
:101C900001707047F8B5314B1E68738883423ED996
:101CA000B3888B423BD92E4B93F830307BB12C4B11
:101CB00093F83030DBB2022B09D0294B5C88C4F397
:101CC0004E044B0800FB043401F0010108E0244BF2
:101CD0001C88C4F34E044B0800FB043401F00101DE
:101CE0001546E9B13069C2F3C002072120441D4EF8
:101CF000B0471A4F3B681869C5F38002062120449B
:101D0000B0473B681869C5F3400205212044B0473D
:101D10003B68186905F0010204212044B047F8BD72
:101D20003069C2F3C002032120440E4EB0470B4F6E
:101D30003B681869C5F3800202212044B0473B6824
:101D40001869C5F3400201212044B0473B68186977
:101D500005F0010200212044B047F8BD74040020C2
:101D60000C040020791C40002DE9F04F87B0BDF82D
:101D70004080BDF844900021ADF81610BDF8161053
:101D800089B28A426AD91E4601928246354FDFF8EF
:101D9000D8B058E0BDF8123002339BB2ADF8123023
:101DA000BDF8143001339BB2ADF81430BDF81430D7
:101DB0009BB2B3423BD2BDF8164018FA84F4A4B2E9
:101DC000BDF81250ADB23B685A88A242E2D94D44E8
:101DD000ADB29B88AB42DDD9BDF816309BB2BDF8E1
:101DE000142006FB03F31AFA82F2D35C03F00F030C
:101DF000ADF81030BDF816309BB2BDF8142006FBCC
:101E000003F31AFA82F2D35C1B09ADF80E30BDF869
:101E10001020D243691CD2B289B22046D847BDF8FF
:101E20000E20D243D2B229462046D847B2E7BDF8A9
:101E3000163001339BB2ADF81630BDF816309BB2A8
:101E4000019A93420AD20023ADF81230ADF8143053
:101E5000BDF814309BB29E42ADD8E8E707B0BDE8AC
:101E6000F08F00BF74040020951C400070B510482E
:101E7000104B98470120104B9847104D4FF40056D7
:101E80006E6301200E4CA0472E630120A0472A4616
:101E9000D36B13F0007FFBD1002211461220094BB7
:101EA0009847064AD36B13F0007FFBD170BD00BF8B
:101EB00010E000E0F902400019094000000E0E4059
:101EC0000D034000C51140002DE9F04385B00746E1
:101ED00004A9F72301F80C3D012246205C4B9847EA
:101EE0005C4AD36B13F0007FFBD104A9F72301F800
:101EF0000C3D01224720564B9847564AD36B13F0AE
:101F0000007FFBD14FF0DF088DF8048001258DF8AC
:101F1000055000268DF80660032201A928464C4C86
:101F2000A0478DF804602A4601A90320A047412359
:101F30008DF80430A8238DF8053032238DF8063053
:101F4000032201A90420A04703238DF804302A4668
:101F500001A91120A0478DF804602A4601A93C2060
:101F6000A047AE238DF80430C7238DF80530C32376
:101F70008DF80630C0238DF807308DF80830052223
:101F800001A90C20A04780238DF804302A4601A91E
:101F90001820A0474FF044098DF804902A4601A963
:101FA0002C20A0478DF80460FF238DF805308DF8B4
:101FB00006308DF807308DF808304F228DF8092053
:101FC0008DF80A308DF80B308DF80C308DF80D300F
:101FD0000A2201A93720A0478DF804608DF805601A
:101FE00017238DF806308DF8075004220DEB0201FF
:101FF0004846A0478DF804608DF805608DF806808E
:102000008DF8075004220DEB02014520A047CF2395
:102010008DF804302A4601A92220A0473A680E4BC9
:102020001A603B7803F0FD03AB4209D00A4B4FF432
:102030008C729A804FF4F072DA8005B0BDE8F083BC
:10204000054B4FF4F0729A804FF48C72DA80F4E70B
:10205000C5114000000E0E405C04002070B506461D
:102060000D4644F2A010124B9847124B1860124CC8
:10207000C4F8B401114B98473046114B9847337858
:1020800084F8B03104F5D2740E4B1C6000230D4C63
:10209000FF2044F2A01122681269D05401338B4210
:1020A000F9D105B970BD0120074B9847FAE700BF89
:1020B000B523400070040020000000206D1E400089
:1020C000C91E40007404002029164000F0B583B0FA
:1020D0005F4B1B685A88ADF804209B88ADF8003030
:1020E0000023ADF80630BDF8062092B2BDF80430EA
:1020F0009BB29A4280F0A9800446554D554E97E018
:10210000072C55D8DFE804F0040D1F1628313A4398
:10211000BDF80600BDF80210002289B280B2B047B7
:1021200046E0BDF80600BDF80210012289B280B277
:10213000B0473DE0BDF80600BDF80210032289B2A9
:1021400080B2B04734E0BDF80600BDF802100222AC
:1021500089B280B2B0472BE0BDF80600BDF802108E
:10216000042289B280B2B04722E0BDF80600BDF873
:102170000210052289B280B2B04719E0BDF806000E
:10218000BDF80210062289B280B2B04710E0BDF857
:102190000600BDF802103A4689B280B2B04707E0A7
:1021A000BDF80600BDF80210002289B280B2B04727
:1021B000BDF8023001339BB2ADF80230BDF8022009
:1021C00092B2BDF800309BB29A4223D22B681B78A2
:1021D000042B95D0032CEBD801A353F824F000BFB7
:1021E000A1214000F12140000322400003224000D1
:1021F000BDF80600BDF80210012289B280B2B047D6
:10220000D6E7BDF80600BDF80210022289B280B2FE
:10221000B047CDE7BDF8063001339BB2ADF80630CC
:10222000BDF8062092B2BDF804309BB29A420CD29F
:102230000023ADF80230BDF8022092B2BDF80030A4
:102240009BB29A42E6D20727C0E703B0F0BD00BFB9
:1022500074040020A1044000F0B587B000248DF87C
:1022600015408DF816408DF8174006A8032300F896
:10227000043D2146104B98470120104B9847012000
:102280000F4FB8474FF4FA600E4B98470E4B1B6840
:10229000039401250295019400945E6B08234FF48A
:1022A00094724FF414610948B047094EF5702846FE
:1022B000B847F47007B0F0BD5D204000CD2040006D
:1022C000291640000D0340007404002080314000B6
:1022D0005C04002038B5074C4FF40005656301200D
:1022E000054B9847054B1B685B6A0120984725639F
:1022F00038BD00BF000E0E40CD2040007404002009
:1023000008B5164B9847164B98474FF40002154BEB
:102310001A631C46144D1EE0E36B13F4007F14D0C7
:10232000E36B13F0010F05D1E36B13F0010FFBD04A
:102330003046A847E36B13F0807FEDD1E36B13F0D9
:10234000807FFBD00120A847E6E7E36B13F4007F12
:10235000FBD00220A8470026E2E700BF11024000A0
:1023600059224000000E0E40D522400070B50D4E9F
:102370000D4CA41BA4100025A54209D10B4E0C4CFA
:1023800025F0FAFCA41BA4100025A54205D170BDC0
:1023900056F8253098470135EEE756F8253098472E
:1023A0000135F2E7847D4200847D4200847D420055
:1023B000887D4200024B0146186800F003B800BF58
:1023C0005003002070B5CD1C25F0030508350C2DF9
:1023D00038BF0C25002D064601DBA94203D90C238A
:1023E0003360002070BD00F05BF8234A146821467A
:1023F00091B9224C23681BB9304600F041F82060A7
:102400002946304600F03CF8431C26D10C233360AB
:10241000304600F046F8E4E70B685B1B1AD40B2B40
:102420000FD90B60CD50CC18304600F03AF804F1CB
:102430000B00231D20F00700C31A1BD05A42E250A4
:1024400070BD8C420DBF63684B686360136018BF3A
:102450000C46E9E70C464968CAE7C41C24F00304AB
:10246000A04205D0211A304600F00AF80130CDD044
:102470002560D9E770BD00BFD8030020DC03002031
:1024800038B5064C0023054608462360FDF74EFF8D
:10249000431C02D1236803B12B6038BD78040020AF
:1024A0007047704700000000000000000000012A93
:1024B00000000000000000000A55000000000000BD
:1024C000000000000000000000000000000000000C
:1024D00000000000000000000505000503050500E0
:1024E00000000000000000000000000000000000EC
:1024F00000000000000000000000000000000000DC
:102500000000000000000000222222222200000021
:102510002A050000000000000000052A000000005D
:10252000000000002A150000000000000000050A5D
:10253000000000000000000000000000000000009B
:1025400000000002030A0002060A05000000000065
:10255000000000000000000000000000000000007B
:10256000000000000000000000000000000000006B
:102570000000000022222222220000002418181845
:102580000018181008000000000000000000000003
:10259000411111110100000000000000101818285E
:1025A00018181818080000000000000000000000C3
:1025B0003312221311000000000000002E0411004D
:1025C00000000000000000000000000010000000FB
:1025D000000100000001000000010410000144009F
:1025E000000040000000000000004000000000006B
:1025F00000014010000540100000000000145100D0
:1026000000000000000000001000000010000000AA
:1026100000014000001140000001041000014400CE
:102620000000400000000000000144100001000014
:10263000000140100005401000010000001551008D
:10264000000010001000000010000000100000004A
:10265000000140000011401000010410001144006E
:102660000001400000004010004144100001000043
:1026700000154410004544100001040000155100ED
:10268000000010001000000010000000100000000A
:10269000000144000011401000010410001144002A
:1026A000004140000000401000454410000140106F
:1026B0000015441000454410000544100025510049
:1026C0000400100010000000100040001000400046
:1026D00000014410001540100005041000114410C2
:1026E000004140000011401000454410000144101A
:1026F0000015441000454410000544100025510009
:10270000041154001000400010014000104144002A
:1027100000014410005540100445041000554410B9
:1027200000454400001140100045441000014410D1
:1027300000154410004544100005541000255100B8
:1027400004115400100140001001400010414400E9
:10275000000544100055441404455410005544101D
:102760000045441000114410004544100005441079
:102770000055541400455414000554100025510010
:1027800004555410140150001051441014414410C9
:102790000045541004554414044554100055441089
:1027A00000454410005544100045541400154414CD
:1027B00000555414004555140005541400295100C7
:1027C0000455541014015010105154101441441069
:1027D0000055541004554414044554140055441431
:1027E0001045541400554410004554140015541459
:1027F0000055541400455514000554140029510087
:102800001455541014015010105554141441441010
:1028100010555410045554140445541400554414D0
:102820001045541404555410004554140015541404
:102830000055541400555514000554140029A100E6
:1028400014555410140150141055541414415410BC
:102850001455541404555414144554141055441468
:1028600010455414045554140045541400155414C0
:10287000005555141155551411055414002AA20081
:102880001855541414015014105554141441541470
:102890001455541404555414144554141055541418
:1028A000104554140455541400455414111554146F
:1028B000015555141155551511055514106AA200EE
:1028C00018555514144554141055541414415414E7
:1028D00014555414145555141545551411555414C4
:1028E000114554141555541401455414111554141C
:1028F00001555514115555151105551410AAA6006A
:1029000018555514154554141055541414455414A1
:10291000145554141455551515455515155554147D
:1029200015455414155554140145541411155414D7
:1029300011555514115555151105551411AAA61008
:10294000186555151545551414555414144554144B
:10295000145554141555551515455515156554142C
:102960001545541415555414115555141155541436
:1029700011555514115555151105551411AAA610C8
:1029800018A5A955554555141455541415855514B5
:10299000155599151565551515455915156559148C
:1029A0001585551515555514119555141155541473
:1029B00011555514115555155105555551AAAA10C3
:1029C00018A5A9555955551515A555155585991489
:1029D000155699151565555515555955156599553A
:1029E0001595951515659514119555141156541492
:1029F00011655554519595555115555551AAAA1023
:102A000028AAA9556955951525A59515698599147F
:102A10001596991515AA9555159A595555A699556E
:102A20001595995515A59514119599141166951438
:102A300011699955519995555115595555AAAA5449
:102A400028AAA9556996A55525A699556986995428
:102A500019AA995515AA9555559A996555AA995542
:102A6000159A995555A59914159699145166991466
:102A700011AA995555AA95555115995555AAAA6463
:102A800028AAA9656996A55525AAA95569969954B4
:102A900019AAA96519AA9565599A996555AA9955CA
:102AA000159A995555AA9924159A9925556A9914F4
:102AB00011AA996555AAA965511A995555AAAAA5A9
:102AC00028AAA96569AAA56569AAA9656996A964DC
:102AD00059AAA96559AAA965599AA96555AA9965D6
:102AE000559A995555AA9964559A9965556A9924A4
:102AF00015AA996555AAA965511AA95555AAAAA555
:102B000068AAAAA569AAA96569AAA965699AA96511
:102B100059AAA96559AAA965599AA96555AAA96585
:102B2000559AA96559AAA96455AAA96555AAA924BF
:102B300015AAA96555AAA965511AA96555AAAAAAEF
:102B400068AAAAAA68AAAA6969AAA969699AA965C4
:102B500069AAA96559AAAA6959AAAA6555AAA9651F
:102B600055AAA96559AAA96555AAA96555AAA9642E
:102B700055AAA96555AAAA65552AA96555AAAAAA5A
:102B8000A8AAAAAAA8AAAA6A69AAA96969AAAA69EE
:102B900069AAA96959AAAA6959AAAA6959AAA969CF
:102BA00069AAA96959AAAA6555AAA96955AAA969CC
:102BB00055AAAA6955AAAA69552AAA6555AAAAAA10
:102BC000A8AAAAAAAAAAAAAA68AAAAAA68AAAAA9EC
:102BD00068AAAA6A68AAAAAA68AAAA6A68AAA9691F
:102BE00068AAAA6958AAAA6954AAAA6954AAA9698A
:102BF00054AAAA6954AAAA6A542AAA6955AAAAAACE
:102C0000A8AAAAAAAAAAAAAA68AAAAAAA8AAAAA96B
:102C100068AAAAAA68AAAAAA68AAAAAA68AAAAA91D
:102C200068AAAAAA68AAAA6958AAAA6964AAAA69E3
:102C300054AAAAA964AAAAAA642AAA69599AAAAAF9
:102C4000AAAAAAAAAAAAAAAA6AAAAAAAAAAAAAAA24
:102C50006AAAAAAA6AAAAAAA6AAAAAAA6AAAAAAAD4
:102C60006AAAAAAA6AAAAA696AAAAA696AAAAA6987
:102C70006AAAAAA96AAAAAAAA62AAAAA68AAAAAAFB
:102C8000AAAAAAAAAAAAAAAAAAAAAAAAAAAAAAAAA4
:102C9000AAAAAAAA6AAAAAAA6AAAAAAAAAAAAAAA14
:102CA0006AAAAAAAAAAAAAA96AAAAAAAAAAAAA6946
:102CB0006AAAAAAAAAAAAAAAA62AAAAAA84AAAAA9A
:102CC000AAAAAAAAAAAAAAAAAAAAAAAAAAAAAAAA64
:102CD000AAAAAAAAAAAAAAAAAAAAAAAAAAAAAAAA54
:102CE0006AAAAAAAAAAAAAAAAAAAAAAAAAAAAAA985
:102CF0006AAAAAAAAAAAAAAAA62AAAAAAA4AAAAA58
:102D0000AAAAAAAAAAAAAAAAAAAAAAAAAAAAAAAA23
:102D1000AAAAAAAAAAAAAAAAAAAAAAAAAAAAAAAA13
:102D2000AAAAAAAAAAAAAAAAAAAAAAAAAAAAAAAA03
:102D30006AAAAAAAAA9AAAAAAA1AAAAAAA4AAAAA33
:102D4000AA6AAAAAAA6AAAAAAA6AAAAAAA6AAAAAE3
:102D5000AAAAAAAAAAAAAAAAAAAAAAAAAA9AAAAAE3
:102D6000AA6AAAAAAA6AAAAAAA6AAAAAAA5AAAAAD3
:102D7000AAAAAAAAAAAAAAAAAA2AAAAAAA4AAAAA93
:102D8000AA6AAAAAAA6AAAAAAA6AAAAAAA6AAAAAA3
:102D9000AA6AAAAAAA6AAAAAAA6AAAAAAA6AAAAA93
:102DA000AA6AAAAAAA6AAAAAAA5AAAAAAA6AAAAA93
:102DB000AA6AAAAAAA4AAAAAAA4AAAAAAA4AAAAAD3
:102DC000AA5AAAAAAA5AAAAAAA5AAAAAAA6AAAAA93
:102DD000A66AAAAAAA6AAAAAAA5AAAAAAA4AAAAA87
:102DE000AA5AAAAAAA5AAAAAAA6AAAAAAA49AAAA84
:102DF000AA5AAAAAAA4A9AAAAA4AAAAAAA52AAAAAB
:102E0000A66A2AAAA66AAAAAA66AAAAAA66AAAAAB2
:102E1000AA6AA2AAAA529AAAAA622AAAAA4A9AAAFA
:102E2000AA6AA2AAAA6A2AAAAA4AAAAAAA4A2AAA4A
:102E3000AA62AAAAAA4A2AAAAA4A22AAA612AAAA9E
:102E4000AA4A226AAA4AAAAAAA4AAAAAAA5A22AAA2
:102E5000A25A22AAAA62AA6AAA4222AAAA42A2AA9A
:102E6000AA42A2AAAA4220AAAA4AAAAAAA402AAA6E
:102E7000A642A26AAA4A0A6AAA4A12AAAA1552AA8B
:102E8000A24212AAA2429AAAA2429A6AA262126A12
:102E9000A26212AAAA4288AAAA4220AAAA4202AA06
:102EA000AA42226AAA4210AAA64AAA6AA640106AA0
:102EB000AA4222AAA6420AAAAA4220AAA216626A84
:102EC000A211622AA2116A69A21162AAA21162A9C0
:102ED000A251626AA651482AA651506AA651426A76
:102EE000A65150AAA6516069AA5950A9AA5060A932
:102EF000A251522AAA514A2AAA514069A21552AA9D
:102F0000A2164229A21648AAA2164229A216402AAF
:102F1000A21642A9AA164829AA1660A9AA1642AA68
:102F2000AA166029AA1640AAA216602A2214402ACC
:102F3000A2566029A2564A29265640AAA2555519DA
:102F4000A255541A22555418A255541AA255541871
:102F5000A255541AA255541AA255541AA2555419DE
:102F6000A255541A22555418225554182255541853
:102F7000A255541A2255541A2A5554182255552A26
:102F80002655552826555528A655552826555528E1
:102F900026555528A6555528A65555282655552A4F
:102FA000A6555528265555282655552826555528C1
:102FB0002655552826555528265555282655555405
:102FC00006555554065555540655555406555554F1
:102FD0002655555426555554265555542655555461
:102FE0002655555426555554265555542655555451
:102FF0002655555426555554265555542655555540
:103000005455555554555555545555555455555574
:103010005455555554555555545555555455555564
:103020005455555554555555545555555455555554
:103030005455555554555555545555555455555544
:103040005455555554555555545555555455555534
:103050005455555554555555545555555455555524
:103060005455555554555555545555555455555514
:103070005455555554555555545555555454AAAA5B
:10308000A854AAAAA854AAAAA854AAAAA854AAAA00
:10309000A854AAAAA854AAAAA854AAAAA854AAAAF0
:1030A000A854AAAAA854AAAAA854AAAAA854AAAAE0
:1030B000A854AAAAA854AAAAA854AAAAA850000028
:1030C00008500000085000000850000008500000A0
:1030D0000850000008500000085000000850000090
:1030E0000850000008500000085000000850000080
:1030F0000850000008500000085000000840000080
:10310000084000000840000008400000084000009F
:10311000084000000840000008400000084000008F
:10312000084000000840000008400000084000007F
:1031300008400000084000000840000008000000AF
:10314000000000000000000000000000000000007F
:10315000000000000000000000000000000000006F
:10316000000000000000000000000000000000005F
:10317000000000000000000000000000000000004F
:10318000000000000000000000000000000000003F
:10319000000000000000000000000000000000002F
:1031A000000000000000000000000000000000001F
:1031B0000001F000000000000001FE00000000001F
:1031C0000001FFC0000000000001FFF80000000047
:1031D0000001FFFF000000000001FFFFF000000001
:1031E0000001FFFFFE0000000001FFFFFFC0000024
:1031F0000001FFFFFFF800000001FFFFFFFC0000DF
:103200000001FFFFFFFC60000001FFFFFFFC7C00EE
:103210000001FFFFFFFC7F800001FFFFFFFC7FC07C
:103220000001FFFFFFFC7FC00001FFFFFFFC7FC02C
:103230000001FFFFFFFC7FC00001FFFFFFFC7FC01C
:103240000001FFFFFFFC7FC00000FFFFFFFC7FC00D
:1032500000003FFFFFFC7FC0000003FFFFFC7FC0BA
:103260000000007FFFFC7FC00000000FFFFC7FC05C
:103270000001F001FFFC7FC00001FE003FFC7FC0A9
:103280000001FFC007FC7FC00001FFF800FC7FC009
:103290000001FFFF001C7FC00001FFFFF0007FC0A6
:1032A0000001FFFFFE003FC00001FFFFFFC007C09D
:1032B0000001FFFFFFF800C00001FFFFFFFC00005E
:1032C0000001FFFFFFFC70000001FFFFFFFC7E001C
:1032D0000001FFFFFFFC7F800001FFFFFFFC7FC0BC
:1032E0000001FFFFFFFC7FC000003FFFFFFC7FC02D
:1032F000000007FFFFFC7FC0000000FFFFFC7FC055
:103300000000001FFFFC7FC000000007FFFC7FC023
:103310000000003FFFFC7FC0000001FFFFFC7FC0FA
:1033200000001FFFFFFC7FC00000FFFFFFFC7FC00D
:103330000001FFFFFFFC7FC00001FFFFFFFC7FC01B
:103340000001FFFFFFFC7FC00001FFFFFFFC7FC00B
:103350000001FFFFFFFC7FC00001FFFFFFFC7FC0FB
:103360000001FFFFFFFC7FC00001FFFFFFFC7FC0EB
:103370000001FFFFFFF07FC00001FFFFFF007FC0E3
:103380000001FFFFF8007FC00001FFFF80007FC049
:103390000001FFFFC0007FC00001FFFFF8007FC0F9
:1033A0000001FFFFFF007FC00001FFFFFFE07FC0C3
:1033B0000001FFFFFFFC7FC00001FFFFFFFC7FC09B
:1033C0000001FFFFFFFC7FC00001FFFFFFFC7FC08B
:1033D0000001FFFFFFFC7FC00001FFFFFFFC7FC07B
:1033E00000007FFFFFFC7FC000000FFFFFFC7FC0DD
:1033F000000001FFFFFC7FC00000003FFFFC7FC01A
:103400000001E007FFFC7FC00001FC00FFFC7FC063
:103410000001FF801FFC7FC00001FFF003FC7FC0A4
:103420000001FFFE003C7FC00001FFFFC01C7FC009
:103430000001FFFFF8007FC00001FFFFFF007FC019
:103440000001FFFFFFE07FC00001FFFFFFFC7FC026
:103450000001FFFFFFFC7FC00001FFFFFFFC7FC0FA
:103460000001FFFFFFFC7FC00001FFFFFFFC7FC0EA
:103470000001FFFFFFFC7FC00001FFFFFFFC7FC0DA
:103480000001FFFFFFFC7FC00001FFFFFFFC7FC0CA
:103490000001FFFFFFFC7FC00001FFFFFFFC7FC0BA
:1034A0000001FFFFFFFC7FC00001FFFFFFFC7FC0AA
:1034B0000001FF3FFFFC7FC00001FF1FFFFC7FC03A
:1034C0000001FF1FFFFC7FC00001FF1FFFFC7FC04A
:1034D0000001FF1FE3FC7FC00001FF1FE3FC7FC072
:1034E0000001FF1FE3FC7FC00001FF1FE3FC7FC062
:1034F0000001FF1FE3FC7FC00001FF1FE3FC7FC052
:103500000001FF1FE3FC7FC00001FF1FE3FC7FC041
:103510000001FF1FE3FC7FC00001FF1FE3FC7FC031
:103520000000FF1FE3FC7FC000000F1FE3FC7FC013
:103530000000011FE3FC7FC00001C00FE3FC7FC05F
:103540000001F801E3FC7FC00001FF0023FC7FC005
:103550000001FFF003FC7FC00001FFFE03FC7FC001
:103560000001FFFFC07C7FC00001FFFFF80C7FC09F
:103570000001FFFFFF007FC00001FFFFFFE07FC0F1
:103580000001FFFFFFFC7FC00001FFFFFFFC7FC0C9
:103590000001FFFFFFFC7FC00001FFFFFFFC7FC0B9
:1035A0000001FFFFFFFC7FC00001FFFFFFFC7FC0A9
:1035B0000001FFFFFFFC7FC00001FFFFFFFC7FC099
:1035C0000001FFFFFFFC7FC00001FFFFFFFC7FC089
:1035D0000001FFFFFFFC7FC00001FFFFFFFC7FC079
:1035E0000001FFFFFFFC7FC00001FFFFFFFC7FC069
:1035F0000001FF3FFFFC7FC00001FF07FFFC7FC011
:103600000001FF00FFFC7FC00001FF001FFC7FC026
:103610000001FF0001FC7FC00001FF00003C7FC0F3
:103620000001FF00001C7FC00001FF0000007FC000
:103630000001FF0000007FC00001FF0000007FC00C
:103640000001FF0000007FC00001FF0000007FC0FC
:103650000001FF0000007FC00001FF0000007FC0EC
:1036600000003F0000007FC00000070000007FC096
:103670000001800000007FC00001F00000007FC05A
:103680000001FE0000007FC00001FFC000007FC0FD
:103690000001FFF800007FC00001FFFF00007FC0B5
:1036A0000001FFFFE0007FC00001FFFFFC007FC0C2
:1036B0000001FFFFFFC07FC00001FFFFFFF87FC0D8
:1036C0000001FFFFFFFFFFC00001FFFFFFFFFFC082
:1036D0000001FFFFFFFFFFC00001FFFFFFFFFFC072
:1036E0000001FFFFFFFFFFC00001FFFFFFFFFFC062
:1036F0000001FFFFFFFFFFC00001FFFFFFFFFFC052
:103700000001FFFFFFFFFFC00001FFFFFFFFFFC041
:103710000000FFFFFFFFFFC000001FFFFFFFFFC013
:10372000000003FFFFFFFFC00000007FFFFFFFC09E
:103730000001C00FFFFFFFC00001FC00FFFFFFC042
:103740000001FF801FFFFFC00001FFF003FFFFC06B
:103750000001FFFE007FFFC00001FFFFC00FFFC0A0
:103760000001FFFFF801FFC00001FFFFFF007FC065
:103770000001FFFFFFE07FC00001FFFFFFFC7FC0F3
:103780000001FFFFFFFC7FC00001FFFFFFFC7FC0C7
:103790000001FFFFFFFC7FC00001FFFFFFFC7FC0B7
:1037A0000001FFFFFFFC7FC00001FFFFFFFC7FC0A7
:1037B0000001FFFFFFFC7FC00001FFFFFFFC7FC097
:1037C0000001FFFFFFFC7FC00001FFFFFFFC7FC087
:1037D0000001FFFFFFFC7FC00001FFFFFFFC7FC077
:1037E0000001FF3FFFFC7FC00001FF1FFFFC7FC007
:1037F0000001FF1FFFFC7FC00001FF1FFFFC7FC017
:103800000001FF1FE7FC7FC00001FF1FE3FC7FC03A
:103810000001FF1FE3FC7FC00001FF1FE3FC7FC02E
:103820000001FF1FE3FC7FC00001FF1FE3FC7FC01E
:103830000001FF1FE3FC7FC00001FF1FE3FC7FC00E
:103840000001FF1FE3FC7FC00001FF1FE3FC7FC0FE
:103850000000FF1FE3FC7FC000001F1FE3FC7FC0D0
:103860000000031FE3FC7FC00001C00FE3FC7FC02A
:103870000001F801E3FC7FC00001FF0023FC7FC0D2
:103880000001FFE003FC7FC00001FFFC03FC7FC0E0
:103890000001FFFF807C7FC00001FFFFF00C7FC0B4
:1038A0000001FFFFFE007FC00001FFFFFFC07FC0DF
:1038B0000001FFFFFFFC7FC00001FFFFFFFC7FC096
:1038C0000001FFFFFFFC7FC00001FFFFFFFC7FC086
:1038D0000001FFFFFFFC7FC00001FFFFFFFC7FC076
:1038E0000001FFFFFFFC7FC00001FFFFFFFC7FC066
:1038F0000001FFFFFFFC7FC00001FFFFFFFC7FC056
:103900000001FFFFFFFC7FC000003FFFFFFC7FC006
:10391000000007FFFFFC7FC0000000FFFFFC7FC02E
:103920000000001FFFFC7FC000000003FFFC7FC001
:1039300000000007FFFC7FC00000007FCFFC7FC0BD
:10394000000007FFE1FC7FC000007FFFF01C7FC08C
:103950000001FFFFFC007FC00001FFFFFE007FC0F1
:103960000001FFFFFF007FC00001FFFFFF807FC05D
:103970000001FFFFFFC07FC00001FFFFFFE07FC02D
:103980000001FFFFFFF07FC00001FFFFFFF87FC0D5
:103990000001FFFFFFFC7FC00001FFFFFFFC7FC0B5
:1039A0000001FFFFFFFC7FC00001FFFFFFFC7FC0A5
:1039B0000001FFFFFFFC7FC00001FFFFFFFC7FC095
:1039C0000001FFFEFFFC7FC00001FFF87FFC7FC00D
:1039D0000001FFC03FFC7FC00001FF001FFC7FC053
:1039E0000001FC000FFC7FC00001E00007FC7FC06D
:1039F0000001800003FC7FC00000000001FC7FC0CC
:103A00000000000000FC7FC000000000007C7FC0C0
:103A100000000000007C7FC000000000003C7FC070
:103A200000000000001C7FC000000000000C7FC0F0
:103A30000000000000047FC00000000000007FC004
:103A40000000000000007FC00000000000007FC0F8
:103A50000000000000007FC00000000000003FC028
:103A60000000000000001FC00000000000000FC0A8
:103A700000000000000007C000000000000003C0BC
:103A800000000000000001C000000000000000C0B5
:103A90000000000000000000000000000000000026
:103AA0000000000000000000000000000000000016
:103AB0000000000000000000000000000000000006
:103AC00000000000000000000000FFFFFFFFFFFFFC
:103AD000FFFFFFFFFFFFFFFFFFFFFFFFFFFF0000F4
:103AE0000000000000000000FFFFFFFFFFFFFFFFDE
:103AF000FFFF0000000000000000000000000000C8
:103B0000000000000000FFFFFFFFFFFFFFFFFFFFBF
:103B100000000000000000000000000000000000A5
:103B20000000000000000000000000000000000095
:103B30000000000000000000FFFFFFFFFFFFFFFF8D
:103B4000FFFF000000000000000000000000000077
:103B50000000000000000000000000000000000065
:103B600000000000000000000000FFFFFFFFFFFF5B
:103B7000FFFFFFFFFFFFFFFFFFFFFFFFFFFF000053
:103B80000000000000000000000000000000000035
:103B90000000FFFFFFFFFFFFFFFFFFFF000000002F
:103BA000000000000000FFFFFFFFFFFFFFFFFFFF1F
:103BB0000000000000000000000000000000000005
:103BC00000000000000000000000000000000000F5
:103BD0000000000000000000FFFFFFFFFFFFFFFFED
:103BE000FFFFFFFFFFFFFFFFFFFFFFFF00000000E1
:103BF00000000000000000000000000000000000C5
:103C0000FFFFFFFFFFFFFFFFFFFF000000000000BE
:103C100000000000FFFFFFFFFFFFFFFFFFFF0000AE
:103C20000000000000000000000000000000000094
:103C30000000000000000000000000000000000084
:103C4000000000000000FFFFFFFFFFFFFFFFFFFF7E
:103C50000000000000000000000000000000000064
:103C600000000000FFFFFFFFFFFFFFFFFFFFFFFF60
:103C7000FFFFFFFFFFFFFFFF00000000000000004C
:103C80000000FFFFFFFFFFFFFFFFFFFF000000003E
:103C90000000000000000000000000000000000024
:103CA000FFFFFFFFFFFFFFFFFFFFFFFFFFFFFFFF24
:103CB000FFFFFFFFFFFFFFFFFFFFFFFFFFFF000012
:103CC0000000000000000000FFFFFFFFFFFFFFFFFC
:103CD000FFFFFFFFFFFFFFFFFFFFFFFF00000000F0
:103CE00000000000000000000000000000000000D4
:103CF000FFFFFFFFFFFFFFFFFFFF000000000000CE
:103D00000000000000000000000000000000FFFFB5
:103D1000FFFFFFFFFFFFFFFFFFFFFFFFFFFFFFFFB3
:103D2000FFFFFFFFFFFFFFFFFFFFFFFF000000009F
:103D30000000000000000000000000000000000083
:103D4000FFFFFFFFFFFFFFFFFFFFFFFFFFFFFFFF83
:103D5000FFFFFFFF00000000000000000000FFFF69
:103D6000FFFFFFFFFFFFFFFFFFFFFFFFFFFFFFFF63
:103D7000FFFF000000000000000000000000000045
:103D8000000000000000FFFFFFFFFFFFFFFFFFFF3D
:103D90000000000000000000000000000000000023
:103DA00000000000FFFFFFFFFFFFFFFFFFFFFFFF1F
:103DB000FFFFFFFFFFFFFFFFFFFFFFFFFFFFFFFF13
:103DC000FFFF00000000000000000000FFFFFFFFF9
:103DD000FFFFFFFFFFFFFFFFFFFFFFFFFFFFFFFFF3
:103DE00000000000000000000000000000000000D3
:103DF00000000000FFFFFFFFFFFFFFFFFFFFFFFFCF
:103E0000FFFFFFFFFFFFFFFFFFFFFFFFFFFFFFFFC2
:103E1000FFFF00000000000000000000FFFFFFFFA8
:103E2000FFFFFFFFFFFF0000000000000000000098
:103E300000000000000000000000FFFFFFFFFFFF88
:103E4000FFFFFFFF00000000000000000000000076
:103E50000000000000000000FFFFFFFFFFFFFFFF6A
:103E6000FFFFFFFFFFFFFFFFFFFFFFFFFFFFFFFF62
:103E7000FFFFFFFFFFFF0000000000000000000048
:103E8000FFFFFFFFFFFFFFFFFFFFFFFFFFFFFFFF42
:103E9000FFFFFFFF00000000000000000000000026
:103EA0000000000000000000FFFFFFFFFFFFFFFF1A
:103EB000FFFF000000000000000000000000000004
:103EC000000000000000FFFFFFFFFFFFFFFFFFFFFC
:103ED000FFFFFFFFFFFFFFFFFFFFFFFFFFFFFFFFF2
:103EE000FFFFFFFF00000000000000000000FFFFD8
:103EF000FFFFFFFFFFFFFFFFFFFFFFFFFFFFFFFFD2
:103F0000FFFF0000000000000000000000000000B3
:103F1000000000000000FFFFFFFFFFFFFFFFFFFFAB
:103F20000000000000000000000000000000000091
:103F300000000000FFFFFFFFFFFFFFFFFFFFFFFF8D
:103F4000FFFFFFFFFFFFFFFFFFFFFFFFFFFFFFFF81
:103F5000FFFF00000000000000000000FFFFFFFF67
:103F6000FFFFFFFFFFFFFFFFFFFFFFFFFFFFFFFF61
:103F70000000000000000000000000000000000041
:103F800000000000FFFFFFFFFFFFFFFFFFFF00003B
:103F90000000000000000000000000000000000021
:103FA0000000FFFFFFFFFFFFFFFFFFFFFFFFFFFF1F
:103FB000FFFFFFFFFFFFFFFFFFFFFFFFFFFFFFFF11
:103FC00000000000000000000000FFFFFFFFFFFFF7
:103FD000FFFFFFFFFFFFFFFFFFFFFFFFFFFF0000EF
:103FE00000000000000000000000000000000000D1
:103FF0000000FFFFFFFFFFFFFFFFFFFFFFFFFFFFCF
:10400000FFFFFFFFFFFF00000000000000000000B6
:1040100000000000000000000000FFFFFFFFFFFFA6
:10402000FFFFFFFFFFFFFFFFFFFFFFFFFFFFFFFFA0
:10403000FFFFFFFFFFFFFFFF000000000000000088
:10404000000000000000000000000000FFFFFFFF74
:10405000FFFFFFFFFFFF0000000000000000000066
:10406000FFFFFFFFFFFFFFFFFFFFFFFFFFFFFFFF60
:10407000FFFFFFFF00000000000000000000000044
:104080000000000000000000FFFFFFFFFFFFFFFF38
:10409000FFFF000000000000000000000000000022
:1040A000000000000000FFFFFFFFFFFFFFFFFFFF1A
:1040B000FFFFFFFFFFFFFFFFFFFFFFFFFFFFFFFF10
:1040C000FFFFFFFF00000000000000000000FFFFF6
:1040D000FFFFFFFFFFFFFFFFFFFFFFFFFFFFFFFFF0
:1040E000FFFF0000000000000000000000000000D2
:1040F000000000000000FFFFFFFFFFFFFFFFFFFFCA
:1041000000000000000000000000FFFFFFFFFFFFB5
:10411000FFFFFFFFFFFFFFFFFFFFFFFFFFFFFFFFAF
:10412000FFFFFFFFFFFFFFFF000000000000000097
:10413000000000000000000000000000FFFFFFFF83
:10414000FFFFFFFFFFFFFFFFFFFFFFFFFFFFFFFF7F
:10415000000000000000000000000000000000005F
:1041600000000000FFFFFFFFFFFFFFFFFFFF000059
:104170000000000000000000FFFFFFFFFFFFFFFF47
:10418000FFFFFFFFFFFFFFFFFFFFFFFFFFFFFFFF3F
:10419000FFFFFFFFFFFF0000000000000000000025
:1041A00000000000000000000000FFFFFFFFFFFF15
:1041B000FFFFFFFFFFFFFFFFFFFFFFFFFFFFFFFF0F
:1041C000FFFFFFFFFFFFFFFF0000000000000000F7
:1041D0000000FFFFFFFFFFFFFFFFFFFFFFFFFFFFED
:1041E000FFFFFFFFFFFF00000000000000000000D5
:1041F000FFFFFFFFFFFFFFFFFFFFFFFFFFFFFFFFCF
:10420000FFFFFFFFFFFFFFFFFFFFFFFFFFFF0000BC
:104210000000000000000000FFFFFFFFFFFFFFFFA6
:10422000FFFFFFFFFFFFFFFFFFFFFFFF000000009A
:10423000000000000000000000000000000000007E
:10424000FFFFFFFFFFFFFFFFFFFF00000000000078
:1042500000000000FFFFFFFFFFFFFFFFFFFFFFFF6A
:10426000FFFFFFFFFFFFFFFFFFFFFFFFFFFFFFFF5E
:10427000FFFF000000000000000000000000000040
:10428000000000000000FFFFFFFFFFFFFFFFFFFF38
:10429000FFFFFFFFFFFFFFFFFFFF00000000000028
:1042A00000000000FFFFFFFFFFFFFFFFFFFFFFFF1A
:1042B000FFFFFFFFFFFFFFFFFFFFFFFFFFFFFFFF0E
:1042C000FFFF0000000000000000000000000000F0
:1042D000000000000000FFFFFFFFFFFFFFFFFFFFE8
:1042E00000000000000000000000000000000000CE
:1042F00000000000FFFFFFFFFFFFFFFFFFFFFFFFCA
:10430000FFFFFFFFFFFFFFFFFFFFFFFFFFFFFFFFBD
:10431000FFFF00000000000000000000FFFFFFFFA3
:10432000FFFFFFFFFFFFFFFFFFFFFFFFFFFFFFFF9D
:1043300000000000000000000000FFFFFFFFFFFF83
:10434000FFFFFFFFFFFFFFFFFFFFFFFFFFFFFFFF7D
:10435000FFFFFFFFFFFFFFFF000000000000000065
:104360000000FFFFFFFFFFFFFFFFFFFF0000000057
:10437000000000000000000000000000000000003D
:10438000FFFFFFFFFFFFFFFFFFFFFFFFFFFFFFFF3D
:10439000FFFFFFFFFFFFFFFFFFFFFFFFFFFF00002B
:1043A000000000000000000000000000000000000D
:1043B0000000FFFFFFFFFFFFFFFFFFFFFFFFFFFF0B
:1043C000FFFFFFFFFFFF00000000000000000000F3
:1043D000FFFFFFFFFFFFFFFFFFFFFFFFFFFFFFFFED
:1043E000FFFFFFFF000000000000000000000000D1
:1043F0000000000000000000FFFFFFFFFFFFFFFFC5
:10440000FFFF00000000000000000000FFFFFFFFB2
:10441000FFFFFFFFFFFFFFFFFFFFFFFFFFFFFFFFAC
:10442000FFFFFFFFFFFFFFFFFFFF00000000000096
:104430000000000000000000000000000000FFFF7E
:10444000FFFFFFFFFFFFFFFF000000000000000074
:104450000000FFFFFFFFFFFFFFFFFFFFFFFFFFFF6A
:10446000FFFFFFFFFFFFFFFFFFFFFFFFFFFFFFFF5C
:10447000FFFFFFFFFFFFFFFFFFFF00000000000046
:1044800000000000FFFFFFFFFFFFFFFFFFFF000036
:10449000000000000000000000000000000000001C
:1044A000000000000000000000000000FFFFFFFF10
:1044B000FFFFFFFFFFFFFFFFFFFFFFFFFFFFFFFF0C
:1044C00000000000000000000000000000000000EC
:1044D0000000000000000000000000000000FFFFDE
:1044E000FFFFFFFFFFFFFFFFFFFFFFFFFFFFFFFFDC
:1044F000FFFFFFFFFFFFFFFFFFFFFFFF00000000C8
:10450000000000000000FFFFFFFFFFFFFFFFFFFFB5
:1045100000000000000000000000FFFFFFFFFFFFA1
:10452000FFFFFFFFFFFFFFFFFFFFFFFFFFFF000099
:1045300001FFFFFFFFFFFFFFFFFFFFFFFFFFFFFF89
:10454000FFFFFFFF01FFFFFFFFFFFFFFFFFFFFFF79
:10455000FFFFFFFFFFFFFFFF01FFFFFFFFFFFFFF69
:10456000FFFFFFFFFFFFFFFFFFFFFFFF01FFFFFF59
:10457000FFFFFFFFFFFFFFFFFFFFFFFFFFFFFFFF4B
:1045800001FFFFFFFFFFFFFFFFFFFFFFFFFFFFFF39
:10459000FFFFFFFF01FF83C1F0783E00003E0FFFE9
:1045A000C01FFFC1E0F8000001FF83C1F0783E00AA
:1045B000003E0FFFC01FFFC1E0F8000001FF83C1F4
:1045C000F0783E00003E0FFFC01FFFC1E0F8000082
:1045D00001FF83C1F0783E00003E0FFFC01FFFC106
:1045E000E0F8000001FF83C1F0783E00003E0FFFBD
:1045F000C01FFFC1E0F8000001F003C0000001FF90
:1046000087C1FFF801E007FE00FFC01F01F003C0F3
:10461000000001FF87C1FFF801E007FE00FFC01F97
:1046200001F003C0000001FF87C1FFF801E007FEB1
:1046300000FFC01F01F003C0000001FF87C1FFF8A9
:1046400001E007FE00FFC01F01F0003E0FF83E0F23
:10465000803E0F003E1F07C1FFF83FE001F0003E23
:104660000FF83E0F803E0F003E1F07C1FFF83FE0EE
:1046700001F0003E0FF83E0F803E0F003E1F07C1C5
:10468000FFF83FE001F0003E0FF83E0F803E0F00C4
:104690003E1F07C1FFF83FE001F0003E0FF83E0F5C
:1046A000803E0F003E1F07C1FFF83FE001FF83FE81
:1046B0000F8001F07FC1FF07FE00FFC1E0FFFFFF99
:1046C00001FF83FE0F8001F07FC1FF07FE00FFC1E5
:1046D000E0FFFFFF01FF83FE0F8001F07FC1FF07B6
:1046E000FE00FFC1E0FFFFFF01FF83FE0F8001F02E
:1046F0007FC1FF07FE00FFC1E0FFFFFF01FF83FE58
:104700000F8001F07FC1FF07FE00FFC1E0FFFFFF48
:1047100001FF83C00F8001F0783E0F003E00FFFED6
:104720001FFFFC0001FF83C00F8001F0783E0F00E7
:104730003E00FFFE1FFFFC0001FF83C00F8001F061
:10474000783E0F003E00FFFE1FFFFC0001FF83C00C
:104750000F8001F0783E0F003E00FFFE1FFFFC00BF
:1047600001FF83C00F8001F0783E0F003E00FFFE86
:104770001FFFFC0001FFFFC0007FC1FF87FFFF009C
:104780003E1F07FFFFF803FF01FFFFC0007FC1FFCF
:1047900087FFFF003E1F07FFFFF803FF01FFFFC079
:1047A000007FC1FF87FFFF003E1F07FFFFF803FFE9
:1047B00001FFFFC0007FC1FF87FFFF003E1F07FF13
:1047C000FFF803FF01FF83C1FFF83FFF803E0FF8B2
:1047D0003E000001FFFFC00001FF83C1FFF83FFF63
:1047E000803E0FF83E000001FFFFC00001FF83C1C3
:1047F000FFF83FFF803E0FF83E000001FFFFC000C2
:1048000001FF83C1FFF83FFF803E0FF83E0000012B
:10481000FFFFC00001FF83C1FFF83FFF803E0FF89C
:104820003E000001FFFFC00001F07FC00FFFFFF05E
:104830007FC1FFFFFE00F8001FFFC3FF01F07FC034
:104840000FFFFFF07FC1FFFFFE00F8001FFFC3FF57
:1048500001F07FC00FFFFFF07FC1FFFFFE00F800F7
:104860001FFFC3FF01F07FC00FFFFFF07FC1FFFFFD
:10487000FE00F8001FFFC3FF01F07FC00FFFFFF035
:104880007FC1FFFFFE00F8001FFFC3FF01FF800193
:10489000F07FC0007FC00F003E00FFC1E0F83FE0A6
:1048A00001FF8001F07FC0007FC00F003E00FFC10C
:1048B000E0F83FE001FF8001F07FC0007FC00F0003
:1048C0003E00FFC1E0F83FE001FF8001F07FC00043
:1048D0007FC00F003E00FFC1E0F83FE001FF800114
:1048E000F07FC0007FC00F003E00FFC1E0F83FE056
:1048F00001FFFFC0007FFFF00001FFF83FFF003F16
:10490000E0003FFF01FFFFC0007FFFF00001FFF864
:104910003FFF003FE0003FFF01FFFFC0007FFFF0CF
:104920000001FFF83FFF003FE0003FFF01FFFFC035
:10493000007FFFF00001FFF83FFF003FE0003FFF76
:1049400001FFFFC0007FFFF00001FFF83FFF003FC5
:10495000E0003FFF01F07C3E0F87FFFF87C00F079D
:10496000FFE0FFC01FF803E001F07C3E0F87FFFF70
:1049700087C00F07FFE0FFC01FF803E001F07C3E97
:104980000F87FFFF87C00F07FFE0FFC01FF803E09E
:1049900001F07C3E0F87FFFF87C00F07FFE0FFC0DD
:1049A0001FF803E001FFFFC0007FC1FFF801FF0710
:1049B000C1E007C1E0F8001F01FFFFC0007FC1FF99
:1049C000F801FF07C1E007C1E0F8001F01FFFFC0C9
:1049D000007FC1FFF801FF07C1E007C1E0F8001F39
:1049E00001FFFFC0007FC1FFF801FF07C1E007C161
:1049F000E0F8001F01FFFFC0007FC1FFF801FF07C3
:104A0000C1E007C1E0F8001F01FFFC3FFFFFC00F3E
:104A100080000FFFFE0000001F003C0001FFFC3F74
:104A2000FFFFC00F80000FFFFE0000001F003C00D2
:104A300001FFFC3FFFFFC00F80000FFFFE000000E2
:104A40001F003C0001FFFC3FFFFFC00F80000FFF75
:104A5000FE0000001F003C0001FFFC3FFFFFC00FF5
:104A600080000FFFFE0000001F003C0001F07C00F2
:104A70000FFFFE000001FFF83FFFF801E0FFC3FF5A
:104A800001F07C000FFFFE000001FFF83FFFF8017E
:104A9000E0FFC3FF01F07C000FFFFE000001FFF804
:104AA0003FFFF801E0FFC3FF01F07C000FFFFE00B5
:104AB0000001FFF83FFFF801E0FFC3FF01F07C00B9
:104AC0000FFFFE000001FFF83FFFF801E0FFC3FF0A
:104AD00001F07C3E0F87C1F0783E0F07C1E0F83E41
:104AE0001F07C3E001F07C3E0F87C1F0783E0F073F
:104AF000C1E0F83E1F07C3E001F07C3E0F87C1F024
:104B0000783E0F07C1E0F83E1F07C3E001F07C3E8E
:104B10000F87C1F0783E0F07C1E0F83E1F07C3E0E2
:104B200001FFFFFFFFFFFFFFFFFFFFFFFFFFFFFF93
:104B3000FFFFFFFF01FFFFFFFFFFFFFFFFFFFFFF83
:104B4000FFFFFFFFFFFFFFFF01FFFFFFFFFFFFFF73
:104B5000FFFFFFFFFFFFFFFFFFFFFFFF01FFFFFF63
:104B6000FFFFFFFFFFFFFFFFFFFFFFFFFFFFFFFF55
:104B700001FFFFFFFFFFFFFFFFFFFFFFFFFFFFFF43
:104B8000FFFFFFFF01FFFC3FFFF8000F87C00FFF93
:104B9000C000FFC00007FC0001FFFC3FFFF8000F52
:104BA00087C00FFFC000FFC00007FC0001FFFC3FF3
:104BB000FFF8000F87C00FFFC000FFC00007FC0018
:104BC00001FFFC3FFFF8000F87C00FFFC000FFC0D0
:104BD0000007FC0001FFFC3FFFF8000F87C00FFF3C
:104BE000C000FFC00007FC0001F07FFFF00001F0F3
:104BF00007C1FFFFC1E0FFC01FFFFFFF01F07FFF04
:104C0000F00001F007C1FFFFC1E0FFC01FFFFFFF81
:104C100001F07FFFF00001F007C1FFFFC1E0FFC01E
:104C20001FFFFFFF01F07FFFF00001F007C1FFFF52
:104C3000C1E0FFC01FFFFFFF01F07FFFF00001F0A8
:104C400007C1FFFFC1E0FFC01FFFFFFF01F0003EF3
:104C5000007FFE0F87FE0F07FFFFF801E007FC0053
:104C600001F0003E007FFE0F87FE0F07FFFFF801F7
:104C7000E007FC0001F0003E007FFE0F87FE0F07FB
:104C8000FFFFF801E007FC0001F0003E007FFE0F8F
:104C900087FE0F07FFFFF801E007FC0001F003C1EA
:104CA000F078000FFFFFFFF80000F8001FF83C1F2E
:104CB00001F003C1F078000FFFFFFFF80000F800DB
:104CC0001FF83C1F01F003C1F078000FFFFFFFF851
:104CD0000000F8001FF83C1F01F003C1F078000F3E
:104CE000FFFFFFF80000F8001FF83C1F01F003C1B0
:104CF000F078000FFFFFFFF80000F8001FF83C1FDE
:104D000001F07C000F87C1FFF8000FFFFFE0FFC13B
:104D1000E0003C0001F07C000F87C1FFF8000FFFAE
:104D2000FFE0FFC1E0003C0001F07C000F87C1FF05
:104D3000F8000FFFFFE0FFC1E0003C0001F07C0045
:104D40000F87C1FFF8000FFFFFE0FFC1E0003C004C
:104D500001F07C000F87C1FFF8000FFFFFE0FFC1EB
:104D6000E0003C0001FF803FFF87C00F8001FFFF94
:104D7000C1E007FE000003FF01FF803FFF87C00F77
:104D80008001FFFFC1E007FE000003FF01FF803F3D
:104D9000FF87C00F8001FFFFC1E007FE000003FF97
:104DA00001FF803FFF87C00F8001FFFFC1E007FECA
:104DB000000003FF01FF803FFF87C00F8001FFFF5E
:104DC000C1E007FE000003FF01FF83C1F07FC000C8
:104DD00007FE0F07FFFF07FE00F83C0001FF83C13D
:104DE000F07FC00007FE0F07FFFF07FE00F83C0042
:104DF00001FF83C1F07FC00007FE0F07FFFF07FE22
:104E000000F83C0001FF83C1F07FC00007FE0F07E0
:104E1000FFFF07FE00F83C0001FF83C1F07FC000E8
:104E200007FE0F07FFFF07FE00F83C0001F07FFEC2
:104E30000FF800007FFFFF07C1FF0001E000001F27
:104E400001F07FFE0FF800007FFFFF07C1FF0001A8
:104E5000E000001F01F07FFE0FF800007FFFFF075A
:104E6000C1FF0001E000001F01F07FFE0FF800000D
:104E70007FFFFF07C1FF0001E000001F01FF80006E
:104E8000007801FF87C00FF8001F000000FFC0007E
:104E900001FF8000007801FF87C00FF8001F0000AD
:104EA00000FFC00001FF8000007801FF87C00FF8FD
:104EB000001F000000FFC00001FF8000007801FF1C
:104EC00087C00FF8001F000000FFC00001FF800036
:104ED000007801FF87C00FF8001F000000FFC0002E
:104EE00001FF803FF0783FFFFFC1FFF83E0007FE63
:104EF0001F003FFF01FF803FF0783FFFFFC1FFF839
:104F00003E0007FE1F003FFF01FF803FF0783FFF9C
:104F1000FFC1FFF83E0007FE1F003FFF01FF803F7B
:104F2000F0783FFFFFC1FFF83E0007FE1F003FFF84
:104F300001FF803FF0783FFFFFC1FFF83E0007FE12
:104F40001F003FFF01F003FE0078000FF8000F0084
:104F50003FFFFFC1E0F8000001F003FE0078000F02
:104F6000F8000F003FFFFFC1E0F8000001F003FE72
:104F70000078000FF8000F003FFFFFC1E0F80000CD
:104F800001F003FE0078000FF8000F003FFFFFC1A3
:104F9000E0F8000001F003FE0078000FF8000F00B9
:104FA0003FFFFFC1E0F8000001F07FC0007FFFF08D
:104FB000003FFF00001FF83FE0F803FF01F07FC053
:104FC000007FFFF0003FFF00001FF83FE0F803FF05
:104FD00001F07FC0007FFFF0003FFF00001FF83F9F
:104FE000E0F803FF01F07FC0007FFFF0003FFF000B
:104FF000001FF83FE0F803FF01F0003E0000000F43
:10500000FFFE0FFFC1E0FFFFFFFFC00001F0003E09
:105010000000000FFFFE0FFFC1E0FFFFFFFFC00019
:1050200001F0003E0000000FFFFE0FFFC1E0FFFF98
:10503000FFFFC00001F0003E0000000FFFFE0FFF69
:10504000C1E0FFFFFFFFC00001F0003E0000000FC5
:10505000FFFE0FFFC1E0FFFFFFFFC00001F00001F6
:10506000F07FC1F00001FFFFFE00F83FE0F8001FF5
:1050700001F00001F07FC1F00001FFFFFE00F83FEA
:10508000E0F8001F01F00001F07FC1F00001FFFF18
:10509000FE00F83FE0F8001F01F00001F07FC1F0D2
:1050A0000001FFFFFE00F83FE0F8001F01F00001E3
:1050B000F07FC1F00001FFFFFE00F83FE0F8001FA5
:1050C00001F07C3E0F87C1F0783E0F07C1E0F83E4B
:1050D0001F07C3E001F07C3E0F87C1F0783E0F0749
:1050E000C1E0F83E1F07C3E001F07C3E0F87C1F02E
:1050F000783E0F07C1E0F83E1F07C3E001F07C3E99
:105100000F87C1F0783E0F07C1E0F83E1F07C3E0EC
:1051100001F07C3E0F87C1F0783E0F07C1E0F83EFA
:105120001F07C3E0FFFFFFFFFFFFFFFF00000000BE
:10513000FFFFFFFF0000000000000000FFFFFFFF77
:10514000000000000000000000000000000000005F
:10515000FFFFFFFF00000000FFFFFFFF0000000057
:105160000000000000000000FFFFFFFFFFFFFFFF47
:10517000000000000000000000000000FFFFFFFF33
:10518000FFFFFFFF00000000FFFFFFFFFFFFFFFF2B
:10519000FFFFFFFF00000000000000000000000013
:1051A000FFFFFFFF00000000FFFFFFFFFFFFFFFF0B
:1051B00000000000FFFFFFFFFFFFFFFFFFFFFFFFFB
:1051C00000000000FFFFFFFF0000000000000000E3
:1051D00000000000FFFFFFFF00000000FFFFFFFFD7
:1051E000000000000000000000000000FFFFFFFFC3
:1051F000FFFFFFFF000000000000000000000000B3
:10520000FFFFFFFF00000000FFFFFFFFFFFFFFFFAA
:10521000FFFFFFFF00000000FFFFFFFFFFFFFFFF9A
:10522000000000000000000000000000FFFFFFFF82
:10523000FFFFFFFF00000000FFFFFFFF0000000076
:105240000000000000000000FFFFFFFF0000000062
:105250000000000000000000FFFFFFFFFFFFFFFF56
:1052600000000000FFFFFFFFFFFFFFFFFFFFFFFF4A
:105270000000000000000000FFFFFFFF0000000032
:1052800000000000FFFFFFFFFFFFFFFF0000000026
:10529000FFFFFFFFFFFFFFFFFFFFFFFF000000001A
:1052A00000000000FFFFFFFF000000000000000002
:1052B000FFFFFFFF00000000FFFFFFFFFFFFFFFFFA
:1052C00000000000FFFFFFFFFFFFFFFFFFFFFFFFEA
:1052D000000000000000000000000000FFFFFFFFD2
:1052E0000000000000000000FFFFFFFFFFFFFFFFC6
:1052F000FFFFFFFF0000000000000000FFFFFFFFB6
:10530000FFFFFFFF00000000FFFFFFFFFFFFFFFFA9
:10531000FFFFFFFF0000000000000000FFFFFFFF95
:1053200000000000FFFFFFFFFFFFFFFF0000000085
:1053300000000000FFFFFFFF000000000000000071
:1053400000000000FFFFFFFF00000000FFFFFFFF65
:10535000FFFFFFFF00000000000000000000000051
:10536000FFFFFFFF0000000000000000FFFFFFFF45
:10537000FFFFFFFF00000000FFFFFFFFFFFFFFFF39
:10538000FFFFFFFF0000000000000000FFFFFFFF25
:1053900000000000FFFFFFFFFFFFFFFFFFFFFFFF19
:1053A00000000000FFFFFFFFFFFFFFFF0000000005
:1053B0000000000000000000FFFFFFFFFFFFFFFFF5
:1053C00000000000FFFFFFFFFFFFFFFFFFFFFFFFE9
:1053D00000000000FFFFFFFFFFFFFFFFFFFFFFFFD9
:1053E00000000000FFFFFFFFFFFFFFFF00000000C5
:1053F000FFFFFFFFFFFFFFFFFFFFFFFF00000000B9
:105400000000000000000000FFFFFFFF00000000A0
:10541000FFFFFFFF0000000000000000FFFFFFFF94
:10542000FFFFFFFF00000000FFFFFFFFFFFFFFFF88
:10543000FFFFFFFF0000000000000000FFFFFFFF74
:10544000FFFFFFFF00000000000000000000000060
:10545000FFFFFFFFFFFFFFFFFFFFFFFF0000000058
:10546000FFFFFFFF00000000FFFFFFFFFFFFFFFF48
:10547000000000001FFFFFFFFE0001FFFC0FFFFF09
:10548000FFFF1FFFFFFFFE0001FFFC0FFFFFFFFFFD
:105490001FFFFFFFFE0001FFFC0FFFFFFFFF1FFFCD
:1054A000FFFFFE0001FFFC0FFFFFFFFF1FFFFFFFDD
:1054B000FE0001FFFC0FFFFFFFFF1F0000003E0F7B
:1054C000C1F07C0F8000001F1F0000003E0FC1F0E4
:1054D0007C0F8000001F1F0000003E0FC1F07C0FFA
:1054E0008000001F1F0000003E0FC1F07C0F8000F5
:1054F000001F1F0000003E0FC1F07C0F8000001F46
:105500001F07FFF83E000000000F83FFFC1F1F076E
:10551000FFF83E000000000F83FFFC1F1F07FFF88D
:105520003E000000000F83FFFC1F1F07FFF83E0036
:105530000000000F83FFFC1F1F07FFF83E00000064
:10554000000F83FFFC1F1F07FFF83E000000000F45
:1055500083FFFC1F1F07FFF83E0FFFF0000F83FFC4
:10556000FC1F1F07FFF83E0FFFF0000F83FFFC1F1B
:105570001F07FFF83E0FFFF0000F83FFFC1F1F0700
:10558000FFF83E0FFFF0000F83FFFC1F1F07FFF81F
:105590003E0FFFF0000F83FFFC1F1F07FFF83E0FB9
:1055A000FFFF800F83FFFC1F1F07FFF83E0FFFFF69
:1055B000800F83FFFC1F1F07FFF83E0FFFFF800FC8
:1055C00083FFFC1F1F07FFF83E0FFFFF800F83FFC5
:1055D000FC1F1F07FFF83E0FFFFF800F83FFFC1F1C
:1055E0001F0000003E003E007C0F8000001F1F00D7
:1055F00000003E003E007C0F8000001F1F000000E6
:105600003E003E007C0F8000001F1F0000003E0097
:105610003E007C0F8000001F1F0000003E003E0087
:105620007C0F8000001F1FFFFFFFFE0FC1F07C0FEB
:10563000FFFFFFFF1FFFFFFFFE0FC1F07C0FFFFF0B
:10564000FFFF1FFFFFFFFE0FC1F07C0FFFFFFFFFFB
:105650001FFFFFFFFE0FC1F07C0FFFFFFFFF1FFFCB
:10566000FFFFFE0FC1F07C0FFFFFFFFF00000000F7
:10567000000001FFFC00000000000000000000002E
:1056800001FFFC000000000000000000000001FF1E
:10569000FC000000000000000000000001FFFC0012
:1056A0000000000000000000000001FFFC000000FE
:1056B000000000000000000001FFFC0000000000EE
:1056C0001FF80007FFFFC000000F83FF00001FF856
:1056D0000007FFFFC000000F83FF00001FF8000756
:1056E000FFFFC000000F83FF00001FF80007FFFF4F
:1056F000C000000F83FF00001FF80007FFFFC0007D
:10570000000F83FF00001FF83F07FFF001FFFFF0CD
:10571000001FFFFF1FF83F07FFF001FFFFF0001F12
:10572000FFFF1FF83F07FFF001FFFFF0001FFFFF23
:105730001FF83F07FFF001FFFFF0001FFFFF1FF8FA
:105740003F07FFF001FFFFF0001FFFFF1FFFFF07F4
:10575000C1FFFFF003FFFFFF001F1FFFFF07C1FF97
:10576000FFF003FFFFFF001F1FFFFF07C1FFFFF058
:1057700003FFFFFF001F1FFFFF07C1FFFFF003FF35
:10578000FFFF001F1FFFFF07C1FFFFF003FFFFFF29
:10579000001F1F0000F83FFFC0000000001F03FFB4
:1057A0001F0000F83FFFC0000000001F03FF1F00A4
:1057B00000F83FFFC0000000001F03FF1F0000F8BB
:1057C0003FFFC0000000001F03FF1F0000F83FFF65
:1057D000C0000000001F03FF00003F07FE0FFFFF97
:1057E000FFFFFFE0001F00003F07FE0FFFFFFFFF6E
:1057F000FFE0001F00003F07FE0FFFFFFFFFFFE07D
:10580000001F00003F07FE0FFFFFFFFFFFE0001F2C
:1058100000003F07FE0FFFFFFFFFFFE0001F00003B
:105820003F07FE0FFFFFFFFFFFE0001F0007FF0025
:105830003E0FC1FF8000000000000007FF003E0F88
:10584000C1FF8000000000000007FF003E0FC1FF05
:105850008000000000000007FF003E0FC1FF800035
:10586000000000000007FF003E0FC1FF80000000A5
:1058700000000007C0003E0FC000000FFFFFFFFF49
:105880000007C0003E0FC000000FFFFFFFFF000732
:10589000C0003E0FC000000FFFFFFFFF0007C00069
:1058A0003E0FC000000FFFFFFFFF0007C0003E0FCC
:1058B000C000000FFFFFFFFF1FFFFFF800003FF0D9
:1058C000000F8000001F1FFFFFF800003FF0000FD7
:1058D0008000001F1FFFFFF800003FF0000F800056
:1058E000001F1FFFFFF800003FF0000F8000001FA7
:1058F0001FFFFFF800003FF0000F8000001F0000B6
:105900003FF801F03FFFFC0F83FFFC1F00003FF852
:1059100001F03FFFFC0F83FFFC1F00003FF801F088
:105920003FFFFC0F83FFFC1F00003FF801F03FFF2B
:10593000FC0F83FFFC1F00003FF801F03FFFFC0F4E
:1059400083FFFC1F1FFFC000000000007C0F83FFCF
:10595000FC1F1FFFC000000000007C0F83FFFC1F26
:105960001FFFC000000000007C0F83FFFC1F1FFF13
:10597000C000000000007C0F83FFFC1F1FFFC00061
:10598000000000007C0F83FFFC1F1FFFC000000011
:1059900000007C0F83FFFC1F1FF83FFFC1FFFFFFCC
:1059A000800F83FFFC1F1FF83FFFC1FFFFFF800F29
:1059B00083FFFC1F1FF83FFFC1FFFFFF800F83FF26
:1059C000FC1F1FF83FFFC1FFFFFF800F83FFFC1F7D
:1059D0001FF83FFFC1FFFFFF800F83FFFC1F000781
:1059E000C0003E0FFE00000F8000001F0007C00037
:1059F0003E0FFE00000F8000001F0007C0003E0F9A
:105A0000FE00000F8000001F0007C0003E0FFE00D8
:105A1000000F8000001F0007C0003E0FFE00000FB7
:105A20008000001F00FFC0F801F03FF0000FFFFFF3
:105A3000FFFF00FFC0F801F03FF0000FFFFFFFFF86
:105A400000FFC0F801F03FF0000FFFFFFFFF00FF75
:105A5000C0F801F03FF0000FFFFFFFFF00FFC0F8AC
:105A600001F03FF0000FFFFFFFFF0000000000000B
:105A700000000000000000000505060C0B0E0C03E2
:105A80000707080B040605080B0B0B0B0B0B0B0B86
:105A90000B0B05050A0B0A09110D0C0C0C0B0A0D5A
:105AA0000E050B0C0A110D0D0C0D0C0B0C0C0C1132
:105AB0000C0C0B0508050809060A0B0A0B0A070B54
:105AC0000B05050A05110B0B0B0B070A060B090E3C
:105AD0000A090A0605060D0000000000000000008B
